{
  "contractName": "BaseRegistrarImplementation",
  "abi": [
    {
      "inputs": [
        {
          "internalType": "contract ENS",
          "name": "_ens",
          "type": "address"
        },
        {
          "internalType": "bytes32",
          "name": "_baseNode",
          "type": "bytes32"
        }
      ],
      "stateMutability": "nonpayable",
      "type": "constructor"
    },
    {
      "anonymous": false,
      "inputs": [
        {
          "indexed": true,
          "internalType": "address",
          "name": "owner",
          "type": "address"
        },
        {
          "indexed": true,
          "internalType": "address",
          "name": "approved",
          "type": "address"
        },
        {
          "indexed": true,
          "internalType": "uint256",
          "name": "tokenId",
          "type": "uint256"
        }
      ],
      "name": "Approval",
      "type": "event"
    },
    {
      "anonymous": false,
      "inputs": [
        {
          "indexed": true,
          "internalType": "address",
          "name": "owner",
          "type": "address"
        },
        {
          "indexed": true,
          "internalType": "address",
          "name": "operator",
          "type": "address"
        },
        {
          "indexed": false,
          "internalType": "bool",
          "name": "approved",
          "type": "bool"
        }
      ],
      "name": "ApprovalForAll",
      "type": "event"
    },
    {
      "anonymous": false,
      "inputs": [
        {
          "indexed": true,
          "internalType": "address",
          "name": "controller",
          "type": "address"
        }
      ],
      "name": "ControllerAdded",
      "type": "event"
    },
    {
      "anonymous": false,
      "inputs": [
        {
          "indexed": true,
          "internalType": "address",
          "name": "controller",
          "type": "address"
        }
      ],
      "name": "ControllerRemoved",
      "type": "event"
    },
    {
      "anonymous": false,
      "inputs": [
        {
          "indexed": true,
          "internalType": "uint256",
          "name": "id",
          "type": "uint256"
        },
        {
          "indexed": true,
          "internalType": "address",
          "name": "owner",
          "type": "address"
        }
      ],
      "name": "NameMigrated",
      "type": "event"
    },
    {
      "anonymous": false,
      "inputs": [
        {
          "indexed": true,
          "internalType": "uint256",
          "name": "id",
          "type": "uint256"
        },
        {
          "indexed": true,
          "internalType": "address",
          "name": "owner",
          "type": "address"
        },
        {
          "indexed": false,
          "internalType": "uint256",
          "name": "expires",
          "type": "uint256"
        }
      ],
      "name": "NameMigrated",
      "type": "event"
    },
    {
      "anonymous": false,
      "inputs": [
        {
          "indexed": true,
          "internalType": "uint256",
          "name": "id",
          "type": "uint256"
        },
        {
          "indexed": true,
          "internalType": "address",
          "name": "owner",
          "type": "address"
        }
      ],
      "name": "NameRegistered",
      "type": "event"
    },
    {
      "anonymous": false,
      "inputs": [
        {
          "indexed": true,
          "internalType": "uint256",
          "name": "id",
          "type": "uint256"
        },
        {
          "indexed": true,
          "internalType": "address",
          "name": "owner",
          "type": "address"
        },
        {
          "indexed": false,
          "internalType": "uint256",
          "name": "expires",
          "type": "uint256"
        }
      ],
      "name": "NameRegistered",
      "type": "event"
    },
    {
      "anonymous": false,
      "inputs": [
        {
          "indexed": true,
          "internalType": "uint256",
          "name": "id",
          "type": "uint256"
        },
        {
          "indexed": false,
          "internalType": "uint256",
          "name": "expires",
          "type": "uint256"
        }
      ],
      "name": "NameRenewed",
      "type": "event"
    },
    {
      "anonymous": false,
      "inputs": [
        {
          "indexed": true,
          "internalType": "address",
          "name": "previousOwner",
          "type": "address"
        },
        {
          "indexed": true,
          "internalType": "address",
          "name": "newOwner",
          "type": "address"
        }
      ],
      "name": "OwnershipTransferred",
      "type": "event"
    },
    {
      "anonymous": false,
      "inputs": [
        {
          "indexed": true,
          "internalType": "address",
          "name": "from",
          "type": "address"
        },
        {
          "indexed": true,
          "internalType": "address",
          "name": "to",
          "type": "address"
        },
        {
          "indexed": true,
          "internalType": "uint256",
          "name": "tokenId",
          "type": "uint256"
        }
      ],
      "name": "Transfer",
      "type": "event"
    },
    {
      "inputs": [],
      "name": "GRACE_PERIOD",
      "outputs": [
        {
          "internalType": "uint256",
          "name": "",
          "type": "uint256"
        }
      ],
      "stateMutability": "view",
      "type": "function"
    },
    {
      "inputs": [
        {
          "internalType": "address",
          "name": "to",
          "type": "address"
        },
        {
          "internalType": "uint256",
          "name": "tokenId",
          "type": "uint256"
        }
      ],
      "name": "approve",
      "outputs": [],
      "stateMutability": "nonpayable",
      "type": "function"
    },
    {
      "inputs": [
        {
          "internalType": "address",
          "name": "owner",
          "type": "address"
        }
      ],
      "name": "balanceOf",
      "outputs": [
        {
          "internalType": "uint256",
          "name": "",
          "type": "uint256"
        }
      ],
      "stateMutability": "view",
      "type": "function"
    },
    {
      "inputs": [],
      "name": "baseNode",
      "outputs": [
        {
          "internalType": "bytes32",
          "name": "",
          "type": "bytes32"
        }
      ],
      "stateMutability": "view",
      "type": "function"
    },
    {
      "inputs": [
        {
          "internalType": "address",
          "name": "",
          "type": "address"
        }
      ],
      "name": "controllers",
      "outputs": [
        {
          "internalType": "bool",
          "name": "",
          "type": "bool"
        }
      ],
      "stateMutability": "view",
      "type": "function"
    },
    {
      "inputs": [],
      "name": "ens",
      "outputs": [
        {
          "internalType": "contract ENS",
          "name": "",
          "type": "address"
        }
      ],
      "stateMutability": "view",
      "type": "function"
    },
    {
      "inputs": [
        {
          "internalType": "uint256",
          "name": "tokenId",
          "type": "uint256"
        }
      ],
      "name": "getApproved",
      "outputs": [
        {
          "internalType": "address",
          "name": "",
          "type": "address"
        }
      ],
      "stateMutability": "view",
      "type": "function"
    },
    {
      "inputs": [
        {
          "internalType": "address",
          "name": "owner",
          "type": "address"
        },
        {
          "internalType": "address",
          "name": "operator",
          "type": "address"
        }
      ],
      "name": "isApprovedForAll",
      "outputs": [
        {
          "internalType": "bool",
          "name": "",
          "type": "bool"
        }
      ],
      "stateMutability": "view",
      "type": "function"
    },
    {
      "inputs": [],
      "name": "name",
      "outputs": [
        {
          "internalType": "string",
          "name": "",
          "type": "string"
        }
      ],
      "stateMutability": "view",
      "type": "function"
    },
    {
      "inputs": [],
      "name": "owner",
      "outputs": [
        {
          "internalType": "address",
          "name": "",
          "type": "address"
        }
      ],
      "stateMutability": "view",
      "type": "function"
    },
    {
      "inputs": [],
      "name": "renounceOwnership",
      "outputs": [],
      "stateMutability": "nonpayable",
      "type": "function"
    },
    {
      "inputs": [
        {
          "internalType": "address",
          "name": "from",
          "type": "address"
        },
        {
          "internalType": "address",
          "name": "to",
          "type": "address"
        },
        {
          "internalType": "uint256",
          "name": "tokenId",
          "type": "uint256"
        }
      ],
      "name": "safeTransferFrom",
      "outputs": [],
      "stateMutability": "nonpayable",
      "type": "function"
    },
    {
      "inputs": [
        {
          "internalType": "address",
          "name": "from",
          "type": "address"
        },
        {
          "internalType": "address",
          "name": "to",
          "type": "address"
        },
        {
          "internalType": "uint256",
          "name": "tokenId",
          "type": "uint256"
        },
        {
          "internalType": "bytes",
          "name": "_data",
          "type": "bytes"
        }
      ],
      "name": "safeTransferFrom",
      "outputs": [],
      "stateMutability": "nonpayable",
      "type": "function"
    },
    {
      "inputs": [
        {
          "internalType": "address",
          "name": "operator",
          "type": "address"
        },
        {
          "internalType": "bool",
          "name": "approved",
          "type": "bool"
        }
      ],
      "name": "setApprovalForAll",
      "outputs": [],
      "stateMutability": "nonpayable",
      "type": "function"
    },
    {
      "inputs": [],
      "name": "symbol",
      "outputs": [
        {
          "internalType": "string",
          "name": "",
          "type": "string"
        }
      ],
      "stateMutability": "view",
      "type": "function"
    },
    {
      "inputs": [
        {
          "internalType": "uint256",
          "name": "tokenId",
          "type": "uint256"
        }
      ],
      "name": "tokenURI",
      "outputs": [
        {
          "internalType": "string",
          "name": "",
          "type": "string"
        }
      ],
      "stateMutability": "view",
      "type": "function"
    },
    {
      "inputs": [
        {
          "internalType": "address",
          "name": "from",
          "type": "address"
        },
        {
          "internalType": "address",
          "name": "to",
          "type": "address"
        },
        {
          "internalType": "uint256",
          "name": "tokenId",
          "type": "uint256"
        }
      ],
      "name": "transferFrom",
      "outputs": [],
      "stateMutability": "nonpayable",
      "type": "function"
    },
    {
      "inputs": [
        {
          "internalType": "address",
          "name": "newOwner",
          "type": "address"
        }
      ],
      "name": "transferOwnership",
      "outputs": [],
      "stateMutability": "nonpayable",
      "type": "function"
    },
    {
      "inputs": [
        {
          "internalType": "uint256",
          "name": "tokenId",
          "type": "uint256"
        }
      ],
      "name": "ownerOf",
      "outputs": [
        {
          "internalType": "address",
          "name": "",
          "type": "address"
        }
      ],
      "stateMutability": "view",
      "type": "function"
    },
    {
      "inputs": [
        {
          "internalType": "address",
          "name": "controller",
          "type": "address"
        }
      ],
      "name": "addController",
      "outputs": [],
      "stateMutability": "nonpayable",
      "type": "function"
    },
    {
      "inputs": [
        {
          "internalType": "address",
          "name": "controller",
          "type": "address"
        }
      ],
      "name": "removeController",
      "outputs": [],
      "stateMutability": "nonpayable",
      "type": "function"
    },
    {
      "inputs": [
        {
          "internalType": "address",
          "name": "resolver",
          "type": "address"
        }
      ],
      "name": "setResolver",
      "outputs": [],
      "stateMutability": "nonpayable",
      "type": "function"
    },
    {
      "inputs": [
        {
          "internalType": "uint256",
          "name": "id",
          "type": "uint256"
        }
      ],
      "name": "nameExpires",
      "outputs": [
        {
          "internalType": "uint256",
          "name": "",
          "type": "uint256"
        }
      ],
      "stateMutability": "view",
      "type": "function"
    },
    {
      "inputs": [
        {
          "internalType": "uint256",
          "name": "id",
          "type": "uint256"
        }
      ],
      "name": "available",
      "outputs": [
        {
          "internalType": "bool",
          "name": "",
          "type": "bool"
        }
      ],
      "stateMutability": "view",
      "type": "function"
    },
    {
      "inputs": [
        {
          "internalType": "uint256",
          "name": "id",
          "type": "uint256"
        },
        {
          "internalType": "address",
          "name": "owner",
          "type": "address"
        },
        {
          "internalType": "uint256",
          "name": "duration",
          "type": "uint256"
        }
      ],
      "name": "register",
      "outputs": [
        {
          "internalType": "uint256",
          "name": "",
          "type": "uint256"
        }
      ],
      "stateMutability": "nonpayable",
      "type": "function"
    },
    {
      "inputs": [
        {
          "internalType": "uint256",
          "name": "id",
          "type": "uint256"
        },
        {
          "internalType": "address",
          "name": "owner",
          "type": "address"
        },
        {
          "internalType": "uint256",
          "name": "duration",
          "type": "uint256"
        }
      ],
      "name": "registerOnly",
      "outputs": [
        {
          "internalType": "uint256",
          "name": "",
          "type": "uint256"
        }
      ],
      "stateMutability": "nonpayable",
      "type": "function"
    },
    {
      "inputs": [
        {
          "internalType": "uint256",
          "name": "id",
          "type": "uint256"
        },
        {
          "internalType": "uint256",
          "name": "duration",
          "type": "uint256"
        }
      ],
      "name": "renew",
      "outputs": [
        {
          "internalType": "uint256",
          "name": "",
          "type": "uint256"
        }
      ],
      "stateMutability": "nonpayable",
      "type": "function"
    },
    {
      "inputs": [
        {
          "internalType": "uint256",
          "name": "id",
          "type": "uint256"
        },
        {
          "internalType": "address",
          "name": "owner",
          "type": "address"
        }
      ],
      "name": "reclaim",
      "outputs": [],
      "stateMutability": "nonpayable",
      "type": "function"
    },
    {
      "inputs": [
        {
          "internalType": "bytes4",
          "name": "interfaceId",
          "type": "bytes4"
        }
      ],
      "name": "supportsInterface",
      "outputs": [
        {
          "internalType": "bool",
          "name": "",
          "type": "bool"
        }
      ],
      "stateMutability": "view",
      "type": "function"
    }
  ],
  "bytecode": "0x60806040523480156200001157600080fd5b5060405162003ff938038062003ff98339818101604052810190620000379190620002f1565b6040518060400160405280601381526020017f5468657461626f617264526567697374726172000000000000000000000000008152506040518060400160405280600381526020017f5442520000000000000000000000000000000000000000000000000000000000815250620000c3620000b76200014760201b60201c565b6200014f60201b60201c565b8160049080519060200190620000db92919062000213565b508060059080519060200190620000f492919062000213565b50505081600160006101000a81548173ffffffffffffffffffffffffffffffffffffffff021916908373ffffffffffffffffffffffffffffffffffffffff1602179055508060028190555050506200041d565b600033905090565b60008060009054906101000a900473ffffffffffffffffffffffffffffffffffffffff169050816000806101000a81548173ffffffffffffffffffffffffffffffffffffffff021916908373ffffffffffffffffffffffffffffffffffffffff1602179055508173ffffffffffffffffffffffffffffffffffffffff168173ffffffffffffffffffffffffffffffffffffffff167f8be0079c531659141344cd1fd0a4f28419497f9722a3daafe3b4186f6b6457e060405160405180910390a35050565b828054620002219062000384565b90600052602060002090601f01602090048101928262000245576000855562000291565b82601f106200026057805160ff191683800117855562000291565b8280016001018555821562000291579182015b828111156200029057825182559160200191906001019062000273565b5b509050620002a09190620002a4565b5090565b5b80821115620002bf576000816000905550600101620002a5565b5090565b600081519050620002d481620003e9565b92915050565b600081519050620002eb8162000403565b92915050565b600080604083850312156200030557600080fd5b60006200031585828601620002da565b92505060206200032885828601620002c3565b9150509250929050565b60006200033f8262000364565b9050919050565b6000819050919050565b60006200035d8262000332565b9050919050565b600073ffffffffffffffffffffffffffffffffffffffff82169050919050565b600060028204905060018216806200039d57607f821691505b60208210811415620003b457620003b3620003ba565b5b50919050565b7f4e487b7100000000000000000000000000000000000000000000000000000000600052602260045260246000fd5b620003f48162000346565b81146200040057600080fd5b50565b6200040e8162000350565b81146200041a57600080fd5b50565b613bcc806200042d6000396000f3fe608060405234801561001057600080fd5b50600436106101cf5760003560e01c806395d89b4111610104578063c87b56dd116100a2578063e985e9c511610071578063e985e9c514610552578063f2fde38b14610582578063f6a74ed71461059e578063fca247ac146105ba576101cf565b8063c87b56dd146104a4578063d6e4fa86146104d4578063da8c229e14610504578063ddf7fcb014610534576101cf565b8063a7fc7a07116100de578063a7fc7a071461041e578063b88d4fde1461043a578063c1a287e214610456578063c475abff14610474576101cf565b806395d89b41146103b457806396e494e8146103d2578063a22cb46514610402576101cf565b80633f15457f116101715780636352211e1161014b5780636352211e1461032c57806370a082311461035c578063715018a61461038c5780638da5cb5b14610396576101cf565b80633f15457f146102d657806342842e0e146102f45780634e543b2614610310576101cf565b8063095ea7b3116101ad578063095ea7b3146102525780630e297b451461026e57806323b872dd1461029e57806328ed4f6c146102ba576101cf565b806301ffc9a7146101d457806306fdde0314610204578063081812fc14610222575b600080fd5b6101ee60048036038101906101e99190612b10565b6105ea565b6040516101fb9190612ffb565b60405180910390f35b61020c610834565b60405161021991906130ac565b60405180910390f35b61023c60048036038101906102379190612b62565b6108c6565b6040516102499190612f94565b60405180910390f35b61026c60048036038101906102679190612aab565b61094b565b005b61028860048036038101906102839190612bc7565b610a63565b60405161029591906132ce565b60405180910390f35b6102b860048036038101906102b391906129a5565b610a7b565b005b6102d460048036038101906102cf9190612b8b565b610adb565b005b6102de610c8d565b6040516102eb9190613091565b60405180910390f35b61030e600480360381019061030991906129a5565b610cb3565b005b61032a60048036038101906103259190612917565b610cd3565b005b61034660048036038101906103419190612b62565b610de3565b6040516103539190612f94565b60405180910390f35b61037660048036038101906103719190612917565b610df5565b60405161038391906132ce565b60405180910390f35b610394610ead565b005b61039e610f35565b6040516103ab9190612f94565b60405180910390f35b6103bc610f5e565b6040516103c991906130ac565b60405180910390f35b6103ec60048036038101906103e79190612b62565b610ff0565b6040516103f99190612ffb565b60405180910390f35b61041c60048036038101906104179190612a6f565b61101d565b005b61043860048036038101906104339190612917565b61119e565b005b610454600480360381019061044f91906129f4565b6112b8565b005b61045e61131a565b60405161046b91906132ce565b60405180910390f35b61048e60048036038101906104899190612c16565b611321565b60405161049b91906132ce565b60405180910390f35b6104be60048036038101906104b99190612b62565b611562565b6040516104cb91906130ac565b60405180910390f35b6104ee60048036038101906104e99190612b62565b611609565b6040516104fb91906132ce565b60405180910390f35b61051e60048036038101906105199190612917565b611626565b60405161052b9190612ffb565b60405180910390f35b61053c611646565b6040516105499190613016565b60405180910390f35b61056c60048036038101906105679190612969565b61164c565b6040516105799190612ffb565b60405180910390f35b61059c60048036038101906105979190612917565b6116e0565b005b6105b860048036038101906105b39190612917565b6117d8565b005b6105d460048036038101906105cf9190612bc7565b6118f2565b6040516105e191906132ce565b60405180910390f35b60007f01ffc9a7a5cef8baa21ed3c5c0d7e23accb804b619e9333b597f47a0d84076e27bffffffffffffffffffffffffffffffffffffffffffffffffffffffff1916827bffffffffffffffffffffffffffffffffffffffffffffffffffffffff191614806107c557507fb88d4fde60196325a28bb7f99a2582e0b46de55b18761e960c14ad7a320994657f42842e0eb38857a7775b4e7364b2775df7325074d088e7fb39590cd6281184ed7f23b872dd7302113369cda2901243429419bec145408fa8b352b3dd92b66c680b7fe985e9c5c6636c6879256001057b28ccac7718ef0ac56553ff9b926452cab8a37fa22cb4651ab9570f89bb516380c40ce76762284fb1f21337ceaf6adab99e7d4a7f081812fc55e34fdc7cf5d8b5cf4e3621fa6423fde952ec6ab24afdc0d85c0b2e7f095ea7b334ae44009aa867bfb386f5c3b4b443ac6f0ee573fa91c4608fbadfba7f6352211e6566aa027e75ac9dbf2423197fbd9b82b9d981a3ab367d355866aa1c7f70a08231b98ef4ca268c9cc3f6b4590e4bfec28280db06bb5d45e689f2a360be18181818181818187bffffffffffffffffffffffffffffffffffffffffffffffffffffffff1916827bffffffffffffffffffffffffffffffffffffffffffffffffffffffff1916145b8061082d57507f28ed4f6c74b219a5819055dfbcd2f1837c046c364cf01fabb6799e4f440d6f137bffffffffffffffffffffffffffffffffffffffffffffffffffffffff1916827bffffffffffffffffffffffffffffffffffffffffffffffffffffffff1916145b9050919050565b60606004805461084390613521565b80601f016020809104026020016040519081016040528092919081815260200182805461086f90613521565b80156108bc5780601f10610891576101008083540402835291602001916108bc565b820191906000526020600020905b81548152906001019060200180831161089f57829003601f168201915b5050505050905090565b60006108d18261190a565b610910576040517f08c379a00000000000000000000000000000000000000000000000000000000081526004016109079061320e565b60405180910390fd5b6008600083815260200190815260200160002060009054906101000a900473ffffffffffffffffffffffffffffffffffffffff169050919050565b600061095682611976565b90508073ffffffffffffffffffffffffffffffffffffffff168373ffffffffffffffffffffffffffffffffffffffff1614156109c7576040517f08c379a00000000000000000000000000000000000000000000000000000000081526004016109be9061328e565b60405180910390fd5b8073ffffffffffffffffffffffffffffffffffffffff166109e6611a28565b73ffffffffffffffffffffffffffffffffffffffff161480610a155750610a1481610a0f611a28565b61164c565b5b610a54576040517f08c379a0000000000000000000000000000000000000000000000000000000008152600401610a4b9061318e565b60405180910390fd5b610a5e8383611a30565b505050565b6000610a728484846000611ae9565b90509392505050565b610a8c610a86611a28565b82611d70565b610acb576040517f08c379a0000000000000000000000000000000000000000000000000000000008152600401610ac2906132ae565b60405180910390fd5b610ad6838383611e4e565b505050565b3073ffffffffffffffffffffffffffffffffffffffff16600160009054906101000a900473ffffffffffffffffffffffffffffffffffffffff1673ffffffffffffffffffffffffffffffffffffffff166302571be36002546040518263ffffffff1660e01b8152600401610b4f9190613016565b60206040518083038186803b158015610b6757600080fd5b505afa158015610b7b573d6000803e3d6000fd5b505050506040513d601f19601f82011682018060405250810190610b9f9190612940565b73ffffffffffffffffffffffffffffffffffffffff1614610bbf57600080fd5b610bc93383611d70565b610bd257600080fd5b600160009054906101000a900473ffffffffffffffffffffffffffffffffffffffff1673ffffffffffffffffffffffffffffffffffffffff166306ab59236002548460001b846040518463ffffffff1660e01b8152600401610c369392919061305a565b602060405180830381600087803b158015610c5057600080fd5b505af1158015610c64573d6000803e3d6000fd5b505050506040513d601f19601f82011682018060405250810190610c889190612ae7565b505050565b600160009054906101000a900473ffffffffffffffffffffffffffffffffffffffff1681565b610cce838383604051806020016040528060008152506112b8565b505050565b610cdb611a28565b73ffffffffffffffffffffffffffffffffffffffff16610cf9610f35565b73ffffffffffffffffffffffffffffffffffffffff1614610d4f576040517f08c379a0000000000000000000000000000000000000000000000000000000008152600401610d469061322e565b60405180910390fd5b600160009054906101000a900473ffffffffffffffffffffffffffffffffffffffff1673ffffffffffffffffffffffffffffffffffffffff16631896f70a600254836040518363ffffffff1660e01b8152600401610dae929190613031565b600060405180830381600087803b158015610dc857600080fd5b505af1158015610ddc573d6000803e3d6000fd5b5050505050565b6000610dee82611976565b9050919050565b60008073ffffffffffffffffffffffffffffffffffffffff168273ffffffffffffffffffffffffffffffffffffffff161415610e66576040517f08c379a0000000000000000000000000000000000000000000000000000000008152600401610e5d906131ae565b60405180910390fd5b600760008373ffffffffffffffffffffffffffffffffffffffff1673ffffffffffffffffffffffffffffffffffffffff168152602001908152602001600020549050919050565b610eb5611a28565b73ffffffffffffffffffffffffffffffffffffffff16610ed3610f35565b73ffffffffffffffffffffffffffffffffffffffff1614610f29576040517f08c379a0000000000000000000000000000000000000000000000000000000008152600401610f209061322e565b60405180910390fd5b610f3360006120aa565b565b60008060009054906101000a900473ffffffffffffffffffffffffffffffffffffffff16905090565b606060058054610f6d90613521565b80601f0160208091040260200160405190810160405280929190818152602001828054610f9990613521565b8015610fe65780601f10610fbb57610100808354040283529160200191610fe6565b820191906000526020600020905b815481529060010190602001808311610fc957829003601f168201915b5050505050905090565b6000426276a700600a6000858152602001908152602001600020546110159190613382565b109050919050565b611025611a28565b73ffffffffffffffffffffffffffffffffffffffff168273ffffffffffffffffffffffffffffffffffffffff161415611093576040517f08c379a000000000000000000000000000000000000000000000000000000000815260040161108a9061314e565b60405180910390fd5b80600960006110a0611a28565b73ffffffffffffffffffffffffffffffffffffffff1673ffffffffffffffffffffffffffffffffffffffff16815260200190815260200160002060008473ffffffffffffffffffffffffffffffffffffffff1673ffffffffffffffffffffffffffffffffffffffff16815260200190815260200160002060006101000a81548160ff0219169083151502179055508173ffffffffffffffffffffffffffffffffffffffff1661114d611a28565b73ffffffffffffffffffffffffffffffffffffffff167f17307eab39ab6107e8899845ad3d59bd9653f200f220920489ca2b5937696c31836040516111929190612ffb565b60405180910390a35050565b6111a6611a28565b73ffffffffffffffffffffffffffffffffffffffff166111c4610f35565b73ffffffffffffffffffffffffffffffffffffffff161461121a576040517f08c379a00000000000000000000000000000000000000000000000000000000081526004016112119061322e565b60405180910390fd5b6001600360008373ffffffffffffffffffffffffffffffffffffffff1673ffffffffffffffffffffffffffffffffffffffff16815260200190815260200160002060006101000a81548160ff0219169083151502179055508073ffffffffffffffffffffffffffffffffffffffff167f0a8bb31534c0ed46f380cb867bd5c803a189ced9a764e30b3a4991a9901d747460405160405180910390a250565b6112c96112c3611a28565b83611d70565b611308576040517f08c379a00000000000000000000000000000000000000000000000000000000081526004016112ff906132ae565b60405180910390fd5b6113148484848461216e565b50505050565b6276a70081565b60003073ffffffffffffffffffffffffffffffffffffffff16600160009054906101000a900473ffffffffffffffffffffffffffffffffffffffff1673ffffffffffffffffffffffffffffffffffffffff166302571be36002546040518263ffffffff1660e01b81526004016113979190613016565b60206040518083038186803b1580156113af57600080fd5b505afa1580156113c3573d6000803e3d6000fd5b505050506040513d601f19601f820116820180604052508101906113e79190612940565b73ffffffffffffffffffffffffffffffffffffffff161461140757600080fd5b600360003373ffffffffffffffffffffffffffffffffffffffff1673ffffffffffffffffffffffffffffffffffffffff16815260200190815260200160002060009054906101000a900460ff1661145d57600080fd5b426276a700600a6000868152602001908152602001600020546114809190613382565b101561148b57600080fd5b6276a7008261149a9190613382565b6276a70083600a6000878152602001908152602001600020546114bd9190613382565b6114c79190613382565b116114d157600080fd5b81600a600085815260200190815260200160002060008282546114f49190613382565b92505081905550827f9b87a00e30f1ac65d898f070f8a3488fe60517182d0a2098e1b4b93a54aa9bd6600a60008681526020019081526020016000205460405161153e91906132ce565b60405180910390a2600a600084815260200190815260200160002054905092915050565b606061156d8261190a565b6115ac576040517f08c379a00000000000000000000000000000000000000000000000000000000081526004016115a39061326e565b60405180910390fd5b60006115b66121ca565b905060008151116115d65760405180602001604052806000815250611601565b806115e0846121e1565b6040516020016115f1929190612f70565b6040516020818303038152906040525b915050919050565b6000600a6000838152602001908152602001600020549050919050565b60036020528060005260406000206000915054906101000a900460ff1681565b60025481565b6000600960008473ffffffffffffffffffffffffffffffffffffffff1673ffffffffffffffffffffffffffffffffffffffff16815260200190815260200160002060008373ffffffffffffffffffffffffffffffffffffffff1673ffffffffffffffffffffffffffffffffffffffff16815260200190815260200160002060009054906101000a900460ff16905092915050565b6116e8611a28565b73ffffffffffffffffffffffffffffffffffffffff16611706610f35565b73ffffffffffffffffffffffffffffffffffffffff161461175c576040517f08c379a00000000000000000000000000000000000000000000000000000000081526004016117539061322e565b60405180910390fd5b600073ffffffffffffffffffffffffffffffffffffffff168173ffffffffffffffffffffffffffffffffffffffff1614156117cc576040517f08c379a00000000000000000000000000000000000000000000000000000000081526004016117c3906130ee565b60405180910390fd5b6117d5816120aa565b50565b6117e0611a28565b73ffffffffffffffffffffffffffffffffffffffff166117fe610f35565b73ffffffffffffffffffffffffffffffffffffffff1614611854576040517f08c379a000000000000000000000000000000000000000000000000000000000815260040161184b9061322e565b60405180910390fd5b6000600360008373ffffffffffffffffffffffffffffffffffffffff1673ffffffffffffffffffffffffffffffffffffffff16815260200190815260200160002060006101000a81548160ff0219169083151502179055508073ffffffffffffffffffffffffffffffffffffffff167f33d83959be2573f5453b12eb9d43b3499bc57d96bd2f067ba44803c859e8111360405160405180910390a250565b60006119018484846001611ae9565b90509392505050565b60008073ffffffffffffffffffffffffffffffffffffffff166006600084815260200190815260200160002060009054906101000a900473ffffffffffffffffffffffffffffffffffffffff1673ffffffffffffffffffffffffffffffffffffffff1614159050919050565b6000806006600084815260200190815260200160002060009054906101000a900473ffffffffffffffffffffffffffffffffffffffff169050600073ffffffffffffffffffffffffffffffffffffffff168173ffffffffffffffffffffffffffffffffffffffff161415611a1f576040517f08c379a0000000000000000000000000000000000000000000000000000000008152600401611a16906131ce565b60405180910390fd5b80915050919050565b600033905090565b816008600083815260200190815260200160002060006101000a81548173ffffffffffffffffffffffffffffffffffffffff021916908373ffffffffffffffffffffffffffffffffffffffff160217905550808273ffffffffffffffffffffffffffffffffffffffff16611aa383611976565b73ffffffffffffffffffffffffffffffffffffffff167f8c5be1e5ebec7d5bd14f71427d1e84f3dd0314c0f7b2291e5b200ac8c7c3b92560405160405180910390a45050565b60003073ffffffffffffffffffffffffffffffffffffffff16600160009054906101000a900473ffffffffffffffffffffffffffffffffffffffff1673ffffffffffffffffffffffffffffffffffffffff166302571be36002546040518263ffffffff1660e01b8152600401611b5f9190613016565b60206040518083038186803b158015611b7757600080fd5b505afa158015611b8b573d6000803e3d6000fd5b505050506040513d601f19601f82011682018060405250810190611baf9190612940565b73ffffffffffffffffffffffffffffffffffffffff1614611bcf57600080fd5b600360003373ffffffffffffffffffffffffffffffffffffffff1673ffffffffffffffffffffffffffffffffffffffff16815260200190815260200160002060009054906101000a900460ff16611c2557600080fd5b611c2e85610ff0565b611c3757600080fd5b611c408561190a565b15611c4f57611c4e8561238e565b5b611c59848661249f565b8115611d1757600160009054906101000a900473ffffffffffffffffffffffffffffffffffffffff1673ffffffffffffffffffffffffffffffffffffffff166306ab59236002548760001b876040518463ffffffff1660e01b8152600401611cc39392919061305a565b602060405180830381600087803b158015611cdd57600080fd5b505af1158015611cf1573d6000803e3d6000fd5b505050506040513d601f19601f82011682018060405250810190611d159190612ae7565b505b8373ffffffffffffffffffffffffffffffffffffffff16857e834ad8d7a1d8421d149549c7292d11385f5a042a008771d26ffd2d76db6e7460405160405180910390a38242611d669190613382565b9050949350505050565b6000611d7b8261190a565b611dba576040517f08c379a0000000000000000000000000000000000000000000000000000000008152600401611db19061316e565b60405180910390fd5b6000611dc583611976565b90508073ffffffffffffffffffffffffffffffffffffffff168473ffffffffffffffffffffffffffffffffffffffff161480611e3457508373ffffffffffffffffffffffffffffffffffffffff16611e1c846108c6565b73ffffffffffffffffffffffffffffffffffffffff16145b80611e455750611e44818561164c565b5b91505092915050565b8273ffffffffffffffffffffffffffffffffffffffff16611e6e82611976565b73ffffffffffffffffffffffffffffffffffffffff1614611ec4576040517f08c379a0000000000000000000000000000000000000000000000000000000008152600401611ebb9061324e565b60405180910390fd5b600073ffffffffffffffffffffffffffffffffffffffff168273ffffffffffffffffffffffffffffffffffffffff161415611f34576040517f08c379a0000000000000000000000000000000000000000000000000000000008152600401611f2b9061312e565b60405180910390fd5b611f3f83838361266d565b611f4a600082611a30565b6001600760008573ffffffffffffffffffffffffffffffffffffffff1673ffffffffffffffffffffffffffffffffffffffff1681526020019081526020016000206000828254611f9a9190613409565b925050819055506001600760008473ffffffffffffffffffffffffffffffffffffffff1673ffffffffffffffffffffffffffffffffffffffff1681526020019081526020016000206000828254611ff19190613382565b92505081905550816006600083815260200190815260200160002060006101000a81548173ffffffffffffffffffffffffffffffffffffffff021916908373ffffffffffffffffffffffffffffffffffffffff160217905550808273ffffffffffffffffffffffffffffffffffffffff168473ffffffffffffffffffffffffffffffffffffffff167fddf252ad1be2c89b69c2b068fc378daa952ba7f163c4a11628f55a4df523b3ef60405160405180910390a4505050565b60008060009054906101000a900473ffffffffffffffffffffffffffffffffffffffff169050816000806101000a81548173ffffffffffffffffffffffffffffffffffffffff021916908373ffffffffffffffffffffffffffffffffffffffff1602179055508173ffffffffffffffffffffffffffffffffffffffff168173ffffffffffffffffffffffffffffffffffffffff167f8be0079c531659141344cd1fd0a4f28419497f9722a3daafe3b4186f6b6457e060405160405180910390a35050565b612179848484611e4e565b61218584848484612672565b6121c4576040517f08c379a00000000000000000000000000000000000000000000000000000000081526004016121bb906130ce565b60405180910390fd5b50505050565b606060405180602001604052806000815250905090565b60606000821415612229576040518060400160405280600181526020017f30000000000000000000000000000000000000000000000000000000000000008152509050612389565b600082905060005b6000821461225b57808061224490613584565b915050600a8261225491906133d8565b9150612231565b60008167ffffffffffffffff81111561229d577f4e487b7100000000000000000000000000000000000000000000000000000000600052604160045260246000fd5b6040519080825280601f01601f1916602001820160405280156122cf5781602001600182028036833780820191505090505b5090505b60008514612382576001826122e89190613409565b9150600a856122f791906135cd565b60306123039190613382565b60f81b81838151811061233f577f4e487b7100000000000000000000000000000000000000000000000000000000600052603260045260246000fd5b60200101907effffffffffffffffffffffffffffffffffffffffffffffffffffffffffffff1916908160001a905350600a8561237b91906133d8565b94506122d3565b8093505050505b919050565b600061239982611976565b90506123a78160008461266d565b6123b2600083611a30565b6001600760008373ffffffffffffffffffffffffffffffffffffffff1673ffffffffffffffffffffffffffffffffffffffff16815260200190815260200160002060008282546124029190613409565b925050819055506006600083815260200190815260200160002060006101000a81549073ffffffffffffffffffffffffffffffffffffffff021916905581600073ffffffffffffffffffffffffffffffffffffffff168273ffffffffffffffffffffffffffffffffffffffff167fddf252ad1be2c89b69c2b068fc378daa952ba7f163c4a11628f55a4df523b3ef60405160405180910390a45050565b600073ffffffffffffffffffffffffffffffffffffffff168273ffffffffffffffffffffffffffffffffffffffff16141561250f576040517f08c379a0000000000000000000000000000000000000000000000000000000008152600401612506906131ee565b60405180910390fd5b6125188161190a565b15612558576040517f08c379a000000000000000000000000000000000000000000000000000000000815260040161254f9061310e565b60405180910390fd5b6125646000838361266d565b6001600760008473ffffffffffffffffffffffffffffffffffffffff1673ffffffffffffffffffffffffffffffffffffffff16815260200190815260200160002060008282546125b49190613382565b92505081905550816006600083815260200190815260200160002060006101000a81548173ffffffffffffffffffffffffffffffffffffffff021916908373ffffffffffffffffffffffffffffffffffffffff160217905550808273ffffffffffffffffffffffffffffffffffffffff16600073ffffffffffffffffffffffffffffffffffffffff167fddf252ad1be2c89b69c2b068fc378daa952ba7f163c4a11628f55a4df523b3ef60405160405180910390a45050565b505050565b60006126938473ffffffffffffffffffffffffffffffffffffffff16612809565b156127fc578373ffffffffffffffffffffffffffffffffffffffff1663150b7a026126bc611a28565b8786866040518563ffffffff1660e01b81526004016126de9493929190612faf565b602060405180830381600087803b1580156126f857600080fd5b505af192505050801561272957506040513d601f19601f820116820180604052508101906127269190612b39565b60015b6127ac573d8060008114612759576040519150601f19603f3d011682016040523d82523d6000602084013e61275e565b606091505b506000815114156127a4576040517f08c379a000000000000000000000000000000000000000000000000000000000815260040161279b906130ce565b60405180910390fd5b805181602001fd5b63150b7a0260e01b7bffffffffffffffffffffffffffffffffffffffffffffffffffffffff1916817bffffffffffffffffffffffffffffffffffffffffffffffffffffffff191614915050612801565b600190505b949350505050565b600080823b905060008111915050919050565b600061282f61282a8461330e565b6132e9565b90508281526020810184848401111561284757600080fd5b6128528482856134df565b509392505050565b60008135905061286981613b23565b92915050565b60008151905061287e81613b23565b92915050565b60008135905061289381613b3a565b92915050565b6000815190506128a881613b51565b92915050565b6000813590506128bd81613b68565b92915050565b6000815190506128d281613b68565b92915050565b600082601f8301126128e957600080fd5b81356128f984826020860161281c565b91505092915050565b60008135905061291181613b7f565b92915050565b60006020828403121561292957600080fd5b60006129378482850161285a565b91505092915050565b60006020828403121561295257600080fd5b60006129608482850161286f565b91505092915050565b6000806040838503121561297c57600080fd5b600061298a8582860161285a565b925050602061299b8582860161285a565b9150509250929050565b6000806000606084860312156129ba57600080fd5b60006129c88682870161285a565b93505060206129d98682870161285a565b92505060406129ea86828701612902565b9150509250925092565b60008060008060808587031215612a0a57600080fd5b6000612a188782880161285a565b9450506020612a298782880161285a565b9350506040612a3a87828801612902565b925050606085013567ffffffffffffffff811115612a5757600080fd5b612a63878288016128d8565b91505092959194509250565b60008060408385031215612a8257600080fd5b6000612a908582860161285a565b9250506020612aa185828601612884565b9150509250929050565b60008060408385031215612abe57600080fd5b6000612acc8582860161285a565b9250506020612add85828601612902565b9150509250929050565b600060208284031215612af957600080fd5b6000612b0784828501612899565b91505092915050565b600060208284031215612b2257600080fd5b6000612b30848285016128ae565b91505092915050565b600060208284031215612b4b57600080fd5b6000612b59848285016128c3565b91505092915050565b600060208284031215612b7457600080fd5b6000612b8284828501612902565b91505092915050565b60008060408385031215612b9e57600080fd5b6000612bac85828601612902565b9250506020612bbd8582860161285a565b9150509250929050565b600080600060608486031215612bdc57600080fd5b6000612bea86828701612902565b9350506020612bfb8682870161285a565b9250506040612c0c86828701612902565b9150509250925092565b60008060408385031215612c2957600080fd5b6000612c3785828601612902565b9250506020612c4885828601612902565b9150509250929050565b612c5b8161343d565b82525050565b612c6a8161344f565b82525050565b612c798161345b565b82525050565b6000612c8a8261333f565b612c948185613355565b9350612ca48185602086016134ee565b612cad816136ba565b840191505092915050565b612cc1816134bb565b82525050565b6000612cd28261334a565b612cdc8185613366565b9350612cec8185602086016134ee565b612cf5816136ba565b840191505092915050565b6000612d0b8261334a565b612d158185613377565b9350612d258185602086016134ee565b80840191505092915050565b6000612d3e603283613366565b9150612d49826136cb565b604082019050919050565b6000612d61602683613366565b9150612d6c8261371a565b604082019050919050565b6000612d84601c83613366565b9150612d8f82613769565b602082019050919050565b6000612da7602483613366565b9150612db282613792565b604082019050919050565b6000612dca601983613366565b9150612dd5826137e1565b602082019050919050565b6000612ded602c83613366565b9150612df88261380a565b604082019050919050565b6000612e10603883613366565b9150612e1b82613859565b604082019050919050565b6000612e33602a83613366565b9150612e3e826138a8565b604082019050919050565b6000612e56602983613366565b9150612e61826138f7565b604082019050919050565b6000612e79602083613366565b9150612e8482613946565b602082019050919050565b6000612e9c602c83613366565b9150612ea78261396f565b604082019050919050565b6000612ebf602083613366565b9150612eca826139be565b602082019050919050565b6000612ee2602983613366565b9150612eed826139e7565b604082019050919050565b6000612f05602f83613366565b9150612f1082613a36565b604082019050919050565b6000612f28602183613366565b9150612f3382613a85565b604082019050919050565b6000612f4b603183613366565b9150612f5682613ad4565b604082019050919050565b612f6a816134b1565b82525050565b6000612f7c8285612d00565b9150612f888284612d00565b91508190509392505050565b6000602082019050612fa96000830184612c52565b92915050565b6000608082019050612fc46000830187612c52565b612fd16020830186612c52565b612fde6040830185612f61565b8181036060830152612ff08184612c7f565b905095945050505050565b60006020820190506130106000830184612c61565b92915050565b600060208201905061302b6000830184612c70565b92915050565b60006040820190506130466000830185612c70565b6130536020830184612c52565b9392505050565b600060608201905061306f6000830186612c70565b61307c6020830185612c70565b6130896040830184612c52565b949350505050565b60006020820190506130a66000830184612cb8565b92915050565b600060208201905081810360008301526130c68184612cc7565b905092915050565b600060208201905081810360008301526130e781612d31565b9050919050565b6000602082019050818103600083015261310781612d54565b9050919050565b6000602082019050818103600083015261312781612d77565b9050919050565b6000602082019050818103600083015261314781612d9a565b9050919050565b6000602082019050818103600083015261316781612dbd565b9050919050565b6000602082019050818103600083015261318781612de0565b9050919050565b600060208201905081810360008301526131a781612e03565b9050919050565b600060208201905081810360008301526131c781612e26565b9050919050565b600060208201905081810360008301526131e781612e49565b9050919050565b6000602082019050818103600083015261320781612e6c565b9050919050565b6000602082019050818103600083015261322781612e8f565b9050919050565b6000602082019050818103600083015261324781612eb2565b9050919050565b6000602082019050818103600083015261326781612ed5565b9050919050565b6000602082019050818103600083015261328781612ef8565b9050919050565b600060208201905081810360008301526132a781612f1b565b9050919050565b600060208201905081810360008301526132c781612f3e565b9050919050565b60006020820190506132e36000830184612f61565b92915050565b60006132f3613304565b90506132ff8282613553565b919050565b6000604051905090565b600067ffffffffffffffff8211156133295761332861368b565b5b613332826136ba565b9050602081019050919050565b600081519050919050565b600081519050919050565b600082825260208201905092915050565b600082825260208201905092915050565b600081905092915050565b600061338d826134b1565b9150613398836134b1565b9250827fffffffffffffffffffffffffffffffffffffffffffffffffffffffffffffffff038211156133cd576133cc6135fe565b5b828201905092915050565b60006133e3826134b1565b91506133ee836134b1565b9250826133fe576133fd61362d565b5b828204905092915050565b6000613414826134b1565b915061341f836134b1565b925082821015613432576134316135fe565b5b828203905092915050565b600061344882613491565b9050919050565b60008115159050919050565b6000819050919050565b60007fffffffff0000000000000000000000000000000000000000000000000000000082169050919050565b600073ffffffffffffffffffffffffffffffffffffffff82169050919050565b6000819050919050565b60006134c6826134cd565b9050919050565b60006134d882613491565b9050919050565b82818337600083830152505050565b60005b8381101561350c5780820151818401526020810190506134f1565b8381111561351b576000848401525b50505050565b6000600282049050600182168061353957607f821691505b6020821081141561354d5761354c61365c565b5b50919050565b61355c826136ba565b810181811067ffffffffffffffff8211171561357b5761357a61368b565b5b80604052505050565b600061358f826134b1565b91507fffffffffffffffffffffffffffffffffffffffffffffffffffffffffffffffff8214156135c2576135c16135fe565b5b600182019050919050565b60006135d8826134b1565b91506135e3836134b1565b9250826135f3576135f261362d565b5b828206905092915050565b7f4e487b7100000000000000000000000000000000000000000000000000000000600052601160045260246000fd5b7f4e487b7100000000000000000000000000000000000000000000000000000000600052601260045260246000fd5b7f4e487b7100000000000000000000000000000000000000000000000000000000600052602260045260246000fd5b7f4e487b7100000000000000000000000000000000000000000000000000000000600052604160045260246000fd5b6000601f19601f8301169050919050565b7f4552433732313a207472616e7366657220746f206e6f6e20455243373231526560008201527f63656976657220696d706c656d656e7465720000000000000000000000000000602082015250565b7f4f776e61626c653a206e6577206f776e657220697320746865207a65726f206160008201527f6464726573730000000000000000000000000000000000000000000000000000602082015250565b7f4552433732313a20746f6b656e20616c7265616479206d696e74656400000000600082015250565b7f4552433732313a207472616e7366657220746f20746865207a65726f2061646460008201527f7265737300000000000000000000000000000000000000000000000000000000602082015250565b7f4552433732313a20617070726f766520746f2063616c6c657200000000000000600082015250565b7f4552433732313a206f70657261746f7220717565727920666f72206e6f6e657860008201527f697374656e7420746f6b656e0000000000000000000000000000000000000000602082015250565b7f4552433732313a20617070726f76652063616c6c6572206973206e6f74206f7760008201527f6e6572206e6f7220617070726f76656420666f7220616c6c0000000000000000602082015250565b7f4552433732313a2062616c616e636520717565727920666f7220746865207a6560008201527f726f206164647265737300000000000000000000000000000000000000000000602082015250565b7f4552433732313a206f776e657220717565727920666f72206e6f6e657869737460008201527f656e7420746f6b656e0000000000000000000000000000000000000000000000602082015250565b7f4552433732313a206d696e7420746f20746865207a65726f2061646472657373600082015250565b7f4552433732313a20617070726f76656420717565727920666f72206e6f6e657860008201527f697374656e7420746f6b656e0000000000000000000000000000000000000000602082015250565b7f4f776e61626c653a2063616c6c6572206973206e6f7420746865206f776e6572600082015250565b7f4552433732313a207472616e73666572206f6620746f6b656e2074686174206960008201527f73206e6f74206f776e0000000000000000000000000000000000000000000000602082015250565b7f4552433732314d657461646174613a2055524920717565727920666f72206e6f60008201527f6e6578697374656e7420746f6b656e0000000000000000000000000000000000602082015250565b7f4552433732313a20617070726f76616c20746f2063757272656e74206f776e6560008201527f7200000000000000000000000000000000000000000000000000000000000000602082015250565b7f4552433732313a207472616e736665722063616c6c6572206973206e6f74206f60008201527f776e6572206e6f7220617070726f766564000000000000000000000000000000602082015250565b613b2c8161343d565b8114613b3757600080fd5b50565b613b438161344f565b8114613b4e57600080fd5b50565b613b5a8161345b565b8114613b6557600080fd5b50565b613b7181613465565b8114613b7c57600080fd5b50565b613b88816134b1565b8114613b9357600080fd5b5056fea26469706673582212201686ab010a2e5ce84c41e3513ce1c3f19aec15d45406f271e5333cf104931d2564736f6c63430008040033",
  "immutableReferences": {},
  "source": "// SPDX-License-Identifier: UNLICENSED\r\npragma solidity ^0.8.4;\r\n\r\nimport \"@ensdomains/ens-contracts/contracts/registry/ENS.sol\";\r\nimport \"@ensdomains/ens-contracts/contracts/ethregistrar/BaseRegistrar.sol\";\r\nimport \"@openzeppelin/contracts/token/ERC721/ERC721.sol\";\r\n\r\n\r\ncontract BaseRegistrarImplementation is BaseRegistrar, ERC721 {\r\n\r\n    // A map of expiry times\r\n    mapping(uint256=>uint) expiries;\r\n\r\n    event NameMigrated(uint256 indexed id, address indexed owner);\r\n    event NameRegistered(uint256 indexed id, address indexed owner);\r\n\r\n    bytes4 constant private INTERFACE_META_ID = bytes4(keccak256(\"supportsInterface(bytes4)\"));\r\n    bytes4 constant private ERC721_ID = bytes4(\r\n        keccak256(\"balanceOf(address)\") ^\r\n        keccak256(\"ownerOf(uint256)\") ^\r\n        keccak256(\"approve(address,uint256)\") ^\r\n        keccak256(\"getApproved(uint256)\") ^\r\n        keccak256(\"setApprovalForAll(address,bool)\") ^\r\n        keccak256(\"isApprovedForAll(address,address)\") ^\r\n        keccak256(\"transferFrom(address,address,uint256)\") ^\r\n        keccak256(\"safeTransferFrom(address,address,uint256)\") ^\r\n        keccak256(\"safeTransferFrom(address,address,uint256,bytes)\")\r\n    );\r\n    bytes4 constant private RECLAIM_ID = bytes4(keccak256(\"reclaim(uint256,address)\"));\r\n\r\n    constructor(ENS _ens, bytes32 _baseNode) ERC721(\"ThetaboardRegistrar\", \"TBR\")  {\r\n        ens = _ens;\r\n        baseNode = _baseNode;\r\n    }\r\n\r\n    modifier live {\r\n        require(ens.owner(baseNode) == address(this));\r\n        _;\r\n    }\r\n\r\n    modifier onlyController {\r\n        require(controllers[msg.sender]);\r\n        _;\r\n    }\r\n\r\n    /**\r\n     * @dev Gets the owner of the specified token ID\r\n     * @param tokenId uint256 ID of the token to query the owner of\r\n     * @return address currently marked as the owner of the given token ID\r\n     */\r\n    function ownerOf(uint256 tokenId) public view override(IERC721, ERC721) returns (address) {\r\n        return super.ownerOf(tokenId);\r\n    }\r\n\r\n    // Authorises a controller, who can register and renew domains.\r\n    function addController(address controller) external override onlyOwner {\r\n        controllers[controller] = true;\r\n        emit ControllerAdded(controller);\r\n    }\r\n\r\n    // Revoke controller permission for an address.\r\n    function removeController(address controller) external override onlyOwner {\r\n        controllers[controller] = false;\r\n        emit ControllerRemoved(controller);\r\n    }\r\n\r\n    // Set the resolver for the TLD this registrar manages.\r\n    function setResolver(address resolver) external override onlyOwner {\r\n        ens.setResolver(baseNode, resolver);\r\n    }\r\n\r\n    // Returns the expiration timestamp of the specified id.\r\n    function nameExpires(uint256 id) external view override returns(uint) {\r\n        return expiries[id];\r\n    }\r\n\r\n    // Returns true iff the specified name is available for registration.\r\n    function available(uint256 id) public view override returns (bool) {\r\n        // TODO; return only if already exsits\r\n        return expiries[id] + GRACE_PERIOD < block.timestamp;\r\n    }\r\n\r\n    /**\r\n     * @dev Register a name.\r\n     * @param id The token ID (keccak256 of the label).\r\n     * @param owner The address that should own the registration.\r\n     */\r\n    function register(uint256 id, address owner, uint duration) external override returns (uint) {\r\n        return _register(id, owner, duration, true);\r\n    }\r\n\r\n    /**\r\n     * @dev Register a name, without modifying the registry.\r\n     * @param id The token ID (keccak256 of the label).\r\n     * @param owner The address that should own the registration.\r\n     */\r\n    function registerOnly(uint256 id, address owner, uint duration) external returns (uint) {\r\n        return _register(id, owner, duration, false);\r\n    }\r\n\r\n    function _register(uint256 id, address owner, uint duration, bool updateRegistry) internal live onlyController returns(uint)  {\r\n        require(available(id));\r\n\r\n        if (_exists(id)) {\r\n            // TODO: check this\r\n            // Name was previously owned, and expired\r\n            _burn(id);\r\n        }\r\n        _mint(owner, id);\r\n        if (updateRegistry) {\r\n            ens.setSubnodeOwner(baseNode, bytes32(id), owner);\r\n        }\r\n\r\n        emit NameRegistered(id, owner);\r\n\r\n        return block.timestamp + duration;\r\n    }\r\n\r\n    function renew(uint256 id, uint duration) external override live onlyController returns(uint) {\r\n        require(expiries[id] + GRACE_PERIOD >= block.timestamp); // Name must be registered here or in grace period\r\n        require(expiries[id] + duration + GRACE_PERIOD > duration + GRACE_PERIOD); // Prevent future overflow\r\n\r\n        expiries[id] += duration;\r\n        emit NameRenewed(id, expiries[id]);\r\n        return expiries[id];\r\n    }\r\n    \r\n    /**\r\n     * @dev Reclaim ownership of a name in ENS, if you own it in the registrar.\r\n     */\r\n    function reclaim(uint256 id, address owner) external override live {\r\n        require(_isApprovedOrOwner(msg.sender, id));\r\n        ens.setSubnodeOwner(baseNode, bytes32(id), owner);\r\n    }\r\n\r\n    function supportsInterface(bytes4 interfaceId) public view override(ERC721, IERC165) returns (bool) {\r\n        return interfaceId == INTERFACE_META_ID ||\r\n        interfaceId == ERC721_ID ||\r\n        interfaceId == RECLAIM_ID;\r\n    }\r\n}",
  "sourcePath": "D:\\Posao-Stefan\\Stefan-razno\\Blockchain\\Thetaboard\\core-contracts\\contracts\\BaseRegistrarImplementation.sol",
  "compiler": {
    "name": "solc",
    "version": "0.8.4+commit.c7e474f2.Emscripten.clang"
  },
  "schemaVersion": "3.4.3",
  "updatedAt": "2021-09-08T10:18:29.500Z",
  "devdoc": {
    "kind": "dev",
    "methods": {
      "approve(address,uint256)": {
        "details": "See {IERC721-approve}."
      },
      "balanceOf(address)": {
        "details": "See {IERC721-balanceOf}."
      },
      "getApproved(uint256)": {
        "details": "See {IERC721-getApproved}."
      },
      "isApprovedForAll(address,address)": {
        "details": "See {IERC721-isApprovedForAll}."
      },
      "name()": {
        "details": "See {IERC721Metadata-name}."
      },
      "owner()": {
        "details": "Returns the address of the current owner."
      },
      "ownerOf(uint256)": {
        "details": "Gets the owner of the specified token ID",
        "params": {
          "tokenId": "uint256 ID of the token to query the owner of"
        },
        "returns": {
          "_0": "address currently marked as the owner of the given token ID"
        }
      },
      "reclaim(uint256,address)": {
        "details": "Reclaim ownership of a name in ENS, if you own it in the registrar."
      },
      "register(uint256,address,uint256)": {
        "details": "Register a name.",
        "params": {
          "id": "The token ID (keccak256 of the label).",
          "owner": "The address that should own the registration."
        }
      },
      "registerOnly(uint256,address,uint256)": {
        "details": "Register a name, without modifying the registry.",
        "params": {
          "id": "The token ID (keccak256 of the label).",
          "owner": "The address that should own the registration."
        }
      },
      "renounceOwnership()": {
        "details": "Leaves the contract without owner. It will not be possible to call `onlyOwner` functions anymore. Can only be called by the current owner. NOTE: Renouncing ownership will leave the contract without an owner, thereby removing any functionality that is only available to the owner."
      },
      "safeTransferFrom(address,address,uint256)": {
        "details": "See {IERC721-safeTransferFrom}."
      },
      "safeTransferFrom(address,address,uint256,bytes)": {
        "details": "See {IERC721-safeTransferFrom}."
      },
      "setApprovalForAll(address,bool)": {
        "details": "See {IERC721-setApprovalForAll}."
      },
      "symbol()": {
        "details": "See {IERC721Metadata-symbol}."
      },
      "tokenURI(uint256)": {
        "details": "See {IERC721Metadata-tokenURI}."
      },
      "transferFrom(address,address,uint256)": {
        "details": "See {IERC721-transferFrom}."
      },
      "transferOwnership(address)": {
        "details": "Transfers ownership of the contract to a new account (`newOwner`). Can only be called by the current owner."
      }
    },
    "version": 1
  },
  "userdoc": {
    "kind": "user",
    "methods": {},
    "version": 1
  }
}