{
  "contractName": "BaseRegistrarImplementation",
  "abi": [
    {
      "inputs": [
        {
          "internalType": "contract ENS",
          "name": "_ens",
          "type": "address"
        },
        {
          "internalType": "bytes32",
          "name": "_baseNode",
          "type": "bytes32"
        }
      ],
      "stateMutability": "nonpayable",
      "type": "constructor"
    },
    {
      "anonymous": false,
      "inputs": [
        {
          "indexed": true,
          "internalType": "address",
          "name": "owner",
          "type": "address"
        },
        {
          "indexed": true,
          "internalType": "address",
          "name": "approved",
          "type": "address"
        },
        {
          "indexed": true,
          "internalType": "uint256",
          "name": "tokenId",
          "type": "uint256"
        }
      ],
      "name": "Approval",
      "type": "event"
    },
    {
      "anonymous": false,
      "inputs": [
        {
          "indexed": true,
          "internalType": "address",
          "name": "owner",
          "type": "address"
        },
        {
          "indexed": true,
          "internalType": "address",
          "name": "operator",
          "type": "address"
        },
        {
          "indexed": false,
          "internalType": "bool",
          "name": "approved",
          "type": "bool"
        }
      ],
      "name": "ApprovalForAll",
      "type": "event"
    },
    {
      "anonymous": false,
      "inputs": [
        {
          "indexed": true,
          "internalType": "address",
          "name": "controller",
          "type": "address"
        }
      ],
      "name": "ControllerAdded",
      "type": "event"
    },
    {
      "anonymous": false,
      "inputs": [
        {
          "indexed": true,
          "internalType": "address",
          "name": "controller",
          "type": "address"
        }
      ],
      "name": "ControllerRemoved",
      "type": "event"
    },
    {
      "anonymous": false,
      "inputs": [
        {
          "indexed": true,
          "internalType": "uint256",
          "name": "id",
          "type": "uint256"
        },
        {
          "indexed": true,
          "internalType": "address",
          "name": "owner",
          "type": "address"
        }
      ],
      "name": "NameMigrated",
      "type": "event"
    },
    {
      "anonymous": false,
      "inputs": [
        {
          "indexed": true,
          "internalType": "uint256",
          "name": "id",
          "type": "uint256"
        },
        {
          "indexed": true,
          "internalType": "address",
          "name": "owner",
          "type": "address"
        }
      ],
      "name": "NameRegistered",
      "type": "event"
    },
    {
      "anonymous": false,
      "inputs": [
        {
          "indexed": true,
          "internalType": "address",
          "name": "previousOwner",
          "type": "address"
        },
        {
          "indexed": true,
          "internalType": "address",
          "name": "newOwner",
          "type": "address"
        }
      ],
      "name": "OwnershipTransferred",
      "type": "event"
    },
    {
      "anonymous": false,
      "inputs": [
        {
          "indexed": true,
          "internalType": "address",
          "name": "from",
          "type": "address"
        },
        {
          "indexed": true,
          "internalType": "address",
          "name": "to",
          "type": "address"
        },
        {
          "indexed": true,
          "internalType": "uint256",
          "name": "tokenId",
          "type": "uint256"
        }
      ],
      "name": "Transfer",
      "type": "event"
    },
    {
      "inputs": [
        {
          "internalType": "address",
          "name": "to",
          "type": "address"
        },
        {
          "internalType": "uint256",
          "name": "tokenId",
          "type": "uint256"
        }
      ],
      "name": "approve",
      "outputs": [],
      "stateMutability": "nonpayable",
      "type": "function"
    },
    {
      "inputs": [
        {
          "internalType": "address",
          "name": "owner",
          "type": "address"
        }
      ],
      "name": "balanceOf",
      "outputs": [
        {
          "internalType": "uint256",
          "name": "",
          "type": "uint256"
        }
      ],
      "stateMutability": "view",
      "type": "function",
      "constant": true
    },
    {
      "inputs": [],
      "name": "baseNode",
      "outputs": [
        {
          "internalType": "bytes32",
          "name": "",
          "type": "bytes32"
        }
      ],
      "stateMutability": "view",
      "type": "function",
      "constant": true
    },
    {
      "inputs": [
        {
          "internalType": "address",
          "name": "",
          "type": "address"
        }
      ],
      "name": "controllers",
      "outputs": [
        {
          "internalType": "bool",
          "name": "",
          "type": "bool"
        }
      ],
      "stateMutability": "view",
      "type": "function",
      "constant": true
    },
    {
      "inputs": [],
      "name": "ens",
      "outputs": [
        {
          "internalType": "contract ENS",
          "name": "",
          "type": "address"
        }
      ],
      "stateMutability": "view",
      "type": "function",
      "constant": true
    },
    {
      "inputs": [
        {
          "internalType": "uint256",
          "name": "tokenId",
          "type": "uint256"
        }
      ],
      "name": "getApproved",
      "outputs": [
        {
          "internalType": "address",
          "name": "",
          "type": "address"
        }
      ],
      "stateMutability": "view",
      "type": "function",
      "constant": true
    },
    {
      "inputs": [
        {
          "internalType": "address",
          "name": "owner",
          "type": "address"
        },
        {
          "internalType": "address",
          "name": "operator",
          "type": "address"
        }
      ],
      "name": "isApprovedForAll",
      "outputs": [
        {
          "internalType": "bool",
          "name": "",
          "type": "bool"
        }
      ],
      "stateMutability": "view",
      "type": "function",
      "constant": true
    },
    {
      "inputs": [],
      "name": "name",
      "outputs": [
        {
          "internalType": "string",
          "name": "",
          "type": "string"
        }
      ],
      "stateMutability": "view",
      "type": "function",
      "constant": true
    },
    {
      "inputs": [],
      "name": "owner",
      "outputs": [
        {
          "internalType": "address",
          "name": "",
          "type": "address"
        }
      ],
      "stateMutability": "view",
      "type": "function",
      "constant": true
    },
    {
      "inputs": [
        {
          "internalType": "uint256",
          "name": "tokenId",
          "type": "uint256"
        }
      ],
      "name": "ownerOf",
      "outputs": [
        {
          "internalType": "address",
          "name": "",
          "type": "address"
        }
      ],
      "stateMutability": "view",
      "type": "function",
      "constant": true
    },
    {
      "inputs": [],
      "name": "renounceOwnership",
      "outputs": [],
      "stateMutability": "nonpayable",
      "type": "function"
    },
    {
      "inputs": [
        {
          "internalType": "address",
          "name": "from",
          "type": "address"
        },
        {
          "internalType": "address",
          "name": "to",
          "type": "address"
        },
        {
          "internalType": "uint256",
          "name": "tokenId",
          "type": "uint256"
        }
      ],
      "name": "safeTransferFrom",
      "outputs": [],
      "stateMutability": "nonpayable",
      "type": "function"
    },
    {
      "inputs": [
        {
          "internalType": "address",
          "name": "from",
          "type": "address"
        },
        {
          "internalType": "address",
          "name": "to",
          "type": "address"
        },
        {
          "internalType": "uint256",
          "name": "tokenId",
          "type": "uint256"
        },
        {
          "internalType": "bytes",
          "name": "_data",
          "type": "bytes"
        }
      ],
      "name": "safeTransferFrom",
      "outputs": [],
      "stateMutability": "nonpayable",
      "type": "function"
    },
    {
      "inputs": [
        {
          "internalType": "address",
          "name": "operator",
          "type": "address"
        },
        {
          "internalType": "bool",
          "name": "approved",
          "type": "bool"
        }
      ],
      "name": "setApprovalForAll",
      "outputs": [],
      "stateMutability": "nonpayable",
      "type": "function"
    },
    {
      "inputs": [],
      "name": "symbol",
      "outputs": [
        {
          "internalType": "string",
          "name": "",
          "type": "string"
        }
      ],
      "stateMutability": "view",
      "type": "function",
      "constant": true
    },
    {
      "inputs": [
        {
          "internalType": "uint256",
          "name": "tokenId",
          "type": "uint256"
        }
      ],
      "name": "tokenURI",
      "outputs": [
        {
          "internalType": "string",
          "name": "",
          "type": "string"
        }
      ],
      "stateMutability": "view",
      "type": "function",
      "constant": true
    },
    {
      "inputs": [
        {
          "internalType": "address",
          "name": "from",
          "type": "address"
        },
        {
          "internalType": "address",
          "name": "to",
          "type": "address"
        },
        {
          "internalType": "uint256",
          "name": "tokenId",
          "type": "uint256"
        }
      ],
      "name": "transferFrom",
      "outputs": [],
      "stateMutability": "nonpayable",
      "type": "function"
    },
    {
      "inputs": [
        {
          "internalType": "address",
          "name": "newOwner",
          "type": "address"
        }
      ],
      "name": "transferOwnership",
      "outputs": [],
      "stateMutability": "nonpayable",
      "type": "function"
    },
    {
      "inputs": [
        {
          "internalType": "address",
          "name": "controller",
          "type": "address"
        }
      ],
      "name": "addController",
      "outputs": [],
      "stateMutability": "nonpayable",
      "type": "function"
    },
    {
      "inputs": [
        {
          "internalType": "address",
          "name": "controller",
          "type": "address"
        }
      ],
      "name": "removeController",
      "outputs": [],
      "stateMutability": "nonpayable",
      "type": "function"
    },
    {
      "inputs": [
        {
          "internalType": "address",
          "name": "resolver",
          "type": "address"
        }
      ],
      "name": "setResolver",
      "outputs": [],
      "stateMutability": "nonpayable",
      "type": "function"
    },
    {
      "inputs": [
        {
          "internalType": "uint256",
          "name": "id",
          "type": "uint256"
        }
      ],
      "name": "available",
      "outputs": [
        {
          "internalType": "bool",
          "name": "",
          "type": "bool"
        }
      ],
      "stateMutability": "view",
      "type": "function",
      "constant": true
    },
    {
      "inputs": [
        {
          "internalType": "uint256",
          "name": "id",
          "type": "uint256"
        },
        {
          "internalType": "address",
          "name": "owner",
          "type": "address"
        }
      ],
      "name": "register",
      "outputs": [],
      "stateMutability": "nonpayable",
      "type": "function"
    },
    {
      "inputs": [
        {
          "internalType": "uint256",
          "name": "id",
          "type": "uint256"
        },
        {
          "internalType": "address",
          "name": "owner",
          "type": "address"
        }
      ],
      "name": "registerOnly",
      "outputs": [],
      "stateMutability": "nonpayable",
      "type": "function"
    },
    {
      "inputs": [
        {
          "internalType": "uint256",
          "name": "id",
          "type": "uint256"
        },
        {
          "internalType": "address",
          "name": "owner",
          "type": "address"
        }
      ],
      "name": "reclaim",
      "outputs": [],
      "stateMutability": "nonpayable",
      "type": "function"
    },
    {
      "inputs": [
        {
          "internalType": "bytes4",
          "name": "interfaceId",
          "type": "bytes4"
        }
      ],
      "name": "supportsInterface",
      "outputs": [
        {
          "internalType": "bool",
          "name": "",
          "type": "bool"
        }
      ],
      "stateMutability": "pure",
      "type": "function",
      "constant": true
    }
  ],
  "bytecode": "0x60806040523480156200001157600080fd5b5060405162001e2e38038062001e2e83398101604081905262000034916200020c565b6040518060400160405280601381526020017f5468657461626f617264526567697374726172000000000000000000000000008152506040518060400160405280600381526020017f5442520000000000000000000000000000000000000000000000000000000000815250620000ba620000b46200011260201b60201c565b62000116565b8151620000cf90600490602085019062000166565b508051620000e590600590602084019062000166565b5050600180546001600160a01b0319166001600160a01b039490941693909317909255600255506200029c565b3390565b600080546001600160a01b038381166001600160a01b0319831681178455604051919092169283917f8be0079c531659141344cd1fd0a4f28419497f9722a3daafe3b4186f6b6457e09190a35050565b828054620001749062000246565b90600052602060002090601f016020900481019282620001985760008555620001e3565b82601f10620001b357805160ff1916838001178555620001e3565b82800160010185558215620001e3579182015b82811115620001e3578251825591602001919060010190620001c6565b50620001f1929150620001f5565b5090565b5b80821115620001f15760008155600101620001f6565b600080604083850312156200021f578182fd5b82516001600160a01b038116811462000236578283fd5b6020939093015192949293505050565b600181811c908216806200025b57607f821691505b6020821081141562000296577f4e487b7100000000000000000000000000000000000000000000000000000000600052602260045260246000fd5b50919050565b611b8280620002ac6000396000f3fe608060405234801561001057600080fd5b506004361061018e5760003560e01c80638da5cb5b116100de578063c87b56dd11610097578063ddf7fcb011610071578063ddf7fcb01461036c578063e985e9c514610375578063f2fde38b146103b1578063f6a74ed7146103c457600080fd5b8063c87b56dd14610323578063da8c229e14610336578063dbbdf0831461035957600080fd5b80638da5cb5b146102be57806395d89b41146102cf57806396e494e8146102d7578063a22cb465146102ea578063a7fc7a07146102fd578063b88d4fde1461031057600080fd5b80633f15457f1161014b57806352dc67161161012557806352dc67161461026f5780636352211e1461028257806370a0823114610295578063715018a6146102b657600080fd5b80633f15457f1461023657806342842e0e146102495780634e543b261461025c57600080fd5b806301ffc9a71461019357806306fdde03146101bb578063081812fc146101d0578063095ea7b3146101fb57806323b872dd1461021057806328ed4f6c14610223575b600080fd5b6101a66101a136600461180f565b6103d7565b60405190151581526020015b60405180910390f35b6101c3610429565b6040516101b2919061191b565b6101e36101de366004611847565b6104bb565b6040516001600160a01b0390911681526020016101b2565b61020e6102093660046117cc565b610548565b005b61020e61021e366004611682565b61065e565b61020e61023136600461185f565b61068f565b6001546101e3906001600160a01b031681565b61020e610257366004611682565b6107c6565b61020e61026a366004611612565b6107e1565b61020e61027d36600461185f565b610878565b6101e3610290366004611847565b610888565b6102a86102a3366004611612565b6108ff565b6040519081526020016101b2565b61020e610986565b6000546001600160a01b03166101e3565b6101c36109bc565b6101a66102e5366004611847565b6109cb565b61020e6102f836600461179b565b6109dd565b61020e61030b366004611612565b610aa2565b61020e61031e3660046116c2565b610aee565b6101c3610331366004611847565b610b26565b6101a6610344366004611612565b60036020526000908152604090205460ff1681565b61020e61036736600461185f565b610bfe565b6102a860025481565b6101a661038336600461164a565b6001600160a01b03918216600090815260096020908152604080832093909416825291909152205460ff1690565b61020e6103bf366004611612565b610c0a565b61020e6103d2366004611612565b610ca5565b60006001600160e01b031982166301ffc9a760e01b148061040857506001600160e01b031982166380ac58cd60e01b145b8061042357506001600160e01b03198216630a3b53db60e21b145b92915050565b60606004805461043890611a75565b80601f016020809104026020016040519081016040528092919081815260200182805461046490611a75565b80156104b15780601f10610486576101008083540402835291602001916104b1565b820191906000526020600020905b81548152906001019060200180831161049457829003601f168201915b5050505050905090565b60006104c682610d18565b61052c5760405162461bcd60e51b815260206004820152602c60248201527f4552433732313a20617070726f76656420717565727920666f72206e6f6e657860448201526b34b9ba32b73a103a37b5b2b760a11b60648201526084015b60405180910390fd5b506000908152600860205260409020546001600160a01b031690565b600061055382610888565b9050806001600160a01b0316836001600160a01b031614156105c15760405162461bcd60e51b815260206004820152602160248201527f4552433732313a20617070726f76616c20746f2063757272656e74206f776e656044820152603960f91b6064820152608401610523565b336001600160a01b03821614806105dd57506105dd8133610383565b61064f5760405162461bcd60e51b815260206004820152603860248201527f4552433732313a20617070726f76652063616c6c6572206973206e6f74206f7760448201527f6e6572206e6f7220617070726f76656420666f7220616c6c00000000000000006064820152608401610523565b6106598383610d35565b505050565b6106683382610da3565b6106845760405162461bcd60e51b8152600401610523906119b5565b610659838383610e8d565b6001546002546040516302571be360e01b8152600481019190915230916001600160a01b0316906302571be39060240160206040518083038186803b1580156106d757600080fd5b505afa1580156106eb573d6000803e3d6000fd5b505050506040513d601f19601f8201168201806040525081019061070f919061162e565b6001600160a01b03161461072257600080fd5b61072c3383610da3565b61073557600080fd5b6001546002546040516306ab592360e01b81526004810191909152602481018490526001600160a01b038381166044830152909116906306ab592390606401602060405180830381600087803b15801561078e57600080fd5b505af11580156107a2573d6000803e3d6000fd5b505050506040513d601f19601f8201168201806040525081019061065991906117f7565b61065983838360405180602001604052806000815250610aee565b6000546001600160a01b0316331461080b5760405162461bcd60e51b815260040161052390611980565b600154600254604051630c4b7b8560e11b815260048101919091526001600160a01b03838116602483015290911690631896f70a90604401600060405180830381600087803b15801561085d57600080fd5b505af1158015610871573d6000803e3d6000fd5b5050505050565b6108848282600061102d565b5050565b6000818152600660205260408120546001600160a01b0316806104235760405162461bcd60e51b815260206004820152602960248201527f4552433732313a206f776e657220717565727920666f72206e6f6e657869737460448201526832b73a103a37b5b2b760b91b6064820152608401610523565b60006001600160a01b03821661096a5760405162461bcd60e51b815260206004820152602a60248201527f4552433732313a2062616c616e636520717565727920666f7220746865207a65604482015269726f206164647265737360b01b6064820152608401610523565b506001600160a01b031660009081526007602052604090205490565b6000546001600160a01b031633146109b05760405162461bcd60e51b815260040161052390611980565b6109ba6000611235565b565b60606005805461043890611a75565b60006109d682610d18565b1592915050565b6001600160a01b038216331415610a365760405162461bcd60e51b815260206004820152601960248201527f4552433732313a20617070726f766520746f2063616c6c6572000000000000006044820152606401610523565b3360008181526009602090815260408083206001600160a01b03871680855290835292819020805460ff191686151590811790915590519081529192917f17307eab39ab6107e8899845ad3d59bd9653f200f220920489ca2b5937696c31910160405180910390a35050565b6001600160a01b038116600081815260036020526040808220805460ff19166001179055517f0a8bb31534c0ed46f380cb867bd5c803a189ced9a764e30b3a4991a9901d74749190a250565b610af83383610da3565b610b145760405162461bcd60e51b8152600401610523906119b5565b610b2084848484611285565b50505050565b6060610b3182610d18565b610b955760405162461bcd60e51b815260206004820152602f60248201527f4552433732314d657461646174613a2055524920717565727920666f72206e6f60448201526e3732bc34b9ba32b73a103a37b5b2b760891b6064820152608401610523565b6000610bac60408051602081019091526000815290565b90506000815111610bcc5760405180602001604052806000815250610bf7565b80610bd6846112b8565b604051602001610be79291906118af565b6040516020818303038152906040525b9392505050565b6108848282600161102d565b6000546001600160a01b03163314610c345760405162461bcd60e51b815260040161052390611980565b6001600160a01b038116610c995760405162461bcd60e51b815260206004820152602660248201527f4f776e61626c653a206e6577206f776e657220697320746865207a65726f206160448201526564647265737360d01b6064820152608401610523565b610ca281611235565b50565b6000546001600160a01b03163314610ccf5760405162461bcd60e51b815260040161052390611980565b6001600160a01b038116600081815260036020526040808220805460ff19169055517f33d83959be2573f5453b12eb9d43b3499bc57d96bd2f067ba44803c859e811139190a250565b6000908152600660205260409020546001600160a01b0316151590565b600081815260086020526040902080546001600160a01b0319166001600160a01b0384169081179091558190610d6a82610888565b6001600160a01b03167f8c5be1e5ebec7d5bd14f71427d1e84f3dd0314c0f7b2291e5b200ac8c7c3b92560405160405180910390a45050565b6000610dae82610d18565b610e0f5760405162461bcd60e51b815260206004820152602c60248201527f4552433732313a206f70657261746f7220717565727920666f72206e6f6e657860448201526b34b9ba32b73a103a37b5b2b760a11b6064820152608401610523565b6000610e1a83610888565b9050806001600160a01b0316846001600160a01b03161480610e555750836001600160a01b0316610e4a846104bb565b6001600160a01b0316145b80610e8557506001600160a01b0380821660009081526009602090815260408083209388168352929052205460ff165b949350505050565b826001600160a01b0316610ea082610888565b6001600160a01b031614610f085760405162461bcd60e51b815260206004820152602960248201527f4552433732313a207472616e73666572206f6620746f6b656e2074686174206960448201526839903737ba1037bbb760b91b6064820152608401610523565b6001600160a01b038216610f6a5760405162461bcd60e51b8152602060048201526024808201527f4552433732313a207472616e7366657220746f20746865207a65726f206164646044820152637265737360e01b6064820152608401610523565b610f75600082610d35565b6001600160a01b0383166000908152600760205260408120805460019290610f9e908490611a32565b90915550506001600160a01b0382166000908152600760205260408120805460019290610fcc908490611a06565b909155505060008181526006602052604080822080546001600160a01b0319166001600160a01b0386811691821790925591518493918716917fddf252ad1be2c89b69c2b068fc378daa952ba7f163c4a11628f55a4df523b3ef91a4505050565b6001546002546040516302571be360e01b8152600481019190915230916001600160a01b0316906302571be39060240160206040518083038186803b15801561107557600080fd5b505afa158015611089573d6000803e3d6000fd5b505050506040513d601f19601f820116820180604052508101906110ad919061162e565b6001600160a01b0316146110c057600080fd5b3360009081526003602052604090205460ff166110dc57600080fd5b6110e583610d18565b156111585760405162461bcd60e51b815260206004820152603d60248201527f42617365526567697374726172496d706c656d656e746174696f6e3a205f726560448201527f6769737465722c207468697320494420616c72656164792065786973740000006064820152608401610523565b61116282846113d2565b80156111fb576001546002546040516306ab592360e01b81526004810191909152602481018590526001600160a01b038481166044830152909116906306ab592390606401602060405180830381600087803b1580156111c157600080fd5b505af11580156111d5573d6000803e3d6000fd5b505050506040513d601f19601f820116820180604052508101906111f991906117f7565b505b6040516001600160a01b0383169084907e834ad8d7a1d8421d149549c7292d11385f5a042a008771d26ffd2d76db6e7490600090a3505050565b600080546001600160a01b038381166001600160a01b0319831681178455604051919092169283917f8be0079c531659141344cd1fd0a4f28419497f9722a3daafe3b4186f6b6457e09190a35050565b611290848484610e8d565b61129c84848484611505565b610b205760405162461bcd60e51b81526004016105239061192e565b6060816112dc5750506040805180820190915260018152600360fc1b602082015290565b8160005b811561130657806112f081611ab0565b91506112ff9050600a83611a1e565b91506112e0565b60008167ffffffffffffffff81111561132f57634e487b7160e01b600052604160045260246000fd5b6040519080825280601f01601f191660200182016040528015611359576020820181803683370190505b5090505b8415610e855761136e600183611a32565b915061137b600a86611acb565b611386906030611a06565b60f81b8183815181106113a957634e487b7160e01b600052603260045260246000fd5b60200101906001600160f81b031916908160001a9053506113cb600a86611a1e565b945061135d565b6001600160a01b0382166114285760405162461bcd60e51b815260206004820181905260248201527f4552433732313a206d696e7420746f20746865207a65726f20616464726573736044820152606401610523565b61143181610d18565b1561147e5760405162461bcd60e51b815260206004820152601c60248201527f4552433732313a20746f6b656e20616c7265616479206d696e746564000000006044820152606401610523565b6001600160a01b03821660009081526007602052604081208054600192906114a7908490611a06565b909155505060008181526006602052604080822080546001600160a01b0319166001600160a01b03861690811790915590518392907fddf252ad1be2c89b69c2b068fc378daa952ba7f163c4a11628f55a4df523b3ef908290a45050565b60006001600160a01b0384163b1561160757604051630a85bd0160e11b81526001600160a01b0385169063150b7a02906115499033908990889088906004016118de565b602060405180830381600087803b15801561156357600080fd5b505af1925050508015611593575060408051601f3d908101601f191682019092526115909181019061182b565b60015b6115ed573d8080156115c1576040519150601f19603f3d011682016040523d82523d6000602084013e6115c6565b606091505b5080516115e55760405162461bcd60e51b81526004016105239061192e565b805181602001fd5b6001600160e01b031916630a85bd0160e11b149050610e85565b506001949350505050565b600060208284031215611623578081fd5b8135610bf781611b21565b60006020828403121561163f578081fd5b8151610bf781611b21565b6000806040838503121561165c578081fd5b823561166781611b21565b9150602083013561167781611b21565b809150509250929050565b600080600060608486031215611696578081fd5b83356116a181611b21565b925060208401356116b181611b21565b929592945050506040919091013590565b600080600080608085870312156116d7578081fd5b84356116e281611b21565b935060208501356116f281611b21565b925060408501359150606085013567ffffffffffffffff80821115611715578283fd5b818701915087601f830112611728578283fd5b81358181111561173a5761173a611b0b565b604051601f8201601f19908116603f0116810190838211818310171561176257611762611b0b565b816040528281528a602084870101111561177a578586fd5b82602086016020830137918201602001949094529598949750929550505050565b600080604083850312156117ad578182fd5b82356117b881611b21565b915060208301358015158114611677578182fd5b600080604083850312156117de578182fd5b82356117e981611b21565b946020939093013593505050565b600060208284031215611808578081fd5b5051919050565b600060208284031215611820578081fd5b8135610bf781611b36565b60006020828403121561183c578081fd5b8151610bf781611b36565b600060208284031215611858578081fd5b5035919050565b60008060408385031215611871578182fd5b82359150602083013561167781611b21565b6000815180845261189b816020860160208601611a49565b601f01601f19169290920160200192915050565b600083516118c1818460208801611a49565b8351908301906118d5818360208801611a49565b01949350505050565b6001600160a01b038581168252841660208201526040810183905260806060820181905260009061191190830184611883565b9695505050505050565b602081526000610bf76020830184611883565b60208082526032908201527f4552433732313a207472616e7366657220746f206e6f6e20455243373231526560408201527131b2b4bb32b91034b6b83632b6b2b73a32b960711b606082015260800190565b6020808252818101527f4f776e61626c653a2063616c6c6572206973206e6f7420746865206f776e6572604082015260600190565b60208082526031908201527f4552433732313a207472616e736665722063616c6c6572206973206e6f74206f6040820152701ddb995c881b9bdc88185c1c1c9bdd9959607a1b606082015260800190565b60008219821115611a1957611a19611adf565b500190565b600082611a2d57611a2d611af5565b500490565b600082821015611a4457611a44611adf565b500390565b60005b83811015611a64578181015183820152602001611a4c565b83811115610b205750506000910152565b600181811c90821680611a8957607f821691505b60208210811415611aaa57634e487b7160e01b600052602260045260246000fd5b50919050565b6000600019821415611ac457611ac4611adf565b5060010190565b600082611ada57611ada611af5565b500690565b634e487b7160e01b600052601160045260246000fd5b634e487b7160e01b600052601260045260246000fd5b634e487b7160e01b600052604160045260246000fd5b6001600160a01b0381168114610ca257600080fd5b6001600160e01b031981168114610ca257600080fdfea2646970667358221220a8b13c9fcfb59bacd5e3fca86b41ac77b943baf74eaea6c29af3c735aa6dbc8f64736f6c63430008040033",
  "immutableReferences": {},
  "source": "// SPDX-License-Identifier: MIT\r\npragma solidity ^0.8.4;\r\n\r\nimport \"./interfaces/ENS.sol\";\r\nimport \"./abstract_contracts/BaseRegistrar.sol\";\r\nimport \"@openzeppelin/contracts/token/ERC721/ERC721.sol\";\r\n\r\ncontract BaseRegistrarImplementation is BaseRegistrar, ERC721 {\r\n    bytes4 constant private INTERFACE_META_ID = bytes4(keccak256(\"supportsInterface(bytes4)\"));\r\n    bytes4 constant private ERC721_ID = bytes4(\r\n        keccak256(\"balanceOf(address)\") ^\r\n        keccak256(\"ownerOf(uint256)\") ^\r\n        keccak256(\"approve(address,uint256)\") ^\r\n        keccak256(\"getApproved(uint256)\") ^\r\n        keccak256(\"setApprovalForAll(address,bool)\") ^\r\n        keccak256(\"isApprovedForAll(address,address)\") ^\r\n        keccak256(\"transferFrom(address,address,uint256)\") ^\r\n        keccak256(\"safeTransferFrom(address,address,uint256)\") ^\r\n        keccak256(\"safeTransferFrom(address,address,uint256,bytes)\")\r\n    );\r\n    bytes4 constant private RECLAIM_ID = bytes4(keccak256(\"reclaim(uint256,address)\"));\r\n\r\n    constructor(ENS _ens, bytes32 _baseNode) ERC721(\"ThetaboardRegistrar\", \"TBR\")  {\r\n        ens = _ens;\r\n        baseNode = _baseNode;\r\n    }\r\n\r\n    modifier live {\r\n        require(ens.owner(baseNode) == address(this));\r\n        _;\r\n    }\r\n\r\n    modifier onlyController {\r\n        require(controllers[msg.sender]);\r\n        _;\r\n    }\r\n\r\n    // Authorises a controller, who can register and renew domains.\r\n    function addController(address controller) external override  {\r\n        controllers[controller] = true;\r\n        emit ControllerAdded(controller);\r\n    }\r\n\r\n    // Revoke controller permission for an address.\r\n    function removeController(address controller) external override onlyOwner {\r\n        controllers[controller] = false;\r\n        emit ControllerRemoved(controller);\r\n    }\r\n\r\n    // Set the resolver for the TLD this registrar manages.\r\n    function setResolver(address resolver) external override onlyOwner {\r\n        ens.setResolver(baseNode, resolver);\r\n    }\r\n\r\n     // Returns true iff the specified name is available for registration.\r\n    function available(uint256 id) public view override returns(bool) {\r\n        // Not available if it's registered here or in its grace period.\r\n        return !_exists(id);\r\n    }\r\n\r\n    /**\r\n     * @dev Register a name.\r\n     * @param id The token ID (keccak256 of the label).\r\n     * @param owner The address that should own the registration.\r\n     */\r\n    function register(uint256 id, address owner) external override {\r\n        _register(id, owner, true);\r\n    }\r\n\r\n    /**\r\n     * @dev Register a name, without modifying the registry.\r\n     * @param id The token ID (keccak256 of the label).\r\n     * @param owner The address that should own the registration.\r\n     */\r\n    function registerOnly(uint256 id, address owner) external {\r\n      _register(id, owner, false);\r\n    }\r\n\r\n    function _register(uint256 id, address owner, bool updateRegistry) internal live onlyController {\r\n        require(_exists(id) == false, \"BaseRegistrarImplementation: _register, this ID already exist\");\r\n\r\n        _mint(owner, id);\r\n\r\n        if(updateRegistry) {\r\n            ens.setSubnodeOwner(baseNode, bytes32(id), owner);\r\n        }\r\n\r\n        emit NameRegistered(id, owner);\r\n    }\r\n\r\n    /**\r\n     * @dev Reclaim ownership of a name in ENS, if you own it in the registrar.\r\n     */\r\n    function reclaim(uint256 id, address owner) external override live {\r\n        require(_isApprovedOrOwner(msg.sender, id));\r\n        ens.setSubnodeOwner(baseNode, bytes32(id), owner);\r\n    }\r\n\r\n    function supportsInterface(bytes4 interfaceId) public pure override(ERC721, IERC165) returns (bool) {\r\n        return interfaceId == INTERFACE_META_ID ||\r\n            interfaceId == ERC721_ID ||\r\n            interfaceId == RECLAIM_ID;\r\n    }\r\n}",
  "sourcePath": "/Users/adrienvinches/Documents/domains/smart_contracts_core/contracts/BaseRegistrarImplementation.sol",
  "compiler": {
    "name": "solc",
    "version": "0.8.4+commit.c7e474f2.Emscripten.clang"
  },
  "schemaVersion": "3.4.3",
  "updatedAt": "2022-01-13T00:39:35.135Z",
  "networkType": "ethereum",
  "devdoc": {
    "kind": "dev",
    "methods": {
      "approve(address,uint256)": {
        "details": "See {IERC721-approve}."
      },
      "balanceOf(address)": {
        "details": "See {IERC721-balanceOf}."
      },
      "getApproved(uint256)": {
        "details": "See {IERC721-getApproved}."
      },
      "isApprovedForAll(address,address)": {
        "details": "See {IERC721-isApprovedForAll}."
      },
      "name()": {
        "details": "See {IERC721Metadata-name}."
      },
      "owner()": {
        "details": "Returns the address of the current owner."
      },
      "ownerOf(uint256)": {
        "details": "See {IERC721-ownerOf}."
      },
      "reclaim(uint256,address)": {
        "details": "Reclaim ownership of a name in ENS, if you own it in the registrar."
      },
      "register(uint256,address)": {
        "details": "Register a name.",
        "params": {
          "id": "The token ID (keccak256 of the label).",
          "owner": "The address that should own the registration."
        }
      },
      "registerOnly(uint256,address)": {
        "details": "Register a name, without modifying the registry.",
        "params": {
          "id": "The token ID (keccak256 of the label).",
          "owner": "The address that should own the registration."
        }
      },
      "renounceOwnership()": {
        "details": "Leaves the contract without owner. It will not be possible to call `onlyOwner` functions anymore. Can only be called by the current owner. NOTE: Renouncing ownership will leave the contract without an owner, thereby removing any functionality that is only available to the owner."
      },
      "safeTransferFrom(address,address,uint256)": {
        "details": "See {IERC721-safeTransferFrom}."
      },
      "safeTransferFrom(address,address,uint256,bytes)": {
        "details": "See {IERC721-safeTransferFrom}."
      },
      "setApprovalForAll(address,bool)": {
        "details": "See {IERC721-setApprovalForAll}."
      },
      "symbol()": {
        "details": "See {IERC721Metadata-symbol}."
      },
      "tokenURI(uint256)": {
        "details": "See {IERC721Metadata-tokenURI}."
      },
      "transferFrom(address,address,uint256)": {
        "details": "See {IERC721-transferFrom}."
      },
      "transferOwnership(address)": {
        "details": "Transfers ownership of the contract to a new account (`newOwner`). Can only be called by the current owner."
      }
    },
    "version": 1
  },
  "userdoc": {
    "kind": "user",
    "methods": {},
    "version": 1
  }
}