{
  "contractName": "BaseRegistrarImplementation",
  "abi": [
    {
      "inputs": [
        {
          "internalType": "contract ENS",
          "name": "_ens",
          "type": "address"
        },
        {
          "internalType": "bytes32",
          "name": "_baseNode",
          "type": "bytes32"
        }
      ],
      "stateMutability": "nonpayable",
      "type": "constructor"
    },
    {
      "anonymous": false,
      "inputs": [
        {
          "indexed": true,
          "internalType": "address",
          "name": "owner",
          "type": "address"
        },
        {
          "indexed": true,
          "internalType": "address",
          "name": "approved",
          "type": "address"
        },
        {
          "indexed": true,
          "internalType": "uint256",
          "name": "tokenId",
          "type": "uint256"
        }
      ],
      "name": "Approval",
      "type": "event"
    },
    {
      "anonymous": false,
      "inputs": [
        {
          "indexed": true,
          "internalType": "address",
          "name": "owner",
          "type": "address"
        },
        {
          "indexed": true,
          "internalType": "address",
          "name": "operator",
          "type": "address"
        },
        {
          "indexed": false,
          "internalType": "bool",
          "name": "approved",
          "type": "bool"
        }
      ],
      "name": "ApprovalForAll",
      "type": "event"
    },
    {
      "anonymous": false,
      "inputs": [
        {
          "indexed": true,
          "internalType": "address",
          "name": "controller",
          "type": "address"
        }
      ],
      "name": "ControllerAdded",
      "type": "event"
    },
    {
      "anonymous": false,
      "inputs": [
        {
          "indexed": true,
          "internalType": "address",
          "name": "controller",
          "type": "address"
        }
      ],
      "name": "ControllerRemoved",
      "type": "event"
    },
    {
      "anonymous": false,
      "inputs": [
        {
          "indexed": true,
          "internalType": "uint256",
          "name": "id",
          "type": "uint256"
        },
        {
          "indexed": true,
          "internalType": "address",
          "name": "owner",
          "type": "address"
        },
        {
          "indexed": false,
          "internalType": "uint256",
          "name": "expires",
          "type": "uint256"
        }
      ],
      "name": "NameMigrated",
      "type": "event"
    },
    {
      "anonymous": false,
      "inputs": [
        {
          "indexed": true,
          "internalType": "uint256",
          "name": "id",
          "type": "uint256"
        },
        {
          "indexed": true,
          "internalType": "address",
          "name": "owner",
          "type": "address"
        },
        {
          "indexed": false,
          "internalType": "uint256",
          "name": "expires",
          "type": "uint256"
        }
      ],
      "name": "NameRegistered",
      "type": "event"
    },
    {
      "anonymous": false,
      "inputs": [
        {
          "indexed": true,
          "internalType": "uint256",
          "name": "id",
          "type": "uint256"
        },
        {
          "indexed": false,
          "internalType": "uint256",
          "name": "expires",
          "type": "uint256"
        }
      ],
      "name": "NameRenewed",
      "type": "event"
    },
    {
      "anonymous": false,
      "inputs": [
        {
          "indexed": true,
          "internalType": "address",
          "name": "previousOwner",
          "type": "address"
        },
        {
          "indexed": true,
          "internalType": "address",
          "name": "newOwner",
          "type": "address"
        }
      ],
      "name": "OwnershipTransferred",
      "type": "event"
    },
    {
      "anonymous": false,
      "inputs": [
        {
          "indexed": true,
          "internalType": "address",
          "name": "from",
          "type": "address"
        },
        {
          "indexed": true,
          "internalType": "address",
          "name": "to",
          "type": "address"
        },
        {
          "indexed": true,
          "internalType": "uint256",
          "name": "tokenId",
          "type": "uint256"
        }
      ],
      "name": "Transfer",
      "type": "event"
    },
    {
      "inputs": [],
      "name": "GRACE_PERIOD",
      "outputs": [
        {
          "internalType": "uint256",
          "name": "",
          "type": "uint256"
        }
      ],
      "stateMutability": "view",
      "type": "function"
    },
    {
      "inputs": [
        {
          "internalType": "address",
          "name": "to",
          "type": "address"
        },
        {
          "internalType": "uint256",
          "name": "tokenId",
          "type": "uint256"
        }
      ],
      "name": "approve",
      "outputs": [],
      "stateMutability": "nonpayable",
      "type": "function"
    },
    {
      "inputs": [
        {
          "internalType": "address",
          "name": "owner",
          "type": "address"
        }
      ],
      "name": "balanceOf",
      "outputs": [
        {
          "internalType": "uint256",
          "name": "",
          "type": "uint256"
        }
      ],
      "stateMutability": "view",
      "type": "function"
    },
    {
      "inputs": [],
      "name": "baseNode",
      "outputs": [
        {
          "internalType": "bytes32",
          "name": "",
          "type": "bytes32"
        }
      ],
      "stateMutability": "view",
      "type": "function"
    },
    {
      "inputs": [
        {
          "internalType": "address",
          "name": "",
          "type": "address"
        }
      ],
      "name": "controllers",
      "outputs": [
        {
          "internalType": "bool",
          "name": "",
          "type": "bool"
        }
      ],
      "stateMutability": "view",
      "type": "function"
    },
    {
      "inputs": [],
      "name": "ens",
      "outputs": [
        {
          "internalType": "contract ENS",
          "name": "",
          "type": "address"
        }
      ],
      "stateMutability": "view",
      "type": "function"
    },
    {
      "inputs": [
        {
          "internalType": "uint256",
          "name": "tokenId",
          "type": "uint256"
        }
      ],
      "name": "getApproved",
      "outputs": [
        {
          "internalType": "address",
          "name": "",
          "type": "address"
        }
      ],
      "stateMutability": "view",
      "type": "function"
    },
    {
      "inputs": [
        {
          "internalType": "address",
          "name": "owner",
          "type": "address"
        },
        {
          "internalType": "address",
          "name": "operator",
          "type": "address"
        }
      ],
      "name": "isApprovedForAll",
      "outputs": [
        {
          "internalType": "bool",
          "name": "",
          "type": "bool"
        }
      ],
      "stateMutability": "view",
      "type": "function"
    },
    {
      "inputs": [],
      "name": "name",
      "outputs": [
        {
          "internalType": "string",
          "name": "",
          "type": "string"
        }
      ],
      "stateMutability": "view",
      "type": "function"
    },
    {
      "inputs": [],
      "name": "owner",
      "outputs": [
        {
          "internalType": "address",
          "name": "",
          "type": "address"
        }
      ],
      "stateMutability": "view",
      "type": "function"
    },
    {
      "inputs": [],
      "name": "renounceOwnership",
      "outputs": [],
      "stateMutability": "nonpayable",
      "type": "function"
    },
    {
      "inputs": [
        {
          "internalType": "address",
          "name": "from",
          "type": "address"
        },
        {
          "internalType": "address",
          "name": "to",
          "type": "address"
        },
        {
          "internalType": "uint256",
          "name": "tokenId",
          "type": "uint256"
        }
      ],
      "name": "safeTransferFrom",
      "outputs": [],
      "stateMutability": "nonpayable",
      "type": "function"
    },
    {
      "inputs": [
        {
          "internalType": "address",
          "name": "from",
          "type": "address"
        },
        {
          "internalType": "address",
          "name": "to",
          "type": "address"
        },
        {
          "internalType": "uint256",
          "name": "tokenId",
          "type": "uint256"
        },
        {
          "internalType": "bytes",
          "name": "_data",
          "type": "bytes"
        }
      ],
      "name": "safeTransferFrom",
      "outputs": [],
      "stateMutability": "nonpayable",
      "type": "function"
    },
    {
      "inputs": [
        {
          "internalType": "address",
          "name": "operator",
          "type": "address"
        },
        {
          "internalType": "bool",
          "name": "approved",
          "type": "bool"
        }
      ],
      "name": "setApprovalForAll",
      "outputs": [],
      "stateMutability": "nonpayable",
      "type": "function"
    },
    {
      "inputs": [],
      "name": "symbol",
      "outputs": [
        {
          "internalType": "string",
          "name": "",
          "type": "string"
        }
      ],
      "stateMutability": "view",
      "type": "function"
    },
    {
      "inputs": [
        {
          "internalType": "uint256",
          "name": "tokenId",
          "type": "uint256"
        }
      ],
      "name": "tokenURI",
      "outputs": [
        {
          "internalType": "string",
          "name": "",
          "type": "string"
        }
      ],
      "stateMutability": "view",
      "type": "function"
    },
    {
      "inputs": [
        {
          "internalType": "address",
          "name": "from",
          "type": "address"
        },
        {
          "internalType": "address",
          "name": "to",
          "type": "address"
        },
        {
          "internalType": "uint256",
          "name": "tokenId",
          "type": "uint256"
        }
      ],
      "name": "transferFrom",
      "outputs": [],
      "stateMutability": "nonpayable",
      "type": "function"
    },
    {
      "inputs": [
        {
          "internalType": "address",
          "name": "newOwner",
          "type": "address"
        }
      ],
      "name": "transferOwnership",
      "outputs": [],
      "stateMutability": "nonpayable",
      "type": "function"
    },
    {
      "inputs": [
        {
          "internalType": "uint256",
          "name": "tokenId",
          "type": "uint256"
        }
      ],
      "name": "ownerOf",
      "outputs": [
        {
          "internalType": "address",
          "name": "",
          "type": "address"
        }
      ],
      "stateMutability": "view",
      "type": "function"
    },
    {
      "inputs": [
        {
          "internalType": "address",
          "name": "controller",
          "type": "address"
        }
      ],
      "name": "addController",
      "outputs": [],
      "stateMutability": "nonpayable",
      "type": "function"
    },
    {
      "inputs": [
        {
          "internalType": "address",
          "name": "controller",
          "type": "address"
        }
      ],
      "name": "removeController",
      "outputs": [],
      "stateMutability": "nonpayable",
      "type": "function"
    },
    {
      "inputs": [
        {
          "internalType": "address",
          "name": "resolver",
          "type": "address"
        }
      ],
      "name": "setResolver",
      "outputs": [],
      "stateMutability": "nonpayable",
      "type": "function"
    },
    {
      "inputs": [
        {
          "internalType": "uint256",
          "name": "id",
          "type": "uint256"
        }
      ],
      "name": "nameExpires",
      "outputs": [
        {
          "internalType": "uint256",
          "name": "",
          "type": "uint256"
        }
      ],
      "stateMutability": "view",
      "type": "function"
    },
    {
      "inputs": [
        {
          "internalType": "uint256",
          "name": "id",
          "type": "uint256"
        }
      ],
      "name": "available",
      "outputs": [
        {
          "internalType": "bool",
          "name": "",
          "type": "bool"
        }
      ],
      "stateMutability": "view",
      "type": "function"
    },
    {
      "inputs": [
        {
          "internalType": "uint256",
          "name": "id",
          "type": "uint256"
        },
        {
          "internalType": "address",
          "name": "owner",
          "type": "address"
        },
        {
          "internalType": "uint256",
          "name": "duration",
          "type": "uint256"
        }
      ],
      "name": "register",
      "outputs": [
        {
          "internalType": "uint256",
          "name": "",
          "type": "uint256"
        }
      ],
      "stateMutability": "nonpayable",
      "type": "function"
    },
    {
      "inputs": [
        {
          "internalType": "uint256",
          "name": "id",
          "type": "uint256"
        },
        {
          "internalType": "address",
          "name": "owner",
          "type": "address"
        },
        {
          "internalType": "uint256",
          "name": "duration",
          "type": "uint256"
        }
      ],
      "name": "registerOnly",
      "outputs": [
        {
          "internalType": "uint256",
          "name": "",
          "type": "uint256"
        }
      ],
      "stateMutability": "nonpayable",
      "type": "function"
    },
    {
      "inputs": [
        {
          "internalType": "uint256",
          "name": "id",
          "type": "uint256"
        },
        {
          "internalType": "uint256",
          "name": "duration",
          "type": "uint256"
        }
      ],
      "name": "renew",
      "outputs": [
        {
          "internalType": "uint256",
          "name": "",
          "type": "uint256"
        }
      ],
      "stateMutability": "nonpayable",
      "type": "function"
    },
    {
      "inputs": [
        {
          "internalType": "uint256",
          "name": "id",
          "type": "uint256"
        },
        {
          "internalType": "address",
          "name": "owner",
          "type": "address"
        }
      ],
      "name": "reclaim",
      "outputs": [],
      "stateMutability": "nonpayable",
      "type": "function"
    },
    {
      "inputs": [
        {
          "internalType": "bytes4",
          "name": "interfaceId",
          "type": "bytes4"
        }
      ],
      "name": "supportsInterface",
      "outputs": [
        {
          "internalType": "bool",
          "name": "",
          "type": "bool"
        }
      ],
      "stateMutability": "pure",
      "type": "function"
    }
  ],
  "bytecode": "0x60806040523480156200001157600080fd5b506040516200215c3803806200215c83398101604081905262000034916200020c565b6040518060400160405280601381526020017f5468657461626f617264526567697374726172000000000000000000000000008152506040518060400160405280600381526020017f5442520000000000000000000000000000000000000000000000000000000000815250620000ba620000b46200011260201b60201c565b62000116565b8151620000cf90600490602085019062000166565b508051620000e590600590602084019062000166565b5050600180546001600160a01b0319166001600160a01b039490941693909317909255600255506200029c565b3390565b600080546001600160a01b038381166001600160a01b0319831681178455604051919092169283917f8be0079c531659141344cd1fd0a4f28419497f9722a3daafe3b4186f6b6457e09190a35050565b828054620001749062000246565b90600052602060002090601f016020900481019282620001985760008555620001e3565b82601f10620001b357805160ff1916838001178555620001e3565b82800160010185558215620001e3579182015b82811115620001e3578251825591602001919060010190620001c6565b50620001f1929150620001f5565b5090565b5b80821115620001f15760008155600101620001f6565b600080604083850312156200021f578182fd5b82516001600160a01b038116811462000236578283fd5b6020939093015192949293505050565b600181811c908216806200025b57607f821691505b6020821081141562000296577f4e487b7100000000000000000000000000000000000000000000000000000000600052602260045260246000fd5b50919050565b611eb080620002ac6000396000f3fe608060405234801561001057600080fd5b50600436106101cf5760003560e01c806395d89b4111610104578063c87b56dd116100a2578063e985e9c511610071578063e985e9c5146103e0578063f2fde38b1461041c578063f6a74ed71461042f578063fca247ac1461044257600080fd5b8063c87b56dd14610381578063d6e4fa8614610394578063da8c229e146103b4578063ddf7fcb0146103d757600080fd5b8063a7fc7a07116100de578063a7fc7a071461033e578063b88d4fde14610351578063c1a287e214610364578063c475abff1461036e57600080fd5b806395d89b411461031057806396e494e814610318578063a22cb4651461032b57600080fd5b80633f15457f116101715780636352211e1161014b5780636352211e146102d157806370a08231146102e4578063715018a6146102f75780638da5cb5b146102ff57600080fd5b80633f15457f1461029857806342842e0e146102ab5780634e543b26146102be57600080fd5b8063095ea7b3116101ad578063095ea7b31461023c5780630e297b451461025157806323b872dd1461027257806328ed4f6c1461028557600080fd5b806301ffc9a7146101d457806306fdde03146101fc578063081812fc14610211575b600080fd5b6101e76101e2366004611af6565b610455565b60405190151581526020015b60405180910390f35b6102046104a7565b6040516101f39190611c49565b61022461021f366004611b2e565b610539565b6040516001600160a01b0390911681526020016101f3565b61024f61024a366004611ab3565b6105d3565b005b61026461025f366004611b6a565b6106e9565b6040519081526020016101f3565b61024f610280366004611969565b610700565b61024f610293366004611b46565b610731565b600154610224906001600160a01b031681565b61024f6102b9366004611969565b610868565b61024f6102cc3660046118f9565b610883565b6102246102df366004611b2e565b61091a565b6102646102f23660046118f9565b61093d565b61024f6109c4565b6000546001600160a01b0316610224565b6102046109fa565b6101e7610326366004611b2e565b610a09565b61024f610339366004611a82565b610a2f565b61024f61034c3660046118f9565b610af4565b61024f61035f3660046119a9565b610b6a565b6102646276a70081565b61026461037c366004611b90565b610ba2565b61020461038f366004611b2e565b610d42565b6102646103a2366004611b2e565b6000908152600a602052604090205490565b6101e76103c23660046118f9565b60036020526000908152604090205460ff1681565b61026460025481565b6101e76103ee366004611931565b6001600160a01b03918216600090815260096020908152604080832093909416825291909152205460ff1690565b61024f61042a3660046118f9565b610e2a565b61024f61043d3660046118f9565b610ec5565b610264610450366004611b6a565b610f38565b60006001600160e01b031982166301ffc9a760e01b148061048657506001600160e01b031982166380ac58cd60e01b145b806104a157506001600160e01b03198216630a3b53db60e21b145b92915050565b6060600480546104b690611da3565b80601f01602080910402602001604051908101604052809291908181526020018280546104e290611da3565b801561052f5780601f106105045761010080835404028352916020019161052f565b820191906000526020600020905b81548152906001019060200180831161051257829003601f168201915b5050505050905090565b6000818152600660205260408120546001600160a01b03166105b75760405162461bcd60e51b815260206004820152602c60248201527f4552433732313a20617070726f76656420717565727920666f72206e6f6e657860448201526b34b9ba32b73a103a37b5b2b760a11b60648201526084015b60405180910390fd5b506000908152600860205260409020546001600160a01b031690565b60006105de82610f47565b9050806001600160a01b0316836001600160a01b0316141561064c5760405162461bcd60e51b815260206004820152602160248201527f4552433732313a20617070726f76616c20746f2063757272656e74206f776e656044820152603960f91b60648201526084016105ae565b336001600160a01b0382161480610668575061066881336103ee565b6106da5760405162461bcd60e51b815260206004820152603860248201527f4552433732313a20617070726f76652063616c6c6572206973206e6f74206f7760448201527f6e6572206e6f7220617070726f76656420666f7220616c6c000000000000000060648201526084016105ae565b6106e48383610fbe565b505050565b60006106f8848484600061102c565b949350505050565b61070a338261125a565b6107265760405162461bcd60e51b81526004016105ae90611ce3565b6106e48383836112d5565b6001546002546040516302571be360e01b8152600481019190915230916001600160a01b0316906302571be39060240160206040518083038186803b15801561077957600080fd5b505afa15801561078d573d6000803e3d6000fd5b505050506040513d601f19601f820116820180604052508101906107b19190611915565b6001600160a01b0316146107c457600080fd5b6107ce338361125a565b6107d757600080fd5b6001546002546040516306ab592360e01b81526004810191909152602481018490526001600160a01b038381166044830152909116906306ab592390606401602060405180830381600087803b15801561083057600080fd5b505af1158015610844573d6000803e3d6000fd5b505050506040513d601f19601f820116820180604052508101906106e49190611ade565b6106e483838360405180602001604052806000815250610b6a565b6000546001600160a01b031633146108ad5760405162461bcd60e51b81526004016105ae90611cae565b600154600254604051630c4b7b8560e11b815260048101919091526001600160a01b03838116602483015290911690631896f70a90604401600060405180830381600087803b1580156108ff57600080fd5b505af1158015610913573d6000803e3d6000fd5b5050505050565b6000818152600a6020526040812054421061093457600080fd5b6104a182610f47565b60006001600160a01b0382166109a85760405162461bcd60e51b815260206004820152602a60248201527f4552433732313a2062616c616e636520717565727920666f7220746865207a65604482015269726f206164647265737360b01b60648201526084016105ae565b506001600160a01b031660009081526007602052604090205490565b6000546001600160a01b031633146109ee5760405162461bcd60e51b81526004016105ae90611cae565b6109f86000611475565b565b6060600580546104b690611da3565b6000818152600a60205260408120544290610a28906276a70090611d34565b1092915050565b6001600160a01b038216331415610a885760405162461bcd60e51b815260206004820152601960248201527f4552433732313a20617070726f766520746f2063616c6c65720000000000000060448201526064016105ae565b3360008181526009602090815260408083206001600160a01b03871680855290835292819020805460ff191686151590811790915590519081529192917f17307eab39ab6107e8899845ad3d59bd9653f200f220920489ca2b5937696c31910160405180910390a35050565b6000546001600160a01b03163314610b1e5760405162461bcd60e51b81526004016105ae90611cae565b6001600160a01b038116600081815260036020526040808220805460ff19166001179055517f0a8bb31534c0ed46f380cb867bd5c803a189ced9a764e30b3a4991a9901d74749190a250565b610b74338361125a565b610b905760405162461bcd60e51b81526004016105ae90611ce3565b610b9c848484846114c5565b50505050565b6001546002546040516302571be360e01b8152600481019190915260009130916001600160a01b03909116906302571be39060240160206040518083038186803b158015610bef57600080fd5b505afa158015610c03573d6000803e3d6000fd5b505050506040513d601f19601f82011682018060405250810190610c279190611915565b6001600160a01b031614610c3a57600080fd5b3360009081526003602052604090205460ff16610c5657600080fd5b6000838152600a60205260409020544290610c75906276a70090611d34565b1015610c8057600080fd5b610c8d6276a70083611d34565b6000848152600a60205260409020546276a70090610cac908590611d34565b610cb69190611d34565b11610cc057600080fd5b6000838152600a602052604081208054849290610cde908490611d34565b90915550506000838152600a60205260409081902054905184917f9b87a00e30f1ac65d898f070f8a3488fe60517182d0a2098e1b4b93a54aa9bd691610d2691815260200190565b60405180910390a250506000908152600a602052604090205490565b6000818152600660205260409020546060906001600160a01b0316610dc15760405162461bcd60e51b815260206004820152602f60248201527f4552433732314d657461646174613a2055524920717565727920666f72206e6f60448201526e3732bc34b9ba32b73a103a37b5b2b760891b60648201526084016105ae565b6000610dd860408051602081019091526000815290565b90506000815111610df85760405180602001604052806000815250610e23565b80610e02846114f8565b604051602001610e13929190611bdd565b6040516020818303038152906040525b9392505050565b6000546001600160a01b03163314610e545760405162461bcd60e51b81526004016105ae90611cae565b6001600160a01b038116610eb95760405162461bcd60e51b815260206004820152602660248201527f4f776e61626c653a206e6577206f776e657220697320746865207a65726f206160448201526564647265737360d01b60648201526084016105ae565b610ec281611475565b50565b6000546001600160a01b03163314610eef5760405162461bcd60e51b81526004016105ae90611cae565b6001600160a01b038116600081815260036020526040808220805460ff19169055517f33d83959be2573f5453b12eb9d43b3499bc57d96bd2f067ba44803c859e811139190a250565b60006106f8848484600161102c565b6000818152600660205260408120546001600160a01b0316806104a15760405162461bcd60e51b815260206004820152602960248201527f4552433732313a206f776e657220717565727920666f72206e6f6e657869737460448201526832b73a103a37b5b2b760b91b60648201526084016105ae565b600081815260086020526040902080546001600160a01b0319166001600160a01b0384169081179091558190610ff382610f47565b6001600160a01b03167f8c5be1e5ebec7d5bd14f71427d1e84f3dd0314c0f7b2291e5b200ac8c7c3b92560405160405180910390a45050565b6001546002546040516302571be360e01b8152600481019190915260009130916001600160a01b03909116906302571be39060240160206040518083038186803b15801561107957600080fd5b505afa15801561108d573d6000803e3d6000fd5b505050506040513d601f19601f820116820180604052508101906110b19190611915565b6001600160a01b0316146110c457600080fd5b3360009081526003602052604090205460ff166110e057600080fd5b6110e985610a09565b6110f257600080fd5b6110ff6276a70042611d34565b6276a70061110d8542611d34565b6111179190611d34565b1161112157600080fd5b61112b8342611d34565b6000868152600a60209081526040808320939093556006905220546001600160a01b03161561115d5761115d85611612565b61116784866116ad565b8115611200576001546002546040516306ab592360e01b81526004810191909152602481018790526001600160a01b038681166044830152909116906306ab592390606401602060405180830381600087803b1580156111c657600080fd5b505af11580156111da573d6000803e3d6000fd5b505050506040513d601f19601f820116820180604052508101906111fe9190611ade565b505b6001600160a01b038416857fb3d987963d01b2f68493b4bdb130988f157ea43070d4ad840fee0466ed9370d96112368642611d34565b60405190815260200160405180910390a36112518342611d34565b95945050505050565b6000806112668361091a565b9050806001600160a01b0316846001600160a01b031614806112a15750836001600160a01b031661129684610539565b6001600160a01b0316145b806106f857506001600160a01b0380821660009081526009602090815260408083209388168352929052205460ff166106f8565b826001600160a01b03166112e882610f47565b6001600160a01b0316146113505760405162461bcd60e51b815260206004820152602960248201527f4552433732313a207472616e73666572206f6620746f6b656e2074686174206960448201526839903737ba1037bbb760b91b60648201526084016105ae565b6001600160a01b0382166113b25760405162461bcd60e51b8152602060048201526024808201527f4552433732313a207472616e7366657220746f20746865207a65726f206164646044820152637265737360e01b60648201526084016105ae565b6113bd600082610fbe565b6001600160a01b03831660009081526007602052604081208054600192906113e6908490611d60565b90915550506001600160a01b0382166000908152600760205260408120805460019290611414908490611d34565b909155505060008181526006602052604080822080546001600160a01b0319166001600160a01b0386811691821790925591518493918716917fddf252ad1be2c89b69c2b068fc378daa952ba7f163c4a11628f55a4df523b3ef91a4505050565b600080546001600160a01b038381166001600160a01b0319831681178455604051919092169283917f8be0079c531659141344cd1fd0a4f28419497f9722a3daafe3b4186f6b6457e09190a35050565b6114d08484846112d5565b6114dc848484846117ef565b610b9c5760405162461bcd60e51b81526004016105ae90611c5c565b60608161151c5750506040805180820190915260018152600360fc1b602082015290565b8160005b8115611546578061153081611dde565b915061153f9050600a83611d4c565b9150611520565b60008167ffffffffffffffff81111561156f57634e487b7160e01b600052604160045260246000fd5b6040519080825280601f01601f191660200182016040528015611599576020820181803683370190505b5090505b84156106f8576115ae600183611d60565b91506115bb600a86611df9565b6115c6906030611d34565b60f81b8183815181106115e957634e487b7160e01b600052603260045260246000fd5b60200101906001600160f81b031916908160001a90535061160b600a86611d4c565b945061159d565b600061161d82610f47565b905061162a600083610fbe565b6001600160a01b0381166000908152600760205260408120805460019290611653908490611d60565b909155505060008281526006602052604080822080546001600160a01b0319169055518391906001600160a01b038416907fddf252ad1be2c89b69c2b068fc378daa952ba7f163c4a11628f55a4df523b3ef908390a45050565b6001600160a01b0382166117035760405162461bcd60e51b815260206004820181905260248201527f4552433732313a206d696e7420746f20746865207a65726f206164647265737360448201526064016105ae565b6000818152600660205260409020546001600160a01b0316156117685760405162461bcd60e51b815260206004820152601c60248201527f4552433732313a20746f6b656e20616c7265616479206d696e7465640000000060448201526064016105ae565b6001600160a01b0382166000908152600760205260408120805460019290611791908490611d34565b909155505060008181526006602052604080822080546001600160a01b0319166001600160a01b03861690811790915590518392907fddf252ad1be2c89b69c2b068fc378daa952ba7f163c4a11628f55a4df523b3ef908290a45050565b60006001600160a01b0384163b156118f157604051630a85bd0160e11b81526001600160a01b0385169063150b7a0290611833903390899088908890600401611c0c565b602060405180830381600087803b15801561184d57600080fd5b505af192505050801561187d575060408051601f3d908101601f1916820190925261187a91810190611b12565b60015b6118d7573d8080156118ab576040519150601f19603f3d011682016040523d82523d6000602084013e6118b0565b606091505b5080516118cf5760405162461bcd60e51b81526004016105ae90611c5c565b805181602001fd5b6001600160e01b031916630a85bd0160e11b1490506106f8565b5060016106f8565b60006020828403121561190a578081fd5b8135610e2381611e4f565b600060208284031215611926578081fd5b8151610e2381611e4f565b60008060408385031215611943578081fd5b823561194e81611e4f565b9150602083013561195e81611e4f565b809150509250929050565b60008060006060848603121561197d578081fd5b833561198881611e4f565b9250602084013561199881611e4f565b929592945050506040919091013590565b600080600080608085870312156119be578081fd5b84356119c981611e4f565b935060208501356119d981611e4f565b925060408501359150606085013567ffffffffffffffff808211156119fc578283fd5b818701915087601f830112611a0f578283fd5b813581811115611a2157611a21611e39565b604051601f8201601f19908116603f01168101908382118183101715611a4957611a49611e39565b816040528281528a6020848701011115611a61578586fd5b82602086016020830137918201602001949094529598949750929550505050565b60008060408385031215611a94578182fd5b8235611a9f81611e4f565b91506020830135801515811461195e578182fd5b60008060408385031215611ac5578182fd5b8235611ad081611e4f565b946020939093013593505050565b600060208284031215611aef578081fd5b5051919050565b600060208284031215611b07578081fd5b8135610e2381611e64565b600060208284031215611b23578081fd5b8151610e2381611e64565b600060208284031215611b3f578081fd5b5035919050565b60008060408385031215611b58578182fd5b82359150602083013561195e81611e4f565b600080600060608486031215611b7e578283fd5b83359250602084013561199881611e4f565b60008060408385031215611ba2578182fd5b50508035926020909101359150565b60008151808452611bc9816020860160208601611d77565b601f01601f19169290920160200192915050565b60008351611bef818460208801611d77565b835190830190611c03818360208801611d77565b01949350505050565b6001600160a01b0385811682528416602082015260408101839052608060608201819052600090611c3f90830184611bb1565b9695505050505050565b602081526000610e236020830184611bb1565b60208082526032908201527f4552433732313a207472616e7366657220746f206e6f6e20455243373231526560408201527131b2b4bb32b91034b6b83632b6b2b73a32b960711b606082015260800190565b6020808252818101527f4f776e61626c653a2063616c6c6572206973206e6f7420746865206f776e6572604082015260600190565b60208082526031908201527f4552433732313a207472616e736665722063616c6c6572206973206e6f74206f6040820152701ddb995c881b9bdc88185c1c1c9bdd9959607a1b606082015260800190565b60008219821115611d4757611d47611e0d565b500190565b600082611d5b57611d5b611e23565b500490565b600082821015611d7257611d72611e0d565b500390565b60005b83811015611d92578181015183820152602001611d7a565b83811115610b9c5750506000910152565b600181811c90821680611db757607f821691505b60208210811415611dd857634e487b7160e01b600052602260045260246000fd5b50919050565b6000600019821415611df257611df2611e0d565b5060010190565b600082611e0857611e08611e23565b500690565b634e487b7160e01b600052601160045260246000fd5b634e487b7160e01b600052601260045260246000fd5b634e487b7160e01b600052604160045260246000fd5b6001600160a01b0381168114610ec257600080fd5b6001600160e01b031981168114610ec257600080fdfea2646970667358221220a432ca4327d32812d9f03b1c988e43533f065ce0529c34ae3d2563b3184602eb64736f6c63430008040033",
  "immutableReferences": {},
  "source": "// SPDX-License-Identifier: UNLICENSED\r\npragma solidity ^0.8.4;\r\n\r\nimport \"@ensdomains/ens-contracts/contracts/registry/ENS.sol\";\r\nimport \"@ensdomains/ens-contracts/contracts/ethregistrar/BaseRegistrar.sol\";\r\nimport \"@openzeppelin/contracts/token/ERC721/ERC721.sol\";\r\n\r\n\r\ncontract BaseRegistrarImplementation is BaseRegistrar, ERC721 {\r\n\r\n    // A map of expiry times\r\n    mapping(uint256=>uint) expiries;\r\n\r\n    bytes4 constant private INTERFACE_META_ID = bytes4(keccak256(\"supportsInterface(bytes4)\"));\r\n    bytes4 constant private ERC721_ID = bytes4(\r\n        keccak256(\"balanceOf(address)\") ^\r\n        keccak256(\"ownerOf(uint256)\") ^\r\n        keccak256(\"approve(address,uint256)\") ^\r\n        keccak256(\"getApproved(uint256)\") ^\r\n        keccak256(\"setApprovalForAll(address,bool)\") ^\r\n        keccak256(\"isApprovedForAll(address,address)\") ^\r\n        keccak256(\"transferFrom(address,address,uint256)\") ^\r\n        keccak256(\"safeTransferFrom(address,address,uint256)\") ^\r\n        keccak256(\"safeTransferFrom(address,address,uint256,bytes)\")\r\n    );\r\n    bytes4 constant private RECLAIM_ID = bytes4(keccak256(\"reclaim(uint256,address)\"));\r\n\r\n    /**\r\n     * v2.1.3 version of _isApprovedOrOwner which calls ownerOf(tokenId) and takes grace period into consideration instead of ERC721.ownerOf(tokenId);\r\n     * https://github.com/OpenZeppelin/openzeppelin-contracts/blob/v2.1.3/contracts/token/ERC721/ERC721.sol#L187\r\n     * @dev Returns whether the given spender can transfer a given token ID\r\n     * @param spender address of the spender to query\r\n     * @param tokenId uint256 ID of the token to be transferred\r\n     * @return bool whether the msg.sender is approved for the given token ID,\r\n     *    is an operator of the owner, or is the owner of the token\r\n     */\r\n    function _isApprovedOrOwner(address spender, uint256 tokenId) internal view override returns (bool) {\r\n        address owner = ownerOf(tokenId);\r\n        return (spender == owner || getApproved(tokenId) == spender || isApprovedForAll(owner, spender));\r\n    }\r\n\r\n    constructor(ENS _ens, bytes32 _baseNode) ERC721(\"ThetaboardRegistrar\", \"TBR\")  {\r\n        ens = _ens;\r\n        baseNode = _baseNode;\r\n    }\r\n\r\n    modifier live {\r\n        require(ens.owner(baseNode) == address(this));\r\n        _;\r\n    }\r\n\r\n    modifier onlyController {\r\n        require(controllers[msg.sender]);\r\n        _;\r\n    }\r\n\r\n    /**\r\n     * @dev Gets the owner of the specified token ID. Names become unowned\r\n     *      when their registration expires.\r\n     * @param tokenId uint256 ID of the token to query the owner of\r\n     * @return address currently marked as the owner of the given token ID\r\n     */\r\n    function ownerOf(uint256 tokenId) public view override(IERC721, ERC721) returns (address) {\r\n        require(expiries[tokenId] > block.timestamp);\r\n        return super.ownerOf(tokenId);\r\n    }\r\n\r\n    // Authorises a controller, who can register and renew domains.\r\n    function addController(address controller) external override onlyOwner {\r\n        controllers[controller] = true;\r\n        emit ControllerAdded(controller);\r\n    }\r\n\r\n    // Revoke controller permission for an address.\r\n    function removeController(address controller) external override onlyOwner {\r\n        controllers[controller] = false;\r\n        emit ControllerRemoved(controller);\r\n    }\r\n\r\n    // Set the resolver for the TLD this registrar manages.\r\n    function setResolver(address resolver) external override onlyOwner {\r\n        ens.setResolver(baseNode, resolver);\r\n    }\r\n\r\n    // Returns the expiration timestamp of the specified id.\r\n    function nameExpires(uint256 id) external view override returns(uint) {\r\n        return expiries[id];\r\n    }\r\n\r\n    // Returns true iff the specified name is available for registration.\r\n    function available(uint256 id) public view override returns (bool) {\r\n        // Not available if it's registered here or in its grace period.\r\n        return expiries[id] + GRACE_PERIOD < block.timestamp;\r\n    }\r\n\r\n    /**\r\n     * @dev Register a name.\r\n     * @param id The token ID (keccak256 of the label).\r\n     * @param owner The address that should own the registration.\r\n     * @param duration Duration in seconds for the registration.\r\n     */\r\n    function register(uint256 id, address owner, uint duration) external override returns (uint) {\r\n        return _register(id, owner, duration, true);\r\n    }\r\n\r\n    /**\r\n     * @dev Register a name, without modifying the registry.\r\n     * @param id The token ID (keccak256 of the label).\r\n     * @param owner The address that should own the registration.\r\n     * @param duration Duration in seconds for the registration.\r\n     */\r\n    function registerOnly(uint256 id, address owner, uint duration) external returns(uint) {\r\n      return _register(id, owner, duration, false);\r\n    }\r\n\r\n    function _register(uint256 id, address owner, uint duration, bool updateRegistry) internal live onlyController returns(uint) {\r\n        require(available(id));\r\n        require(block.timestamp + duration + GRACE_PERIOD > block.timestamp + GRACE_PERIOD); // Prevent future overflow\r\n\r\n        expiries[id] = block.timestamp + duration;\r\n        if(_exists(id)) {\r\n            // Name was previously owned, and expired\r\n            _burn(id);\r\n        }\r\n        _mint(owner, id);\r\n        if(updateRegistry) {\r\n            ens.setSubnodeOwner(baseNode, bytes32(id), owner);\r\n        }\r\n\r\n        emit NameRegistered(id, owner, block.timestamp + duration);\r\n\r\n        return block.timestamp + duration;\r\n    }\r\n\r\n    function renew(uint256 id, uint duration) external override live onlyController returns(uint) {\r\n        require(expiries[id] + GRACE_PERIOD >= block.timestamp); // Name must be registered here or in grace period\r\n        require(expiries[id] + duration + GRACE_PERIOD > duration + GRACE_PERIOD); // Prevent future overflow\r\n\r\n        expiries[id] += duration;\r\n        emit NameRenewed(id, expiries[id]);\r\n        return expiries[id];\r\n    }\r\n\r\n    /**\r\n     * @dev Reclaim ownership of a name in ENS, if you own it in the registrar.\r\n     */\r\n    function reclaim(uint256 id, address owner) external override live {\r\n        require(_isApprovedOrOwner(msg.sender, id));\r\n        ens.setSubnodeOwner(baseNode, bytes32(id), owner);\r\n    }\r\n\r\n    function supportsInterface(bytes4 interfaceId) public pure override(ERC721, IERC165) returns (bool) {\r\n        return interfaceId == INTERFACE_META_ID ||\r\n            interfaceId == ERC721_ID ||\r\n            interfaceId == RECLAIM_ID;\r\n    }\r\n}",
  "sourcePath": "D:\\Posao-Stefan\\Stefan-razno\\Blockchain\\Thetaboard\\core-contracts\\contracts\\BaseRegistrarImplementation.sol",
  "compiler": {
    "name": "solc",
    "version": "0.8.4+commit.c7e474f2.Emscripten.clang"
  },
  "schemaVersion": "3.4.3",
  "updatedAt": "2021-09-16T14:25:26.898Z",
  "devdoc": {
    "kind": "dev",
    "methods": {
      "approve(address,uint256)": {
        "details": "See {IERC721-approve}."
      },
      "balanceOf(address)": {
        "details": "See {IERC721-balanceOf}."
      },
      "getApproved(uint256)": {
        "details": "See {IERC721-getApproved}."
      },
      "isApprovedForAll(address,address)": {
        "details": "See {IERC721-isApprovedForAll}."
      },
      "name()": {
        "details": "See {IERC721Metadata-name}."
      },
      "owner()": {
        "details": "Returns the address of the current owner."
      },
      "ownerOf(uint256)": {
        "details": "Gets the owner of the specified token ID. Names become unowned      when their registration expires.",
        "params": {
          "tokenId": "uint256 ID of the token to query the owner of"
        },
        "returns": {
          "_0": "address currently marked as the owner of the given token ID"
        }
      },
      "reclaim(uint256,address)": {
        "details": "Reclaim ownership of a name in ENS, if you own it in the registrar."
      },
      "register(uint256,address,uint256)": {
        "details": "Register a name.",
        "params": {
          "duration": "Duration in seconds for the registration.",
          "id": "The token ID (keccak256 of the label).",
          "owner": "The address that should own the registration."
        }
      },
      "registerOnly(uint256,address,uint256)": {
        "details": "Register a name, without modifying the registry.",
        "params": {
          "duration": "Duration in seconds for the registration.",
          "id": "The token ID (keccak256 of the label).",
          "owner": "The address that should own the registration."
        }
      },
      "renounceOwnership()": {
        "details": "Leaves the contract without owner. It will not be possible to call `onlyOwner` functions anymore. Can only be called by the current owner. NOTE: Renouncing ownership will leave the contract without an owner, thereby removing any functionality that is only available to the owner."
      },
      "safeTransferFrom(address,address,uint256)": {
        "details": "See {IERC721-safeTransferFrom}."
      },
      "safeTransferFrom(address,address,uint256,bytes)": {
        "details": "See {IERC721-safeTransferFrom}."
      },
      "setApprovalForAll(address,bool)": {
        "details": "See {IERC721-setApprovalForAll}."
      },
      "symbol()": {
        "details": "See {IERC721Metadata-symbol}."
      },
      "tokenURI(uint256)": {
        "details": "See {IERC721Metadata-tokenURI}."
      },
      "transferFrom(address,address,uint256)": {
        "details": "See {IERC721-transferFrom}."
      },
      "transferOwnership(address)": {
        "details": "Transfers ownership of the contract to a new account (`newOwner`). Can only be called by the current owner."
      }
    },
    "version": 1
  },
  "userdoc": {
    "kind": "user",
    "methods": {},
    "version": 1
  }
}