{
  "contractName": "Controllable",
  "abi": [
    {
      "anonymous": false,
      "inputs": [
        {
          "indexed": true,
          "internalType": "address",
          "name": "controller",
          "type": "address"
        },
        {
          "indexed": false,
          "internalType": "bool",
          "name": "enabled",
          "type": "bool"
        }
      ],
      "name": "ControllerChanged",
      "type": "event"
    },
    {
      "anonymous": false,
      "inputs": [
        {
          "indexed": true,
          "internalType": "address",
          "name": "previousOwner",
          "type": "address"
        },
        {
          "indexed": true,
          "internalType": "address",
          "name": "newOwner",
          "type": "address"
        }
      ],
      "name": "OwnershipTransferred",
      "type": "event"
    },
    {
      "inputs": [
        {
          "internalType": "address",
          "name": "",
          "type": "address"
        }
      ],
      "name": "controllers",
      "outputs": [
        {
          "internalType": "bool",
          "name": "",
          "type": "bool"
        }
      ],
      "stateMutability": "view",
      "type": "function"
    },
    {
      "inputs": [],
      "name": "owner",
      "outputs": [
        {
          "internalType": "address",
          "name": "",
          "type": "address"
        }
      ],
      "stateMutability": "view",
      "type": "function"
    },
    {
      "inputs": [],
      "name": "renounceOwnership",
      "outputs": [],
      "stateMutability": "nonpayable",
      "type": "function"
    },
    {
      "inputs": [
        {
          "internalType": "address",
          "name": "newOwner",
          "type": "address"
        }
      ],
      "name": "transferOwnership",
      "outputs": [],
      "stateMutability": "nonpayable",
      "type": "function"
    },
    {
      "inputs": [
        {
          "internalType": "address",
          "name": "controller",
          "type": "address"
        },
        {
          "internalType": "bool",
          "name": "enabled",
          "type": "bool"
        }
      ],
      "name": "setController",
      "outputs": [],
      "stateMutability": "nonpayable",
      "type": "function"
    }
  ],
  "bytecode": "0x608060405234801561001057600080fd5b5061001a3361001f565b61006f565b600080546001600160a01b038381166001600160a01b0319831681178455604051919092169283917f8be0079c531659141344cd1fd0a4f28419497f9722a3daafe3b4186f6b6457e09190a35050565b6103748061007e6000396000f3fe608060405234801561001057600080fd5b50600436106100575760003560e01c8063715018a61461005c5780638da5cb5b14610066578063da8c229e14610086578063e0dba60f146100b9578063f2fde38b146100cc575b600080fd5b6100646100df565b005b6000546040516001600160a01b0390911681526020015b60405180910390f35b6100a96100943660046102ae565b60016020526000908152604090205460ff1681565b604051901515815260200161007d565b6100646100c73660046102cf565b61011e565b6100646100da3660046102ae565b6101a7565b6000546001600160a01b031633146101125760405162461bcd60e51b815260040161010990610309565b60405180910390fd5b61011c6000610242565b565b6000546001600160a01b031633146101485760405162461bcd60e51b815260040161010990610309565b6001600160a01b038216600081815260016020908152604091829020805460ff191685151590811790915591519182527f4c97694570a07277810af7e5669ffd5f6a2d6b74b6e9a274b8b870fd5114cf87910160405180910390a25050565b6000546001600160a01b031633146101d15760405162461bcd60e51b815260040161010990610309565b6001600160a01b0381166102365760405162461bcd60e51b815260206004820152602660248201527f4f776e61626c653a206e6577206f776e657220697320746865207a65726f206160448201526564647265737360d01b6064820152608401610109565b61023f81610242565b50565b600080546001600160a01b038381166001600160a01b0319831681178455604051919092169283917f8be0079c531659141344cd1fd0a4f28419497f9722a3daafe3b4186f6b6457e09190a35050565b80356001600160a01b03811681146102a957600080fd5b919050565b6000602082840312156102bf578081fd5b6102c882610292565b9392505050565b600080604083850312156102e1578081fd5b6102ea83610292565b9150602083013580151581146102fe578182fd5b809150509250929050565b6020808252818101527f4f776e61626c653a2063616c6c6572206973206e6f7420746865206f776e657260408201526060019056fea264697066735822122070f3fc3a494bfea4e8e28d3ba5228542f38fad1726eb483e1744734f80cb0cf464736f6c63430008040033",
  "immutableReferences": {},
  "source": "// SPDX-License-Identifier: MIT\r\npragma solidity ^0.8.4;\r\n\r\nimport \"@openzeppelin/contracts/access/Ownable.sol\";\r\n\r\ncontract Controllable is Ownable {\r\n    mapping(address => bool) public controllers;\r\n\r\n    event ControllerChanged(address indexed controller, bool enabled);\r\n\r\n    modifier onlyController {\r\n        require(\r\n            controllers[msg.sender],\r\n            \"Controllable: Caller is not a controller\"\r\n        );\r\n        _;\r\n    }\r\n\r\n    function setController(address controller, bool enabled) public onlyOwner {\r\n        controllers[controller] = enabled;\r\n        emit ControllerChanged(controller, enabled);\r\n    }\r\n}",
  "sourcePath": "/Users/adrienvinches/Documents/domains/smart_contracts_core/contracts/utils/Controllable.sol",
  "compiler": {
    "name": "solc",
    "version": "0.8.4+commit.c7e474f2.Emscripten.clang"
  },
  "schemaVersion": "3.4.3",
  "updatedAt": "2021-11-19T13:18:31.572Z",
  "devdoc": {
    "kind": "dev",
    "methods": {
      "owner()": {
        "details": "Returns the address of the current owner."
      },
      "renounceOwnership()": {
        "details": "Leaves the contract without owner. It will not be possible to call `onlyOwner` functions anymore. Can only be called by the current owner. NOTE: Renouncing ownership will leave the contract without an owner, thereby removing any functionality that is only available to the owner."
      },
      "transferOwnership(address)": {
        "details": "Transfers ownership of the contract to a new account (`newOwner`). Can only be called by the current owner."
      }
    },
    "version": 1
  },
  "userdoc": {
    "kind": "user",
    "methods": {},
    "version": 1
  }
}