{
  "contractName": "ENSRegistry",
  "abi": [
    {
      "inputs": [],
      "stateMutability": "nonpayable",
      "type": "constructor"
    },
    {
      "anonymous": false,
      "inputs": [
        {
          "indexed": true,
          "internalType": "address",
          "name": "owner",
          "type": "address"
        },
        {
          "indexed": true,
          "internalType": "address",
          "name": "operator",
          "type": "address"
        },
        {
          "indexed": false,
          "internalType": "bool",
          "name": "approved",
          "type": "bool"
        }
      ],
      "name": "ApprovalForAll",
      "type": "event"
    },
    {
      "anonymous": false,
      "inputs": [
        {
          "indexed": true,
          "internalType": "bytes32",
          "name": "node",
          "type": "bytes32"
        },
        {
          "indexed": true,
          "internalType": "bytes32",
          "name": "label",
          "type": "bytes32"
        },
        {
          "indexed": false,
          "internalType": "address",
          "name": "owner",
          "type": "address"
        }
      ],
      "name": "NewOwner",
      "type": "event"
    },
    {
      "anonymous": false,
      "inputs": [
        {
          "indexed": true,
          "internalType": "bytes32",
          "name": "node",
          "type": "bytes32"
        },
        {
          "indexed": false,
          "internalType": "address",
          "name": "resolver",
          "type": "address"
        }
      ],
      "name": "NewResolver",
      "type": "event"
    },
    {
      "anonymous": false,
      "inputs": [
        {
          "indexed": true,
          "internalType": "bytes32",
          "name": "node",
          "type": "bytes32"
        },
        {
          "indexed": false,
          "internalType": "uint64",
          "name": "ttl",
          "type": "uint64"
        }
      ],
      "name": "NewTTL",
      "type": "event"
    },
    {
      "anonymous": false,
      "inputs": [
        {
          "indexed": true,
          "internalType": "bytes32",
          "name": "node",
          "type": "bytes32"
        },
        {
          "indexed": false,
          "internalType": "address",
          "name": "owner",
          "type": "address"
        }
      ],
      "name": "Transfer",
      "type": "event"
    },
    {
      "inputs": [
        {
          "internalType": "bytes32",
          "name": "_node",
          "type": "bytes32"
        },
        {
          "internalType": "address",
          "name": "_owner",
          "type": "address"
        },
        {
          "internalType": "address",
          "name": "_resolver",
          "type": "address"
        },
        {
          "internalType": "uint64",
          "name": "_ttl",
          "type": "uint64"
        }
      ],
      "name": "setRecord",
      "outputs": [],
      "stateMutability": "nonpayable",
      "type": "function"
    },
    {
      "inputs": [
        {
          "internalType": "bytes32",
          "name": "_node",
          "type": "bytes32"
        },
        {
          "internalType": "bytes32",
          "name": "_label",
          "type": "bytes32"
        },
        {
          "internalType": "address",
          "name": "_owner",
          "type": "address"
        },
        {
          "internalType": "address",
          "name": "_resolver",
          "type": "address"
        },
        {
          "internalType": "uint64",
          "name": "_ttl",
          "type": "uint64"
        }
      ],
      "name": "setSubnodeRecord",
      "outputs": [],
      "stateMutability": "nonpayable",
      "type": "function"
    },
    {
      "inputs": [
        {
          "internalType": "bytes32",
          "name": "_node",
          "type": "bytes32"
        },
        {
          "internalType": "address",
          "name": "_owner",
          "type": "address"
        }
      ],
      "name": "setOwner",
      "outputs": [],
      "stateMutability": "nonpayable",
      "type": "function"
    },
    {
      "inputs": [
        {
          "internalType": "bytes32",
          "name": "_node",
          "type": "bytes32"
        },
        {
          "internalType": "bytes32",
          "name": "_label",
          "type": "bytes32"
        },
        {
          "internalType": "address",
          "name": "_owner",
          "type": "address"
        }
      ],
      "name": "setSubnodeOwner",
      "outputs": [
        {
          "internalType": "bytes32",
          "name": "",
          "type": "bytes32"
        }
      ],
      "stateMutability": "nonpayable",
      "type": "function"
    },
    {
      "inputs": [
        {
          "internalType": "bytes32",
          "name": "_node",
          "type": "bytes32"
        },
        {
          "internalType": "address",
          "name": "_resolver",
          "type": "address"
        }
      ],
      "name": "setResolver",
      "outputs": [],
      "stateMutability": "nonpayable",
      "type": "function"
    },
    {
      "inputs": [
        {
          "internalType": "bytes32",
          "name": "_node",
          "type": "bytes32"
        },
        {
          "internalType": "uint64",
          "name": "_ttl",
          "type": "uint64"
        }
      ],
      "name": "setTTL",
      "outputs": [],
      "stateMutability": "nonpayable",
      "type": "function"
    },
    {
      "inputs": [
        {
          "internalType": "address",
          "name": "operator",
          "type": "address"
        },
        {
          "internalType": "bool",
          "name": "approved",
          "type": "bool"
        }
      ],
      "name": "setApprovalForAll",
      "outputs": [],
      "stateMutability": "nonpayable",
      "type": "function"
    },
    {
      "inputs": [
        {
          "internalType": "bytes32",
          "name": "node",
          "type": "bytes32"
        }
      ],
      "name": "owner",
      "outputs": [
        {
          "internalType": "address",
          "name": "",
          "type": "address"
        }
      ],
      "stateMutability": "view",
      "type": "function"
    },
    {
      "inputs": [
        {
          "internalType": "bytes32",
          "name": "node",
          "type": "bytes32"
        }
      ],
      "name": "resolver",
      "outputs": [
        {
          "internalType": "address",
          "name": "",
          "type": "address"
        }
      ],
      "stateMutability": "view",
      "type": "function"
    },
    {
      "inputs": [
        {
          "internalType": "bytes32",
          "name": "node",
          "type": "bytes32"
        }
      ],
      "name": "ttl",
      "outputs": [
        {
          "internalType": "uint64",
          "name": "",
          "type": "uint64"
        }
      ],
      "stateMutability": "view",
      "type": "function"
    },
    {
      "inputs": [
        {
          "internalType": "bytes32",
          "name": "node",
          "type": "bytes32"
        }
      ],
      "name": "recordExists",
      "outputs": [
        {
          "internalType": "bool",
          "name": "",
          "type": "bool"
        }
      ],
      "stateMutability": "view",
      "type": "function"
    },
    {
      "inputs": [
        {
          "internalType": "address",
          "name": "_owner",
          "type": "address"
        },
        {
          "internalType": "address",
          "name": "_operator",
          "type": "address"
        }
      ],
      "name": "isApprovedForAll",
      "outputs": [
        {
          "internalType": "bool",
          "name": "",
          "type": "bool"
        }
      ],
      "stateMutability": "view",
      "type": "function"
    }
  ],
  "bytecode": "0x608060405234801561001057600080fd5b5060008080526020527fad3228b676f7d3cd4284a5443f17f1962b36e491b30a40b2405849e597ba5fb580546001600160a01b031916331790556109ad806100596000396000f3fe608060405234801561001057600080fd5b50600436106100b45760003560e01c80635b0fc9c3116100715780635b0fc9c3146101ab5780635ef2c7f0146101be578063a22cb465146101d1578063cf408823146101e4578063e985e9c5146101f7578063f79fe5381461024357600080fd5b80630178b8bf146100b957806302571be31461010257806306ab59231461011557806314ab90381461013657806316a25cbd1461014b5780631896f70a14610198575b600080fd5b6100e56100c7366004610845565b6000908152602081905260409020600101546001600160a01b031690565b6040516001600160a01b0390911681526020015b60405180910390f35b6100e5610110366004610845565b61026e565b6101286101233660046108cb565b61029d565b6040519081526020016100f9565b610149610144366004610955565b61036d565b005b61017f610159366004610845565b600090815260208190526040902060010154600160a01b900467ffffffffffffffff1690565b60405167ffffffffffffffff90911681526020016100f9565b6101496101a636600461085d565b610440565b6101496101b936600461085d565b610505565b6101496101cc3660046108ff565b6105a7565b6101496101df36600461080b565b6105c9565b6101496101f236600461087f565b610635565b6102336102053660046107d9565b6001600160a01b03918216600090815260016020908152604080832093909416825291909152205460ff1690565b60405190151581526020016100f9565b610233610251366004610845565b6000908152602081905260409020546001600160a01b0316151590565b6000818152602081905260408120546001600160a01b0316308114156102975750600092915050565b92915050565b60008381526020819052604081205484906001600160a01b0316338114806102e857506001600160a01b038116600090815260016020908152604080832033845290915290205460ff165b6102f157600080fd5b604080516020808201899052818301889052825180830384018152606090920190925280519101206103238186610650565b6040516001600160a01b0386168152869088907fce0457fe73731f824cc272376169235128c118b49d344817417c6d108d155e829060200160405180910390a39695505050505050565b60008281526020819052604090205482906001600160a01b0316338114806103b857506001600160a01b038116600090815260016020908152604080832033845290915290205460ff165b6103c157600080fd5b60405167ffffffffffffffff8416815284907f1d4f9bbfc9cab89d66e1a1562f2233ccbf1308cb4f63de2ead5787adddb8fa689060200160405180910390a25050600091825260208290526040909120600101805467ffffffffffffffff909216600160a01b0267ffffffffffffffff60a01b19909216919091179055565b60008281526020819052604090205482906001600160a01b03163381148061048b57506001600160a01b038116600090815260016020908152604080832033845290915290205460ff165b61049457600080fd5b6040516001600160a01b038416815284907f335721b01866dc23fbee8b6b2c7b1e14d6f05c28cd35a2c934239f94095602a09060200160405180910390a2505060009182526020829052604090912060010180546001600160a01b0319166001600160a01b03909216919091179055565b60008281526020819052604090205482906001600160a01b03163381148061055057506001600160a01b038116600090815260016020908152604080832033845290915290205460ff165b61055957600080fd5b6105638484610650565b6040516001600160a01b038416815284907fd4735d920b0f87494915f556dd9b54c8f309026070caea5c737245152564d2669060200160405180910390a250505050565b60006105b486868661029d565b90506105c181848461067e565b505050505050565b3360008181526001602090815260408083206001600160a01b03871680855290835292819020805460ff191686151590811790915590519081529192917f17307eab39ab6107e8899845ad3d59bd9653f200f220920489ca2b5937696c31910160405180910390a35050565b61063f8484610505565b61064a84838361067e565b50505050565b60009182526020829052604090912080546001600160a01b0319166001600160a01b03909216919091179055565b6000838152602081905260409020600101546001600160a01b03838116911614610704576000838152602081815260409182902060010180546001600160a01b0319166001600160a01b038616908117909155915191825284917f335721b01866dc23fbee8b6b2c7b1e14d6f05c28cd35a2c934239f94095602a0910160405180910390a25b60008381526020819052604090206001015467ffffffffffffffff828116600160a01b90920416146107a05760008381526020818152604091829020600101805467ffffffffffffffff60a01b1916600160a01b67ffffffffffffffff861690810291909117909155915191825284917f1d4f9bbfc9cab89d66e1a1562f2233ccbf1308cb4f63de2ead5787adddb8fa68910160405180910390a25b505050565b80356001600160a01b03811681146107bc57600080fd5b919050565b803567ffffffffffffffff811681146107bc57600080fd5b600080604083850312156107eb578182fd5b6107f4836107a5565b9150610802602084016107a5565b90509250929050565b6000806040838503121561081d578182fd5b610826836107a5565b91506020830135801515811461083a578182fd5b809150509250929050565b600060208284031215610856578081fd5b5035919050565b6000806040838503121561086f578182fd5b82359150610802602084016107a5565b60008060008060808587031215610894578182fd5b843593506108a4602086016107a5565b92506108b2604086016107a5565b91506108c0606086016107c1565b905092959194509250565b6000806000606084860312156108df578283fd5b83359250602084013591506108f6604085016107a5565b90509250925092565b600080600080600060a08688031215610916578081fd5b853594506020860135935061092d604087016107a5565b925061093b606087016107a5565b9150610949608087016107c1565b90509295509295909350565b60008060408385031215610967578182fd5b82359150610802602084016107c156fea2646970667358221220762abb9ee8b25a07adde7a891940000ecc7812b5ef5430e42417bb9de511d2ff64736f6c63430008040033",
  "immutableReferences": {},
  "source": "// SPDX-License-Identifier: UNLICENSED\r\npragma solidity ^0.8.4;\r\n\r\nimport \"@ensdomains/ens-contracts/contracts/registry/ENS.sol\";\r\n\r\n/**\r\n * The ENS registry contract.\r\n */\r\n\r\ncontract ENSRegistry is ENS {\r\n\r\n    struct Record {\r\n        address owner;\r\n        address resolver;\r\n        uint64 ttl;\r\n    }\r\n\r\n    mapping (bytes32 => Record) records;\r\n    mapping (address => mapping(address => bool)) operators;\r\n\r\n    // Permits modifications only by the owner of the specified node.\r\n    modifier authorised(bytes32 node) {\r\n        address ownerFromRecords = records[node].owner;\r\n        require(ownerFromRecords == msg.sender || operators[ownerFromRecords][msg.sender]);\r\n        _;\r\n    }\r\n\r\n    /**\r\n     * @dev Constructs a new ENS registrar.\r\n     */\r\n    constructor() {\r\n        records[0x0].owner = msg.sender;\r\n    }\r\n\r\n    /**\r\n     * @dev Sets the record for a node.\r\n     * @param _node The node to update.\r\n     * @param _owner The address of the new owner.\r\n     * @param _resolver The address of the resolver.\r\n     */\r\n    function setRecord(bytes32 _node, address _owner, address _resolver, uint64 _ttl) external virtual override {\r\n        setOwner(_node, _owner);\r\n        _setResolverAndTTL(_node, _resolver, _ttl);\r\n    }\r\n\r\n    /**\r\n     * @dev Sets the record for a subnode.\r\n     * @param _node The parent node.\r\n     * @param _label The hash of the label specifying the subnode.\r\n     * @param _owner The address of the new owner.\r\n     * @param _resolver The address of the resolver.\r\n     */\r\n    function setSubnodeRecord(bytes32 _node, bytes32 _label, address _owner, address _resolver, uint64 _ttl) external virtual override {\r\n        bytes32 subnode = setSubnodeOwner(_node, _label, _owner);\r\n        _setResolverAndTTL(subnode, _resolver, _ttl);\r\n    }\r\n\r\n    /**\r\n     * @dev Transfers ownership of a node to a new address. May only be called by the current owner of the node.\r\n     * @param _node The node to transfer ownership of.\r\n     * @param _owner The address of the new owner.\r\n     */\r\n    function setOwner(bytes32 _node, address _owner) public virtual override authorised(_node) {\r\n        _setOwner(_node, _owner);\r\n        emit Transfer(_node, _owner);\r\n    }\r\n\r\n    /**\r\n     * @dev Transfers ownership of a subnode keccak256(node, label) to a new address. May only be called by the owner of the parent node.\r\n     * @param _node The parent node.\r\n     * @param _label The hash of the label specifying the subnode.\r\n     * @param _owner The address of the new owner.\r\n     */\r\n    function setSubnodeOwner(bytes32 _node, bytes32 _label, address _owner) public virtual override authorised(_node) returns(bytes32) {\r\n        bytes32 subnode = keccak256(abi.encodePacked(_node, _label));\r\n        _setOwner(subnode, _owner);\r\n        emit NewOwner(_node, _label, _owner);\r\n        return subnode;\r\n    }\r\n\r\n    /**\r\n     * @dev Sets the resolver address for the specified node.\r\n     * @param _node The node to update.\r\n     * @param _resolver The address of the resolver.\r\n     */\r\n    function setResolver(bytes32 _node, address _resolver) public virtual override authorised(_node) {\r\n        emit NewResolver(_node, _resolver);\r\n        records[_node].resolver = _resolver;\r\n    }\r\n\r\n    /**\r\n     * @dev Sets the TTL for the specified node.\r\n     * @param _node The node to update.\r\n     * @param _ttl The TTL in seconds.\r\n     */\r\n    function setTTL(bytes32 _node, uint64 _ttl) public virtual override authorised(_node) {\r\n        emit NewTTL(_node, _ttl);\r\n        records[_node].ttl = _ttl;\r\n    }\r\n\r\n    /**\r\n     * @dev Enable or disable approval for a third party (\"operator\") to manage\r\n     *  all of `msg.sender`'s ENS records. Emits the ApprovalForAll event.\r\n     * @param operator Address to add to the set of authorized operators.\r\n     * @param approved True if the operator is approved, false to revoke approval.\r\n     */\r\n    function setApprovalForAll(address operator, bool approved) external virtual override {\r\n        operators[msg.sender][operator] = approved;\r\n        emit ApprovalForAll(msg.sender, operator, approved);\r\n    }\r\n\r\n    /**\r\n     * @dev Returns the address that owns the specified node.\r\n     * @param node The specified node.\r\n     * @return address of the owner.\r\n     */\r\n    function owner(bytes32 node) public virtual override view returns (address) {\r\n        address addr = records[node].owner;\r\n        if (addr == address(this)) {\r\n            return address(0x0);\r\n        }\r\n\r\n        return addr;\r\n    }\r\n\r\n    /**\r\n     * @dev Returns the address of the resolver for the specified node.\r\n     * @param node The specified node.\r\n     * @return address of the resolver.\r\n     */\r\n    function resolver(bytes32 node) public virtual override view returns (address) {\r\n        return records[node].resolver;\r\n    }\r\n\r\n    /**\r\n     * @dev Returns the TTL of a node, and any records associated with it.\r\n     * @param node The specified node.\r\n     * @return ttl of the node.\r\n     */\r\n    function ttl(bytes32 node) public virtual override view returns (uint64) {\r\n        return records[node].ttl;\r\n    }\r\n\r\n    /**\r\n     * @dev Returns whether a record has been imported to the registry.\r\n     * @param node The specified node.\r\n     * @return Bool if record exists\r\n     */\r\n    function recordExists(bytes32 node) public virtual override view returns (bool) {\r\n        return records[node].owner != address(0x0);\r\n    }\r\n\r\n    /**\r\n     * @dev Query if an address is an authorized operator for another address.\r\n     * @param _owner The address that owns the records.\r\n     * @param _operator The address that acts on behalf of the owner.\r\n     * @return True if `operator` is an approved operator for `owner`, false otherwise.\r\n     */\r\n    function isApprovedForAll(address _owner, address _operator) external virtual override view returns (bool) {\r\n        return operators[_owner][_operator];\r\n    }\r\n\r\n    function _setOwner(bytes32 _node, address _owner) internal virtual {\r\n        records[_node].owner = _owner;\r\n    }\r\n\r\n    function _setResolverAndTTL(bytes32 _node, address _resolver, uint64 _ttl) internal {\r\n        if(_resolver != records[_node].resolver) {\r\n            records[_node].resolver = _resolver;\r\n            emit NewResolver(_node, _resolver);\r\n        }\r\n\r\n        if(_ttl != records[_node].ttl) {\r\n            records[_node].ttl = _ttl;\r\n            emit NewTTL(_node, _ttl);\r\n        }\r\n    }\r\n}",
  "sourcePath": "D:\\Posao-Stefan\\Stefan-razno\\Blockchain\\Thetaboard\\core-contracts\\contracts\\ENSRegistry.sol",
  "compiler": {
    "name": "solc",
    "version": "0.8.4+commit.c7e474f2.Emscripten.clang"
  },
  "schemaVersion": "3.4.3",
  "updatedAt": "2021-09-16T14:25:26.914Z",
  "devdoc": {
    "kind": "dev",
    "methods": {
      "constructor": {
        "details": "Constructs a new ENS registrar."
      },
      "isApprovedForAll(address,address)": {
        "details": "Query if an address is an authorized operator for another address.",
        "params": {
          "_operator": "The address that acts on behalf of the owner.",
          "_owner": "The address that owns the records."
        },
        "returns": {
          "_0": "True if `operator` is an approved operator for `owner`, false otherwise."
        }
      },
      "owner(bytes32)": {
        "details": "Returns the address that owns the specified node.",
        "params": {
          "node": "The specified node."
        },
        "returns": {
          "_0": "address of the owner."
        }
      },
      "recordExists(bytes32)": {
        "details": "Returns whether a record has been imported to the registry.",
        "params": {
          "node": "The specified node."
        },
        "returns": {
          "_0": "Bool if record exists"
        }
      },
      "resolver(bytes32)": {
        "details": "Returns the address of the resolver for the specified node.",
        "params": {
          "node": "The specified node."
        },
        "returns": {
          "_0": "address of the resolver."
        }
      },
      "setApprovalForAll(address,bool)": {
        "details": "Enable or disable approval for a third party (\"operator\") to manage  all of `msg.sender`'s ENS records. Emits the ApprovalForAll event.",
        "params": {
          "approved": "True if the operator is approved, false to revoke approval.",
          "operator": "Address to add to the set of authorized operators."
        }
      },
      "setOwner(bytes32,address)": {
        "details": "Transfers ownership of a node to a new address. May only be called by the current owner of the node.",
        "params": {
          "_node": "The node to transfer ownership of.",
          "_owner": "The address of the new owner."
        }
      },
      "setRecord(bytes32,address,address,uint64)": {
        "details": "Sets the record for a node.",
        "params": {
          "_node": "The node to update.",
          "_owner": "The address of the new owner.",
          "_resolver": "The address of the resolver."
        }
      },
      "setResolver(bytes32,address)": {
        "details": "Sets the resolver address for the specified node.",
        "params": {
          "_node": "The node to update.",
          "_resolver": "The address of the resolver."
        }
      },
      "setSubnodeOwner(bytes32,bytes32,address)": {
        "details": "Transfers ownership of a subnode keccak256(node, label) to a new address. May only be called by the owner of the parent node.",
        "params": {
          "_label": "The hash of the label specifying the subnode.",
          "_node": "The parent node.",
          "_owner": "The address of the new owner."
        }
      },
      "setSubnodeRecord(bytes32,bytes32,address,address,uint64)": {
        "details": "Sets the record for a subnode.",
        "params": {
          "_label": "The hash of the label specifying the subnode.",
          "_node": "The parent node.",
          "_owner": "The address of the new owner.",
          "_resolver": "The address of the resolver."
        }
      },
      "setTTL(bytes32,uint64)": {
        "details": "Sets the TTL for the specified node.",
        "params": {
          "_node": "The node to update.",
          "_ttl": "The TTL in seconds."
        }
      },
      "ttl(bytes32)": {
        "details": "Returns the TTL of a node, and any records associated with it.",
        "params": {
          "node": "The specified node."
        },
        "returns": {
          "_0": "ttl of the node."
        }
      }
    },
    "version": 1
  },
  "userdoc": {
    "kind": "user",
    "methods": {},
    "notice": "The ENS registry contract.",
    "version": 1
  }
}