{
  "contractName": "ETHRegistrarController",
  "abi": [
    {
      "inputs": [
        {
          "internalType": "contract BaseRegistrar",
          "name": "_base",
          "type": "address"
        },
        {
          "internalType": "contract PriceOracle",
          "name": "_prices",
          "type": "address"
        },
        {
          "internalType": "uint256",
          "name": "_minCommitmentAge",
          "type": "uint256"
        },
        {
          "internalType": "uint256",
          "name": "_maxCommitmentAge",
          "type": "uint256"
        }
      ],
      "stateMutability": "nonpayable",
      "type": "constructor"
    },
    {
      "anonymous": false,
      "inputs": [
        {
          "indexed": false,
          "internalType": "string",
          "name": "name",
          "type": "string"
        },
        {
          "indexed": true,
          "internalType": "bytes32",
          "name": "label",
          "type": "bytes32"
        },
        {
          "indexed": true,
          "internalType": "address",
          "name": "owner",
          "type": "address"
        },
        {
          "indexed": false,
          "internalType": "uint256",
          "name": "cost",
          "type": "uint256"
        }
      ],
      "name": "NameRegistered",
      "type": "event"
    },
    {
      "anonymous": false,
      "inputs": [
        {
          "indexed": true,
          "internalType": "address",
          "name": "oracle",
          "type": "address"
        }
      ],
      "name": "NewPriceOracle",
      "type": "event"
    },
    {
      "anonymous": false,
      "inputs": [
        {
          "indexed": true,
          "internalType": "address",
          "name": "previousOwner",
          "type": "address"
        },
        {
          "indexed": true,
          "internalType": "address",
          "name": "newOwner",
          "type": "address"
        }
      ],
      "name": "OwnershipTransferred",
      "type": "event"
    },
    {
      "inputs": [
        {
          "internalType": "bytes32",
          "name": "",
          "type": "bytes32"
        }
      ],
      "name": "commitments",
      "outputs": [
        {
          "internalType": "uint256",
          "name": "",
          "type": "uint256"
        }
      ],
      "stateMutability": "view",
      "type": "function"
    },
    {
      "inputs": [],
      "name": "maxCommitmentAge",
      "outputs": [
        {
          "internalType": "uint256",
          "name": "",
          "type": "uint256"
        }
      ],
      "stateMutability": "view",
      "type": "function"
    },
    {
      "inputs": [],
      "name": "minCommitmentAge",
      "outputs": [
        {
          "internalType": "uint256",
          "name": "",
          "type": "uint256"
        }
      ],
      "stateMutability": "view",
      "type": "function"
    },
    {
      "inputs": [],
      "name": "owner",
      "outputs": [
        {
          "internalType": "address",
          "name": "",
          "type": "address"
        }
      ],
      "stateMutability": "view",
      "type": "function"
    },
    {
      "inputs": [],
      "name": "renounceOwnership",
      "outputs": [],
      "stateMutability": "nonpayable",
      "type": "function"
    },
    {
      "inputs": [
        {
          "internalType": "address",
          "name": "newOwner",
          "type": "address"
        }
      ],
      "name": "transferOwnership",
      "outputs": [],
      "stateMutability": "nonpayable",
      "type": "function"
    },
    {
      "inputs": [
        {
          "internalType": "string",
          "name": "name",
          "type": "string"
        },
        {
          "internalType": "uint256",
          "name": "duration",
          "type": "uint256"
        }
      ],
      "name": "rentPrice",
      "outputs": [
        {
          "internalType": "uint256",
          "name": "",
          "type": "uint256"
        }
      ],
      "stateMutability": "view",
      "type": "function"
    },
    {
      "inputs": [
        {
          "internalType": "string",
          "name": "name",
          "type": "string"
        }
      ],
      "name": "valid",
      "outputs": [
        {
          "internalType": "bool",
          "name": "",
          "type": "bool"
        }
      ],
      "stateMutability": "pure",
      "type": "function"
    },
    {
      "inputs": [
        {
          "internalType": "string",
          "name": "name",
          "type": "string"
        }
      ],
      "name": "available",
      "outputs": [
        {
          "internalType": "bool",
          "name": "",
          "type": "bool"
        }
      ],
      "stateMutability": "view",
      "type": "function"
    },
    {
      "inputs": [
        {
          "internalType": "string",
          "name": "name",
          "type": "string"
        },
        {
          "internalType": "address",
          "name": "owner",
          "type": "address"
        },
        {
          "internalType": "bytes32",
          "name": "secret",
          "type": "bytes32"
        }
      ],
      "name": "makeCommitment",
      "outputs": [
        {
          "internalType": "bytes32",
          "name": "",
          "type": "bytes32"
        }
      ],
      "stateMutability": "pure",
      "type": "function"
    },
    {
      "inputs": [
        {
          "internalType": "string",
          "name": "name",
          "type": "string"
        },
        {
          "internalType": "address",
          "name": "owner",
          "type": "address"
        },
        {
          "internalType": "bytes32",
          "name": "secret",
          "type": "bytes32"
        },
        {
          "internalType": "address",
          "name": "resolver",
          "type": "address"
        },
        {
          "internalType": "address",
          "name": "addr",
          "type": "address"
        }
      ],
      "name": "makeCommitmentWithConfig",
      "outputs": [
        {
          "internalType": "bytes32",
          "name": "",
          "type": "bytes32"
        }
      ],
      "stateMutability": "pure",
      "type": "function"
    },
    {
      "inputs": [
        {
          "internalType": "bytes32",
          "name": "commitment",
          "type": "bytes32"
        }
      ],
      "name": "commit",
      "outputs": [],
      "stateMutability": "nonpayable",
      "type": "function"
    },
    {
      "inputs": [
        {
          "internalType": "string",
          "name": "name",
          "type": "string"
        },
        {
          "internalType": "address",
          "name": "owner",
          "type": "address"
        },
        {
          "internalType": "uint256",
          "name": "duration",
          "type": "uint256"
        },
        {
          "internalType": "bytes32",
          "name": "secret",
          "type": "bytes32"
        }
      ],
      "name": "register",
      "outputs": [],
      "stateMutability": "payable",
      "type": "function"
    },
    {
      "inputs": [
        {
          "internalType": "string",
          "name": "name",
          "type": "string"
        },
        {
          "internalType": "address",
          "name": "owner",
          "type": "address"
        },
        {
          "internalType": "uint256",
          "name": "duration",
          "type": "uint256"
        },
        {
          "internalType": "bytes32",
          "name": "secret",
          "type": "bytes32"
        },
        {
          "internalType": "address",
          "name": "resolver",
          "type": "address"
        },
        {
          "internalType": "address",
          "name": "addr",
          "type": "address"
        }
      ],
      "name": "registerWithConfig",
      "outputs": [],
      "stateMutability": "payable",
      "type": "function"
    },
    {
      "inputs": [
        {
          "internalType": "contract PriceOracle",
          "name": "_prices",
          "type": "address"
        }
      ],
      "name": "setPriceOracle",
      "outputs": [],
      "stateMutability": "nonpayable",
      "type": "function"
    },
    {
      "inputs": [
        {
          "internalType": "uint256",
          "name": "_minCommitmentAge",
          "type": "uint256"
        },
        {
          "internalType": "uint256",
          "name": "_maxCommitmentAge",
          "type": "uint256"
        }
      ],
      "name": "setCommitmentAges",
      "outputs": [],
      "stateMutability": "nonpayable",
      "type": "function"
    },
    {
      "inputs": [],
      "name": "withdraw",
      "outputs": [],
      "stateMutability": "nonpayable",
      "type": "function"
    },
    {
      "inputs": [
        {
          "internalType": "bytes4",
          "name": "interfaceID",
          "type": "bytes4"
        }
      ],
      "name": "supportsInterface",
      "outputs": [
        {
          "internalType": "bool",
          "name": "",
          "type": "bool"
        }
      ],
      "stateMutability": "pure",
      "type": "function"
    }
  ],
  "bytecode": "0x60806040523480156200001157600080fd5b50604051620029283803806200292883398181016040528101906200003791906200020f565b620000576200004b620000fe60201b60201c565b6200010660201b60201c565b8181116200006457600080fd5b83600160006101000a81548173ffffffffffffffffffffffffffffffffffffffff021916908373ffffffffffffffffffffffffffffffffffffffff16021790555082600260006101000a81548173ffffffffffffffffffffffffffffffffffffffff021916908373ffffffffffffffffffffffffffffffffffffffff1602179055508160038190555080600481905550505050506200032f565b600033905090565b60008060009054906101000a900473ffffffffffffffffffffffffffffffffffffffff169050816000806101000a81548173ffffffffffffffffffffffffffffffffffffffff021916908373ffffffffffffffffffffffffffffffffffffffff1602179055508173ffffffffffffffffffffffffffffffffffffffff168173ffffffffffffffffffffffffffffffffffffffff167f8be0079c531659141344cd1fd0a4f28419497f9722a3daafe3b4186f6b6457e060405160405180910390a35050565b600081519050620001db81620002e1565b92915050565b600081519050620001f281620002fb565b92915050565b600081519050620002098162000315565b92915050565b600080600080608085870312156200022657600080fd5b60006200023687828801620001ca565b94505060206200024987828801620001e1565b93505060406200025c87828801620001f8565b92505060606200026f87828801620001f8565b91505092959194509250565b60006200028882620002b7565b9050919050565b60006200029c826200027b565b9050919050565b6000620002b0826200027b565b9050919050565b600073ffffffffffffffffffffffffffffffffffffffff82169050919050565b6000819050919050565b620002ec816200028f565b8114620002f857600080fd5b50565b6200030681620002a3565b81146200031257600080fd5b50565b6200032081620002d7565b81146200032c57600080fd5b50565b6125e9806200033f6000396000f3fe6080604052600436106101095760003560e01c80638d839ffe11610095578063ce1e09c011610064578063ce1e09c01461036e578063f14fcbc814610399578063f2fde38b146103c2578063f49826be146103eb578063f7a169631461042857610109565b80638d839ffe1461029e5780638da5cb5b146102c95780639791c097146102f4578063aeb8ce9b1461033157610109565b8063715018a6116100dc578063715018a6146101c85780637e324479146101df578063839df9451461020857806383e7f6ff1461024557806385f6d1551461028257610109565b806301ffc9a71461010e5780633ccfd60b1461014b5780633d86c52f14610162578063530e784f1461019f575b600080fd5b34801561011a57600080fd5b5061013560048036038101906101309190611a7f565b610444565b604051610142919061200e565b60405180910390f35b34801561015757600080fd5b50610160610628565b005b34801561016e57600080fd5b5061018960048036038101906101849190611c22565b610704565b6040516101969190612029565b60405180910390f35b3480156101ab57600080fd5b506101c660048036038101906101c19190611ad1565b610827565b005b3480156101d457600080fd5b506101dd61094c565b005b3480156101eb57600080fd5b5061020660048036038101906102019190611dcf565b6109d4565b005b34801561021457600080fd5b5061022f600480360381019061022a9190611a2d565b610a62565b60405161023c919061211b565b60405180910390f35b34801561025157600080fd5b5061026c60048036038101906102679190611d52565b610a7a565b604051610279919061211b565b60405180910390f35b61029c60048036038101906102979190611afa565b610bec565b005b3480156102aa57600080fd5b506102b3610c46565b6040516102c0919061211b565b60405180910390f35b3480156102d557600080fd5b506102de610c4c565b6040516102eb9190611fbc565b60405180910390f35b34801561030057600080fd5b5061031b60048036038101906103169190611b7a565b610c75565b604051610328919061200e565b60405180910390f35b34801561033d57600080fd5b5061035860048036038101906103539190611b7a565b610c8b565b604051610365919061200e565b60405180910390f35b34801561037a57600080fd5b50610383610d5f565b604051610390919061211b565b60405180910390f35b3480156103a557600080fd5b506103c060048036038101906103bb9190611a2d565b610d65565b005b3480156103ce57600080fd5b506103e960048036038101906103e491906119db565b610dac565b005b3480156103f757600080fd5b50610412600480360381019061040d9190611bbb565b610ea4565b60405161041f9190612029565b60405180910390f35b610442600480360381019061043d9190611cb1565b610ebd565b005b60007f01ffc9a7a5cef8baa21ed3c5c0d7e23accb804b619e9333b597f47a0d84076e27bffffffffffffffffffffffffffffffffffffffffffffffffffffffff1916827bffffffffffffffffffffffffffffffffffffffffffffffffffffffff1916148061059757507f85f6d1554d9d3ed5c2776e29804063f395dfd65a8dc71f4d1cb6f073d7ee75a37ff14fcbc8f6996b31406143e2613e60bde3c1118cfe166c0aa27ba40ef1033df57ff49826be766d3cc8dc7e4aab3f18eb3d339eb3bce85a7b9144119bbe997b2cc37faeb8ce9b70d5d3f3fba501c34cd61a54703dbe3cfb25bd75d3574635f9ea76837f83e7f6ff8df5fd22801ca995afba5d2bc5cac5264a339adb4a410c5da6c43324181818187bffffffffffffffffffffffffffffffffffffffffffffffffffffffff1916827bffffffffffffffffffffffffffffffffffffffffffffffffffffffff1916145b8061062157507f3d86c52f15403f1a062ec90b8fe0792e3be0a9cb236cd8ee4ec4b45821bd2faa7ff7a169630bfe39d181bbd2e0b758ee9f1a6ddc0eca0932c13225406d06d41653187bffffffffffffffffffffffffffffffffffffffffffffffffffffffff1916827bffffffffffffffffffffffffffffffffffffffffffffffffffffffff1916145b9050919050565b61063061151b565b73ffffffffffffffffffffffffffffffffffffffff1661064e610c4c565b73ffffffffffffffffffffffffffffffffffffffff16146106a4576040517f08c379a000000000000000000000000000000000000000000000000000000000815260040161069b906120fb565b60405180910390fd5b3373ffffffffffffffffffffffffffffffffffffffff166108fc3073ffffffffffffffffffffffffffffffffffffffff16319081150290604051600060405180830381858888f19350505050158015610701573d6000803e3d6000fd5b50565b60008086805190602001209050600073ffffffffffffffffffffffffffffffffffffffff168473ffffffffffffffffffffffffffffffffffffffff161480156107795750600073ffffffffffffffffffffffffffffffffffffffff168373ffffffffffffffffffffffffffffffffffffffff16145b156107b15780868660405160200161079393929190611f53565b6040516020818303038152906040528051906020012091505061081e565b600073ffffffffffffffffffffffffffffffffffffffff168473ffffffffffffffffffffffffffffffffffffffff1614156107eb57600080fd5b8086858588604051602001610804959493929190611ef4565b604051602081830303815290604052805190602001209150505b95945050505050565b61082f61151b565b73ffffffffffffffffffffffffffffffffffffffff1661084d610c4c565b73ffffffffffffffffffffffffffffffffffffffff16146108a3576040517f08c379a000000000000000000000000000000000000000000000000000000000815260040161089a906120fb565b60405180910390fd5b80600260006101000a81548173ffffffffffffffffffffffffffffffffffffffff021916908373ffffffffffffffffffffffffffffffffffffffff160217905550600260009054906101000a900473ffffffffffffffffffffffffffffffffffffffff1673ffffffffffffffffffffffffffffffffffffffff167ff261845a790fe29bbd6631e2ca4a5bdc83e6eed7c3271d9590d97287e00e912360405160405180910390a250565b61095461151b565b73ffffffffffffffffffffffffffffffffffffffff16610972610c4c565b73ffffffffffffffffffffffffffffffffffffffff16146109c8576040517f08c379a00000000000000000000000000000000000000000000000000000000081526004016109bf906120fb565b60405180910390fd5b6109d26000611523565b565b6109dc61151b565b73ffffffffffffffffffffffffffffffffffffffff166109fa610c4c565b73ffffffffffffffffffffffffffffffffffffffff1614610a50576040517f08c379a0000000000000000000000000000000000000000000000000000000008152600401610a47906120fb565b60405180910390fd5b81600381905550806004819055505050565b60056020528060005260406000206000915090505481565b60008083805190602001209050600260009054906101000a900473ffffffffffffffffffffffffffffffffffffffff1673ffffffffffffffffffffffffffffffffffffffff166350e9a71585600160009054906101000a900473ffffffffffffffffffffffffffffffffffffffff1673ffffffffffffffffffffffffffffffffffffffff1663d6e4fa868560001c6040518263ffffffff1660e01b8152600401610b24919061211b565b60206040518083038186803b158015610b3c57600080fd5b505afa158015610b50573d6000803e3d6000fd5b505050506040513d601f19601f82011682018060405250810190610b749190611da6565b866040518463ffffffff1660e01b8152600401610b939392919061209d565b60206040518083038186803b158015610bab57600080fd5b505afa158015610bbf573d6000803e3d6000fd5b505050506040513d601f19601f82011682018060405250810190610be39190611da6565b91505092915050565b610c3f85858080601f016020809104026020016040519081016040528093929190818152602001838380828437600081840152601f19601f82011690508083019250505050505050848484600080610ebd565b5050505050565b60035481565b60008060009054906101000a900473ffffffffffffffffffffffffffffffffffffffff16905090565b60006001610c82836115e7565b10159050919050565b60008082805190602001209050610ca183610c75565b8015610d575750600160009054906101000a900473ffffffffffffffffffffffffffffffffffffffff1673ffffffffffffffffffffffffffffffffffffffff166396e494e88260001c6040518263ffffffff1660e01b8152600401610d06919061211b565b60206040518083038186803b158015610d1e57600080fd5b505afa158015610d32573d6000803e3d6000fd5b505050506040513d601f19601f82011682018060405250810190610d569190611a04565b5b915050919050565b60045481565b426004546005600084815260200190815260200160002054610d879190612208565b10610d9157600080fd5b42600560008381526020019081526020016000208190555050565b610db461151b565b73ffffffffffffffffffffffffffffffffffffffff16610dd2610c4c565b73ffffffffffffffffffffffffffffffffffffffff1614610e28576040517f08c379a0000000000000000000000000000000000000000000000000000000008152600401610e1f906120fb565b60405180910390fd5b600073ffffffffffffffffffffffffffffffffffffffff168173ffffffffffffffffffffffffffffffffffffffff161415610e98576040517f08c379a0000000000000000000000000000000000000000000000000000000008152600401610e8f906120db565b60405180910390fd5b610ea181611523565b50565b6000610eb4848484600080610704565b90509392505050565b6000610ecc8787868686610704565b90506000610edb8887846117c2565b905060008880519060200120905060008160001c9050600073ffffffffffffffffffffffffffffffffffffffff168673ffffffffffffffffffffffffffffffffffffffff161461137757600160009054906101000a900473ffffffffffffffffffffffffffffffffffffffff1673ffffffffffffffffffffffffffffffffffffffff1663fca247ac82308b6040518463ffffffff1660e01b8152600401610f849392919061215f565b602060405180830381600087803b158015610f9e57600080fd5b505af1158015610fb2573d6000803e3d6000fd5b505050506040513d601f19601f82011682018060405250810190610fd69190611da6565b506000600160009054906101000a900473ffffffffffffffffffffffffffffffffffffffff1673ffffffffffffffffffffffffffffffffffffffff1663ddf7fcb06040518163ffffffff1660e01b815260040160206040518083038186803b15801561104157600080fd5b505afa158015611055573d6000803e3d6000fd5b505050506040513d601f19601f820116820180604052508101906110799190611a56565b8360405160200161108b929190611f90565b604051602081830303815290604052805190602001209050600160009054906101000a900473ffffffffffffffffffffffffffffffffffffffff1673ffffffffffffffffffffffffffffffffffffffff16633f15457f6040518163ffffffff1660e01b815260040160206040518083038186803b15801561110b57600080fd5b505afa15801561111f573d6000803e3d6000fd5b505050506040513d601f19601f820116820180604052508101906111439190611aa8565b73ffffffffffffffffffffffffffffffffffffffff16631896f70a82896040518363ffffffff1660e01b815260040161117d929190612044565b600060405180830381600087803b15801561119757600080fd5b505af11580156111ab573d6000803e3d6000fd5b50505050600073ffffffffffffffffffffffffffffffffffffffff168673ffffffffffffffffffffffffffffffffffffffff1614611251578673ffffffffffffffffffffffffffffffffffffffff1663d5fa2b0082886040518363ffffffff1660e01b815260040161121e929190612044565b600060405180830381600087803b15801561123857600080fd5b505af115801561124c573d6000803e3d6000fd5b505050505b600160009054906101000a900473ffffffffffffffffffffffffffffffffffffffff1673ffffffffffffffffffffffffffffffffffffffff166328ed4f6c838c6040518363ffffffff1660e01b81526004016112ae929190612136565b600060405180830381600087803b1580156112c857600080fd5b505af11580156112dc573d6000803e3d6000fd5b50505050600160009054906101000a900473ffffffffffffffffffffffffffffffffffffffff1673ffffffffffffffffffffffffffffffffffffffff166323b872dd308c856040518463ffffffff1660e01b815260040161133f93929190611fd7565b600060405180830381600087803b15801561135957600080fd5b505af115801561136d573d6000803e3d6000fd5b5050505050611463565b600073ffffffffffffffffffffffffffffffffffffffff168573ffffffffffffffffffffffffffffffffffffffff16146113b057600080fd5b600160009054906101000a900473ffffffffffffffffffffffffffffffffffffffff1673ffffffffffffffffffffffffffffffffffffffff1663fca247ac828b8b6040518463ffffffff1660e01b815260040161140f9392919061215f565b602060405180830381600087803b15801561142957600080fd5b505af115801561143d573d6000803e3d6000fd5b505050506040513d601f19601f820116820180604052508101906114619190611da6565b505b8873ffffffffffffffffffffffffffffffffffffffff16827f0667086d08417333ce63f40d5bc2ef6fd330e25aaaf317b7c489541f8fe600fa8c866040516114ac92919061206d565b60405180910390a38234111561150f573373ffffffffffffffffffffffffffffffffffffffff166108fc84346114e2919061225e565b9081150290604051600060405180830381858888f1935050505015801561150d573d6000803e3d6000fd5b505b50505050505050505050565b600033905090565b60008060009054906101000a900473ffffffffffffffffffffffffffffffffffffffff169050816000806101000a81548173ffffffffffffffffffffffffffffffffffffffff021916908373ffffffffffffffffffffffffffffffffffffffff1602179055508173ffffffffffffffffffffffffffffffffffffffff168173ffffffffffffffffffffffffffffffffffffffff167f8be0079c531659141344cd1fd0a4f28419497f9722a3daafe3b4186f6b6457e060405160405180910390a35050565b60008060008084519050600092505b808210156117b7576000858381518110611639577f4e487b7100000000000000000000000000000000000000000000000000000000600052603260045260246000fd5b602001015160f81c60f81b9050608060f81b817effffffffffffffffffffffffffffffffffffffffffffffffffffffffffffff19161015611688576001836116819190612208565b92506117a3565b60e060f81b817effffffffffffffffffffffffffffffffffffffffffffffffffffffffffffff191610156116ca576002836116c39190612208565b92506117a2565b60f060f81b817effffffffffffffffffffffffffffffffffffffffffffffffffffffffffffff1916101561170c576003836117059190612208565b92506117a1565b60f8801b817effffffffffffffffffffffffffffffffffffffffffffffffffffffffffffff1916101561174d576004836117469190612208565b92506117a0565b60fc60f81b817effffffffffffffffffffffffffffffffffffffffffffffffffffffffffffff1916101561178f576005836117889190612208565b925061179f565b60068361179c9190612208565b92505b5b5b5b5b5082806117af906123a7565b9350506115f6565b829350505050919050565b60004260035460056000858152602001908152602001600020546117e69190612208565b11156117f157600080fd5b4260045460056000858152602001908152602001600020546118139190612208565b1161181d57600080fd5b61182684610c8b565b61182f57600080fd5b600560008381526020019081526020016000206000905560006118528585610a7a565b90508034101561186157600080fd5b809150509392505050565b600061187f61187a846121bb565b612196565b90508281526020810184848401111561189757600080fd5b6118a2848285612334565b509392505050565b6000813590506118b981612512565b92915050565b6000815190506118ce81612529565b92915050565b6000813590506118e381612540565b92915050565b6000815190506118f881612540565b92915050565b60008135905061190d81612557565b92915050565b6000815190506119228161256e565b92915050565b60008135905061193781612585565b92915050565b60008083601f84011261194f57600080fd5b8235905067ffffffffffffffff81111561196857600080fd5b60208301915083600182028301111561198057600080fd5b9250929050565b600082601f83011261199857600080fd5b81356119a884826020860161186c565b91505092915050565b6000813590506119c08161259c565b92915050565b6000815190506119d58161259c565b92915050565b6000602082840312156119ed57600080fd5b60006119fb848285016118aa565b91505092915050565b600060208284031215611a1657600080fd5b6000611a24848285016118bf565b91505092915050565b600060208284031215611a3f57600080fd5b6000611a4d848285016118d4565b91505092915050565b600060208284031215611a6857600080fd5b6000611a76848285016118e9565b91505092915050565b600060208284031215611a9157600080fd5b6000611a9f848285016118fe565b91505092915050565b600060208284031215611aba57600080fd5b6000611ac884828501611913565b91505092915050565b600060208284031215611ae357600080fd5b6000611af184828501611928565b91505092915050565b600080600080600060808688031215611b1257600080fd5b600086013567ffffffffffffffff811115611b2c57600080fd5b611b388882890161193d565b95509550506020611b4b888289016118aa565b9350506040611b5c888289016119b1565b9250506060611b6d888289016118d4565b9150509295509295909350565b600060208284031215611b8c57600080fd5b600082013567ffffffffffffffff811115611ba657600080fd5b611bb284828501611987565b91505092915050565b600080600060608486031215611bd057600080fd5b600084013567ffffffffffffffff811115611bea57600080fd5b611bf686828701611987565b9350506020611c07868287016118aa565b9250506040611c18868287016118d4565b9150509250925092565b600080600080600060a08688031215611c3a57600080fd5b600086013567ffffffffffffffff811115611c5457600080fd5b611c6088828901611987565b9550506020611c71888289016118aa565b9450506040611c82888289016118d4565b9350506060611c93888289016118aa565b9250506080611ca4888289016118aa565b9150509295509295909350565b60008060008060008060c08789031215611cca57600080fd5b600087013567ffffffffffffffff811115611ce457600080fd5b611cf089828a01611987565b9650506020611d0189828a016118aa565b9550506040611d1289828a016119b1565b9450506060611d2389828a016118d4565b9350506080611d3489828a016118aa565b92505060a0611d4589828a016118aa565b9150509295509295509295565b60008060408385031215611d6557600080fd5b600083013567ffffffffffffffff811115611d7f57600080fd5b611d8b85828601611987565b9250506020611d9c858286016119b1565b9150509250929050565b600060208284031215611db857600080fd5b6000611dc6848285016119c6565b91505092915050565b60008060408385031215611de257600080fd5b6000611df0858286016119b1565b9250506020611e01858286016119b1565b9150509250929050565b611e1481612292565b82525050565b611e2b611e2682612292565b6123f0565b82525050565b611e3a816122a4565b82525050565b611e49816122b0565b82525050565b611e60611e5b826122b0565b612402565b82525050565b6000611e71826121ec565b611e7b81856121f7565b9350611e8b818560208601612343565b611e948161247c565b840191505092915050565b6000611eac6026836121f7565b9150611eb78261249a565b604082019050919050565b6000611ecf6020836121f7565b9150611eda826124e9565b602082019050919050565b611eee8161232a565b82525050565b6000611f008288611e4f565b602082019150611f108287611e1a565b601482019150611f208286611e1a565b601482019150611f308285611e1a565b601482019150611f408284611e4f565b6020820191508190509695505050505050565b6000611f5f8286611e4f565b602082019150611f6f8285611e1a565b601482019150611f7f8284611e4f565b602082019150819050949350505050565b6000611f9c8285611e4f565b602082019150611fac8284611e4f565b6020820191508190509392505050565b6000602082019050611fd16000830184611e0b565b92915050565b6000606082019050611fec6000830186611e0b565b611ff96020830185611e0b565b6120066040830184611ee5565b949350505050565b60006020820190506120236000830184611e31565b92915050565b600060208201905061203e6000830184611e40565b92915050565b60006040820190506120596000830185611e40565b6120666020830184611e0b565b9392505050565b600060408201905081810360008301526120878185611e66565b90506120966020830184611ee5565b9392505050565b600060608201905081810360008301526120b78186611e66565b90506120c66020830185611ee5565b6120d36040830184611ee5565b949350505050565b600060208201905081810360008301526120f481611e9f565b9050919050565b6000602082019050818103600083015261211481611ec2565b9050919050565b60006020820190506121306000830184611ee5565b92915050565b600060408201905061214b6000830185611ee5565b6121586020830184611e0b565b9392505050565b60006060820190506121746000830186611ee5565b6121816020830185611e0b565b61218e6040830184611ee5565b949350505050565b60006121a06121b1565b90506121ac8282612376565b919050565b6000604051905090565b600067ffffffffffffffff8211156121d6576121d561244d565b5b6121df8261247c565b9050602081019050919050565b600081519050919050565b600082825260208201905092915050565b60006122138261232a565b915061221e8361232a565b9250827fffffffffffffffffffffffffffffffffffffffffffffffffffffffffffffffff038211156122535761225261241e565b5b828201905092915050565b60006122698261232a565b91506122748361232a565b9250828210156122875761228661241e565b5b828203905092915050565b600061229d8261230a565b9050919050565b60008115159050919050565b6000819050919050565b60007fffffffff0000000000000000000000000000000000000000000000000000000082169050919050565b60006122f182612292565b9050919050565b600061230382612292565b9050919050565b600073ffffffffffffffffffffffffffffffffffffffff82169050919050565b6000819050919050565b82818337600083830152505050565b60005b83811015612361578082015181840152602081019050612346565b83811115612370576000848401525b50505050565b61237f8261247c565b810181811067ffffffffffffffff8211171561239e5761239d61244d565b5b80604052505050565b60006123b28261232a565b91507fffffffffffffffffffffffffffffffffffffffffffffffffffffffffffffffff8214156123e5576123e461241e565b5b600182019050919050565b60006123fb8261240c565b9050919050565b6000819050919050565b60006124178261248d565b9050919050565b7f4e487b7100000000000000000000000000000000000000000000000000000000600052601160045260246000fd5b7f4e487b7100000000000000000000000000000000000000000000000000000000600052604160045260246000fd5b6000601f19601f8301169050919050565b60008160601b9050919050565b7f4f776e61626c653a206e6577206f776e657220697320746865207a65726f206160008201527f6464726573730000000000000000000000000000000000000000000000000000602082015250565b7f4f776e61626c653a2063616c6c6572206973206e6f7420746865206f776e6572600082015250565b61251b81612292565b811461252657600080fd5b50565b612532816122a4565b811461253d57600080fd5b50565b612549816122b0565b811461255457600080fd5b50565b612560816122ba565b811461256b57600080fd5b50565b612577816122e6565b811461258257600080fd5b50565b61258e816122f8565b811461259957600080fd5b50565b6125a58161232a565b81146125b057600080fd5b5056fea26469706673582212200d39d692c89f52f3e8b22fb36b741187d66b2e7f6e647f1157db26d0089786d964736f6c63430008040033",
  "immutableReferences": {},
  "source": "// SPDX-License-Identifier: UNLICENSED\r\npragma solidity ^0.8.4;\r\n\r\nimport \"@ensdomains/ens-contracts/contracts/ethregistrar/PriceOracle.sol\";\r\nimport \"@ensdomains/ens-contracts/contracts/ethregistrar/BaseRegistrar.sol\";\r\nimport \"@ensdomains/ens-contracts/contracts/ethregistrar/StringUtils.sol\";\r\nimport \"@openzeppelin/contracts/access/Ownable.sol\";\r\nimport \"@ensdomains/ens-contracts/contracts/resolvers/Resolver.sol\";\r\n\r\n\r\n/**\r\n * @dev A registrar controller for registering names at fixed cost.\r\n */\r\ncontract ETHRegistrarController is Ownable {\r\n    using StringUtils for *;\r\n\r\n    bytes4 constant private INTERFACE_META_ID = bytes4(keccak256(\"supportsInterface(bytes4)\"));\r\n    bytes4 constant private COMMITMENT_CONTROLLER_ID = bytes4(\r\n        keccak256(\"rentPrice(string,uint256)\") ^\r\n        keccak256(\"available(string)\") ^\r\n        keccak256(\"makeCommitment(string,address,bytes32)\") ^\r\n        keccak256(\"commit(bytes32)\") ^\r\n        keccak256(\"register(string,address,uint256,bytes32)\")\r\n    );\r\n\r\n    bytes4 constant private COMMITMENT_WITH_CONFIG_CONTROLLER_ID = bytes4(\r\n        keccak256(\"registerWithConfig(string,address,uint256,bytes32,address,address)\") ^\r\n        keccak256(\"makeCommitmentWithConfig(string,address,bytes32,address,address)\")\r\n    );\r\n\r\n    BaseRegistrar base;\r\n    PriceOracle prices;\r\n    uint public minCommitmentAge;\r\n    uint public maxCommitmentAge;\r\n\r\n    mapping(bytes32=>uint) public commitments;\r\n\r\n    event NameRegistered(string name, bytes32 indexed label, address indexed owner, uint cost);\r\n    event NewPriceOracle(address indexed oracle);\r\n\r\n    constructor(BaseRegistrar _base, PriceOracle _prices, uint _minCommitmentAge, uint _maxCommitmentAge) public {\r\n        require(_maxCommitmentAge > _minCommitmentAge);\r\n\r\n        base = _base;\r\n        prices = _prices;\r\n        minCommitmentAge = _minCommitmentAge;\r\n        maxCommitmentAge = _maxCommitmentAge;\r\n    }\r\n\r\n    function rentPrice(string memory name, uint duration) view public returns (uint) {\r\n        bytes32 hash = keccak256(bytes(name));\r\n        return prices.price(name, base.nameExpires(uint256(hash)), duration);\r\n    }\r\n\r\n    function valid(string memory name) public pure returns(bool) {\r\n        return name.strlen() >= 1;\r\n    }\r\n\r\n    function available(string memory name) public view returns(bool) {\r\n        bytes32 label = keccak256(bytes(name));\r\n        return valid(name) && base.available(uint256(label));\r\n    }\r\n\r\n    function makeCommitment(string memory name, address owner, bytes32 secret) pure public returns(bytes32) {\r\n        return makeCommitmentWithConfig(name, owner, secret, address(0), address(0));\r\n    }\r\n\r\n    function makeCommitmentWithConfig(string memory name, address owner, bytes32 secret, address resolver, address addr) pure public returns(bytes32) {\r\n        bytes32 label = keccak256(bytes(name));\r\n        if (resolver == address(0) && addr == address(0)) {\r\n            return keccak256(abi.encodePacked(label, owner, secret));\r\n        }\r\n        require(resolver != address(0));\r\n        return keccak256(abi.encodePacked(label, owner, resolver, addr, secret));\r\n    }\r\n\r\n    function commit(bytes32 commitment) public {\r\n        require(commitments[commitment] + maxCommitmentAge < block.timestamp);\r\n        commitments[commitment] = block.timestamp;\r\n    }\r\n\r\n    function register(string calldata name, address owner, uint duration, bytes32 secret) external payable {\r\n        registerWithConfig(name, owner, duration, secret, address(0), address(0));\r\n    }\r\n\r\n    function registerWithConfig(string memory name, address owner, uint duration, bytes32 secret, address resolver, address addr) public payable {\r\n        bytes32 commitment = makeCommitmentWithConfig(name, owner, secret, resolver, addr);\r\n        uint cost = _consumeCommitment(name, duration, commitment);\r\n\r\n        bytes32 label = keccak256(bytes(name));\r\n        uint256 tokenId = uint256(label);\r\n\r\n        if (resolver != address(0)) {\r\n            // Set this contract as the (temporary) owner, giving it\r\n            // permission to set up the resolver.\r\n            base.register(tokenId, address(this), duration);\r\n\r\n            // The nodehash of this label\r\n            bytes32 nodehash = keccak256(abi.encodePacked(base.baseNode(), label));\r\n\r\n            // Set the resolver\r\n            base.ens().setResolver(nodehash, resolver);\r\n\r\n            // Configure the resolver\r\n            if (addr != address(0)) {\r\n                Resolver(resolver).setAddr(nodehash, addr);\r\n            }\r\n\r\n            // Now transfer full ownership to the expeceted owner\r\n            base.reclaim(tokenId, owner);\r\n            base.transferFrom(address(this), owner, tokenId);\r\n        } else {\r\n            require(addr == address(0));\r\n            base.register(tokenId, owner, duration);\r\n        }\r\n\r\n        emit NameRegistered(name, label, owner, cost);\r\n\r\n        // Refund any extra payment\r\n        if(msg.value > cost) {\r\n            payable(msg.sender).transfer(msg.value - cost);\r\n        }\r\n    }\r\n\r\n    function setPriceOracle(PriceOracle _prices) public onlyOwner {\r\n        prices = _prices;\r\n        emit NewPriceOracle(address(prices));\r\n    }\r\n\r\n    function setCommitmentAges(uint _minCommitmentAge, uint _maxCommitmentAge) public onlyOwner {\r\n        minCommitmentAge = _minCommitmentAge;\r\n        maxCommitmentAge = _maxCommitmentAge;\r\n    }\r\n\r\n    function withdraw() public onlyOwner {\r\n        payable(msg.sender).transfer(address(this).balance);\r\n    }\r\n\r\n    function supportsInterface(bytes4 interfaceID) external pure returns (bool) {\r\n        return interfaceID == INTERFACE_META_ID ||\r\n        interfaceID == COMMITMENT_CONTROLLER_ID ||\r\n        interfaceID == COMMITMENT_WITH_CONFIG_CONTROLLER_ID;\r\n    }\r\n\r\n    function _consumeCommitment(string memory name, uint duration, bytes32 commitment) internal returns (uint256) {\r\n        // Require a valid commitment\r\n        require(commitments[commitment] + minCommitmentAge <= block.timestamp);\r\n\r\n        // If the commitment is too old, or the name is registered, stop\r\n        require(commitments[commitment] + maxCommitmentAge > block.timestamp);\r\n        require(available(name));\r\n\r\n        delete (commitments[commitment]);\r\n\r\n        uint cost = rentPrice(name, duration);\r\n        require(msg.value >= cost);\r\n\r\n        return cost;\r\n    }\r\n}",
  "sourcePath": "D:\\Posao-Stefan\\Stefan-razno\\Blockchain\\Thetaboard\\core-contracts\\contracts\\ETHRegistrarController.sol",
  "compiler": {
    "name": "solc",
    "version": "0.8.4+commit.c7e474f2.Emscripten.clang"
  },
  "schemaVersion": "3.4.3",
  "updatedAt": "2021-09-08T10:18:29.537Z",
  "devdoc": {
    "details": "A registrar controller for registering names at fixed cost.",
    "kind": "dev",
    "methods": {
      "owner()": {
        "details": "Returns the address of the current owner."
      },
      "renounceOwnership()": {
        "details": "Leaves the contract without owner. It will not be possible to call `onlyOwner` functions anymore. Can only be called by the current owner. NOTE: Renouncing ownership will leave the contract without an owner, thereby removing any functionality that is only available to the owner."
      },
      "transferOwnership(address)": {
        "details": "Transfers ownership of the contract to a new account (`newOwner`). Can only be called by the current owner."
      }
    },
    "version": 1
  },
  "userdoc": {
    "kind": "user",
    "methods": {},
    "version": 1
  }
}