{
  "contractName": "ETHRegistrarController",
  "abi": [
    {
      "inputs": [
        {
          "internalType": "contract BaseRegistrarImplementation",
          "name": "_base",
          "type": "address"
        },
        {
          "internalType": "contract PriceOracle",
          "name": "_prices",
          "type": "address"
        },
        {
          "internalType": "uint256",
          "name": "_minCommitmentAge",
          "type": "uint256"
        },
        {
          "internalType": "uint256",
          "name": "_maxCommitmentAge",
          "type": "uint256"
        }
      ],
      "stateMutability": "nonpayable",
      "type": "constructor"
    },
    {
      "anonymous": false,
      "inputs": [
        {
          "indexed": false,
          "internalType": "string",
          "name": "name",
          "type": "string"
        },
        {
          "indexed": true,
          "internalType": "bytes32",
          "name": "label",
          "type": "bytes32"
        },
        {
          "indexed": true,
          "internalType": "address",
          "name": "owner",
          "type": "address"
        },
        {
          "indexed": false,
          "internalType": "uint256",
          "name": "cost",
          "type": "uint256"
        }
      ],
      "name": "NameRegistered",
      "type": "event"
    },
    {
      "anonymous": false,
      "inputs": [
        {
          "indexed": true,
          "internalType": "address",
          "name": "oracle",
          "type": "address"
        }
      ],
      "name": "NewPriceOracle",
      "type": "event"
    },
    {
      "anonymous": false,
      "inputs": [
        {
          "indexed": true,
          "internalType": "address",
          "name": "previousOwner",
          "type": "address"
        },
        {
          "indexed": true,
          "internalType": "address",
          "name": "newOwner",
          "type": "address"
        }
      ],
      "name": "OwnershipTransferred",
      "type": "event"
    },
    {
      "inputs": [
        {
          "internalType": "bytes32",
          "name": "",
          "type": "bytes32"
        }
      ],
      "name": "commitments",
      "outputs": [
        {
          "internalType": "uint256",
          "name": "",
          "type": "uint256"
        }
      ],
      "stateMutability": "view",
      "type": "function",
      "constant": true
    },
    {
      "inputs": [],
      "name": "maxCommitmentAge",
      "outputs": [
        {
          "internalType": "uint256",
          "name": "",
          "type": "uint256"
        }
      ],
      "stateMutability": "view",
      "type": "function",
      "constant": true
    },
    {
      "inputs": [],
      "name": "minCommitmentAge",
      "outputs": [
        {
          "internalType": "uint256",
          "name": "",
          "type": "uint256"
        }
      ],
      "stateMutability": "view",
      "type": "function",
      "constant": true
    },
    {
      "inputs": [],
      "name": "owner",
      "outputs": [
        {
          "internalType": "address",
          "name": "",
          "type": "address"
        }
      ],
      "stateMutability": "view",
      "type": "function",
      "constant": true
    },
    {
      "inputs": [],
      "name": "renounceOwnership",
      "outputs": [],
      "stateMutability": "nonpayable",
      "type": "function"
    },
    {
      "inputs": [
        {
          "internalType": "address",
          "name": "newOwner",
          "type": "address"
        }
      ],
      "name": "transferOwnership",
      "outputs": [],
      "stateMutability": "nonpayable",
      "type": "function"
    },
    {
      "inputs": [
        {
          "internalType": "string[]",
          "name": "_nameArray",
          "type": "string[]"
        },
        {
          "internalType": "address",
          "name": "owner",
          "type": "address"
        },
        {
          "internalType": "address",
          "name": "resolver",
          "type": "address"
        },
        {
          "internalType": "address",
          "name": "addr",
          "type": "address"
        }
      ],
      "name": "massDomainBuy",
      "outputs": [],
      "stateMutability": "nonpayable",
      "type": "function"
    },
    {
      "inputs": [
        {
          "internalType": "string",
          "name": "name",
          "type": "string"
        }
      ],
      "name": "rentPrice",
      "outputs": [
        {
          "internalType": "uint256",
          "name": "",
          "type": "uint256"
        }
      ],
      "stateMutability": "view",
      "type": "function",
      "constant": true
    },
    {
      "inputs": [
        {
          "internalType": "string",
          "name": "name",
          "type": "string"
        }
      ],
      "name": "valid",
      "outputs": [
        {
          "internalType": "bool",
          "name": "",
          "type": "bool"
        }
      ],
      "stateMutability": "pure",
      "type": "function",
      "constant": true
    },
    {
      "inputs": [
        {
          "internalType": "string",
          "name": "name",
          "type": "string"
        }
      ],
      "name": "available",
      "outputs": [
        {
          "internalType": "bool",
          "name": "",
          "type": "bool"
        }
      ],
      "stateMutability": "view",
      "type": "function",
      "constant": true
    },
    {
      "inputs": [
        {
          "internalType": "string",
          "name": "name",
          "type": "string"
        },
        {
          "internalType": "address",
          "name": "owner",
          "type": "address"
        },
        {
          "internalType": "bytes32",
          "name": "secret",
          "type": "bytes32"
        }
      ],
      "name": "makeCommitment",
      "outputs": [
        {
          "internalType": "bytes32",
          "name": "",
          "type": "bytes32"
        }
      ],
      "stateMutability": "pure",
      "type": "function",
      "constant": true
    },
    {
      "inputs": [
        {
          "internalType": "string",
          "name": "name",
          "type": "string"
        },
        {
          "internalType": "address",
          "name": "owner",
          "type": "address"
        },
        {
          "internalType": "bytes32",
          "name": "secret",
          "type": "bytes32"
        },
        {
          "internalType": "address",
          "name": "resolver",
          "type": "address"
        },
        {
          "internalType": "address",
          "name": "addr",
          "type": "address"
        }
      ],
      "name": "makeCommitmentWithConfig",
      "outputs": [
        {
          "internalType": "bytes32",
          "name": "",
          "type": "bytes32"
        }
      ],
      "stateMutability": "pure",
      "type": "function",
      "constant": true
    },
    {
      "inputs": [
        {
          "internalType": "bytes32",
          "name": "commitment",
          "type": "bytes32"
        }
      ],
      "name": "commit",
      "outputs": [],
      "stateMutability": "nonpayable",
      "type": "function"
    },
    {
      "inputs": [
        {
          "internalType": "string",
          "name": "name",
          "type": "string"
        },
        {
          "internalType": "address",
          "name": "owner",
          "type": "address"
        },
        {
          "internalType": "bytes32",
          "name": "secret",
          "type": "bytes32"
        }
      ],
      "name": "register",
      "outputs": [],
      "stateMutability": "payable",
      "type": "function",
      "payable": true
    },
    {
      "inputs": [
        {
          "internalType": "string",
          "name": "name",
          "type": "string"
        },
        {
          "internalType": "address",
          "name": "owner",
          "type": "address"
        },
        {
          "internalType": "bytes32",
          "name": "secret",
          "type": "bytes32"
        },
        {
          "internalType": "address",
          "name": "resolver",
          "type": "address"
        },
        {
          "internalType": "address",
          "name": "addr",
          "type": "address"
        }
      ],
      "name": "registerWithConfig",
      "outputs": [],
      "stateMutability": "payable",
      "type": "function",
      "payable": true
    },
    {
      "inputs": [
        {
          "internalType": "contract PriceOracle",
          "name": "_prices",
          "type": "address"
        }
      ],
      "name": "setPriceOracle",
      "outputs": [],
      "stateMutability": "nonpayable",
      "type": "function"
    },
    {
      "inputs": [
        {
          "internalType": "uint256",
          "name": "_minCommitmentAge",
          "type": "uint256"
        },
        {
          "internalType": "uint256",
          "name": "_maxCommitmentAge",
          "type": "uint256"
        }
      ],
      "name": "setCommitmentAges",
      "outputs": [],
      "stateMutability": "nonpayable",
      "type": "function"
    },
    {
      "inputs": [],
      "name": "withdraw",
      "outputs": [],
      "stateMutability": "nonpayable",
      "type": "function"
    },
    {
      "inputs": [
        {
          "internalType": "bytes4",
          "name": "interfaceID",
          "type": "bytes4"
        }
      ],
      "name": "supportsInterface",
      "outputs": [
        {
          "internalType": "bool",
          "name": "",
          "type": "bool"
        }
      ],
      "stateMutability": "pure",
      "type": "function",
      "constant": true
    }
  ],
  "bytecode": "0x60806040523480156200001157600080fd5b50604051620019df380380620019df8339810160408190526200003491620000db565b6200003f336200008b565b8181116200004c57600080fd5b600180546001600160a01b039586166001600160a01b031991821617909155600280549490951693169290921790925560039190915560045562000140565b600080546001600160a01b038381166001600160a01b0319831681178455604051919092169283917f8be0079c531659141344cd1fd0a4f28419497f9722a3daafe3b4186f6b6457e09190a35050565b60008060008060808587031215620000f1578384fd5b8451620000fe8162000127565b6020860151909450620001118162000127565b6040860151606090960151949790965092505050565b6001600160a01b03811681146200013d57600080fd5b50565b61188f80620001506000396000f3fe6080604052600436106101145760003560e01c80638d839ffe116100a0578063ce1e09c011610064578063ce1e09c0146102e6578063f14fcbc8146102fc578063f2fde38b1461031c578063f34b95b31461033c578063f49826be1461034f57600080fd5b80638d839ffe146102485780638da5cb5b1461025e5780639791c09714610286578063a03eab3d146102a6578063aeb8ce9b146102c657600080fd5b806368065088116100e757806368065088146101b35780636acb4f91146101d3578063715018a6146101e65780637e324479146101fb578063839df9451461021b57600080fd5b806301ffc9a7146101195780633ccfd60b1461014e5780633d86c52f14610165578063530e784f14610193575b600080fd5b34801561012557600080fd5b506101396101343660046114f5565b61036f565b60405190151581526020015b60405180910390f35b34801561015a57600080fd5b506101636103c0565b005b34801561017157600080fd5b50610185610180366004611648565b610423565b604051908152602001610145565b34801561019f57600080fd5b506101636101ae366004611394565b61051b565b3480156101bf57600080fd5b506101636101ce3660046113b0565b61058f565b6101636101e1366004611648565b6109dd565b3480156101f257600080fd5b50610163610e5a565b34801561020757600080fd5b506101636102163660046116c7565b610e90565b34801561022757600080fd5b506101856102363660046114c5565b60056020526000908152604090205481565b34801561025457600080fd5b5061018560035481565b34801561026a57600080fd5b506000546040516001600160a01b039091168152602001610145565b34801561029257600080fd5b506101396102a13660046115bd565b610ec5565b3480156102b257600080fd5b506101856102c13660046115bd565b610eda565b3480156102d257600080fd5b506101396102e13660046115bd565b610f5b565b3480156102f257600080fd5b5061018560045481565b34801561030857600080fd5b506101636103173660046114c5565b610ff8565b34801561032857600080fd5b50610163610337366004611394565b611032565b61016361034a366004611539565b6110ca565b34801561035b57600080fd5b5061018561036a3660046115f0565b611113565b60006001600160e01b031982166301ffc9a760e01b148061039f57506001600160e01b0319821662c7d60360e11b145b806103ba57506001600160e01b03198216633289eb1360e21b145b92915050565b6000546001600160a01b031633146103f35760405162461bcd60e51b81526004016103ea90611768565b60405180910390fd5b6040513390303180156108fc02916000818181858888f19350505050158015610420573d6000803e3d6000fd5b50565b845160208601206000906001600160a01b03841615801561044b57506001600160a01b038316155b1561049e5760408051602081018390526bffffffffffffffffffffffff19606089901b16918101919091526054810186905260740160405160208183030381529060405280519060200120915050610512565b6001600160a01b0384166104b157600080fd5b60408051602081018390526bffffffffffffffffffffffff19606089811b82169383019390935286831b811660548301529185901b9091166068820152607c8101869052609c01604051602081830303815290604052805190602001209150505b95945050505050565b6000546001600160a01b031633146105455760405162461bcd60e51b81526004016103ea90611768565b600280546001600160a01b0319166001600160a01b0383169081179091556040517ff261845a790fe29bbd6631e2ca4a5bdc83e6eed7c3271d9590d97287e00e912390600090a250565b6000546001600160a01b031633146105b95760405162461bcd60e51b81526004016103ea90611768565b60005b84518110156109d65760008582815181106105e757634e487b7160e01b600052603260045260246000fd5b60209081029190910181015180519101209050806001600160a01b038516156109465760015460405163dbbdf08360e01b8152600481018390523060248201526001600160a01b039091169063dbbdf08390604401600060405180830381600087803b15801561065657600080fd5b505af115801561066a573d6000803e3d6000fd5b505050506000600160009054906101000a90046001600160a01b03166001600160a01b031663ddf7fcb06040518163ffffffff1660e01b815260040160206040518083038186803b1580156106be57600080fd5b505afa1580156106d2573d6000803e3d6000fd5b505050506040513d601f19601f820116820180604052508101906106f691906114dd565b604080516020810192909252810184905260600160408051601f198184030181528282528051602091820120600154633f15457f60e01b855292519094506001600160a01b0390921692633f15457f9260048083019392829003018186803b15801561076157600080fd5b505afa158015610775573d6000803e3d6000fd5b505050506040513d601f19601f82011682018060405250810190610799919061151d565b604051630c4b7b8560e11b8152600481018390526001600160a01b0388811660248301529190911690631896f70a90604401600060405180830381600087803b1580156107e557600080fd5b505af11580156107f9573d6000803e3d6000fd5b505050506001600160a01b0385161561086e5760405162d5fa2b60e81b8152600481018290526001600160a01b03868116602483015287169063d5fa2b0090604401600060405180830381600087803b15801561085557600080fd5b505af1158015610869573d6000803e3d6000fd5b505050505b600154604051630a3b53db60e21b8152600481018490526001600160a01b038981166024830152909116906328ed4f6c90604401600060405180830381600087803b1580156108bc57600080fd5b505af11580156108d0573d6000803e3d6000fd5b50506001546040516323b872dd60e01b81523060048201526001600160a01b038b811660248301526044820187905290911692506323b872dd9150606401600060405180830381600087803b15801561092857600080fd5b505af115801561093c573d6000803e3d6000fd5b50505050506109c1565b6001600160a01b0384161561095a57600080fd5b60015460405163dbbdf08360e01b8152600481018390526001600160a01b0388811660248301529091169063dbbdf08390604401600060405180830381600087803b1580156109a857600080fd5b505af11580156109bc573d6000803e3d6000fd5b505050505b505080806109ce906117fd565b9150506105bc565b5050505050565b60006109ec8686868686610423565b905060006109fa878361112b565b87516020890120909150806001600160a01b03861615610d505760015460405163dbbdf08360e01b8152600481018390523060248201526001600160a01b039091169063dbbdf08390604401600060405180830381600087803b158015610a6057600080fd5b505af1158015610a74573d6000803e3d6000fd5b505050506000600160009054906101000a90046001600160a01b03166001600160a01b031663ddf7fcb06040518163ffffffff1660e01b815260040160206040518083038186803b158015610ac857600080fd5b505afa158015610adc573d6000803e3d6000fd5b505050506040513d601f19601f82011682018060405250810190610b0091906114dd565b604080516020810192909252810184905260600160408051601f198184030181528282528051602091820120600154633f15457f60e01b855292519094506001600160a01b0390921692633f15457f9260048083019392829003018186803b158015610b6b57600080fd5b505afa158015610b7f573d6000803e3d6000fd5b505050506040513d601f19601f82011682018060405250810190610ba3919061151d565b604051630c4b7b8560e11b8152600481018390526001600160a01b0389811660248301529190911690631896f70a90604401600060405180830381600087803b158015610bef57600080fd5b505af1158015610c03573d6000803e3d6000fd5b505050506001600160a01b03861615610c785760405162d5fa2b60e81b8152600481018290526001600160a01b03878116602483015288169063d5fa2b0090604401600060405180830381600087803b158015610c5f57600080fd5b505af1158015610c73573d6000803e3d6000fd5b505050505b600154604051630a3b53db60e21b8152600481018490526001600160a01b038b81166024830152909116906328ed4f6c90604401600060405180830381600087803b158015610cc657600080fd5b505af1158015610cda573d6000803e3d6000fd5b50506001546040516323b872dd60e01b81523060048201526001600160a01b038d811660248301526044820187905290911692506323b872dd9150606401600060405180830381600087803b158015610d3257600080fd5b505af1158015610d46573d6000803e3d6000fd5b5050505050610dcb565b6001600160a01b03851615610d6457600080fd5b60015460405163dbbdf08360e01b8152600481018390526001600160a01b038a811660248301529091169063dbbdf08390604401600060405180830381600087803b158015610db257600080fd5b505af1158015610dc6573d6000803e3d6000fd5b505050505b876001600160a01b0316827f0667086d08417333ce63f40d5bc2ef6fd330e25aaaf317b7c489541f8fe600fa8b86604051610e07929190611746565b60405180910390a382341115610e4f57336108fc610e2585346117e6565b6040518115909202916000818181858888f19350505050158015610e4d573d6000803e3d6000fd5b505b505050505050505050565b6000546001600160a01b03163314610e845760405162461bcd60e51b81526004016103ea90611768565b610e8e60006111b8565b565b6000546001600160a01b03163314610eba5760405162461bcd60e51b81526004016103ea90611768565b600391909155600455565b60006003610ed283611208565b101592915050565b600254604051631fc58c3360e31b81526000916001600160a01b03169063fe2c619890610f0b908590600401611733565b60206040518083038186803b158015610f2357600080fd5b505afa158015610f37573d6000803e3d6000fd5b505050506040513d601f19601f820116820180604052508101906103ba91906114dd565b80516020820120600090610f6e83610ec5565b8015610ff157506001546040516312dc929d60e31b8152600481018390526001600160a01b03909116906396e494e89060240160206040518083038186803b158015610fb957600080fd5b505afa158015610fcd573d6000803e3d6000fd5b505050506040513d601f19601f82011682018060405250810190610ff191906114a5565b9392505050565b6004546000828152600560205260409020544291611015916117ce565b1061101f57600080fd5b6000908152600560205260409020429055565b6000546001600160a01b0316331461105c5760405162461bcd60e51b81526004016103ea90611768565b6001600160a01b0381166110c15760405162461bcd60e51b815260206004820152602660248201527f4f776e61626c653a206e6577206f776e657220697320746865207a65726f206160448201526564647265737360d01b60648201526084016103ea565b610420816111b8565b61110d84848080601f01602080910402602001604051908101604052809392919081815260200183838082843760009201829052508793508692509050806109dd565b50505050565b6000611123848484600080610423565b949350505050565b6003546000828152600560205260408120549091429161114b91906117ce565b111561115657600080fd5b6004546000838152600560205260409020544291611173916117ce565b1161117d57600080fd5b61118683610f5b565b61118f57600080fd5b60008281526005602052604081208190556111a984610eda565b905080341015610ff157600080fd5b600080546001600160a01b038381166001600160a01b0319831681178455604051919092169283917f8be0079c531659141344cd1fd0a4f28419497f9722a3daafe3b4186f6b6457e09190a35050565b8051600090819081905b8082101561131057600085838151811061123c57634e487b7160e01b600052603260045260246000fd5b01602001516001600160f81b0319169050600160ff1b81101561126b576112646001846117ce565b92506112fd565b600760fd1b6001600160f81b03198216101561128c576112646002846117ce565b600f60fc1b6001600160f81b0319821610156112ad576112646003846117ce565b601f60fb1b6001600160f81b0319821610156112ce576112646004846117ce565b603f60fa1b6001600160f81b0319821610156112ef576112646005846117ce565b6112fa6006846117ce565b92505b5082611308816117fd565b935050611212565b50909392505050565b803561132481611844565b919050565b600082601f830112611339578081fd5b813567ffffffffffffffff8111156113535761135361182e565b611366601f8201601f191660200161179d565b81815284602083860101111561137a578283fd5b816020850160208301379081016020019190915292915050565b6000602082840312156113a5578081fd5b8135610ff181611844565b600080600080608085870312156113c5578283fd5b843567ffffffffffffffff808211156113dc578485fd5b818701915087601f8301126113ef578485fd5b81356020828211156114035761140361182e565b8160051b61141282820161179d565b8381528281019086840183880185018e101561142c578a8bfd5b8a93505b8584101561146957803587811115611446578b8cfd5b6114548f87838c0101611329565b84525060019390930192918401918401611430565b50995061147a915050898201611319565b96505050505061148c60408601611319565b915061149a60608601611319565b905092959194509250565b6000602082840312156114b6578081fd5b81518015158114610ff1578182fd5b6000602082840312156114d6578081fd5b5035919050565b6000602082840312156114ee578081fd5b5051919050565b600060208284031215611506578081fd5b81356001600160e01b031981168114610ff1578182fd5b60006020828403121561152e578081fd5b8151610ff181611844565b6000806000806060858703121561154e578384fd5b843567ffffffffffffffff80821115611565578586fd5b818701915087601f830112611578578586fd5b813581811115611586578687fd5b886020828501011115611597578687fd5b602092830196509450508501356115ad81611844565b9396929550929360400135925050565b6000602082840312156115ce578081fd5b813567ffffffffffffffff8111156115e4578182fd5b61112384828501611329565b600080600060608486031215611604578283fd5b833567ffffffffffffffff81111561161a578384fd5b61162686828701611329565b935050602084013561163781611844565b929592945050506040919091013590565b600080600080600060a0868803121561165f578283fd5b853567ffffffffffffffff811115611675578384fd5b61168188828901611329565b955050602086013561169281611844565b93506040860135925060608601356116a981611844565b915060808601356116b981611844565b809150509295509295909350565b600080604083850312156116d9578182fd5b50508035926020909101359150565b60008151808452815b8181101561170d576020818501810151868301820152016116f1565b8181111561171e5782602083870101525b50601f01601f19169290920160200192915050565b602081526000610ff160208301846116e8565b60408152600061175960408301856116e8565b90508260208301529392505050565b6020808252818101527f4f776e61626c653a2063616c6c6572206973206e6f7420746865206f776e6572604082015260600190565b604051601f8201601f1916810167ffffffffffffffff811182821017156117c6576117c661182e565b604052919050565b600082198211156117e1576117e1611818565b500190565b6000828210156117f8576117f8611818565b500390565b600060001982141561181157611811611818565b5060010190565b634e487b7160e01b600052601160045260246000fd5b634e487b7160e01b600052604160045260246000fd5b6001600160a01b038116811461042057600080fdfea2646970667358221220d67dafd28387ef81f60f23089067faa7b69d0f1cb36e28524ba9fe7bf9a9839d64736f6c63430008040033",
  "immutableReferences": {},
  "source": "// SPDX-License-Identifier: MIT\r\npragma solidity ^0.8.4;\r\n\r\nimport \"@ensdomains/ens-contracts/contracts/ethregistrar/StringUtils.sol\";\r\nimport \"@ensdomains/ens-contracts/contracts/resolvers/Resolver.sol\";\r\nimport \"@openzeppelin/contracts/access/Ownable.sol\";\r\n\r\nimport \"./BaseRegistrarImplementation.sol\";\r\nimport \"./TfuelPriceOracle.sol\";\r\n\r\n\r\n/**\r\n * @dev A registrar controller for registering names at fixed cost.\r\n */\r\ncontract ETHRegistrarController is Ownable {\r\n    using StringUtils for *;\r\n\r\n    bytes4 constant private INTERFACE_META_ID = bytes4(keccak256(\"supportsInterface(bytes4)\"));\r\n    bytes4 constant private COMMITMENT_CONTROLLER_ID = bytes4(\r\n        keccak256(\"rentPrice(string,uint256)\") ^\r\n        keccak256(\"available(string)\") ^\r\n        keccak256(\"makeCommitment(string,address,bytes32)\") ^\r\n        keccak256(\"commit(bytes32)\") ^\r\n        keccak256(\"register(string,address,uint256,bytes32)\") ^\r\n        keccak256(\"renew(string,uint256)\")\r\n    );\r\n\r\n    bytes4 constant private COMMITMENT_WITH_CONFIG_CONTROLLER_ID = bytes4(\r\n        keccak256(\"registerWithConfig(string,address,uint256,bytes32,address,address)\") ^\r\n        keccak256(\"makeCommitmentWithConfig(string,address,bytes32,address,address)\")\r\n    );\r\n\r\n    BaseRegistrarImplementation base;\r\n    PriceOracle prices;\r\n    uint public minCommitmentAge;\r\n    uint public maxCommitmentAge;\r\n\r\n    mapping(bytes32=>uint) public commitments;\r\n\r\n    event NameRegistered(string name, bytes32 indexed label, address indexed owner, uint cost);\r\n    event NewPriceOracle(address indexed oracle);\r\n\r\n    constructor(BaseRegistrarImplementation _base, PriceOracle _prices, uint _minCommitmentAge, uint _maxCommitmentAge) {\r\n        require(_maxCommitmentAge > _minCommitmentAge);\r\n\r\n        base = _base;\r\n        prices = _prices;\r\n        minCommitmentAge = _minCommitmentAge;\r\n        maxCommitmentAge = _maxCommitmentAge;\r\n    }\r\n\r\n    function massDomainBuy(string[] memory _nameArray, address owner, address resolver, address addr) external onlyOwner {\r\n        \r\n        for(uint256 counter = 0; counter < _nameArray.length; counter++) {\r\n            bytes32 label = keccak256(bytes(_nameArray[counter]));\r\n            uint256 tokenId = uint256(label);\r\n            if(resolver != address(0)) {\r\n                // Set this contract as the (temporary) owner, giving it\r\n                // permission to set up the resolver.\r\n                base.register(tokenId, address(this));\r\n\r\n                // The nodehash of this label\r\n                bytes32 nodehash = keccak256(abi.encodePacked(base.baseNode(), label));\r\n\r\n                // Set the resolver\r\n                base.ens().setResolver(nodehash, resolver);\r\n\r\n                // Configure the resolver\r\n                if (addr != address(0)) {\r\n                    Resolver(resolver).setAddr(nodehash, addr);\r\n                }\r\n\r\n                // Now transfer full ownership to the expeceted owner\r\n                base.reclaim(tokenId, owner);\r\n                base.transferFrom(address(this), owner, tokenId);\r\n            } else {\r\n                require(addr == address(0));\r\n                base.register(tokenId, owner);\r\n            }\r\n        }\r\n    }\r\n\r\n    function rentPrice(string memory name) view public returns(uint) {\r\n        return prices.price(name);\r\n    }\r\n\r\n    function valid(string memory name) public pure returns(bool) {\r\n        return name.strlen() >= 3;\r\n    }\r\n\r\n    function available(string memory name) public view returns(bool) {\r\n        bytes32 label = keccak256(bytes(name));\r\n        return valid(name) && base.available(uint256(label));\r\n    }\r\n\r\n    function makeCommitment(string memory name, address owner, bytes32 secret) pure public returns(bytes32) {\r\n        return makeCommitmentWithConfig(name, owner, secret, address(0), address(0));\r\n    }\r\n\r\n    function makeCommitmentWithConfig(string memory name, address owner, bytes32 secret, address resolver, address addr) pure public returns(bytes32) {\r\n        bytes32 label = keccak256(bytes(name));\r\n        if (resolver == address(0) && addr == address(0)) {\r\n            return keccak256(abi.encodePacked(label, owner, secret));\r\n        }\r\n        require(resolver != address(0));\r\n        return keccak256(abi.encodePacked(label, owner, resolver, addr, secret));\r\n    }\r\n\r\n    function commit(bytes32 commitment) public {\r\n        require(commitments[commitment] + maxCommitmentAge < block.timestamp);\r\n        commitments[commitment] = block.timestamp;\r\n    }\r\n\r\n    function register(string calldata name, address owner, bytes32 secret) external payable {\r\n      registerWithConfig(name, owner, secret, address(0), address(0));\r\n    }\r\n\r\n    function registerWithConfig(string memory name, address owner, bytes32 secret, address resolver, address addr) public payable {\r\n        bytes32 commitment = makeCommitmentWithConfig(name, owner, secret, resolver, addr);\r\n        uint cost = _consumeCommitment(name, commitment);\r\n\r\n        bytes32 label = keccak256(bytes(name));\r\n        uint256 tokenId = uint256(label);\r\n\r\n        if(resolver != address(0)) {\r\n            // Set this contract as the (temporary) owner, giving it\r\n            // permission to set up the resolver.\r\n            base.register(tokenId, address(this));\r\n\r\n            // The nodehash of this label\r\n            bytes32 nodehash = keccak256(abi.encodePacked(base.baseNode(), label));\r\n\r\n            // Set the resolver\r\n            base.ens().setResolver(nodehash, resolver);\r\n\r\n            // Configure the resolver\r\n            if (addr != address(0)) {\r\n                Resolver(resolver).setAddr(nodehash, addr);\r\n            }\r\n\r\n            // Now transfer full ownership to the expeceted owner\r\n            base.reclaim(tokenId, owner);\r\n            base.transferFrom(address(this), owner, tokenId);\r\n        } else {\r\n            require(addr == address(0));\r\n            base.register(tokenId, owner);\r\n        }\r\n\r\n        emit NameRegistered(name, label, owner, cost);\r\n\r\n        // Refund any extra payment\r\n        if(msg.value > cost) {\r\n            payable(msg.sender).transfer(msg.value - cost);\r\n        }\r\n    }\r\n\r\n    function setPriceOracle(PriceOracle _prices) public onlyOwner {\r\n        prices = _prices;\r\n        emit NewPriceOracle(address(prices));\r\n    }\r\n\r\n    function setCommitmentAges(uint _minCommitmentAge, uint _maxCommitmentAge) public onlyOwner {\r\n        minCommitmentAge = _minCommitmentAge;\r\n        maxCommitmentAge = _maxCommitmentAge;\r\n    }\r\n\r\n    function withdraw() public onlyOwner {\r\n        payable(msg.sender).transfer(address(this).balance);        \r\n    }\r\n\r\n    function supportsInterface(bytes4 interfaceID) external pure returns (bool) {\r\n        return interfaceID == INTERFACE_META_ID ||\r\n               interfaceID == COMMITMENT_CONTROLLER_ID ||\r\n               interfaceID == COMMITMENT_WITH_CONFIG_CONTROLLER_ID;\r\n    }\r\n\r\n    function _consumeCommitment(string memory name, bytes32 commitment) internal returns (uint256) {\r\n        // Require a valid commitment\r\n        require(commitments[commitment] + minCommitmentAge <= block.timestamp);\r\n\r\n        // If the commitment is too old, or the name is registered, stop\r\n        require(commitments[commitment] + maxCommitmentAge > block.timestamp);\r\n        require(available(name));\r\n\r\n        delete(commitments[commitment]);\r\n\r\n        uint cost = rentPrice(name);\r\n        require(msg.value >= cost);\r\n\r\n        return cost;\r\n    }\r\n}",
  "sourcePath": "/Users/adrienvinches/Documents/domains/smart_contracts_core/contracts/ETHRegistrarController.sol",
  "compiler": {
    "name": "solc",
    "version": "0.8.4+commit.c7e474f2.Emscripten.clang"
  },
  "schemaVersion": "3.4.3",
  "updatedAt": "2022-01-13T06:06:58.860Z",
  "networkType": "ethereum",
  "devdoc": {
    "details": "A registrar controller for registering names at fixed cost.",
    "kind": "dev",
    "methods": {
      "owner()": {
        "details": "Returns the address of the current owner."
      },
      "renounceOwnership()": {
        "details": "Leaves the contract without owner. It will not be possible to call `onlyOwner` functions anymore. Can only be called by the current owner. NOTE: Renouncing ownership will leave the contract without an owner, thereby removing any functionality that is only available to the owner."
      },
      "transferOwnership(address)": {
        "details": "Transfers ownership of the contract to a new account (`newOwner`). Can only be called by the current owner."
      }
    },
    "version": 1
  },
  "userdoc": {
    "kind": "user",
    "methods": {},
    "version": 1
  }
}