{
  "contractName": "ETHRegistrarController",
  "abi": [
    {
      "inputs": [
        {
          "internalType": "contract BaseRegistrarImplementation",
          "name": "_base",
          "type": "address"
        },
        {
          "internalType": "contract PriceOracle",
          "name": "_prices",
          "type": "address"
        },
        {
          "internalType": "uint256",
          "name": "_minCommitmentAge",
          "type": "uint256"
        },
        {
          "internalType": "uint256",
          "name": "_maxCommitmentAge",
          "type": "uint256"
        }
      ],
      "stateMutability": "nonpayable",
      "type": "constructor"
    },
    {
      "anonymous": false,
      "inputs": [
        {
          "indexed": false,
          "internalType": "string",
          "name": "name",
          "type": "string"
        },
        {
          "indexed": true,
          "internalType": "bytes32",
          "name": "label",
          "type": "bytes32"
        },
        {
          "indexed": true,
          "internalType": "address",
          "name": "owner",
          "type": "address"
        },
        {
          "indexed": false,
          "internalType": "uint256",
          "name": "cost",
          "type": "uint256"
        }
      ],
      "name": "NameRegistered",
      "type": "event"
    },
    {
      "anonymous": false,
      "inputs": [
        {
          "indexed": true,
          "internalType": "address",
          "name": "oracle",
          "type": "address"
        }
      ],
      "name": "NewPriceOracle",
      "type": "event"
    },
    {
      "anonymous": false,
      "inputs": [
        {
          "indexed": true,
          "internalType": "address",
          "name": "previousOwner",
          "type": "address"
        },
        {
          "indexed": true,
          "internalType": "address",
          "name": "newOwner",
          "type": "address"
        }
      ],
      "name": "OwnershipTransferred",
      "type": "event"
    },
    {
      "inputs": [
        {
          "internalType": "bytes32",
          "name": "",
          "type": "bytes32"
        }
      ],
      "name": "commitments",
      "outputs": [
        {
          "internalType": "uint256",
          "name": "",
          "type": "uint256"
        }
      ],
      "stateMutability": "view",
      "type": "function",
      "constant": true
    },
    {
      "inputs": [],
      "name": "maxCommitmentAge",
      "outputs": [
        {
          "internalType": "uint256",
          "name": "",
          "type": "uint256"
        }
      ],
      "stateMutability": "view",
      "type": "function",
      "constant": true
    },
    {
      "inputs": [],
      "name": "minCommitmentAge",
      "outputs": [
        {
          "internalType": "uint256",
          "name": "",
          "type": "uint256"
        }
      ],
      "stateMutability": "view",
      "type": "function",
      "constant": true
    },
    {
      "inputs": [],
      "name": "owner",
      "outputs": [
        {
          "internalType": "address",
          "name": "",
          "type": "address"
        }
      ],
      "stateMutability": "view",
      "type": "function",
      "constant": true
    },
    {
      "inputs": [],
      "name": "renounceOwnership",
      "outputs": [],
      "stateMutability": "nonpayable",
      "type": "function"
    },
    {
      "inputs": [
        {
          "internalType": "address",
          "name": "newOwner",
          "type": "address"
        }
      ],
      "name": "transferOwnership",
      "outputs": [],
      "stateMutability": "nonpayable",
      "type": "function"
    },
    {
      "inputs": [
        {
          "internalType": "string",
          "name": "name",
          "type": "string"
        }
      ],
      "name": "rentPrice",
      "outputs": [
        {
          "internalType": "uint256",
          "name": "",
          "type": "uint256"
        }
      ],
      "stateMutability": "view",
      "type": "function",
      "constant": true
    },
    {
      "inputs": [
        {
          "internalType": "string",
          "name": "name",
          "type": "string"
        }
      ],
      "name": "valid",
      "outputs": [
        {
          "internalType": "bool",
          "name": "",
          "type": "bool"
        }
      ],
      "stateMutability": "pure",
      "type": "function",
      "constant": true
    },
    {
      "inputs": [
        {
          "internalType": "string",
          "name": "name",
          "type": "string"
        }
      ],
      "name": "available",
      "outputs": [
        {
          "internalType": "bool",
          "name": "",
          "type": "bool"
        }
      ],
      "stateMutability": "view",
      "type": "function",
      "constant": true
    },
    {
      "inputs": [
        {
          "internalType": "string",
          "name": "name",
          "type": "string"
        },
        {
          "internalType": "address",
          "name": "owner",
          "type": "address"
        },
        {
          "internalType": "bytes32",
          "name": "secret",
          "type": "bytes32"
        }
      ],
      "name": "makeCommitment",
      "outputs": [
        {
          "internalType": "bytes32",
          "name": "",
          "type": "bytes32"
        }
      ],
      "stateMutability": "pure",
      "type": "function",
      "constant": true
    },
    {
      "inputs": [
        {
          "internalType": "string",
          "name": "name",
          "type": "string"
        },
        {
          "internalType": "address",
          "name": "owner",
          "type": "address"
        },
        {
          "internalType": "bytes32",
          "name": "secret",
          "type": "bytes32"
        },
        {
          "internalType": "address",
          "name": "resolver",
          "type": "address"
        },
        {
          "internalType": "address",
          "name": "addr",
          "type": "address"
        }
      ],
      "name": "makeCommitmentWithConfig",
      "outputs": [
        {
          "internalType": "bytes32",
          "name": "",
          "type": "bytes32"
        }
      ],
      "stateMutability": "pure",
      "type": "function",
      "constant": true
    },
    {
      "inputs": [
        {
          "internalType": "bytes32",
          "name": "commitment",
          "type": "bytes32"
        }
      ],
      "name": "commit",
      "outputs": [],
      "stateMutability": "nonpayable",
      "type": "function"
    },
    {
      "inputs": [
        {
          "internalType": "string",
          "name": "name",
          "type": "string"
        },
        {
          "internalType": "address",
          "name": "owner",
          "type": "address"
        },
        {
          "internalType": "bytes32",
          "name": "secret",
          "type": "bytes32"
        }
      ],
      "name": "register",
      "outputs": [],
      "stateMutability": "payable",
      "type": "function",
      "payable": true
    },
    {
      "inputs": [
        {
          "internalType": "string",
          "name": "name",
          "type": "string"
        },
        {
          "internalType": "address",
          "name": "owner",
          "type": "address"
        },
        {
          "internalType": "bytes32",
          "name": "secret",
          "type": "bytes32"
        },
        {
          "internalType": "address",
          "name": "resolver",
          "type": "address"
        },
        {
          "internalType": "address",
          "name": "addr",
          "type": "address"
        }
      ],
      "name": "registerWithConfig",
      "outputs": [],
      "stateMutability": "payable",
      "type": "function",
      "payable": true
    },
    {
      "inputs": [
        {
          "internalType": "contract PriceOracle",
          "name": "_prices",
          "type": "address"
        }
      ],
      "name": "setPriceOracle",
      "outputs": [],
      "stateMutability": "nonpayable",
      "type": "function"
    },
    {
      "inputs": [
        {
          "internalType": "uint256",
          "name": "_minCommitmentAge",
          "type": "uint256"
        },
        {
          "internalType": "uint256",
          "name": "_maxCommitmentAge",
          "type": "uint256"
        }
      ],
      "name": "setCommitmentAges",
      "outputs": [],
      "stateMutability": "nonpayable",
      "type": "function"
    },
    {
      "inputs": [],
      "name": "withdraw",
      "outputs": [],
      "stateMutability": "nonpayable",
      "type": "function"
    },
    {
      "inputs": [
        {
          "internalType": "bytes4",
          "name": "interfaceID",
          "type": "bytes4"
        }
      ],
      "name": "supportsInterface",
      "outputs": [
        {
          "internalType": "bool",
          "name": "",
          "type": "bool"
        }
      ],
      "stateMutability": "pure",
      "type": "function",
      "constant": true
    }
  ],
  "bytecode": "0x60806040523480156200001157600080fd5b506040516200144c3803806200144c8339810160408190526200003491620000db565b6200003f336200008b565b8181116200004c57600080fd5b600180546001600160a01b039586166001600160a01b031991821617909155600280549490951693169290921790925560039190915560045562000140565b600080546001600160a01b038381166001600160a01b0319831681178455604051919092169283917f8be0079c531659141344cd1fd0a4f28419497f9722a3daafe3b4186f6b6457e09190a35050565b60008060008060808587031215620000f1578384fd5b8451620000fe8162000127565b6020860151909450620001118162000127565b6040860151606090960151949790965092505050565b6001600160a01b03811681146200013d57600080fd5b50565b6112fc80620001506000396000f3fe6080604052600436106101095760003560e01c80638da5cb5b11610095578063ce1e09c011610064578063ce1e09c0146102bb578063f14fcbc8146102d1578063f2fde38b146102f1578063f34b95b314610311578063f49826be1461032457600080fd5b80638da5cb5b146102335780639791c0971461025b578063a03eab3d1461027b578063aeb8ce9b1461029b57600080fd5b80636acb4f91116100dc5780636acb4f91146101a8578063715018a6146101bb5780637e324479146101d0578063839df945146101f05780638d839ffe1461021d57600080fd5b806301ffc9a71461010e5780633ccfd60b146101435780633d86c52f1461015a578063530e784f14610188575b600080fd5b34801561011a57600080fd5b5061012e610129366004610f93565b610344565b60405190151581526020015b60405180910390f35b34801561014f57600080fd5b50610158610395565b005b34801561016657600080fd5b5061017a6101753660046110e6565b6103f8565b60405190815260200161013a565b34801561019457600080fd5b506101586101a3366004610f27565b6104f0565b6101586101b63660046110e6565b610564565b3480156101c757600080fd5b506101586109e1565b3480156101dc57600080fd5b506101586101eb366004611165565b610a17565b3480156101fc57600080fd5b5061017a61020b366004610f63565b60056020526000908152604090205481565b34801561022957600080fd5b5061017a60035481565b34801561023f57600080fd5b506000546040516001600160a01b03909116815260200161013a565b34801561026757600080fd5b5061012e61027636600461105b565b610a4c565b34801561028757600080fd5b5061017a61029636600461105b565b610a61565b3480156102a757600080fd5b5061012e6102b636600461105b565b610ae2565b3480156102c757600080fd5b5061017a60045481565b3480156102dd57600080fd5b506101586102ec366004610f63565b610b7f565b3480156102fd57600080fd5b5061015861030c366004610f27565b610bb9565b61015861031f366004610fd7565b610c51565b34801561033057600080fd5b5061017a61033f36600461108e565b610c9a565b60006001600160e01b031982166301ffc9a760e01b148061037457506001600160e01b0319821662c7d60360e11b145b8061038f57506001600160e01b03198216633289eb1360e21b145b92915050565b6000546001600160a01b031633146103c85760405162461bcd60e51b81526004016103bf90611206565b60405180910390fd5b6040513390303180156108fc02916000818181858888f193505050501580156103f5573d6000803e3d6000fd5b50565b845160208601206000906001600160a01b03841615801561042057506001600160a01b038316155b156104735760408051602081018390526bffffffffffffffffffffffff19606089901b169181019190915260548101869052607401604051602081830303815290604052805190602001209150506104e7565b6001600160a01b03841661048657600080fd5b60408051602081018390526bffffffffffffffffffffffff19606089811b82169383019390935286831b811660548301529185901b9091166068820152607c8101869052609c01604051602081830303815290604052805190602001209150505b95945050505050565b6000546001600160a01b0316331461051a5760405162461bcd60e51b81526004016103bf90611206565b600280546001600160a01b0319166001600160a01b0383169081179091556040517ff261845a790fe29bbd6631e2ca4a5bdc83e6eed7c3271d9590d97287e00e912390600090a250565b600061057386868686866103f8565b905060006105818783610cb2565b87516020890120909150806001600160a01b038616156108d75760015460405163dbbdf08360e01b8152600481018390523060248201526001600160a01b039091169063dbbdf08390604401600060405180830381600087803b1580156105e757600080fd5b505af11580156105fb573d6000803e3d6000fd5b505050506000600160009054906101000a90046001600160a01b03166001600160a01b031663ddf7fcb06040518163ffffffff1660e01b815260040160206040518083038186803b15801561064f57600080fd5b505afa158015610663573d6000803e3d6000fd5b505050506040513d601f19601f820116820180604052508101906106879190610f7b565b604080516020810192909252810184905260600160408051601f198184030181528282528051602091820120600154633f15457f60e01b855292519094506001600160a01b0390921692633f15457f9260048083019392829003018186803b1580156106f257600080fd5b505afa158015610706573d6000803e3d6000fd5b505050506040513d601f19601f8201168201806040525081019061072a9190610fbb565b604051630c4b7b8560e11b8152600481018390526001600160a01b0389811660248301529190911690631896f70a90604401600060405180830381600087803b15801561077657600080fd5b505af115801561078a573d6000803e3d6000fd5b505050506001600160a01b038616156107ff5760405162d5fa2b60e81b8152600481018290526001600160a01b03878116602483015288169063d5fa2b0090604401600060405180830381600087803b1580156107e657600080fd5b505af11580156107fa573d6000803e3d6000fd5b505050505b600154604051630a3b53db60e21b8152600481018490526001600160a01b038b81166024830152909116906328ed4f6c90604401600060405180830381600087803b15801561084d57600080fd5b505af1158015610861573d6000803e3d6000fd5b50506001546040516323b872dd60e01b81523060048201526001600160a01b038d811660248301526044820187905290911692506323b872dd9150606401600060405180830381600087803b1580156108b957600080fd5b505af11580156108cd573d6000803e3d6000fd5b5050505050610952565b6001600160a01b038516156108eb57600080fd5b60015460405163dbbdf08360e01b8152600481018390526001600160a01b038a811660248301529091169063dbbdf08390604401600060405180830381600087803b15801561093957600080fd5b505af115801561094d573d6000803e3d6000fd5b505050505b876001600160a01b0316827f0667086d08417333ce63f40d5bc2ef6fd330e25aaaf317b7c489541f8fe600fa8b8660405161098e9291906111e4565b60405180910390a3823411156109d657336108fc6109ac8534611253565b6040518115909202916000818181858888f193505050501580156109d4573d6000803e3d6000fd5b505b505050505050505050565b6000546001600160a01b03163314610a0b5760405162461bcd60e51b81526004016103bf90611206565b610a156000610d3f565b565b6000546001600160a01b03163314610a415760405162461bcd60e51b81526004016103bf90611206565b600391909155600455565b60006003610a5983610d8f565b101592915050565b600254604051631fc58c3360e31b81526000916001600160a01b03169063fe2c619890610a929085906004016111d1565b60206040518083038186803b158015610aaa57600080fd5b505afa158015610abe573d6000803e3d6000fd5b505050506040513d601f19601f8201168201806040525081019061038f9190610f7b565b80516020820120600090610af583610a4c565b8015610b7857506001546040516312dc929d60e31b8152600481018390526001600160a01b03909116906396e494e89060240160206040518083038186803b158015610b4057600080fd5b505afa158015610b54573d6000803e3d6000fd5b505050506040513d601f19601f82011682018060405250810190610b789190610f43565b9392505050565b6004546000828152600560205260409020544291610b9c9161123b565b10610ba657600080fd5b6000908152600560205260409020429055565b6000546001600160a01b03163314610be35760405162461bcd60e51b81526004016103bf90611206565b6001600160a01b038116610c485760405162461bcd60e51b815260206004820152602660248201527f4f776e61626c653a206e6577206f776e657220697320746865207a65726f206160448201526564647265737360d01b60648201526084016103bf565b6103f581610d3f565b610c9484848080601f0160208091040260200160405190810160405280939291908181526020018383808284376000920182905250879350869250905080610564565b50505050565b6000610caa8484846000806103f8565b949350505050565b60035460008281526005602052604081205490914291610cd2919061123b565b1115610cdd57600080fd5b6004546000838152600560205260409020544291610cfa9161123b565b11610d0457600080fd5b610d0d83610ae2565b610d1657600080fd5b6000828152600560205260408120819055610d3084610a61565b905080341015610b7857600080fd5b600080546001600160a01b038381166001600160a01b0319831681178455604051919092169283917f8be0079c531659141344cd1fd0a4f28419497f9722a3daafe3b4186f6b6457e09190a35050565b8051600090819081905b80821015610e97576000858381518110610dc357634e487b7160e01b600052603260045260246000fd5b01602001516001600160f81b0319169050600160ff1b811015610df257610deb60018461123b565b9250610e84565b600760fd1b6001600160f81b031982161015610e1357610deb60028461123b565b600f60fc1b6001600160f81b031982161015610e3457610deb60038461123b565b601f60fb1b6001600160f81b031982161015610e5557610deb60048461123b565b603f60fa1b6001600160f81b031982161015610e7657610deb60058461123b565b610e8160068461123b565b92505b5082610e8f8161126a565b935050610d99565b50909392505050565b600082601f830112610eb0578081fd5b813567ffffffffffffffff80821115610ecb57610ecb61129b565b604051601f8301601f19908116603f01168101908282118183101715610ef357610ef361129b565b81604052838152866020858801011115610f0b578485fd5b8360208701602083013792830160200193909352509392505050565b600060208284031215610f38578081fd5b8135610b78816112b1565b600060208284031215610f54578081fd5b81518015158114610b78578182fd5b600060208284031215610f74578081fd5b5035919050565b600060208284031215610f8c578081fd5b5051919050565b600060208284031215610fa4578081fd5b81356001600160e01b031981168114610b78578182fd5b600060208284031215610fcc578081fd5b8151610b78816112b1565b60008060008060608587031215610fec578283fd5b843567ffffffffffffffff80821115611003578485fd5b818701915087601f830112611016578485fd5b813581811115611024578586fd5b886020828501011115611035578586fd5b6020928301965094505085013561104b816112b1565b9396929550929360400135925050565b60006020828403121561106c578081fd5b813567ffffffffffffffff811115611082578182fd5b610caa84828501610ea0565b6000806000606084860312156110a2578283fd5b833567ffffffffffffffff8111156110b8578384fd5b6110c486828701610ea0565b93505060208401356110d5816112b1565b929592945050506040919091013590565b600080600080600060a086880312156110fd578081fd5b853567ffffffffffffffff811115611113578182fd5b61111f88828901610ea0565b9550506020860135611130816112b1565b9350604086013592506060860135611147816112b1565b91506080860135611157816112b1565b809150509295509295909350565b60008060408385031215611177578182fd5b50508035926020909101359150565b60008151808452815b818110156111ab5760208185018101518683018201520161118f565b818111156111bc5782602083870101525b50601f01601f19169290920160200192915050565b602081526000610b786020830184611186565b6040815260006111f76040830185611186565b90508260208301529392505050565b6020808252818101527f4f776e61626c653a2063616c6c6572206973206e6f7420746865206f776e6572604082015260600190565b6000821982111561124e5761124e611285565b500190565b60008282101561126557611265611285565b500390565b600060001982141561127e5761127e611285565b5060010190565b634e487b7160e01b600052601160045260246000fd5b634e487b7160e01b600052604160045260246000fd5b6001600160a01b03811681146103f557600080fdfea264697066735822122025e9efafedf28daa271dc5bfa9ad57c555bab9a64a01798cc0bff11bdc5b505764736f6c63430008040033",
  "immutableReferences": {},
  "source": "// SPDX-License-Identifier: MIT\r\npragma solidity ^0.8.4;\r\n\r\nimport \"@ensdomains/ens-contracts/contracts/ethregistrar/StringUtils.sol\";\r\nimport \"@ensdomains/ens-contracts/contracts/resolvers/Resolver.sol\";\r\nimport \"@openzeppelin/contracts/access/Ownable.sol\";\r\n\r\nimport \"./BaseRegistrarImplementation.sol\";\r\nimport \"./TfuelPriceOracle.sol\";\r\n\r\n\r\n/**\r\n * @dev A registrar controller for registering names at fixed cost.\r\n */\r\ncontract ETHRegistrarController is Ownable {\r\n    using StringUtils for *;\r\n\r\n    bytes4 constant private INTERFACE_META_ID = bytes4(keccak256(\"supportsInterface(bytes4)\"));\r\n    bytes4 constant private COMMITMENT_CONTROLLER_ID = bytes4(\r\n        keccak256(\"rentPrice(string,uint256)\") ^\r\n        keccak256(\"available(string)\") ^\r\n        keccak256(\"makeCommitment(string,address,bytes32)\") ^\r\n        keccak256(\"commit(bytes32)\") ^\r\n        keccak256(\"register(string,address,uint256,bytes32)\") ^\r\n        keccak256(\"renew(string,uint256)\")\r\n    );\r\n\r\n    bytes4 constant private COMMITMENT_WITH_CONFIG_CONTROLLER_ID = bytes4(\r\n        keccak256(\"registerWithConfig(string,address,uint256,bytes32,address,address)\") ^\r\n        keccak256(\"makeCommitmentWithConfig(string,address,bytes32,address,address)\")\r\n    );\r\n\r\n    BaseRegistrarImplementation base;\r\n    PriceOracle prices;\r\n    uint public minCommitmentAge;\r\n    uint public maxCommitmentAge;\r\n\r\n    mapping(bytes32=>uint) public commitments;\r\n\r\n    event NameRegistered(string name, bytes32 indexed label, address indexed owner, uint cost);\r\n    event NewPriceOracle(address indexed oracle);\r\n\r\n    constructor(BaseRegistrarImplementation _base, PriceOracle _prices, uint _minCommitmentAge, uint _maxCommitmentAge) {\r\n        require(_maxCommitmentAge > _minCommitmentAge);\r\n\r\n        base = _base;\r\n        prices = _prices;\r\n        minCommitmentAge = _minCommitmentAge;\r\n        maxCommitmentAge = _maxCommitmentAge;\r\n    }\r\n\r\n    function rentPrice(string memory name) view public returns(uint) {\r\n        return prices.price(name);\r\n    }\r\n\r\n    function valid(string memory name) public pure returns(bool) {\r\n        return name.strlen() >= 3;\r\n    }\r\n\r\n    function available(string memory name) public view returns(bool) {\r\n        bytes32 label = keccak256(bytes(name));\r\n        return valid(name) && base.available(uint256(label));\r\n    }\r\n\r\n    function makeCommitment(string memory name, address owner, bytes32 secret) pure public returns(bytes32) {\r\n        return makeCommitmentWithConfig(name, owner, secret, address(0), address(0));\r\n    }\r\n\r\n    function makeCommitmentWithConfig(string memory name, address owner, bytes32 secret, address resolver, address addr) pure public returns(bytes32) {\r\n        bytes32 label = keccak256(bytes(name));\r\n        if (resolver == address(0) && addr == address(0)) {\r\n            return keccak256(abi.encodePacked(label, owner, secret));\r\n        }\r\n        require(resolver != address(0));\r\n        return keccak256(abi.encodePacked(label, owner, resolver, addr, secret));\r\n    }\r\n\r\n    function commit(bytes32 commitment) public {\r\n        require(commitments[commitment] + maxCommitmentAge < block.timestamp);\r\n        commitments[commitment] = block.timestamp;\r\n    }\r\n\r\n    function register(string calldata name, address owner, bytes32 secret) external payable {\r\n      registerWithConfig(name, owner, secret, address(0), address(0));\r\n    }\r\n\r\n    function registerWithConfig(string memory name, address owner, bytes32 secret, address resolver, address addr) public payable {\r\n        bytes32 commitment = makeCommitmentWithConfig(name, owner, secret, resolver, addr);\r\n        uint cost = _consumeCommitment(name, commitment);\r\n\r\n        bytes32 label = keccak256(bytes(name));\r\n        uint256 tokenId = uint256(label);\r\n\r\n        if(resolver != address(0)) {\r\n            // Set this contract as the (temporary) owner, giving it\r\n            // permission to set up the resolver.\r\n            base.register(tokenId, address(this));\r\n\r\n            // The nodehash of this label\r\n            bytes32 nodehash = keccak256(abi.encodePacked(base.baseNode(), label));\r\n\r\n            // Set the resolver\r\n            base.ens().setResolver(nodehash, resolver);\r\n\r\n            // Configure the resolver\r\n            if (addr != address(0)) {\r\n                Resolver(resolver).setAddr(nodehash, addr);\r\n            }\r\n\r\n            // Now transfer full ownership to the expeceted owner\r\n            base.reclaim(tokenId, owner);\r\n            base.transferFrom(address(this), owner, tokenId);\r\n        } else {\r\n            require(addr == address(0));\r\n            base.register(tokenId, owner);\r\n        }\r\n\r\n        emit NameRegistered(name, label, owner, cost);\r\n\r\n        // Refund any extra payment\r\n        if(msg.value > cost) {\r\n            payable(msg.sender).transfer(msg.value - cost);\r\n        }\r\n    }\r\n\r\n    function setPriceOracle(PriceOracle _prices) public onlyOwner {\r\n        prices = _prices;\r\n        emit NewPriceOracle(address(prices));\r\n    }\r\n\r\n    function setCommitmentAges(uint _minCommitmentAge, uint _maxCommitmentAge) public onlyOwner {\r\n        minCommitmentAge = _minCommitmentAge;\r\n        maxCommitmentAge = _maxCommitmentAge;\r\n    }\r\n\r\n    function withdraw() public onlyOwner {\r\n        payable(msg.sender).transfer(address(this).balance);        \r\n    }\r\n\r\n    function supportsInterface(bytes4 interfaceID) external pure returns (bool) {\r\n        return interfaceID == INTERFACE_META_ID ||\r\n               interfaceID == COMMITMENT_CONTROLLER_ID ||\r\n               interfaceID == COMMITMENT_WITH_CONFIG_CONTROLLER_ID;\r\n    }\r\n\r\n    function _consumeCommitment(string memory name, bytes32 commitment) internal returns (uint256) {\r\n        // Require a valid commitment\r\n        require(commitments[commitment] + minCommitmentAge <= block.timestamp);\r\n\r\n        // If the commitment is too old, or the name is registered, stop\r\n        require(commitments[commitment] + maxCommitmentAge > block.timestamp);\r\n        require(available(name));\r\n\r\n        delete(commitments[commitment]);\r\n\r\n        uint cost = rentPrice(name);\r\n        require(msg.value >= cost);\r\n\r\n        return cost;\r\n    }\r\n}",
  "sourcePath": "D:\\Posao-Stefan\\Stefan-razno\\Blockchain\\Thetaboard\\core-contracts\\contracts\\ETHRegistrarController.sol",
  "compiler": {
    "name": "solc",
    "version": "0.8.4+commit.c7e474f2.Emscripten.clang"
  },
  "schemaVersion": "3.4.3",
  "updatedAt": "2021-10-09T18:02:43.060Z",
  "networkType": "ethereum",
  "devdoc": {
    "details": "A registrar controller for registering names at fixed cost.",
    "kind": "dev",
    "methods": {
      "owner()": {
        "details": "Returns the address of the current owner."
      },
      "renounceOwnership()": {
        "details": "Leaves the contract without owner. It will not be possible to call `onlyOwner` functions anymore. Can only be called by the current owner. NOTE: Renouncing ownership will leave the contract without an owner, thereby removing any functionality that is only available to the owner."
      },
      "transferOwnership(address)": {
        "details": "Transfers ownership of the contract to a new account (`newOwner`). Can only be called by the current owner."
      }
    },
    "version": 1
  },
  "userdoc": {
    "kind": "user",
    "methods": {},
    "version": 1
  }
}