{
  "contractName": "ETHRegistrarController",
  "abi": [
    {
      "inputs": [
        {
          "internalType": "contract BaseRegistrarImplementation",
          "name": "_base",
          "type": "address"
        },
        {
          "internalType": "contract PriceOracle",
          "name": "_prices",
          "type": "address"
        },
        {
          "internalType": "uint256",
          "name": "_minCommitmentAge",
          "type": "uint256"
        },
        {
          "internalType": "uint256",
          "name": "_maxCommitmentAge",
          "type": "uint256"
        }
      ],
      "stateMutability": "nonpayable",
      "type": "constructor"
    },
    {
      "anonymous": false,
      "inputs": [
        {
          "indexed": false,
          "internalType": "string",
          "name": "name",
          "type": "string"
        },
        {
          "indexed": true,
          "internalType": "bytes32",
          "name": "label",
          "type": "bytes32"
        },
        {
          "indexed": true,
          "internalType": "address",
          "name": "owner",
          "type": "address"
        },
        {
          "indexed": false,
          "internalType": "uint256",
          "name": "cost",
          "type": "uint256"
        },
        {
          "indexed": false,
          "internalType": "uint256",
          "name": "expires",
          "type": "uint256"
        }
      ],
      "name": "NameRegistered",
      "type": "event"
    },
    {
      "anonymous": false,
      "inputs": [
        {
          "indexed": false,
          "internalType": "string",
          "name": "name",
          "type": "string"
        },
        {
          "indexed": true,
          "internalType": "bytes32",
          "name": "label",
          "type": "bytes32"
        },
        {
          "indexed": false,
          "internalType": "uint256",
          "name": "cost",
          "type": "uint256"
        },
        {
          "indexed": false,
          "internalType": "uint256",
          "name": "expires",
          "type": "uint256"
        }
      ],
      "name": "NameRenewed",
      "type": "event"
    },
    {
      "anonymous": false,
      "inputs": [
        {
          "indexed": true,
          "internalType": "address",
          "name": "oracle",
          "type": "address"
        }
      ],
      "name": "NewPriceOracle",
      "type": "event"
    },
    {
      "anonymous": false,
      "inputs": [
        {
          "indexed": true,
          "internalType": "address",
          "name": "previousOwner",
          "type": "address"
        },
        {
          "indexed": true,
          "internalType": "address",
          "name": "newOwner",
          "type": "address"
        }
      ],
      "name": "OwnershipTransferred",
      "type": "event"
    },
    {
      "inputs": [
        {
          "internalType": "bytes32",
          "name": "",
          "type": "bytes32"
        }
      ],
      "name": "commitments",
      "outputs": [
        {
          "internalType": "uint256",
          "name": "",
          "type": "uint256"
        }
      ],
      "stateMutability": "view",
      "type": "function"
    },
    {
      "inputs": [],
      "name": "maxCommitmentAge",
      "outputs": [
        {
          "internalType": "uint256",
          "name": "",
          "type": "uint256"
        }
      ],
      "stateMutability": "view",
      "type": "function"
    },
    {
      "inputs": [],
      "name": "minCommitmentAge",
      "outputs": [
        {
          "internalType": "uint256",
          "name": "",
          "type": "uint256"
        }
      ],
      "stateMutability": "view",
      "type": "function"
    },
    {
      "inputs": [],
      "name": "owner",
      "outputs": [
        {
          "internalType": "address",
          "name": "",
          "type": "address"
        }
      ],
      "stateMutability": "view",
      "type": "function"
    },
    {
      "inputs": [],
      "name": "renounceOwnership",
      "outputs": [],
      "stateMutability": "nonpayable",
      "type": "function"
    },
    {
      "inputs": [
        {
          "internalType": "address",
          "name": "newOwner",
          "type": "address"
        }
      ],
      "name": "transferOwnership",
      "outputs": [],
      "stateMutability": "nonpayable",
      "type": "function"
    },
    {
      "inputs": [
        {
          "internalType": "string",
          "name": "name",
          "type": "string"
        },
        {
          "internalType": "uint256",
          "name": "duration",
          "type": "uint256"
        }
      ],
      "name": "rentPrice",
      "outputs": [
        {
          "internalType": "uint256",
          "name": "",
          "type": "uint256"
        }
      ],
      "stateMutability": "view",
      "type": "function"
    },
    {
      "inputs": [
        {
          "internalType": "string",
          "name": "name",
          "type": "string"
        }
      ],
      "name": "valid",
      "outputs": [
        {
          "internalType": "bool",
          "name": "",
          "type": "bool"
        }
      ],
      "stateMutability": "pure",
      "type": "function"
    },
    {
      "inputs": [
        {
          "internalType": "string",
          "name": "name",
          "type": "string"
        }
      ],
      "name": "available",
      "outputs": [
        {
          "internalType": "bool",
          "name": "",
          "type": "bool"
        }
      ],
      "stateMutability": "view",
      "type": "function"
    },
    {
      "inputs": [
        {
          "internalType": "string",
          "name": "name",
          "type": "string"
        },
        {
          "internalType": "address",
          "name": "owner",
          "type": "address"
        },
        {
          "internalType": "bytes32",
          "name": "secret",
          "type": "bytes32"
        }
      ],
      "name": "makeCommitment",
      "outputs": [
        {
          "internalType": "bytes32",
          "name": "",
          "type": "bytes32"
        }
      ],
      "stateMutability": "pure",
      "type": "function"
    },
    {
      "inputs": [
        {
          "internalType": "string",
          "name": "name",
          "type": "string"
        },
        {
          "internalType": "address",
          "name": "owner",
          "type": "address"
        },
        {
          "internalType": "bytes32",
          "name": "secret",
          "type": "bytes32"
        },
        {
          "internalType": "address",
          "name": "resolver",
          "type": "address"
        },
        {
          "internalType": "address",
          "name": "addr",
          "type": "address"
        }
      ],
      "name": "makeCommitmentWithConfig",
      "outputs": [
        {
          "internalType": "bytes32",
          "name": "",
          "type": "bytes32"
        }
      ],
      "stateMutability": "pure",
      "type": "function"
    },
    {
      "inputs": [
        {
          "internalType": "bytes32",
          "name": "commitment",
          "type": "bytes32"
        }
      ],
      "name": "commit",
      "outputs": [],
      "stateMutability": "nonpayable",
      "type": "function"
    },
    {
      "inputs": [
        {
          "internalType": "string",
          "name": "name",
          "type": "string"
        },
        {
          "internalType": "address",
          "name": "owner",
          "type": "address"
        },
        {
          "internalType": "uint256",
          "name": "duration",
          "type": "uint256"
        },
        {
          "internalType": "bytes32",
          "name": "secret",
          "type": "bytes32"
        }
      ],
      "name": "register",
      "outputs": [],
      "stateMutability": "payable",
      "type": "function"
    },
    {
      "inputs": [
        {
          "internalType": "string",
          "name": "name",
          "type": "string"
        },
        {
          "internalType": "address",
          "name": "owner",
          "type": "address"
        },
        {
          "internalType": "uint256",
          "name": "duration",
          "type": "uint256"
        },
        {
          "internalType": "bytes32",
          "name": "secret",
          "type": "bytes32"
        },
        {
          "internalType": "address",
          "name": "resolver",
          "type": "address"
        },
        {
          "internalType": "address",
          "name": "addr",
          "type": "address"
        }
      ],
      "name": "registerWithConfig",
      "outputs": [],
      "stateMutability": "payable",
      "type": "function"
    },
    {
      "inputs": [
        {
          "internalType": "string",
          "name": "name",
          "type": "string"
        },
        {
          "internalType": "uint256",
          "name": "duration",
          "type": "uint256"
        }
      ],
      "name": "renew",
      "outputs": [],
      "stateMutability": "payable",
      "type": "function"
    },
    {
      "inputs": [
        {
          "internalType": "contract PriceOracle",
          "name": "_prices",
          "type": "address"
        }
      ],
      "name": "setPriceOracle",
      "outputs": [],
      "stateMutability": "nonpayable",
      "type": "function"
    },
    {
      "inputs": [
        {
          "internalType": "uint256",
          "name": "_minCommitmentAge",
          "type": "uint256"
        },
        {
          "internalType": "uint256",
          "name": "_maxCommitmentAge",
          "type": "uint256"
        }
      ],
      "name": "setCommitmentAges",
      "outputs": [],
      "stateMutability": "nonpayable",
      "type": "function"
    },
    {
      "inputs": [],
      "name": "withdraw",
      "outputs": [],
      "stateMutability": "nonpayable",
      "type": "function"
    },
    {
      "inputs": [
        {
          "internalType": "bytes4",
          "name": "interfaceID",
          "type": "bytes4"
        }
      ],
      "name": "supportsInterface",
      "outputs": [
        {
          "internalType": "bool",
          "name": "",
          "type": "bool"
        }
      ],
      "stateMutability": "pure",
      "type": "function"
    }
  ],
  "bytecode": "0x60806040523480156200001157600080fd5b5060405162001834380380620018348339810160408190526200003491620000db565b6200003f336200008b565b8181116200004c57600080fd5b600180546001600160a01b039586166001600160a01b031991821617909155600280549490951693169290921790925560039190915560045562000140565b600080546001600160a01b038381166001600160a01b0319831681178455604051919092169283917f8be0079c531659141344cd1fd0a4f28419497f9722a3daafe3b4186f6b6457e09190a35050565b60008060008060808587031215620000f1578384fd5b8451620000fe8162000127565b6020860151909450620001118162000127565b6040860151606090960151949790965092505050565b6001600160a01b03811681146200013d57600080fd5b50565b6116e480620001506000396000f3fe6080604052600436106101145760003560e01c80638d839ffe116100a0578063ce1e09c011610064578063ce1e09c0146102d9578063f14fcbc8146102ef578063f2fde38b1461030f578063f49826be1461032f578063f7a169631461034f57600080fd5b80638d839ffe146102485780638da5cb5b1461025e5780639791c09714610286578063acf1a841146102a6578063aeb8ce9b146102b957600080fd5b8063715018a6116100e7578063715018a6146101b35780637e324479146101c8578063839df945146101e857806383e7f6ff1461021557806385f6d1551461023557600080fd5b806301ffc9a7146101195780633ccfd60b1461014e5780633d86c52f14610165578063530e784f14610193575b600080fd5b34801561012557600080fd5b50610139610134366004611255565b610362565b60405190151581526020015b60405180910390f35b34801561015a57600080fd5b506101636103b3565b005b34801561017157600080fd5b506101856101803660046113d3565b610416565b604051908152602001610145565b34801561019f57600080fd5b506101636101ae3660046111e9565b61050e565b3480156101bf57600080fd5b50610163610582565b3480156101d457600080fd5b506101636101e336600461151c565b6105b8565b3480156101f457600080fd5b50610185610203366004611225565b60056020526000908152604090205481565b34801561022157600080fd5b506101856102303660046114d9565b6105ed565b610163610243366004611299565b6106fa565b34801561025457600080fd5b5061018560035481565b34801561026a57600080fd5b506000546040516001600160a01b039091168152602001610145565b34801561029257600080fd5b506101396102a1366004611348565b610745565b6101636102b43660046112fe565b61075a565b3480156102c557600080fd5b506101396102d4366004611348565b6108d7565b3480156102e557600080fd5b5061018560045481565b3480156102fb57600080fd5b5061016361030a366004611225565b610974565b34801561031b57600080fd5b5061016361032a3660046111e9565b6109ae565b34801561033b57600080fd5b5061018561034a36600461137b565b610a46565b61016361035d366004611452565b610a56565b60006001600160e01b031982166301ffc9a760e01b148061039257506001600160e01b0319821662c7d60360e11b145b806103ad57506001600160e01b03198216633289eb1360e21b145b92915050565b6000546001600160a01b031633146103e65760405162461bcd60e51b81526004016103dd906115ee565b60405180910390fd5b6040513390303180156108fc02916000818181858888f19350505050158015610413573d6000803e3d6000fd5b50565b845160208601206000906001600160a01b03841615801561043e57506001600160a01b038316155b156104915760408051602081018390526bffffffffffffffffffffffff19606089901b16918101919091526054810186905260740160405160208183030381529060405280519060200120915050610505565b6001600160a01b0384166104a457600080fd5b60408051602081018390526bffffffffffffffffffffffff19606089811b82169383019390935286831b811660548301529185901b9091166068820152607c8101869052609c01604051602081830303815290604052805190602001209150505b95945050505050565b6000546001600160a01b031633146105385760405162461bcd60e51b81526004016103dd906115ee565b600280546001600160a01b0319166001600160a01b0383169081179091556040517ff261845a790fe29bbd6631e2ca4a5bdc83e6eed7c3271d9590d97287e00e912390600090a250565b6000546001600160a01b031633146105ac5760405162461bcd60e51b81526004016103dd906115ee565b6105b66000610f2c565b565b6000546001600160a01b031633146105e25760405162461bcd60e51b81526004016103dd906115ee565b600391909155600455565b81516020830120600254600154604051636b727d4360e11b815260048101849052600093926001600160a01b03908116926350e9a7159288929091169063d6e4fa869060240160206040518083038186803b15801561064b57600080fd5b505afa15801561065f573d6000803e3d6000fd5b505050506040513d601f19601f82011682018060405250810190610683919061123d565b866040518463ffffffff1660e01b81526004016106a29392919061158c565b60206040518083038186803b1580156106ba57600080fd5b505afa1580156106ce573d6000803e3d6000fd5b505050506040513d601f19601f820116820180604052508101906106f2919061123d565b949350505050565b61073e85858080601f016020809104026020016040519081016040528093929190818152602001838380828437600092018290525088935087925086915080610a56565b5050505050565b6000600361075283610f7c565b101592915050565b600061079d84848080601f0160208091040260200160405190810160405280939291908181526020018383808284376000920191909152508692506105ed915050565b9050803410156107ac57600080fd5b600084846040516107be92919061153d565b60405190819003812060015463c475abff60e01b835260048301829052602483018690529092506000916001600160a01b039091169063c475abff90604401602060405180830381600087803b15801561081757600080fd5b505af115801561082b573d6000803e3d6000fd5b505050506040513d601f19601f8201168201806040525081019061084f919061123d565b90508234111561089157336108fc610867853461163b565b6040518115909202916000818181858888f1935050505015801561088f573d6000803e3d6000fd5b505b817f3da24c024582931cfaf8267d8ed24d13a82a8068d5bd337d30ec45cea4e506ae878786856040516108c7949392919061154d565b60405180910390a2505050505050565b805160208201206000906108ea83610745565b801561096d57506001546040516312dc929d60e31b8152600481018390526001600160a01b03909116906396e494e89060240160206040518083038186803b15801561093557600080fd5b505afa158015610949573d6000803e3d6000fd5b505050506040513d601f19601f8201168201806040525081019061096d9190611205565b9392505050565b600454600082815260056020526040902054429161099191611623565b1061099b57600080fd5b6000908152600560205260409020429055565b6000546001600160a01b031633146109d85760405162461bcd60e51b81526004016103dd906115ee565b6001600160a01b038116610a3d5760405162461bcd60e51b815260206004820152602660248201527f4f776e61626c653a206e6577206f776e657220697320746865207a65726f206160448201526564647265737360d01b60648201526084016103dd565b61041381610f2c565b60006106f2848484600080610416565b6000610a658787868686610416565b90506000610a7488878461108d565b885160208a01209091508060006001600160a01b03871615610df557600154604051633f2891eb60e21b815260048101849052306024820152604481018b90526001600160a01b039091169063fca247ac90606401602060405180830381600087803b158015610ae357600080fd5b505af1158015610af7573d6000803e3d6000fd5b505050506040513d601f19601f82011682018060405250810190610b1b919061123d565b90506000600160009054906101000a90046001600160a01b03166001600160a01b031663ddf7fcb06040518163ffffffff1660e01b815260040160206040518083038186803b158015610b6d57600080fd5b505afa158015610b81573d6000803e3d6000fd5b505050506040513d601f19601f82011682018060405250810190610ba5919061123d565b604080516020810192909252810185905260600160408051601f198184030181528282528051602091820120600154633f15457f60e01b855292519094506001600160a01b0390921692633f15457f9260048083019392829003018186803b158015610c1057600080fd5b505afa158015610c24573d6000803e3d6000fd5b505050506040513d601f19601f82011682018060405250810190610c48919061127d565b604051630c4b7b8560e11b8152600481018390526001600160a01b038a811660248301529190911690631896f70a90604401600060405180830381600087803b158015610c9457600080fd5b505af1158015610ca8573d6000803e3d6000fd5b505050506001600160a01b03871615610d1d5760405162d5fa2b60e81b8152600481018290526001600160a01b03888116602483015289169063d5fa2b0090604401600060405180830381600087803b158015610d0457600080fd5b505af1158015610d18573d6000803e3d6000fd5b505050505b600154604051630a3b53db60e21b8152600481018590526001600160a01b038d81166024830152909116906328ed4f6c90604401600060405180830381600087803b158015610d6b57600080fd5b505af1158015610d7f573d6000803e3d6000fd5b50506001546040516323b872dd60e01b81523060048201526001600160a01b038f811660248301526044820188905290911692506323b872dd9150606401600060405180830381600087803b158015610dd757600080fd5b505af1158015610deb573d6000803e3d6000fd5b5050505050610e99565b6001600160a01b03861615610e0957600080fd5b600154604051633f2891eb60e21b8152600481018490526001600160a01b038c81166024830152604482018c90529091169063fca247ac90606401602060405180830381600087803b158015610e5e57600080fd5b505af1158015610e72573d6000803e3d6000fd5b505050506040513d601f19601f82011682018060405250810190610e96919061123d565b90505b896001600160a01b0316837fca6abbe9d7f11422cb6ca7629fbf6fe9efb1c621f71ce8f02b9f2a230097404f8d8785604051610ed79392919061158c565b60405180910390a383341115610f1f57336108fc610ef5863461163b565b6040518115909202916000818181858888f19350505050158015610f1d573d6000803e3d6000fd5b505b5050505050505050505050565b600080546001600160a01b038381166001600160a01b0319831681178455604051919092169283917f8be0079c531659141344cd1fd0a4f28419497f9722a3daafe3b4186f6b6457e09190a35050565b8051600090819081905b80821015611084576000858381518110610fb057634e487b7160e01b600052603260045260246000fd5b01602001516001600160f81b0319169050600160ff1b811015610fdf57610fd8600184611623565b9250611071565b600760fd1b6001600160f81b03198216101561100057610fd8600284611623565b600f60fc1b6001600160f81b03198216101561102157610fd8600384611623565b601f60fb1b6001600160f81b03198216101561104257610fd8600484611623565b603f60fa1b6001600160f81b03198216101561106357610fd8600584611623565b61106e600684611623565b92505b508261107c81611652565b935050610f86565b50909392505050565b600354600082815260056020526040812054909142916110ad9190611623565b11156110b857600080fd5b60045460008381526005602052604090205442916110d591611623565b116110df57600080fd5b6110e8846108d7565b6110f157600080fd5b600082815260056020526040812081905561110c85856105ed565b9050803410156106f257600080fd5b60008083601f84011261112c578182fd5b50813567ffffffffffffffff811115611143578182fd5b60208301915083602082850101111561115b57600080fd5b9250929050565b600082601f830112611172578081fd5b813567ffffffffffffffff8082111561118d5761118d611683565b604051601f8301601f19908116603f011681019082821181831017156111b5576111b5611683565b816040528381528660208588010111156111cd578485fd5b8360208701602083013792830160200193909352509392505050565b6000602082840312156111fa578081fd5b813561096d81611699565b600060208284031215611216578081fd5b8151801515811461096d578182fd5b600060208284031215611236578081fd5b5035919050565b60006020828403121561124e578081fd5b5051919050565b600060208284031215611266578081fd5b81356001600160e01b03198116811461096d578182fd5b60006020828403121561128e578081fd5b815161096d81611699565b6000806000806000608086880312156112b0578081fd5b853567ffffffffffffffff8111156112c6578182fd5b6112d28882890161111b565b90965094505060208601356112e681611699565b94979396509394604081013594506060013592915050565b600080600060408486031215611312578283fd5b833567ffffffffffffffff811115611328578384fd5b6113348682870161111b565b909790965060209590950135949350505050565b600060208284031215611359578081fd5b813567ffffffffffffffff81111561136f578182fd5b6106f284828501611162565b60008060006060848603121561138f578283fd5b833567ffffffffffffffff8111156113a5578384fd5b6113b186828701611162565b93505060208401356113c281611699565b929592945050506040919091013590565b600080600080600060a086880312156113ea578081fd5b853567ffffffffffffffff811115611400578182fd5b61140c88828901611162565b955050602086013561141d81611699565b935060408601359250606086013561143481611699565b9150608086013561144481611699565b809150509295509295909350565b60008060008060008060c0878903121561146a578384fd5b863567ffffffffffffffff811115611480578485fd5b61148c89828a01611162565b965050602087013561149d81611699565b9450604087013593506060870135925060808701356114bb81611699565b915060a08701356114cb81611699565b809150509295509295509295565b600080604083850312156114eb578182fd5b823567ffffffffffffffff811115611501578283fd5b61150d85828601611162565b95602094909401359450505050565b6000806040838503121561152e578182fd5b50508035926020909101359150565b8183823760009101908152919050565b6060815283606082015283856080830137600080608086840101526080601f19601f870116830101905083602083015282604083015295945050505050565b6060815260008451806060840152815b818110156115b9576020818801810151608086840101520161159c565b818111156115ca5782608083860101525b5060208301949094525060408101919091526080601f909201601f19160101919050565b6020808252818101527f4f776e61626c653a2063616c6c6572206973206e6f7420746865206f776e6572604082015260600190565b600082198211156116365761163661166d565b500190565b60008282101561164d5761164d61166d565b500390565b60006000198214156116665761166661166d565b5060010190565b634e487b7160e01b600052601160045260246000fd5b634e487b7160e01b600052604160045260246000fd5b6001600160a01b038116811461041357600080fdfea2646970667358221220aebbcb7e1a036cf847c060e75c5bcbfe2801a9a3852e342381ddee2c48f9ded264736f6c63430008040033",
  "immutableReferences": {},
  "source": "// SPDX-License-Identifier: UNLICENSED\r\npragma solidity ^0.8.4;\r\n\r\nimport \"@ensdomains/ens-contracts/contracts/ethregistrar/StringUtils.sol\";\r\nimport \"@openzeppelin/contracts/access/Ownable.sol\";\r\nimport \"@ensdomains/ens-contracts/contracts/resolvers/Resolver.sol\";\r\n\r\nimport \"./BaseRegistrarImplementation.sol\";\r\nimport \"./TfuelPriceOracle.sol\";\r\n\r\n\r\n/**\r\n * @dev A registrar controller for registering names at fixed cost.\r\n */\r\ncontract ETHRegistrarController is Ownable {\r\n    using StringUtils for *;\r\n\r\n    bytes4 constant private INTERFACE_META_ID = bytes4(keccak256(\"supportsInterface(bytes4)\"));\r\n    bytes4 constant private COMMITMENT_CONTROLLER_ID = bytes4(\r\n        keccak256(\"rentPrice(string,uint256)\") ^\r\n        keccak256(\"available(string)\") ^\r\n        keccak256(\"makeCommitment(string,address,bytes32)\") ^\r\n        keccak256(\"commit(bytes32)\") ^\r\n        keccak256(\"register(string,address,uint256,bytes32)\") ^\r\n        keccak256(\"renew(string,uint256)\")\r\n    );\r\n\r\n    bytes4 constant private COMMITMENT_WITH_CONFIG_CONTROLLER_ID = bytes4(\r\n        keccak256(\"registerWithConfig(string,address,uint256,bytes32,address,address)\") ^\r\n        keccak256(\"makeCommitmentWithConfig(string,address,bytes32,address,address)\")\r\n    );\r\n\r\n    BaseRegistrarImplementation base;\r\n    PriceOracle prices;\r\n    uint public minCommitmentAge;\r\n    uint public maxCommitmentAge;\r\n\r\n    mapping(bytes32=>uint) public commitments;\r\n\r\n    event NameRegistered(string name, bytes32 indexed label, address indexed owner, uint cost, uint expires);\r\n    event NameRenewed(string name, bytes32 indexed label, uint cost, uint expires);\r\n    event NewPriceOracle(address indexed oracle);\r\n\r\n    constructor(BaseRegistrarImplementation _base, PriceOracle _prices, uint _minCommitmentAge, uint _maxCommitmentAge) {\r\n        require(_maxCommitmentAge > _minCommitmentAge);\r\n\r\n        base = _base;\r\n        prices = _prices;\r\n        minCommitmentAge = _minCommitmentAge;\r\n        maxCommitmentAge = _maxCommitmentAge;\r\n    }\r\n\r\n    function rentPrice(string memory name, uint duration) view public returns(uint) {\r\n        bytes32 hash = keccak256(bytes(name));\r\n        return prices.price(name, base.nameExpires(uint256(hash)), duration);\r\n    }\r\n\r\n    function valid(string memory name) public pure returns(bool) {\r\n        return name.strlen() >= 3;\r\n    }\r\n\r\n    function available(string memory name) public view returns(bool) {\r\n        bytes32 label = keccak256(bytes(name));\r\n        return valid(name) && base.available(uint256(label));\r\n    }\r\n\r\n    function makeCommitment(string memory name, address owner, bytes32 secret) pure public returns(bytes32) {\r\n        return makeCommitmentWithConfig(name, owner, secret, address(0), address(0));\r\n    }\r\n\r\n    function makeCommitmentWithConfig(string memory name, address owner, bytes32 secret, address resolver, address addr) pure public returns(bytes32) {\r\n        bytes32 label = keccak256(bytes(name));\r\n        if (resolver == address(0) && addr == address(0)) {\r\n            return keccak256(abi.encodePacked(label, owner, secret));\r\n        }\r\n        require(resolver != address(0));\r\n        return keccak256(abi.encodePacked(label, owner, resolver, addr, secret));\r\n    }\r\n\r\n    function commit(bytes32 commitment) public {\r\n        require(commitments[commitment] + maxCommitmentAge < block.timestamp);\r\n        commitments[commitment] = block.timestamp;\r\n    }\r\n\r\n    function register(string calldata name, address owner, uint duration, bytes32 secret) external payable {\r\n      registerWithConfig(name, owner, duration, secret, address(0), address(0));\r\n    }\r\n\r\n    function registerWithConfig(string memory name, address owner, uint duration, bytes32 secret, address resolver, address addr) public payable {\r\n        bytes32 commitment = makeCommitmentWithConfig(name, owner, secret, resolver, addr);\r\n        uint cost = _consumeCommitment(name, duration, commitment);\r\n\r\n        bytes32 label = keccak256(bytes(name));\r\n        uint256 tokenId = uint256(label);\r\n\r\n        uint expires;\r\n        if(resolver != address(0)) {\r\n            // Set this contract as the (temporary) owner, giving it\r\n            // permission to set up the resolver.\r\n            expires = base.register(tokenId, address(this), duration);\r\n\r\n            // The nodehash of this label\r\n            bytes32 nodehash = keccak256(abi.encodePacked(base.baseNode(), label));\r\n\r\n            // Set the resolver\r\n            base.ens().setResolver(nodehash, resolver);\r\n\r\n            // Configure the resolver\r\n            if (addr != address(0)) {\r\n                Resolver(resolver).setAddr(nodehash, addr);\r\n            }\r\n\r\n            // Now transfer full ownership to the expeceted owner\r\n            base.reclaim(tokenId, owner);\r\n            base.transferFrom(address(this), owner, tokenId);\r\n        } else {\r\n            require(addr == address(0));\r\n            expires = base.register(tokenId, owner, duration);\r\n        }\r\n\r\n        emit NameRegistered(name, label, owner, cost, expires);\r\n\r\n        // Refund any extra payment\r\n        if(msg.value > cost) {\r\n            payable(msg.sender).transfer(msg.value - cost);\r\n        }\r\n    }\r\n\r\n    function renew(string calldata name, uint duration) external payable {\r\n        uint cost = rentPrice(name, duration);\r\n        require(msg.value >= cost);\r\n\r\n        bytes32 label = keccak256(bytes(name));\r\n        uint expires = base.renew(uint256(label), duration);\r\n\r\n        if(msg.value > cost) {\r\n            payable(msg.sender).transfer(msg.value - cost);\r\n        }\r\n\r\n        emit NameRenewed(name, label, cost, expires);\r\n    }\r\n\r\n    function setPriceOracle(PriceOracle _prices) public onlyOwner {\r\n        prices = _prices;\r\n        emit NewPriceOracle(address(prices));\r\n    }\r\n\r\n    function setCommitmentAges(uint _minCommitmentAge, uint _maxCommitmentAge) public onlyOwner {\r\n        minCommitmentAge = _minCommitmentAge;\r\n        maxCommitmentAge = _maxCommitmentAge;\r\n    }\r\n\r\n    function withdraw() public onlyOwner {\r\n        payable(msg.sender).transfer(address(this).balance);        \r\n    }\r\n\r\n    function supportsInterface(bytes4 interfaceID) external pure returns (bool) {\r\n        return interfaceID == INTERFACE_META_ID ||\r\n               interfaceID == COMMITMENT_CONTROLLER_ID ||\r\n               interfaceID == COMMITMENT_WITH_CONFIG_CONTROLLER_ID;\r\n    }\r\n\r\n    function _consumeCommitment(string memory name, uint duration, bytes32 commitment) internal returns (uint256) {\r\n        // Require a valid commitment\r\n        require(commitments[commitment] + minCommitmentAge <= block.timestamp);\r\n\r\n        // If the commitment is too old, or the name is registered, stop\r\n        require(commitments[commitment] + maxCommitmentAge > block.timestamp);\r\n        require(available(name));\r\n\r\n        delete(commitments[commitment]);\r\n\r\n        uint cost = rentPrice(name, duration);\r\n        require(msg.value >= cost);\r\n\r\n        return cost;\r\n    }\r\n}",
  "sourcePath": "D:\\Posao-Stefan\\Stefan-razno\\Blockchain\\Thetaboard\\core-contracts\\contracts\\ETHRegistrarController.sol",
  "compiler": {
    "name": "solc",
    "version": "0.8.4+commit.c7e474f2.Emscripten.clang"
  },
  "schemaVersion": "3.4.3",
  "updatedAt": "2021-09-16T14:25:26.923Z",
  "devdoc": {
    "details": "A registrar controller for registering names at fixed cost.",
    "kind": "dev",
    "methods": {
      "owner()": {
        "details": "Returns the address of the current owner."
      },
      "renounceOwnership()": {
        "details": "Leaves the contract without owner. It will not be possible to call `onlyOwner` functions anymore. Can only be called by the current owner. NOTE: Renouncing ownership will leave the contract without an owner, thereby removing any functionality that is only available to the owner."
      },
      "transferOwnership(address)": {
        "details": "Transfers ownership of the contract to a new account (`newOwner`). Can only be called by the current owner."
      }
    },
    "version": 1
  },
  "userdoc": {
    "kind": "user",
    "methods": {},
    "version": 1
  }
}