{
  "contractName": "PublicResolver",
  "abi": [
    {
      "inputs": [
        {
          "internalType": "contract ENS",
          "name": "_ens",
          "type": "address"
        }
      ],
      "stateMutability": "nonpayable",
      "type": "constructor"
    },
    {
      "anonymous": false,
      "inputs": [
        {
          "indexed": true,
          "internalType": "bytes32",
          "name": "node",
          "type": "bytes32"
        },
        {
          "indexed": true,
          "internalType": "uint256",
          "name": "contentType",
          "type": "uint256"
        }
      ],
      "name": "ABIChanged",
      "type": "event"
    },
    {
      "anonymous": false,
      "inputs": [
        {
          "indexed": true,
          "internalType": "bytes32",
          "name": "node",
          "type": "bytes32"
        },
        {
          "indexed": false,
          "internalType": "address",
          "name": "a",
          "type": "address"
        }
      ],
      "name": "AddrChanged",
      "type": "event"
    },
    {
      "anonymous": false,
      "inputs": [
        {
          "indexed": true,
          "internalType": "bytes32",
          "name": "node",
          "type": "bytes32"
        },
        {
          "indexed": false,
          "internalType": "uint256",
          "name": "coinType",
          "type": "uint256"
        },
        {
          "indexed": false,
          "internalType": "bytes",
          "name": "newAddress",
          "type": "bytes"
        }
      ],
      "name": "AddressChanged",
      "type": "event"
    },
    {
      "anonymous": false,
      "inputs": [
        {
          "indexed": true,
          "internalType": "address",
          "name": "owner",
          "type": "address"
        },
        {
          "indexed": true,
          "internalType": "address",
          "name": "operator",
          "type": "address"
        },
        {
          "indexed": false,
          "internalType": "bool",
          "name": "approved",
          "type": "bool"
        }
      ],
      "name": "ApprovalForAll",
      "type": "event"
    },
    {
      "anonymous": false,
      "inputs": [
        {
          "indexed": true,
          "internalType": "bytes32",
          "name": "node",
          "type": "bytes32"
        },
        {
          "indexed": false,
          "internalType": "bytes",
          "name": "hash",
          "type": "bytes"
        }
      ],
      "name": "ContenthashChanged",
      "type": "event"
    },
    {
      "anonymous": false,
      "inputs": [
        {
          "indexed": true,
          "internalType": "bytes32",
          "name": "node",
          "type": "bytes32"
        },
        {
          "indexed": false,
          "internalType": "bytes",
          "name": "name",
          "type": "bytes"
        },
        {
          "indexed": false,
          "internalType": "uint16",
          "name": "resource",
          "type": "uint16"
        },
        {
          "indexed": false,
          "internalType": "bytes",
          "name": "record",
          "type": "bytes"
        }
      ],
      "name": "DNSRecordChanged",
      "type": "event"
    },
    {
      "anonymous": false,
      "inputs": [
        {
          "indexed": true,
          "internalType": "bytes32",
          "name": "node",
          "type": "bytes32"
        },
        {
          "indexed": false,
          "internalType": "bytes",
          "name": "name",
          "type": "bytes"
        },
        {
          "indexed": false,
          "internalType": "uint16",
          "name": "resource",
          "type": "uint16"
        }
      ],
      "name": "DNSRecordDeleted",
      "type": "event"
    },
    {
      "anonymous": false,
      "inputs": [
        {
          "indexed": true,
          "internalType": "bytes32",
          "name": "node",
          "type": "bytes32"
        }
      ],
      "name": "DNSZoneCleared",
      "type": "event"
    },
    {
      "anonymous": false,
      "inputs": [
        {
          "indexed": true,
          "internalType": "bytes32",
          "name": "node",
          "type": "bytes32"
        },
        {
          "indexed": false,
          "internalType": "bytes",
          "name": "lastzonehash",
          "type": "bytes"
        },
        {
          "indexed": false,
          "internalType": "bytes",
          "name": "zonehash",
          "type": "bytes"
        }
      ],
      "name": "DNSZonehashChanged",
      "type": "event"
    },
    {
      "anonymous": false,
      "inputs": [
        {
          "indexed": true,
          "internalType": "bytes32",
          "name": "node",
          "type": "bytes32"
        },
        {
          "indexed": true,
          "internalType": "bytes4",
          "name": "interfaceID",
          "type": "bytes4"
        },
        {
          "indexed": false,
          "internalType": "address",
          "name": "implementer",
          "type": "address"
        }
      ],
      "name": "InterfaceChanged",
      "type": "event"
    },
    {
      "anonymous": false,
      "inputs": [
        {
          "indexed": true,
          "internalType": "bytes32",
          "name": "node",
          "type": "bytes32"
        },
        {
          "indexed": false,
          "internalType": "string",
          "name": "name",
          "type": "string"
        }
      ],
      "name": "NameChanged",
      "type": "event"
    },
    {
      "anonymous": false,
      "inputs": [
        {
          "indexed": true,
          "internalType": "bytes32",
          "name": "node",
          "type": "bytes32"
        },
        {
          "indexed": false,
          "internalType": "bytes32",
          "name": "x",
          "type": "bytes32"
        },
        {
          "indexed": false,
          "internalType": "bytes32",
          "name": "y",
          "type": "bytes32"
        }
      ],
      "name": "PubkeyChanged",
      "type": "event"
    },
    {
      "anonymous": false,
      "inputs": [
        {
          "indexed": true,
          "internalType": "bytes32",
          "name": "node",
          "type": "bytes32"
        },
        {
          "indexed": true,
          "internalType": "string",
          "name": "indexedKey",
          "type": "string"
        },
        {
          "indexed": false,
          "internalType": "string",
          "name": "key",
          "type": "string"
        }
      ],
      "name": "TextChanged",
      "type": "event"
    },
    {
      "inputs": [
        {
          "internalType": "bytes32",
          "name": "node",
          "type": "bytes32"
        },
        {
          "internalType": "uint256",
          "name": "contentTypes",
          "type": "uint256"
        }
      ],
      "name": "ABI",
      "outputs": [
        {
          "internalType": "uint256",
          "name": "",
          "type": "uint256"
        },
        {
          "internalType": "bytes",
          "name": "",
          "type": "bytes"
        }
      ],
      "stateMutability": "view",
      "type": "function",
      "constant": true
    },
    {
      "inputs": [
        {
          "internalType": "bytes32",
          "name": "node",
          "type": "bytes32"
        }
      ],
      "name": "addr",
      "outputs": [
        {
          "internalType": "address payable",
          "name": "",
          "type": "address"
        }
      ],
      "stateMutability": "view",
      "type": "function",
      "constant": true
    },
    {
      "inputs": [
        {
          "internalType": "bytes32",
          "name": "node",
          "type": "bytes32"
        },
        {
          "internalType": "uint256",
          "name": "coinType",
          "type": "uint256"
        }
      ],
      "name": "addr",
      "outputs": [
        {
          "internalType": "bytes",
          "name": "",
          "type": "bytes"
        }
      ],
      "stateMutability": "view",
      "type": "function",
      "constant": true
    },
    {
      "inputs": [
        {
          "internalType": "bytes32",
          "name": "node",
          "type": "bytes32"
        }
      ],
      "name": "clearDNSZone",
      "outputs": [],
      "stateMutability": "nonpayable",
      "type": "function"
    },
    {
      "inputs": [
        {
          "internalType": "bytes32",
          "name": "node",
          "type": "bytes32"
        }
      ],
      "name": "contenthash",
      "outputs": [
        {
          "internalType": "bytes",
          "name": "",
          "type": "bytes"
        }
      ],
      "stateMutability": "view",
      "type": "function",
      "constant": true
    },
    {
      "inputs": [
        {
          "internalType": "bytes32",
          "name": "node",
          "type": "bytes32"
        },
        {
          "internalType": "bytes32",
          "name": "name",
          "type": "bytes32"
        },
        {
          "internalType": "uint16",
          "name": "resource",
          "type": "uint16"
        }
      ],
      "name": "dnsRecord",
      "outputs": [
        {
          "internalType": "bytes",
          "name": "",
          "type": "bytes"
        }
      ],
      "stateMutability": "view",
      "type": "function",
      "constant": true
    },
    {
      "inputs": [
        {
          "internalType": "bytes32",
          "name": "node",
          "type": "bytes32"
        },
        {
          "internalType": "bytes32",
          "name": "name",
          "type": "bytes32"
        }
      ],
      "name": "hasDNSRecords",
      "outputs": [
        {
          "internalType": "bool",
          "name": "",
          "type": "bool"
        }
      ],
      "stateMutability": "view",
      "type": "function",
      "constant": true
    },
    {
      "inputs": [
        {
          "internalType": "bytes32",
          "name": "node",
          "type": "bytes32"
        },
        {
          "internalType": "bytes4",
          "name": "interfaceID",
          "type": "bytes4"
        }
      ],
      "name": "interfaceImplementer",
      "outputs": [
        {
          "internalType": "address",
          "name": "",
          "type": "address"
        }
      ],
      "stateMutability": "view",
      "type": "function",
      "constant": true
    },
    {
      "inputs": [
        {
          "internalType": "bytes32",
          "name": "node",
          "type": "bytes32"
        }
      ],
      "name": "name",
      "outputs": [
        {
          "internalType": "string",
          "name": "",
          "type": "string"
        }
      ],
      "stateMutability": "view",
      "type": "function",
      "constant": true
    },
    {
      "inputs": [
        {
          "internalType": "bytes32",
          "name": "node",
          "type": "bytes32"
        }
      ],
      "name": "pubkey",
      "outputs": [
        {
          "internalType": "bytes32",
          "name": "x",
          "type": "bytes32"
        },
        {
          "internalType": "bytes32",
          "name": "y",
          "type": "bytes32"
        }
      ],
      "stateMutability": "view",
      "type": "function",
      "constant": true
    },
    {
      "inputs": [
        {
          "internalType": "bytes32",
          "name": "node",
          "type": "bytes32"
        },
        {
          "internalType": "uint256",
          "name": "contentType",
          "type": "uint256"
        },
        {
          "internalType": "bytes",
          "name": "data",
          "type": "bytes"
        }
      ],
      "name": "setABI",
      "outputs": [],
      "stateMutability": "nonpayable",
      "type": "function"
    },
    {
      "inputs": [
        {
          "internalType": "bytes32",
          "name": "node",
          "type": "bytes32"
        },
        {
          "internalType": "uint256",
          "name": "coinType",
          "type": "uint256"
        },
        {
          "internalType": "bytes",
          "name": "a",
          "type": "bytes"
        }
      ],
      "name": "setAddr",
      "outputs": [],
      "stateMutability": "nonpayable",
      "type": "function"
    },
    {
      "inputs": [
        {
          "internalType": "bytes32",
          "name": "node",
          "type": "bytes32"
        },
        {
          "internalType": "address",
          "name": "a",
          "type": "address"
        }
      ],
      "name": "setAddr",
      "outputs": [],
      "stateMutability": "nonpayable",
      "type": "function"
    },
    {
      "inputs": [
        {
          "internalType": "bytes32",
          "name": "node",
          "type": "bytes32"
        },
        {
          "internalType": "bytes",
          "name": "hash",
          "type": "bytes"
        }
      ],
      "name": "setContenthash",
      "outputs": [],
      "stateMutability": "nonpayable",
      "type": "function"
    },
    {
      "inputs": [
        {
          "internalType": "bytes32",
          "name": "node",
          "type": "bytes32"
        },
        {
          "internalType": "bytes",
          "name": "data",
          "type": "bytes"
        }
      ],
      "name": "setDNSRecords",
      "outputs": [],
      "stateMutability": "nonpayable",
      "type": "function"
    },
    {
      "inputs": [
        {
          "internalType": "bytes32",
          "name": "node",
          "type": "bytes32"
        },
        {
          "internalType": "bytes4",
          "name": "interfaceID",
          "type": "bytes4"
        },
        {
          "internalType": "address",
          "name": "implementer",
          "type": "address"
        }
      ],
      "name": "setInterface",
      "outputs": [],
      "stateMutability": "nonpayable",
      "type": "function"
    },
    {
      "inputs": [
        {
          "internalType": "bytes32",
          "name": "node",
          "type": "bytes32"
        },
        {
          "internalType": "string",
          "name": "name",
          "type": "string"
        }
      ],
      "name": "setName",
      "outputs": [],
      "stateMutability": "nonpayable",
      "type": "function"
    },
    {
      "inputs": [
        {
          "internalType": "bytes32",
          "name": "node",
          "type": "bytes32"
        },
        {
          "internalType": "bytes32",
          "name": "x",
          "type": "bytes32"
        },
        {
          "internalType": "bytes32",
          "name": "y",
          "type": "bytes32"
        }
      ],
      "name": "setPubkey",
      "outputs": [],
      "stateMutability": "nonpayable",
      "type": "function"
    },
    {
      "inputs": [
        {
          "internalType": "bytes32",
          "name": "node",
          "type": "bytes32"
        },
        {
          "internalType": "string",
          "name": "key",
          "type": "string"
        },
        {
          "internalType": "string",
          "name": "value",
          "type": "string"
        }
      ],
      "name": "setText",
      "outputs": [],
      "stateMutability": "nonpayable",
      "type": "function"
    },
    {
      "inputs": [
        {
          "internalType": "bytes32",
          "name": "node",
          "type": "bytes32"
        },
        {
          "internalType": "bytes",
          "name": "hash",
          "type": "bytes"
        }
      ],
      "name": "setZonehash",
      "outputs": [],
      "stateMutability": "nonpayable",
      "type": "function"
    },
    {
      "inputs": [
        {
          "internalType": "bytes32",
          "name": "node",
          "type": "bytes32"
        },
        {
          "internalType": "string",
          "name": "key",
          "type": "string"
        }
      ],
      "name": "text",
      "outputs": [
        {
          "internalType": "string",
          "name": "",
          "type": "string"
        }
      ],
      "stateMutability": "view",
      "type": "function",
      "constant": true
    },
    {
      "inputs": [
        {
          "internalType": "bytes32",
          "name": "node",
          "type": "bytes32"
        }
      ],
      "name": "zonehash",
      "outputs": [
        {
          "internalType": "bytes",
          "name": "",
          "type": "bytes"
        }
      ],
      "stateMutability": "view",
      "type": "function",
      "constant": true
    },
    {
      "inputs": [
        {
          "internalType": "address",
          "name": "operator",
          "type": "address"
        },
        {
          "internalType": "bool",
          "name": "approved",
          "type": "bool"
        }
      ],
      "name": "setApprovalForAll",
      "outputs": [],
      "stateMutability": "nonpayable",
      "type": "function"
    },
    {
      "inputs": [
        {
          "internalType": "address",
          "name": "account",
          "type": "address"
        },
        {
          "internalType": "address",
          "name": "operator",
          "type": "address"
        }
      ],
      "name": "isApprovedForAll",
      "outputs": [
        {
          "internalType": "bool",
          "name": "",
          "type": "bool"
        }
      ],
      "stateMutability": "view",
      "type": "function",
      "constant": true
    },
    {
      "inputs": [
        {
          "internalType": "bytes[]",
          "name": "data",
          "type": "bytes[]"
        }
      ],
      "name": "multicall",
      "outputs": [
        {
          "internalType": "bytes[]",
          "name": "results",
          "type": "bytes[]"
        }
      ],
      "stateMutability": "nonpayable",
      "type": "function"
    },
    {
      "inputs": [
        {
          "internalType": "bytes4",
          "name": "interfaceID",
          "type": "bytes4"
        }
      ],
      "name": "supportsInterface",
      "outputs": [
        {
          "internalType": "bool",
          "name": "",
          "type": "bool"
        }
      ],
      "stateMutability": "pure",
      "type": "function",
      "constant": true
    }
  ],
  "bytecode": "0x60806040523480156200001157600080fd5b50604051620026013803806200260183398101604081905262000034916200005a565b600b80546001600160a01b0319166001600160a01b03929092169190911790556200008a565b6000602082840312156200006c578081fd5b81516001600160a01b038116811462000083578182fd5b9392505050565b612567806200009a6000396000f3fe608060405234801561001057600080fd5b506004361061018e5760003560e01c806377372213116100de578063bc1c58d111610097578063d5fa2b0011610071578063d5fa2b00146103e3578063e59d895d146103f6578063e985e9c514610409578063f1cb7e061461044557600080fd5b8063bc1c58d114610380578063c869023314610393578063ce3decdc146103d057600080fd5b806377372213146103015780638b95dd7114610314578063a22cb46514610327578063a8fa56821461033a578063ac9650d81461034d578063ad5780af1461036d57600080fd5b8063304e6ade1161014b57806359d1d43c1161012557806359d1d43c146102a85780635c98042b146102c8578063623195b0146102db578063691f3431146102ee57600080fd5b8063304e6ade146102425780633b3b57de146102555780634cbf6ba41461026857600080fd5b806301ffc9a7146101935780630af179d7146101bb57806310f13a8c146101d0578063124a319c146101e35780632203ab561461020e57806329cd62ea1461022f575b600080fd5b6101a66101a13660046121f5565b610458565b60405190151581526020015b60405180910390f35b6101ce6101c9366004612024565b610469565b005b6101ce6101de36600461206e565b610654565b6101f66101f1366004611fc5565b610701565b6040516001600160a01b0390911681526020016101b2565b61022161021c366004611f3b565b610955565b6040516101b292919061239d565b6101ce61023d366004611f5c565b610a70565b6101ce610250366004612024565b610af0565b6101f6610263366004611eff565b610b4f565b6101a6610276366004611f3b565b600091825260066020908152604080842060048352818520548552825280842092845291905290205461ffff16151590565b6102bb6102b6366004612024565b610b82565b6040516101b29190612305565b6102bb6102d6366004611eff565b610c47565b6101ce6102e93660046120e5565b610ce9565b6102bb6102fc366004611eff565b610d6a565b6101ce61030f366004612024565b610d87565b6101ce610322366004612136565b610de6565b6101ce610335366004611e5e565b610eb1565b6102bb610348366004611f87565b610f8c565b61036061035b366004611e8f565b610fcf565b6040516101b29190612290565b6101ce61037b366004611eff565b611114565b6102bb61038e366004611eff565b611175565b6103bb6103a1366004611eff565b600090815260096020526040902080546001909101549091565b604080519283526020830191909152016101b2565b6101ce6103de366004612024565b611192565b6101ce6103f1366004611f17565b61129e565b6101ce610404366004611ff0565b6112c5565b6101a6610417366004611e26565b6001600160a01b039182166000908152600c6020908152604080832093909416825291909152205460ff1690565b6102bb610453366004611f3b565b611352565b600061046382611400565b92915050565b8261047381611425565b61047c57600080fd5b6000806060806000806104c960008a8a8080601f01602080910402602001604051908101604052809392919081815260200183838082843760009201919091525092939250506114e69050565b90505b805151602082015110156105ef5761ffff861661052e57806040015195506104f381611547565b9350836040516020016105069190612274565b60405160208183030381529060405280519060200120915061052781611568565b92506105e1565b600061053982611547565b9050816040015161ffff168761ffff1614158061055d575061055b8582611584565b155b156105df576105b88b86898d8d8080601f016020809104026020016040519081016040528093929190818152602001838380828437600092019190915250505060208801518c91506105b0908290612413565b8a51156115a2565b8160400151965081602001519550809450848051906020012092506105dc82611568565b93505b505b6105ea816117e4565b6104cc565b50825115610649576106498984878b8b8080601f0160208091040260200160405190810160405280939291908181526020018383808284376000920191909152508b925061064191508290508e612413565b8851156115a2565b505050505050505050565b8461065e81611425565b61066757600080fd5b8282600a6000898152602001908152602001600020878760405161068c929190612264565b9081526040519081900360200190206106a6929091611c63565b5084846040516106b7929190612264565b6040518091039020867fd8c9334b1a9c2f9da342a0a2b32629c1a229b6445dad78947f674b44444a755087876040516106f19291906122f1565b60405180910390a3505050505050565b60008281526007602090815260408083206001600160e01b0319851684529091528120546001600160a01b0316801561073b579050610463565b600061074685610b4f565b90506001600160a01b03811661076157600092505050610463565b6040516301ffc9a760e01b602482015260009081906001600160a01b0384169060440160408051601f198184030181529181526020820180516001600160e01b03166301ffc9a760e01b179052516107b99190612274565b600060405180830381855afa9150503d80600081146107f4576040519150601f19603f3d011682016040523d82523d6000602084013e6107f9565b606091505b509150915081158061080c575060208151105b80610844575080601f8151811061083357634e487b7160e01b600052603260045260246000fd5b01602001516001600160f81b031916155b15610856576000945050505050610463565b6040516001600160e01b0319871660248201526001600160a01b0384169060440160408051601f198184030181529181526020820180516001600160e01b03166301ffc9a760e01b179052516108ac9190612274565b600060405180830381855afa9150503d80600081146108e7576040519150601f19603f3d011682016040523d82523d6000602084013e6108ec565b606091505b509092509050811580610900575060208151105b80610938575080601f8151811061092757634e487b7160e01b600052603260045260246000fd5b01602001516001600160f81b031916155b1561094a576000945050505050610463565b509095945050505050565b600082815260208190526040812060609060015b848111610a50578085161580159061099957506000818152602083905260408120805461099590612478565b9050115b15610a4857808260008381526020019081526020016000208080546109bd90612478565b80601f01602080910402602001604051908101604052809291908181526020018280546109e990612478565b8015610a365780601f10610a0b57610100808354040283529160200191610a36565b820191906000526020600020905b815481529060010190602001808311610a1957829003601f168201915b50505050509050935093505050610a69565b60011b610969565b5060006040518060200160405280600081525092509250505b9250929050565b82610a7a81611425565b610a8357600080fd5b60408051808201825284815260208082018581526000888152600983528490209251835551600190920191909155815185815290810184905285917f1d6f5e03d3f63eb58751986629a5439baee5079ff04f345becb66e23eb154e4691015b60405180910390a250505050565b82610afa81611425565b610b0357600080fd5b6000848152600260205260409020610b1c908484611c63565b50837fe379c1624ed7e714cc0937528a32359d69d5281337765313dba4e081b72d75788484604051610ae29291906122f1565b600080610b5d83603c611352565b9050805160001415610b725750600092915050565b610b7b816118cc565b9392505050565b6060600a60008581526020019081526020016000208383604051610ba7929190612264565b90815260200160405180910390208054610bc090612478565b80601f0160208091040260200160405190810160405280929190818152602001828054610bec90612478565b8015610c395780601f10610c0e57610100808354040283529160200191610c39565b820191906000526020600020905b815481529060010190602001808311610c1c57829003601f168201915b505050505090509392505050565b6000818152600360205260409020805460609190610c6490612478565b80601f0160208091040260200160405190810160405280929190818152602001828054610c9090612478565b8015610cdd5780601f10610cb257610100808354040283529160200191610cdd565b820191906000526020600020905b815481529060010190602001808311610cc057829003601f168201915b50505050509050919050565b83610cf381611425565b610cfc57600080fd5b83610d08600182612413565b1615610d1357600080fd5b6000858152602081815260408083208784529091529020610d35908484611c63565b50604051849086907faa121bbeef5f32f5961a2a28966e769023910fc9479059ee3495d4c1a696efe390600090a35050505050565b6000818152600860205260409020805460609190610c6490612478565b82610d9181611425565b610d9a57600080fd5b6000848152600860205260409020610db3908484611c63565b50837fb7d29e911041e8d9b843369e890bcb72c9388692ba48b65ac54e7214c4c348f78484604051610ae29291906122f1565b82610df081611425565b610df957600080fd5b837f65412581168e88a1e60c6459d7f44ae83ad0832e670826c05a4e2476b57af7528484604051610e2b92919061239d565b60405180910390a2603c831415610e8357837f52d7d861f09ab3d26239d492e8968629f95e9e318cf0b73bfddc441522a15fd2610e67846118cc565b6040516001600160a01b03909116815260200160405180910390a25b600084815260016020908152604080832086845282529091208351610eaa92850190611ce7565b5050505050565b336001600160a01b0383161415610f205760405162461bcd60e51b815260206004820152602960248201527f455243313135353a2073657474696e6720617070726f76616c20737461747573604482015268103337b91039b2b63360b91b606482015260840160405180910390fd5b336000818152600c602090815260408083206001600160a01b03871680855290835292819020805460ff191686151590811790915590519081529192917f17307eab39ab6107e8899845ad3d59bd9653f200f220920489ca2b5937696c31910160405180910390a35050565b6000838152600560209081526040808320600483528184205484528252808320858452825280832061ffff851684529091529020805460609190610bc090612478565b60608167ffffffffffffffff811115610ff857634e487b7160e01b600052604160045260246000fd5b60405190808252806020026020018201604052801561102b57816020015b60608152602001906001900390816110165790505b50905060005b8281101561110d576000803086868581811061105d57634e487b7160e01b600052603260045260246000fd5b905060200281019061106f91906123b6565b60405161107d929190612264565b600060405180830381855af49150503d80600081146110b8576040519150601f19603f3d011682016040523d82523d6000602084013e6110bd565b606091505b5091509150816110cc57600080fd5b808484815181106110ed57634e487b7160e01b600052603260045260246000fd5b602002602001018190525050508080611105906124d5565b915050611031565b5092915050565b8061111e81611425565b61112757600080fd5b6000828152600460205260408120805491611141836124d5565b909155505060405182907fb757169b8492ca2f1c6619d9d76ce22803035c3b1d5f6930dffe7b127c1a198390600090a25050565b6000818152600260205260409020805460609190610c6490612478565b8261119c81611425565b6111a557600080fd5b600084815260036020526040812080546111be90612478565b80601f01602080910402602001604051908101604052809291908181526020018280546111ea90612478565b80156112375780601f1061120c57610100808354040283529160200191611237565b820191906000526020600020905b81548152906001019060200180831161121a57829003601f168201915b505050600088815260036020526040902092935061125a92915086905085611c63565b50847f8f15ed4b723ef428f250961da8315675b507046737e19319fc1a4d81bfe87f8582868660405161128f93929190612318565b60405180910390a25050505050565b816112a881611425565b6112b157600080fd5b6112c083603c610322856118eb565b505050565b826112cf81611425565b6112d857600080fd5b60008481526007602090815260408083206001600160e01b031987168085529083529281902080546001600160a01b0319166001600160a01b038716908117909155905190815286917f7c69f06bea0bdef565b709e93a147836b0063ba2dd89f02d0b7e8d931e6a6daa910160405180910390a350505050565b6000828152600160209081526040808320848452909152902080546060919061137a90612478565b80601f01602080910402602001604051908101604052809291908181526020018280546113a690612478565b80156113f35780601f106113c8576101008083540402835291602001916113f3565b820191906000526020600020905b8154815290600101906020018083116113d657829003601f168201915b5050505050905092915050565b60006001600160e01b03198216631674750f60e21b148061046357506104638261191b565b600b546040516302571be360e01b81526004810183905260009182916001600160a01b03909116906302571be39060240160206040518083038186803b15801561146e57600080fd5b505afa158015611482573d6000803e3d6000fd5b505050506040513d601f19601f820116820180604052508101906114a69190611e0a565b90506001600160a01b038116331480610b7b57506001600160a01b0381166000908152600c6020908152604080832033845290915290205460ff16610b7b565b6115346040518060e001604052806060815260200160008152602001600061ffff168152602001600061ffff168152602001600063ffffffff16815260200160008152602001600081525090565b82815260c08101829052610463816117e4565b602081015181516060916104639161155f9082611940565b845191906119ad565b60a081015160c08201516060916104639161155f908290612413565b600081518351148015610b7b5750610b7b8360008460008751611a32565b600087815260046020908152604082205488519189019190912090916115c98787876119ad565b905083156116d25760008a81526005602090815260408083208684528252808320858452825280832061ffff8c1684529091529020805461160990612478565b15905061165d5760008a815260066020908152604080832086845282528083208584529091528120805461ffff16916116418361245a565b91906101000a81548161ffff021916908361ffff160217905550505b60008a81526005602090815260408083208684528252808320858452825280832061ffff8c168452909152812061169391611d5b565b897f03528ed0c2a3ebc993b12ce3c16bb382f9c7d88ef7d8a1bf290eaf35955a12078a8a6040516116c5929190612348565b60405180910390a26117d8565b60008a81526005602090815260408083208684528252808320858452825280832061ffff8c1684529091529020805461170a90612478565b1515905061175f5760008a815260066020908152604080832086845282528083208584529091528120805461ffff1691611743836124b3565b91906101000a81548161ffff021916908361ffff160217905550505b60008a81526005602090815260408083208684528252808320858452825280832061ffff8c1684528252909120825161179a92840190611ce7565b50897f52a608b3303a48862d07a73d82fa221318c0027fbbcfb1b2329bface3f19ff2b8a8a846040516117cf9392919061236e565b60405180910390a25b50505050505050505050565b60c081015160208201819052815151116117fb5750565b600061180f82600001518360200151611940565b826020015161181e91906123fb565b825190915061182d9082611a55565b61ffff1660408301526118416002826123fb565b82519091506118509082611a55565b61ffff1660608301526118646002826123fb565b82519091506118739082611a7d565b63ffffffff1660808301526118896004826123fb565b825190915060009061189b9083611a55565b61ffff1690506118ac6002836123fb565b60a0840181905291506118bf81836123fb565b60c0909301929092525050565b600081516014146118dc57600080fd5b5060200151600160601b900490565b604080516014808252818301909252606091602082018180368337505050600160601b9290920260208301525090565b60006001600160e01b0319821663c869023360e01b1480610463575061046382611aa7565b6000815b8351811061196257634e487b7160e01b600052600160045260246000fd5b600061196e8583611acc565b60ff16905061197e8160016123fb565b61198890836123fb565b915080611995575061199b565b50611944565b6119a58382612413565b949350505050565b82516060906119bc83856123fb565b11156119c757600080fd5b60008267ffffffffffffffff8111156119f057634e487b7160e01b600052604160045260246000fd5b6040519080825280601f01601f191660200182016040528015611a1a576020820181803683370190505b5090506020808201908686010161094a828287611afe565b6000611a3f848484611b54565b611a4a878785611b54565b149695505050505050565b8151600090611a658360026123fb565b1115611a7057600080fd5b50016002015161ffff1690565b8151600090611a8d8360046123fb565b1115611a9857600080fd5b50016004015163ffffffff1690565b60006001600160e01b0319821663691f343160e01b1480610463575061046382611b78565b6000828281518110611aee57634e487b7160e01b600052603260045260246000fd5b016020015160f81c905092915050565b60208110611b365781518352611b156020846123fb565b9250611b226020836123fb565b9150611b2f602082612413565b9050611afe565b905182516020929092036101000a6000190180199091169116179052565b8251600090611b6383856123fb565b1115611b6e57600080fd5b5091016020012090565b60006001600160e01b031982166304928c6760e21b148061046357506104638260006001600160e01b0319821663547d2b4160e11b1480611bc957506001600160e01b03198216631711d8df60e21b145b8061046357506104638260006001600160e01b0319821663bc1c58d160e01b148061046357506104638260006001600160e01b03198216631d9dabef60e11b1480611c2457506001600160e01b031982166378e5bf0360e11b145b8061046357506104638260006001600160e01b03198216631101d5ab60e11b148061046357506301ffc9a760e01b6001600160e01b0319831614610463565b828054611c6f90612478565b90600052602060002090601f016020900481019282611c915760008555611cd7565b82601f10611caa5782800160ff19823516178555611cd7565b82800160010185558215611cd7579182015b82811115611cd7578235825591602001919060010190611cbc565b50611ce3929150611d98565b5090565b828054611cf390612478565b90600052602060002090601f016020900481019282611d155760008555611cd7565b82601f10611d2e57805160ff1916838001178555611cd7565b82800160010185558215611cd7579182015b82811115611cd7578251825591602001919060010190611d40565b508054611d6790612478565b6000825580601f10611d77575050565b601f016020900490600052602060002090810190611d959190611d98565b50565b5b80821115611ce35760008155600101611d99565b80356001600160e01b031981168114611dc557600080fd5b919050565b60008083601f840112611ddb578182fd5b50813567ffffffffffffffff811115611df2578182fd5b602083019150836020828501011115610a6957600080fd5b600060208284031215611e1b578081fd5b8151610b7b8161251c565b60008060408385031215611e38578081fd5b8235611e438161251c565b91506020830135611e538161251c565b809150509250929050565b60008060408385031215611e70578182fd5b8235611e7b8161251c565b915060208301358015158114611e53578182fd5b60008060208385031215611ea1578182fd5b823567ffffffffffffffff80821115611eb8578384fd5b818501915085601f830112611ecb578384fd5b813581811115611ed9578485fd5b8660208260051b8501011115611eed578485fd5b60209290920196919550909350505050565b600060208284031215611f10578081fd5b5035919050565b60008060408385031215611f29578182fd5b823591506020830135611e538161251c565b60008060408385031215611f4d578182fd5b50508035926020909101359150565b600080600060608486031215611f70578081fd5b505081359360208301359350604090920135919050565b600080600060608486031215611f9b578283fd5b8335925060208401359150604084013561ffff81168114611fba578182fd5b809150509250925092565b60008060408385031215611fd7578182fd5b82359150611fe760208401611dad565b90509250929050565b600080600060608486031215612004578283fd5b8335925061201460208501611dad565b91506040840135611fba8161251c565b600080600060408486031215612038578081fd5b83359250602084013567ffffffffffffffff811115612055578182fd5b61206186828701611dca565b9497909650939450505050565b600080600080600060608688031215612085578283fd5b85359450602086013567ffffffffffffffff808211156120a3578485fd5b6120af89838a01611dca565b909650945060408801359150808211156120c7578283fd5b506120d488828901611dca565b969995985093965092949392505050565b600080600080606085870312156120fa578182fd5b8435935060208501359250604085013567ffffffffffffffff81111561211e578283fd5b61212a87828801611dca565b95989497509550505050565b60008060006060848603121561214a578081fd5b8335925060208401359150604084013567ffffffffffffffff8082111561216f578283fd5b818601915086601f830112612182578283fd5b81358181111561219457612194612506565b604051601f8201601f19908116603f011681019083821181831017156121bc576121bc612506565b816040528281528960208487010111156121d4578586fd5b82602086016020830137856020848301015280955050505050509250925092565b600060208284031215612206578081fd5b610b7b82611dad565b81835281816020850137506000828201602090810191909152601f909101601f19169091010190565b6000815180845261225081602086016020860161242a565b601f01601f19169290920160200192915050565b8183823760009101908152919050565b6000825161228681846020870161242a565b9190910192915050565b6000602080830181845280855180835260408601915060408160051b8701019250838701855b828110156122e457603f198886030184526122d2858351612238565b945092850192908501906001016122b6565b5092979650505050505050565b6020815260006119a560208301848661220f565b602081526000610b7b6020830184612238565b60408152600061232b6040830186612238565b828103602084015261233e81858761220f565b9695505050505050565b60408152600061235b6040830185612238565b905061ffff831660208301529392505050565b6060815260006123816060830186612238565b61ffff85166020840152828103604084015261233e8185612238565b8281526040602082015260006119a56040830184612238565b6000808335601e198436030181126123cc578283fd5b83018035915067ffffffffffffffff8211156123e6578283fd5b602001915036819003821315610a6957600080fd5b6000821982111561240e5761240e6124f0565b500190565b600082821015612425576124256124f0565b500390565b60005b8381101561244557818101518382015260200161242d565b83811115612454576000848401525b50505050565b600061ffff82168061246e5761246e6124f0565b6000190192915050565b600181811c9082168061248c57607f821691505b602082108114156124ad57634e487b7160e01b600052602260045260246000fd5b50919050565b600061ffff808316818114156124cb576124cb6124f0565b6001019392505050565b60006000198214156124e9576124e96124f0565b5060010190565b634e487b7160e01b600052601160045260246000fd5b634e487b7160e01b600052604160045260246000fd5b6001600160a01b0381168114611d9557600080fdfea2646970667358221220f662ce0ebe41801132971fba809f7fdaef96f15257cc0507a9daa602dea595d664736f6c63430008040033",
  "immutableReferences": {},
  "source": "// SPDX-License-Identifier: MIT\r\npragma solidity ^0.8.4;\r\n\r\npragma experimental ABIEncoderV2;\r\n\r\nimport \"./ENSRegistry.sol\";\r\nimport \"@ensdomains/ens-contracts/contracts/resolvers/profiles/ABIResolver.sol\";\r\nimport \"@ensdomains/ens-contracts/contracts/resolvers/profiles/AddrResolver.sol\";\r\nimport \"@ensdomains/ens-contracts/contracts/resolvers/profiles/ContentHashResolver.sol\";\r\nimport \"@ensdomains/ens-contracts/contracts/resolvers/profiles/DNSResolver.sol\";\r\nimport \"@ensdomains/ens-contracts/contracts/resolvers/profiles/InterfaceResolver.sol\";\r\nimport \"@ensdomains/ens-contracts/contracts/resolvers/profiles/NameResolver.sol\";\r\nimport \"@ensdomains/ens-contracts/contracts/resolvers/profiles/PubkeyResolver.sol\";\r\nimport \"@ensdomains/ens-contracts/contracts/resolvers/profiles/TextResolver.sol\";\r\n\r\n/**\r\n * A simple resolver anyone can use; only allows the owner of a node to set its\r\n * address.\r\n */\r\ncontract PublicResolver is ABIResolver, AddrResolver, ContentHashResolver, DNSResolver, InterfaceResolver, NameResolver, PubkeyResolver, TextResolver {\r\n    ENS ens;\r\n    /**\r\n     * A mapping of operators. An address that is authorised for an address\r\n     * may make any changes to the name that the owner could, but may not update\r\n     * the set of authorisations.\r\n     * (owner, operator) => approved\r\n     */\r\n    mapping(address => mapping(address => bool)) private _operatorApprovals;\r\n\r\n    // Logged when an operator is added or removed.\r\n    event ApprovalForAll(address indexed owner, address indexed operator, bool approved);\r\n\r\n    constructor(ENS _ens){\r\n        ens = _ens;\r\n    }\r\n\r\n    /**\r\n     * @dev See {IERC1155-setApprovalForAll}.\r\n     */\r\n    function setApprovalForAll(address operator, bool approved) external{\r\n        require(\r\n            msg.sender != operator,\r\n            \"ERC1155: setting approval status for self\"\r\n        );\r\n\r\n        _operatorApprovals[msg.sender][operator] = approved;\r\n        emit ApprovalForAll(msg.sender, operator, approved);\r\n    }\r\n\r\n    function isAuthorised(bytes32 node) internal override view returns(bool) {\r\n        address owner = ens.owner(node);\r\n        return owner == msg.sender || isApprovedForAll(owner, msg.sender);\r\n    }\r\n\r\n    /**\r\n     * @dev See {IERC1155-isApprovedForAll}.\r\n     */\r\n    function isApprovedForAll(address account, address operator) public view returns (bool){\r\n        return _operatorApprovals[account][operator];\r\n    }\r\n\r\n    function multicall(bytes[] calldata data) external returns(bytes[] memory results) {\r\n        results = new bytes[](data.length);\r\n        for(uint i = 0; i < data.length; i++) {\r\n            (bool success, bytes memory result) = address(this).delegatecall(data[i]);\r\n            require(success);\r\n            results[i] = result;\r\n        }\r\n        return results;\r\n    }\r\n\r\n    function supportsInterface(bytes4 interfaceID) virtual override(ABIResolver, AddrResolver, ContentHashResolver, DNSResolver, InterfaceResolver, NameResolver, PubkeyResolver, TextResolver) public pure returns(bool) {\r\n        return super.supportsInterface(interfaceID);\r\n    }\r\n}",
  "sourcePath": "D:\\Posao-Stefan\\Stefan-razno\\Blockchain\\Thetaboard\\core-contracts\\contracts\\PublicResolver.sol",
  "compiler": {
    "name": "solc",
    "version": "0.8.4+commit.c7e474f2.Emscripten.clang"
  },
  "schemaVersion": "3.4.3",
  "updatedAt": "2021-09-29T18:21:22.696Z",
  "networkType": "ethereum",
  "devdoc": {
    "kind": "dev",
    "methods": {
      "ABI(bytes32,uint256)": {
        "params": {
          "contentTypes": "A bitwise OR of the ABI formats accepted by the caller.",
          "node": "The ENS node to query"
        },
        "returns": {
          "_0": "contentType The content type of the return value",
          "_1": "data The ABI data"
        }
      },
      "addr(bytes32)": {
        "params": {
          "node": "The ENS node to query."
        },
        "returns": {
          "_0": "The associated address."
        }
      },
      "clearDNSZone(bytes32)": {
        "params": {
          "node": "the namehash of the node for which to clear the zone"
        }
      },
      "contenthash(bytes32)": {
        "params": {
          "node": "The ENS node to query."
        },
        "returns": {
          "_0": "The associated contenthash."
        }
      },
      "dnsRecord(bytes32,bytes32,uint16)": {
        "params": {
          "name": "the keccak-256 hash of the fully-qualified name for which to fetch the record",
          "node": "the namehash of the node for which to fetch the record",
          "resource": "the ID of the resource as per https://en.wikipedia.org/wiki/List_of_DNS_record_types"
        },
        "returns": {
          "_0": "the DNS record in wire format if present, otherwise empty"
        }
      },
      "hasDNSRecords(bytes32,bytes32)": {
        "params": {
          "name": "the namehash of the node for which to check the records",
          "node": "the namehash of the node for which to check the records"
        }
      },
      "interfaceImplementer(bytes32,bytes4)": {
        "params": {
          "interfaceID": "The EIP 165 interface ID to check for.",
          "node": "The ENS node to query."
        },
        "returns": {
          "_0": "The address that implements this interface, or 0 if the interface is unsupported."
        }
      },
      "isApprovedForAll(address,address)": {
        "details": "See {IERC1155-isApprovedForAll}."
      },
      "name(bytes32)": {
        "params": {
          "node": "The ENS node to query."
        },
        "returns": {
          "_0": "The associated name."
        }
      },
      "pubkey(bytes32)": {
        "params": {
          "node": "The ENS node to query"
        },
        "returns": {
          "x": "The X coordinate of the curve point for the public key.",
          "y": "The Y coordinate of the curve point for the public key."
        }
      },
      "setABI(bytes32,uint256,bytes)": {
        "params": {
          "contentType": "The content type of the ABI",
          "data": "The ABI data.",
          "node": "The node to update."
        }
      },
      "setAddr(bytes32,address)": {
        "params": {
          "a": "The address to set.",
          "node": "The node to update."
        }
      },
      "setApprovalForAll(address,bool)": {
        "details": "See {IERC1155-setApprovalForAll}."
      },
      "setContenthash(bytes32,bytes)": {
        "params": {
          "hash": "The contenthash to set",
          "node": "The node to update."
        }
      },
      "setDNSRecords(bytes32,bytes)": {
        "params": {
          "data": "the DNS wire format records to set",
          "node": "the namehash of the node for which to set the records"
        }
      },
      "setInterface(bytes32,bytes4,address)": {
        "params": {
          "implementer": "The address of a contract that implements this interface for this node.",
          "interfaceID": "The EIP 165 interface ID.",
          "node": "The node to update."
        }
      },
      "setName(bytes32,string)": {
        "params": {
          "name": "The name to set.",
          "node": "The node to update."
        }
      },
      "setPubkey(bytes32,bytes32,bytes32)": {
        "params": {
          "node": "The ENS node to query",
          "x": "the X coordinate of the curve point for the public key.",
          "y": "the Y coordinate of the curve point for the public key."
        }
      },
      "setText(bytes32,string,string)": {
        "params": {
          "key": "The key to set.",
          "node": "The node to update.",
          "value": "The text data value to set."
        }
      },
      "setZonehash(bytes32,bytes)": {
        "params": {
          "hash": "The zonehash to set",
          "node": "The node to update."
        }
      },
      "text(bytes32,string)": {
        "params": {
          "key": "The text data key to query.",
          "node": "The ENS node to query."
        },
        "returns": {
          "_0": "The associated text data."
        }
      },
      "zonehash(bytes32)": {
        "params": {
          "node": "The ENS node to query."
        },
        "returns": {
          "_0": "The associated contenthash."
        }
      }
    },
    "version": 1
  },
  "userdoc": {
    "kind": "user",
    "methods": {
      "ABI(bytes32,uint256)": {
        "notice": "Returns the ABI associated with an ENS node. Defined in EIP205."
      },
      "addr(bytes32)": {
        "notice": "Returns the address associated with an ENS node."
      },
      "clearDNSZone(bytes32)": {
        "notice": "Clear all information for a DNS zone."
      },
      "contenthash(bytes32)": {
        "notice": "Returns the contenthash associated with an ENS node."
      },
      "dnsRecord(bytes32,bytes32,uint16)": {
        "notice": "Obtain a DNS record."
      },
      "hasDNSRecords(bytes32,bytes32)": {
        "notice": "Check if a given node has records."
      },
      "interfaceImplementer(bytes32,bytes4)": {
        "notice": "Returns the address of a contract that implements the specified interface for this name. If an implementer has not been set for this interfaceID and name, the resolver will query the contract at `addr()`. If `addr()` is set, a contract exists at that address, and that contract implements EIP165 and returns `true` for the specified interfaceID, its address will be returned."
      },
      "name(bytes32)": {
        "notice": "Returns the name associated with an ENS node, for reverse records. Defined in EIP181."
      },
      "pubkey(bytes32)": {
        "notice": "Returns the SECP256k1 public key associated with an ENS node. Defined in EIP 619."
      },
      "setABI(bytes32,uint256,bytes)": {
        "notice": "Sets the ABI associated with an ENS node. Nodes may have one ABI of each content type. To remove an ABI, set it to the empty string."
      },
      "setAddr(bytes32,address)": {
        "notice": "Sets the address associated with an ENS node. May only be called by the owner of that node in the ENS registry."
      },
      "setContenthash(bytes32,bytes)": {
        "notice": "Sets the contenthash associated with an ENS node. May only be called by the owner of that node in the ENS registry."
      },
      "setDNSRecords(bytes32,bytes)": {
        "notice": "Set one or more DNS records.  Records are supplied in wire-format. Records with the same node/name/resource must be supplied one after the other to ensure the data is updated correctly. For example, if the data was supplied:     a.example.com IN A 1.2.3.4     a.example.com IN A 5.6.7.8     www.example.com IN CNAME a.example.com. then this would store the two A records for a.example.com correctly as a single RRSET, however if the data was supplied:     a.example.com IN A 1.2.3.4     www.example.com IN CNAME a.example.com.     a.example.com IN A 5.6.7.8 then this would store the first A record, the CNAME, then the second A record which would overwrite the first."
      },
      "setInterface(bytes32,bytes4,address)": {
        "notice": "Sets an interface associated with a name. Setting the address to 0 restores the default behaviour of querying the contract at `addr()` for interface support."
      },
      "setName(bytes32,string)": {
        "notice": "Sets the name associated with an ENS node, for reverse records. May only be called by the owner of that node in the ENS registry."
      },
      "setPubkey(bytes32,bytes32,bytes32)": {
        "notice": "Sets the SECP256k1 public key associated with an ENS node."
      },
      "setText(bytes32,string,string)": {
        "notice": "Sets the text data associated with an ENS node and key. May only be called by the owner of that node in the ENS registry."
      },
      "setZonehash(bytes32,bytes)": {
        "notice": "setZonehash sets the hash for the zone. May only be called by the owner of that node in the ENS registry."
      },
      "text(bytes32,string)": {
        "notice": "Returns the text data associated with an ENS node and key."
      },
      "zonehash(bytes32)": {
        "notice": "zonehash obtains the hash for the zone."
      }
    },
    "notice": "A simple resolver anyone can use; only allows the owner of a node to set its address.",
    "version": 1
  }
}