{
  "contractName": "ReverseRegistrar",
  "abi": [
    {
      "inputs": [
        {
          "internalType": "contract ENS",
          "name": "ensAddr",
          "type": "address"
        },
        {
          "internalType": "contract NameResolver",
          "name": "resolverAddr",
          "type": "address"
        }
      ],
      "stateMutability": "nonpayable",
      "type": "constructor"
    },
    {
      "anonymous": false,
      "inputs": [
        {
          "indexed": true,
          "internalType": "address",
          "name": "controller",
          "type": "address"
        },
        {
          "indexed": false,
          "internalType": "bool",
          "name": "enabled",
          "type": "bool"
        }
      ],
      "name": "ControllerChanged",
      "type": "event"
    },
    {
      "anonymous": false,
      "inputs": [
        {
          "indexed": true,
          "internalType": "address",
          "name": "previousOwner",
          "type": "address"
        },
        {
          "indexed": true,
          "internalType": "address",
          "name": "newOwner",
          "type": "address"
        }
      ],
      "name": "OwnershipTransferred",
      "type": "event"
    },
    {
      "anonymous": false,
      "inputs": [
        {
          "indexed": true,
          "internalType": "address",
          "name": "addr",
          "type": "address"
        },
        {
          "indexed": true,
          "internalType": "bytes32",
          "name": "node",
          "type": "bytes32"
        }
      ],
      "name": "ReverseClaimed",
      "type": "event"
    },
    {
      "inputs": [
        {
          "internalType": "address",
          "name": "",
          "type": "address"
        }
      ],
      "name": "controllers",
      "outputs": [
        {
          "internalType": "bool",
          "name": "",
          "type": "bool"
        }
      ],
      "stateMutability": "view",
      "type": "function"
    },
    {
      "inputs": [],
      "name": "defaultResolver",
      "outputs": [
        {
          "internalType": "contract NameResolver",
          "name": "",
          "type": "address"
        }
      ],
      "stateMutability": "view",
      "type": "function"
    },
    {
      "inputs": [],
      "name": "ens",
      "outputs": [
        {
          "internalType": "contract ENS",
          "name": "",
          "type": "address"
        }
      ],
      "stateMutability": "view",
      "type": "function"
    },
    {
      "inputs": [],
      "name": "owner",
      "outputs": [
        {
          "internalType": "address",
          "name": "",
          "type": "address"
        }
      ],
      "stateMutability": "view",
      "type": "function"
    },
    {
      "inputs": [],
      "name": "renounceOwnership",
      "outputs": [],
      "stateMutability": "nonpayable",
      "type": "function"
    },
    {
      "inputs": [
        {
          "internalType": "address",
          "name": "controller",
          "type": "address"
        },
        {
          "internalType": "bool",
          "name": "enabled",
          "type": "bool"
        }
      ],
      "name": "setController",
      "outputs": [],
      "stateMutability": "nonpayable",
      "type": "function"
    },
    {
      "inputs": [
        {
          "internalType": "address",
          "name": "newOwner",
          "type": "address"
        }
      ],
      "name": "transferOwnership",
      "outputs": [],
      "stateMutability": "nonpayable",
      "type": "function"
    },
    {
      "inputs": [
        {
          "internalType": "address",
          "name": "owner",
          "type": "address"
        }
      ],
      "name": "claim",
      "outputs": [
        {
          "internalType": "bytes32",
          "name": "",
          "type": "bytes32"
        }
      ],
      "stateMutability": "nonpayable",
      "type": "function"
    },
    {
      "inputs": [
        {
          "internalType": "address",
          "name": "addr",
          "type": "address"
        },
        {
          "internalType": "address",
          "name": "owner",
          "type": "address"
        }
      ],
      "name": "claimForAddr",
      "outputs": [
        {
          "internalType": "bytes32",
          "name": "",
          "type": "bytes32"
        }
      ],
      "stateMutability": "nonpayable",
      "type": "function"
    },
    {
      "inputs": [
        {
          "internalType": "address",
          "name": "owner",
          "type": "address"
        },
        {
          "internalType": "address",
          "name": "resolver",
          "type": "address"
        }
      ],
      "name": "claimWithResolver",
      "outputs": [
        {
          "internalType": "bytes32",
          "name": "",
          "type": "bytes32"
        }
      ],
      "stateMutability": "nonpayable",
      "type": "function"
    },
    {
      "inputs": [
        {
          "internalType": "address",
          "name": "addr",
          "type": "address"
        },
        {
          "internalType": "address",
          "name": "owner",
          "type": "address"
        },
        {
          "internalType": "address",
          "name": "resolver",
          "type": "address"
        }
      ],
      "name": "claimWithResolverForAddr",
      "outputs": [
        {
          "internalType": "bytes32",
          "name": "",
          "type": "bytes32"
        }
      ],
      "stateMutability": "nonpayable",
      "type": "function"
    },
    {
      "inputs": [
        {
          "internalType": "string",
          "name": "_name",
          "type": "string"
        }
      ],
      "name": "setName",
      "outputs": [
        {
          "internalType": "bytes32",
          "name": "",
          "type": "bytes32"
        }
      ],
      "stateMutability": "nonpayable",
      "type": "function"
    },
    {
      "inputs": [
        {
          "internalType": "address",
          "name": "addr",
          "type": "address"
        },
        {
          "internalType": "address",
          "name": "owner",
          "type": "address"
        },
        {
          "internalType": "string",
          "name": "name",
          "type": "string"
        }
      ],
      "name": "setNameForAddr",
      "outputs": [
        {
          "internalType": "bytes32",
          "name": "",
          "type": "bytes32"
        }
      ],
      "stateMutability": "nonpayable",
      "type": "function"
    },
    {
      "inputs": [
        {
          "internalType": "address",
          "name": "addr",
          "type": "address"
        }
      ],
      "name": "node",
      "outputs": [
        {
          "internalType": "bytes32",
          "name": "",
          "type": "bytes32"
        }
      ],
      "stateMutability": "pure",
      "type": "function"
    }
  ],
  "bytecode": "0x60806040523480156200001157600080fd5b506040516200122d3803806200122d83398101604081905262000034916200025c565b6200003f33620001cd565b600280546001600160a01b038481166001600160a01b0319928316811790935560038054918516919092161790556040517f02571be30000000000000000000000000000000000000000000000000000000081527f91d1777781884d03a6757a803996e38de2a42967fb37eeaca72729271025a9e26004820152600091906302571be39060240160206040518083038186803b158015620000df57600080fd5b505afa158015620000f4573d6000803e3d6000fd5b505050506040513d601f19601f820116820180604052508101906200011a91906200021d565b90506001600160a01b03811615620001c4576040517f1e83409a0000000000000000000000000000000000000000000000000000000081523360048201526001600160a01b03821690631e83409a90602401602060405180830381600087803b1580156200018757600080fd5b505af11580156200019c573d6000803e3d6000fd5b505050506040513d601f19601f82011682018060405250810190620001c2919062000243565b505b505050620002b3565b600080546001600160a01b038381166001600160a01b0319831681178455604051919092169283917f8be0079c531659141344cd1fd0a4f28419497f9722a3daafe3b4186f6b6457e09190a35050565b6000602082840312156200022f578081fd5b81516200023c816200029a565b9392505050565b60006020828403121562000255578081fd5b5051919050565b600080604083850312156200026f578081fd5b82516200027c816200029a565b60208401519092506200028f816200029a565b809150509250929050565b6001600160a01b0381168114620002b057600080fd5b50565b610f6a80620002c36000396000f3fe608060405234801561001057600080fd5b50600436106100ea5760003560e01c80638d9522b81161008c578063c47f002711610066578063c47f0027146101cd578063da8c229e146101e0578063e0dba60f14610213578063f2fde38b1461022657600080fd5b80638d9522b8146101965780638da5cb5b146101a9578063bffbe61c146101ba57600080fd5b80633f15457f116100c85780633f15457f1461013b5780634709bf4b14610166578063715018a614610179578063828eab0e1461018357600080fd5b80630ccc4a7f146100ef5780630f5a5466146101155780631e83409a14610128575b600080fd5b6101026100fd366004610c9e565b610239565b6040519081526020015b60405180910390f35b610102610123366004610c66565b610333565b610102610136366004610c2e565b610347565b60025461014e906001600160a01b031681565b6040516001600160a01b03909116815260200161010c565b610102610174366004610c66565b61035b565b61018161044c565b005b60035461014e906001600160a01b031681565b6101026101a4366004610ce8565b610482565b6000546001600160a01b031661014e565b6101026101c8366004610c2e565b61069a565b6101026101db366004610da9565b6106e3565b6102036101ee366004610c2e565b60016020526000908152604090205460ff1681565b604051901515815260200161010c565b610181610221366004610d48565b61076d565b610181610234366004610c2e565b6107f6565b6000836001600160a01b03811633148061026257503360009081526001602052604090205460ff165b806102eb575060025460405163e985e9c560e01b81526001600160a01b0383811660048301523360248301529091169063e985e9c59060440160206040518083038186803b1580156102b357600080fd5b505afa1580156102c7573d6000803e3d6000fd5b505050506040513d601f19601f820116820180604052508101906102eb9190610d75565b806102fa57506102fa81610891565b61031f5760405162461bcd60e51b815260040161031690610e6c565b60405180910390fd5b61032a858585610919565b95945050505050565b6000610340338484610919565b9392505050565b600061035533836000610919565b92915050565b6000826001600160a01b03811633148061038457503360009081526001602052604090205460ff165b8061040d575060025460405163e985e9c560e01b81526001600160a01b0383811660048301523360248301529091169063e985e9c59060440160206040518083038186803b1580156103d557600080fd5b505afa1580156103e9573d6000803e3d6000fd5b505050506040513d601f19601f8201168201806040525081019061040d9190610d75565b8061041c575061041c81610891565b6104385760405162461bcd60e51b815260040161031690610e6c565b61044484846000610919565b949350505050565b6000546001600160a01b031633146104765760405162461bcd60e51b815260040161031690610e37565b6104806000610af1565b565b6000836001600160a01b0381163314806104ab57503360009081526001602052604090205460ff165b80610534575060025460405163e985e9c560e01b81526001600160a01b0383811660048301523360248301529091169063e985e9c59060440160206040518083038186803b1580156104fc57600080fd5b505afa158015610510573d6000803e3d6000fd5b505050506040513d601f19601f820116820180604052508101906105349190610d75565b80610543575061054381610891565b61055f5760405162461bcd60e51b815260040161031690610e6c565b60035460009061057b90879030906001600160a01b0316610919565b600354604051637737221360e01b81529192506001600160a01b0316906377372213906105ae9084908890600401610ddc565b600060405180830381600087803b1580156105c857600080fd5b505af11580156105dc573d6000803e3d6000fd5b50506002546001600160a01b031691506306ab59239050600080516020610f1583398151915261060b89610b41565b6040516001600160e01b031960e085901b168152600481019290925260248201526001600160a01b0388166044820152606401602060405180830381600087803b15801561065857600080fd5b505af115801561066c573d6000803e3d6000fd5b505050506040513d601f19601f820116820180604052508101906106909190610d91565b5095945050505050565b6000600080516020610f158339815191526106b483610b41565b604080516020810193909352820152606001604051602081830303815290604052805190602001209050919050565b600354600090819061070190339030906001600160a01b0316610919565b600354604051637737221360e01b81529192506001600160a01b0316906377372213906107349084908790600401610ddc565b600060405180830381600087803b15801561074e57600080fd5b505af1158015610762573d6000803e3d6000fd5b509295945050505050565b6000546001600160a01b031633146107975760405162461bcd60e51b815260040161031690610e37565b6001600160a01b038216600081815260016020908152604091829020805460ff191685151590811790915591519182527f4c97694570a07277810af7e5669ffd5f6a2d6b74b6e9a274b8b870fd5114cf87910160405180910390a25050565b6000546001600160a01b031633146108205760405162461bcd60e51b815260040161031690610e37565b6001600160a01b0381166108855760405162461bcd60e51b815260206004820152602660248201527f4f776e61626c653a206e6577206f776e657220697320746865207a65726f206160448201526564647265737360d01b6064820152608401610316565b61088e81610af1565b50565b6000816001600160a01b0316638da5cb5b6040518163ffffffff1660e01b815260040160206040518083038186803b1580156108cc57600080fd5b505afa9250505080156108fc575060408051601f3d908101601f191682019092526108f991810190610c4a565b60015b61090857506000919050565b6001600160a01b0316331492915050565b60008061092585610b41565b60408051600080516020610f15833981519152602082015290810182905290915060009060600160408051808303601f19018152908290528051602090910120600254630178b8bf60e01b8352600483018290529092506000916001600160a01b0390911690630178b8bf9060240160206040518083038186803b1580156109ac57600080fd5b505afa1580156109c0573d6000803e3d6000fd5b505050506040513d601f19601f820116820180604052508101906109e49190610c4a565b905060006001600160a01b03861615801590610a125750816001600160a01b0316866001600160a01b031614155b9050600081610a215782610a23565b865b6002546040516305ef2c7f60e41b8152600080516020610f158339815191526004820152602481018890526001600160a01b038b81166044830152808416606483015260006084830152929350911690635ef2c7f09060a401600060405180830381600087803b158015610a9657600080fd5b505af1158015610aaa573d6000803e3d6000fd5b50506040518692506001600160a01b038c1691507f6ada868dd3058cf77a48a74489fd7963688e5464b2b0fa957ace976243270e9290600090a35091979650505050505050565b600080546001600160a01b038381166001600160a01b0319831681178455604051919092169283917f8be0079c531659141344cd1fd0a4f28419497f9722a3daafe3b4186f6b6457e09190a35050565b600060285b8015610b9b57600019016f181899199a1a9b1b9c1cb0b131b232b360811b600f84161a8153601090920491600019016f181899199a1a9b1b9c1cb0b131b232b360811b600f84161a8153601083049250610b46565b50506028600020919050565b600082601f830112610bb7578081fd5b813567ffffffffffffffff80821115610bd257610bd2610edb565b604051601f8301601f19908116603f01168101908282118183101715610bfa57610bfa610edb565b81604052838152866020858801011115610c12578485fd5b8360208701602083013792830160200193909352509392505050565b600060208284031215610c3f578081fd5b813561034081610ef1565b600060208284031215610c5b578081fd5b815161034081610ef1565b60008060408385031215610c78578081fd5b8235610c8381610ef1565b91506020830135610c9381610ef1565b809150509250929050565b600080600060608486031215610cb2578081fd5b8335610cbd81610ef1565b92506020840135610ccd81610ef1565b91506040840135610cdd81610ef1565b809150509250925092565b600080600060608486031215610cfc578283fd5b8335610d0781610ef1565b92506020840135610d1781610ef1565b9150604084013567ffffffffffffffff811115610d32578182fd5b610d3e86828701610ba7565b9150509250925092565b60008060408385031215610d5a578182fd5b8235610d6581610ef1565b91506020830135610c9381610f06565b600060208284031215610d86578081fd5b815161034081610f06565b600060208284031215610da2578081fd5b5051919050565b600060208284031215610dba578081fd5b813567ffffffffffffffff811115610dd0578182fd5b61044484828501610ba7565b828152600060206040818401528351806040850152825b81811015610e0f57858101830151858201606001528201610df3565b81811115610e205783606083870101525b50601f01601f191692909201606001949350505050565b6020808252818101527f4f776e61626c653a2063616c6c6572206973206e6f7420746865206f776e6572604082015260600190565b60208082526049908201527f43616c6c6572206973206e6f74206120636f6e74726f6c6c6572206f7220617560408201527f74686f72697365642062792061646472657373206f722074686520616464726560608201526839b99034ba39b2b63360b91b608082015260a00190565b634e487b7160e01b600052604160045260246000fd5b6001600160a01b038116811461088e57600080fd5b801515811461088e57600080fdfe91d1777781884d03a6757a803996e38de2a42967fb37eeaca72729271025a9e2a26469706673582212208227a975d7607de8e656c52537fdee399c47cba5619557319771393241e4532a64736f6c63430008040033",
  "immutableReferences": {},
  "source": "// SPDX-License-Identifier: MIT\r\npragma solidity >=0.8.4;\r\n\r\nimport \"@openzeppelin/contracts/access/Ownable.sol\";\r\nimport \"./ENSRegistry.sol\";\r\nimport \"./abstract_contracts/NameResolver.sol\";\r\nimport \"./utils/Controllable.sol\";\r\n\r\ncontract ReverseRegistrar is Ownable, Controllable {\r\n    \r\n    bytes32 constant lookup = 0x3031323334353637383961626364656600000000000000000000000000000000;\r\n\r\n    bytes32 constant ADDR_REVERSE_NODE = 0x91d1777781884d03a6757a803996e38de2a42967fb37eeaca72729271025a9e2;\r\n\r\n    ENS public ens;\r\n    NameResolver public defaultResolver;\r\n\r\n    event ReverseClaimed(address indexed addr, bytes32 indexed node);\r\n\r\n    /**\r\n     * @dev Constructor\r\n     * @param ensAddr The address of the ENS registry.\r\n     * @param resolverAddr The address of the default reverse resolver.\r\n     */\r\n    constructor(ENS ensAddr, NameResolver resolverAddr) {\r\n        ens = ensAddr;\r\n        defaultResolver = resolverAddr;\r\n\r\n        // Assign ownership of the reverse record to our deployer\r\n        ReverseRegistrar oldRegistrar = ReverseRegistrar(\r\n            ens.owner(ADDR_REVERSE_NODE)\r\n        );\r\n        if (address(oldRegistrar) != address(0x0)) {\r\n            oldRegistrar.claim(msg.sender);\r\n        }\r\n    }\r\n\r\n    modifier authorised(address addr) {\r\n        require(\r\n            addr == msg.sender ||\r\n                controllers[msg.sender] ||\r\n                ens.isApprovedForAll(addr, msg.sender) ||\r\n                ownsContract(addr),\r\n            \"Caller is not a controller or authorised by address or the address itself\"\r\n        );\r\n        _;\r\n    }\r\n\r\n    /**\r\n     * @dev Transfers ownership of the reverse ENS record associated with the\r\n     *      calling account.\r\n     * @param owner The address to set as the owner of the reverse record in ENS.\r\n     * @return The ENS node hash of the reverse record.\r\n     */\r\n    function claim(address owner) public returns (bytes32) {\r\n        return _claimWithResolver(msg.sender, owner, address(0x0));\r\n    }\r\n\r\n    /**\r\n     * @dev Transfers ownership of the reverse ENS record associated with the\r\n     *      calling account.\r\n     * @param addr The reverse record to set\r\n     * @param owner The address to set as the owner of the reverse record in ENS.\r\n     * @return The ENS node hash of the reverse record.\r\n     */\r\n    function claimForAddr(address addr, address owner) public authorised(addr) returns (bytes32) {\r\n        return _claimWithResolver(addr, owner, address(0x0));\r\n    }\r\n\r\n    /**\r\n     * @dev Transfers ownership of the reverse ENS record associated with the\r\n     *      calling account.\r\n     * @param owner The address to set as the owner of the reverse record in ENS.\r\n     * @param resolver The address of the resolver to set; 0 to leave unchanged.\r\n     * @return The ENS node hash of the reverse record.\r\n     */\r\n    function claimWithResolver(address owner, address resolver) public returns (bytes32) {\r\n        return _claimWithResolver(msg.sender, owner, resolver);\r\n    }\r\n\r\n    /**\r\n     * @dev Transfers ownership of the reverse ENS record specified with the\r\n     *      address provided\r\n     * @param addr The reverse record to set\r\n     * @param owner The address to set as the owner of the reverse record in ENS.\r\n     * @param resolver The address of the resolver to set; 0 to leave unchanged.\r\n     * @return The ENS node hash of the reverse record.\r\n     */\r\n    function claimWithResolverForAddr(\r\n        address addr,\r\n        address owner,\r\n        address resolver\r\n    ) public authorised(addr) returns (bytes32) {\r\n        return _claimWithResolver(addr, owner, resolver);\r\n    }\r\n\r\n    /**\r\n     * @dev Sets the `name()` record for the reverse ENS record associated with\r\n     * the calling account. First updates the resolver to the default reverse\r\n     * resolver if necessary.\r\n     * @param _name The name to set for this address.\r\n     * @return The ENS node hash of the reverse record.\r\n     */\r\n    function setName(string memory _name) public returns (bytes32) {\r\n        bytes32 _node = _claimWithResolver(\r\n            msg.sender,\r\n            address(this),\r\n            address(defaultResolver)\r\n        );\r\n        defaultResolver.setName(_node, _name);\r\n        return _node;\r\n    }\r\n\r\n    /**\r\n     * @dev Sets the `name()` record for the reverse ENS record associated with\r\n     * the account provided. First updates the resolver to the default reverse\r\n     * resolver if necessary.\r\n     * Only callable by controllers and authorised users\r\n     * @param addr The reverse record to set\r\n     * @param owner The owner of the reverse node\r\n     * @param name The name to set for this address.\r\n     * @return The ENS node hash of the reverse record.\r\n     */\r\n    function setNameForAddr(\r\n        address addr,\r\n        address owner,\r\n        string memory name\r\n    ) public authorised(addr) returns (bytes32) {\r\n        bytes32 _node = _claimWithResolver(\r\n            addr,\r\n            address(this),\r\n            address(defaultResolver)\r\n        );\r\n        defaultResolver.setName(_node, name);\r\n        ens.setSubnodeOwner(ADDR_REVERSE_NODE, sha3HexAddress(addr), owner);\r\n        return _node;\r\n    }\r\n\r\n    /**\r\n     * @dev Returns the node hash for a given account's reverse records.\r\n     * @param addr The address to hash\r\n     * @return The ENS node hash.\r\n     */\r\n    function node(address addr) public pure returns (bytes32) {\r\n        return\r\n            keccak256(\r\n                abi.encodePacked(ADDR_REVERSE_NODE, sha3HexAddress(addr))\r\n            );\r\n    }\r\n\r\n    /**\r\n     * @dev An optimised function to compute the sha3 of the lower-case\r\n     *      hexadecimal representation of an Ethereum address.\r\n     * @param addr The address to hash\r\n     * @return ret The SHA3 hash of the lower-case hexadecimal encoding of the\r\n     *         input address.\r\n     */\r\n    function sha3HexAddress(address addr) private pure returns (bytes32 ret) {\r\n        assembly {\r\n            for {\r\n                let i := 40\r\n            } gt(i, 0) {\r\n\r\n            } {\r\n                i := sub(i, 1)\r\n                mstore8(i, byte(and(addr, 0xf), lookup))\r\n                addr := div(addr, 0x10)\r\n                i := sub(i, 1)\r\n                mstore8(i, byte(and(addr, 0xf), lookup))\r\n                addr := div(addr, 0x10)\r\n            }\r\n\r\n            ret := keccak256(0, 40)\r\n        }\r\n    }\r\n\r\n    /* Internal functions */\r\n\r\n    function _claimWithResolver(\r\n        address addr,\r\n        address owner,\r\n        address resolver\r\n    ) internal returns (bytes32) {\r\n        bytes32 label = sha3HexAddress(addr);\r\n        bytes32 _node = keccak256(abi.encodePacked(ADDR_REVERSE_NODE, label));\r\n        address currentResolver = ens.resolver(_node);\r\n        bool shouldUpdateResolver = (resolver != address(0x0) &&\r\n            resolver != currentResolver);\r\n        address newResolver = shouldUpdateResolver ? resolver : currentResolver;\r\n\r\n        ens.setSubnodeRecord(ADDR_REVERSE_NODE, label, owner, newResolver, 0);\r\n\r\n        emit ReverseClaimed(addr, _node);\r\n\r\n        return _node;\r\n    }\r\n\r\n    function ownsContract(address addr) internal view returns (bool) {\r\n        try Ownable(addr).owner() returns (address owner) {\r\n            return owner == msg.sender;\r\n        } catch {\r\n            return false;\r\n        }\r\n    }\r\n}",
  "sourcePath": "/Users/adrienvinches/Documents/domains/smart_contracts_core/contracts/ReverseRegistrar.sol",
  "compiler": {
    "name": "solc",
    "version": "0.8.4+commit.c7e474f2.Emscripten.clang"
  },
  "schemaVersion": "3.4.3",
  "updatedAt": "2023-10-10T04:30:26.094Z",
  "devdoc": {
    "kind": "dev",
    "methods": {
      "claim(address)": {
        "details": "Transfers ownership of the reverse ENS record associated with the      calling account.",
        "params": {
          "owner": "The address to set as the owner of the reverse record in ENS."
        },
        "returns": {
          "_0": "The ENS node hash of the reverse record."
        }
      },
      "claimForAddr(address,address)": {
        "details": "Transfers ownership of the reverse ENS record associated with the      calling account.",
        "params": {
          "addr": "The reverse record to set",
          "owner": "The address to set as the owner of the reverse record in ENS."
        },
        "returns": {
          "_0": "The ENS node hash of the reverse record."
        }
      },
      "claimWithResolver(address,address)": {
        "details": "Transfers ownership of the reverse ENS record associated with the      calling account.",
        "params": {
          "owner": "The address to set as the owner of the reverse record in ENS.",
          "resolver": "The address of the resolver to set; 0 to leave unchanged."
        },
        "returns": {
          "_0": "The ENS node hash of the reverse record."
        }
      },
      "claimWithResolverForAddr(address,address,address)": {
        "details": "Transfers ownership of the reverse ENS record specified with the      address provided",
        "params": {
          "addr": "The reverse record to set",
          "owner": "The address to set as the owner of the reverse record in ENS.",
          "resolver": "The address of the resolver to set; 0 to leave unchanged."
        },
        "returns": {
          "_0": "The ENS node hash of the reverse record."
        }
      },
      "constructor": {
        "details": "Constructor",
        "params": {
          "ensAddr": "The address of the ENS registry.",
          "resolverAddr": "The address of the default reverse resolver."
        }
      },
      "node(address)": {
        "details": "Returns the node hash for a given account's reverse records.",
        "params": {
          "addr": "The address to hash"
        },
        "returns": {
          "_0": "The ENS node hash."
        }
      },
      "owner()": {
        "details": "Returns the address of the current owner."
      },
      "renounceOwnership()": {
        "details": "Leaves the contract without owner. It will not be possible to call `onlyOwner` functions anymore. Can only be called by the current owner. NOTE: Renouncing ownership will leave the contract without an owner, thereby removing any functionality that is only available to the owner."
      },
      "setName(string)": {
        "details": "Sets the `name()` record for the reverse ENS record associated with the calling account. First updates the resolver to the default reverse resolver if necessary.",
        "params": {
          "_name": "The name to set for this address."
        },
        "returns": {
          "_0": "The ENS node hash of the reverse record."
        }
      },
      "setNameForAddr(address,address,string)": {
        "details": "Sets the `name()` record for the reverse ENS record associated with the account provided. First updates the resolver to the default reverse resolver if necessary. Only callable by controllers and authorised users",
        "params": {
          "addr": "The reverse record to set",
          "name": "The name to set for this address.",
          "owner": "The owner of the reverse node"
        },
        "returns": {
          "_0": "The ENS node hash of the reverse record."
        }
      },
      "transferOwnership(address)": {
        "details": "Transfers ownership of the contract to a new account (`newOwner`). Can only be called by the current owner."
      }
    },
    "version": 1
  },
  "userdoc": {
    "kind": "user",
    "methods": {},
    "version": 1
  }
}