{
  "contractName": "StablePriceOracle",
  "abi": [
    {
      "inputs": [
        {
          "internalType": "uint256[]",
          "name": "_rentPrices",
          "type": "uint256[]"
        }
      ],
      "stateMutability": "nonpayable",
      "type": "constructor"
    },
    {
      "anonymous": false,
      "inputs": [
        {
          "indexed": true,
          "internalType": "address",
          "name": "previousOwner",
          "type": "address"
        },
        {
          "indexed": true,
          "internalType": "address",
          "name": "newOwner",
          "type": "address"
        }
      ],
      "name": "OwnershipTransferred",
      "type": "event"
    },
    {
      "anonymous": false,
      "inputs": [
        {
          "indexed": false,
          "internalType": "uint256[]",
          "name": "prices",
          "type": "uint256[]"
        }
      ],
      "name": "RentPriceChanged",
      "type": "event"
    },
    {
      "inputs": [],
      "name": "owner",
      "outputs": [
        {
          "internalType": "address",
          "name": "",
          "type": "address"
        }
      ],
      "stateMutability": "view",
      "type": "function"
    },
    {
      "inputs": [],
      "name": "renounceOwnership",
      "outputs": [],
      "stateMutability": "nonpayable",
      "type": "function"
    },
    {
      "inputs": [
        {
          "internalType": "uint256",
          "name": "",
          "type": "uint256"
        }
      ],
      "name": "rentPrices",
      "outputs": [
        {
          "internalType": "uint256",
          "name": "",
          "type": "uint256"
        }
      ],
      "stateMutability": "view",
      "type": "function"
    },
    {
      "inputs": [
        {
          "internalType": "address",
          "name": "newOwner",
          "type": "address"
        }
      ],
      "name": "transferOwnership",
      "outputs": [],
      "stateMutability": "nonpayable",
      "type": "function"
    },
    {
      "inputs": [
        {
          "internalType": "string",
          "name": "name",
          "type": "string"
        },
        {
          "internalType": "uint256",
          "name": "expires",
          "type": "uint256"
        },
        {
          "internalType": "uint256",
          "name": "duration",
          "type": "uint256"
        }
      ],
      "name": "price",
      "outputs": [
        {
          "internalType": "uint256",
          "name": "",
          "type": "uint256"
        }
      ],
      "stateMutability": "view",
      "type": "function"
    },
    {
      "inputs": [
        {
          "internalType": "uint256[]",
          "name": "_rentPrices",
          "type": "uint256[]"
        }
      ],
      "name": "setPrices",
      "outputs": [],
      "stateMutability": "nonpayable",
      "type": "function"
    },
    {
      "inputs": [
        {
          "internalType": "bytes4",
          "name": "interfaceID",
          "type": "bytes4"
        }
      ],
      "name": "supportsInterface",
      "outputs": [
        {
          "internalType": "bool",
          "name": "",
          "type": "bool"
        }
      ],
      "stateMutability": "pure",
      "type": "function"
    }
  ],
  "bytecode": "0x60806040523480156200001157600080fd5b506040516200167638038062001676833981810160405281019062000037919062000372565b620000576200004b6200006f60201b60201c565b6200007760201b60201c565b62000068816200013b60201b60201c565b506200061e565b600033905090565b60008060009054906101000a900473ffffffffffffffffffffffffffffffffffffffff169050816000806101000a81548173ffffffffffffffffffffffffffffffffffffffff021916908373ffffffffffffffffffffffffffffffffffffffff1602179055508173ffffffffffffffffffffffffffffffffffffffff168173ffffffffffffffffffffffffffffffffffffffff167f8be0079c531659141344cd1fd0a4f28419497f9722a3daafe3b4186f6b6457e060405160405180910390a35050565b6200014b6200006f60201b60201c565b73ffffffffffffffffffffffffffffffffffffffff16620001716200021f60201b60201c565b73ffffffffffffffffffffffffffffffffffffffff1614620001ca576040517f08c379a0000000000000000000000000000000000000000000000000000000008152600401620001c19062000497565b60405180910390fd5b8060019080519060200190620001e292919062000248565b507f73422d94aedd596c2d4d39f27a01033adc390a9054efaf259afefd95ef7331df8160405162000214919062000473565b60405180910390a150565b60008060009054906101000a900473ffffffffffffffffffffffffffffffffffffffff16905090565b82805482825590600052602060002090810192821562000287579160200282015b828111156200028657825182559160200191906001019062000269565b5b5090506200029691906200029a565b5090565b5b80821115620002b55760008160009055506001016200029b565b5090565b6000620002d0620002ca84620004e2565b620004b9565b90508083825260208201905082856020860282011115620002f057600080fd5b60005b858110156200032457816200030988826200035b565b845260208401935060208301925050600181019050620002f3565b5050509392505050565b600082601f8301126200034057600080fd5b815162000352848260208601620002b9565b91505092915050565b6000815190506200036c8162000604565b92915050565b6000602082840312156200038557600080fd5b600082015167ffffffffffffffff811115620003a057600080fd5b620003ae848285016200032e565b91505092915050565b6000620003c5838362000462565b60208301905092915050565b6000620003de8262000521565b620003ea818562000539565b9350620003f78362000511565b8060005b838110156200042e578151620004128882620003b7565b97506200041f836200052c565b925050600181019050620003fb565b5085935050505092915050565b60006200044a6020836200054a565b91506200045782620005db565b602082019050919050565b6200046d816200055b565b82525050565b600060208201905081810360008301526200048f8184620003d1565b905092915050565b60006020820190508181036000830152620004b2816200043b565b9050919050565b6000620004c5620004d8565b9050620004d3828262000565565b919050565b6000604051905090565b600067ffffffffffffffff8211156200050057620004ff6200059b565b5b602082029050602081019050919050565b6000819050602082019050919050565b600081519050919050565b6000602082019050919050565b600082825260208201905092915050565b600082825260208201905092915050565b6000819050919050565b6200057082620005ca565b810181811067ffffffffffffffff821117156200059257620005916200059b565b5b80604052505050565b7f4e487b7100000000000000000000000000000000000000000000000000000000600052604160045260246000fd5b6000601f19601f8301169050919050565b7f4f776e61626c653a2063616c6c6572206973206e6f7420746865206f776e6572600082015250565b6200060f816200055b565b81146200061b57600080fd5b50565b611048806200062e6000396000f3fe608060405234801561001057600080fd5b506004361061007d5760003560e01c8063715018a61161005b578063715018a61461011257806379cf92d31461011c5780638da5cb5b14610138578063f2fde38b146101565761007d565b806301ffc9a71461008257806306d5d0b6146100b257806350e9a715146100e2575b600080fd5b61009c60048036038101906100979190610a6a565b610172565b6040516100a99190610c5d565b60405180910390f35b6100cc60048036038101906100c79190610aff565b610266565b6040516100d99190610cb8565b60405180910390f35b6100fc60048036038101906100f79190610a93565b61028a565b6040516101099190610cb8565b60405180910390f35b61011a61035a565b005b61013660048036038101906101319190610a29565b6103e2565b005b6101406104af565b60405161014d9190610c20565b60405180910390f35b610170600480360381019061016b9190610a00565b6104d8565b005b60007f01ffc9a7a5cef8baa21ed3c5c0d7e23accb804b619e9333b597f47a0d84076e27bffffffffffffffffffffffffffffffffffffffffffffffffffffffff1916827bffffffffffffffffffffffffffffffffffffffffffffffffffffffff1916148061025f57507fa34e3596c835a2bb0c76af3bc7896686f9d9abbb37ea27272246c0e9dab761c57f50e9a715a506f81ba3cfca69197fa8231c19274521697ca4e52316238d69d8a9187bffffffffffffffffffffffffffffffffffffffffffffffffffffffff1916827bffffffffffffffffffffffffffffffffffffffffffffffffffffffff1916145b9050919050565b6001818154811061027657600080fd5b906000526020600020016000915090505481565b6000806102da86868080601f016020809104026020016040519081016040528093929190818152602001838380828437600081840152601f19601f820116905080830192505050505050506105d0565b90506001805490508111156102f25760018054905090505b600081116102ff57600080fd5b6001808261030d9190610dc4565b81548110610344577f4e487b7100000000000000000000000000000000000000000000000000000000600052603260045260246000fd5b9060005260206000200154915050949350505050565b6103626107ab565b73ffffffffffffffffffffffffffffffffffffffff166103806104af565b73ffffffffffffffffffffffffffffffffffffffff16146103d6576040517f08c379a00000000000000000000000000000000000000000000000000000000081526004016103cd90610c98565b60405180910390fd5b6103e060006107b3565b565b6103ea6107ab565b73ffffffffffffffffffffffffffffffffffffffff166104086104af565b73ffffffffffffffffffffffffffffffffffffffff161461045e576040517f08c379a000000000000000000000000000000000000000000000000000000000815260040161045590610c98565b60405180910390fd5b8060019080519060200190610474929190610877565b507f73422d94aedd596c2d4d39f27a01033adc390a9054efaf259afefd95ef7331df816040516104a49190610c3b565b60405180910390a150565b60008060009054906101000a900473ffffffffffffffffffffffffffffffffffffffff16905090565b6104e06107ab565b73ffffffffffffffffffffffffffffffffffffffff166104fe6104af565b73ffffffffffffffffffffffffffffffffffffffff1614610554576040517f08c379a000000000000000000000000000000000000000000000000000000000815260040161054b90610c98565b60405180910390fd5b600073ffffffffffffffffffffffffffffffffffffffff168173ffffffffffffffffffffffffffffffffffffffff1614156105c4576040517f08c379a00000000000000000000000000000000000000000000000000000000081526004016105bb90610c78565b60405180910390fd5b6105cd816107b3565b50565b60008060008084519050600092505b808210156107a0576000858381518110610622577f4e487b7100000000000000000000000000000000000000000000000000000000600052603260045260246000fd5b602001015160f81c60f81b9050608060f81b817effffffffffffffffffffffffffffffffffffffffffffffffffffffffffffff191610156106715760018361066a9190610d6e565b925061078c565b60e060f81b817effffffffffffffffffffffffffffffffffffffffffffffffffffffffffffff191610156106b3576002836106ac9190610d6e565b925061078b565b60f060f81b817effffffffffffffffffffffffffffffffffffffffffffffffffffffffffffff191610156106f5576003836106ee9190610d6e565b925061078a565b60f8801b817effffffffffffffffffffffffffffffffffffffffffffffffffffffffffffff191610156107365760048361072f9190610d6e565b9250610789565b60fc60f81b817effffffffffffffffffffffffffffffffffffffffffffffffffffffffffffff19161015610778576005836107719190610d6e565b9250610788565b6006836107859190610d6e565b92505b5b5b5b5b50828061079890610e9d565b9350506105df565b829350505050919050565b600033905090565b60008060009054906101000a900473ffffffffffffffffffffffffffffffffffffffff169050816000806101000a81548173ffffffffffffffffffffffffffffffffffffffff021916908373ffffffffffffffffffffffffffffffffffffffff1602179055508173ffffffffffffffffffffffffffffffffffffffff168173ffffffffffffffffffffffffffffffffffffffff167f8be0079c531659141344cd1fd0a4f28419497f9722a3daafe3b4186f6b6457e060405160405180910390a35050565b8280548282559060005260206000209081019282156108b3579160200282015b828111156108b2578251825591602001919060010190610897565b5b5090506108c091906108c4565b5090565b5b808211156108dd5760008160009055506001016108c5565b5090565b60006108f46108ef84610cf8565b610cd3565b9050808382526020820190508285602086028201111561091357600080fd5b60005b85811015610943578161092988826109eb565b845260208401935060208301925050600181019050610916565b5050509392505050565b60008135905061095c81610fcd565b92915050565b600082601f83011261097357600080fd5b81356109838482602086016108e1565b91505092915050565b60008135905061099b81610fe4565b92915050565b60008083601f8401126109b357600080fd5b8235905067ffffffffffffffff8111156109cc57600080fd5b6020830191508360018202830111156109e457600080fd5b9250929050565b6000813590506109fa81610ffb565b92915050565b600060208284031215610a1257600080fd5b6000610a208482850161094d565b91505092915050565b600060208284031215610a3b57600080fd5b600082013567ffffffffffffffff811115610a5557600080fd5b610a6184828501610962565b91505092915050565b600060208284031215610a7c57600080fd5b6000610a8a8482850161098c565b91505092915050565b60008060008060608587031215610aa957600080fd5b600085013567ffffffffffffffff811115610ac357600080fd5b610acf878288016109a1565b94509450506020610ae2878288016109eb565b9250506040610af3878288016109eb565b91505092959194509250565b600060208284031215610b1157600080fd5b6000610b1f848285016109eb565b91505092915050565b6000610b348383610c02565b60208301905092915050565b610b4981610df8565b82525050565b6000610b5a82610d34565b610b648185610d4c565b9350610b6f83610d24565b8060005b83811015610ba0578151610b878882610b28565b9750610b9283610d3f565b925050600181019050610b73565b5085935050505092915050565b610bb681610e0a565b82525050565b6000610bc9602683610d5d565b9150610bd482610f55565b604082019050919050565b6000610bec602083610d5d565b9150610bf782610fa4565b602082019050919050565b610c0b81610e62565b82525050565b610c1a81610e62565b82525050565b6000602082019050610c356000830184610b40565b92915050565b60006020820190508181036000830152610c558184610b4f565b905092915050565b6000602082019050610c726000830184610bad565b92915050565b60006020820190508181036000830152610c9181610bbc565b9050919050565b60006020820190508181036000830152610cb181610bdf565b9050919050565b6000602082019050610ccd6000830184610c11565b92915050565b6000610cdd610cee565b9050610ce98282610e6c565b919050565b6000604051905090565b600067ffffffffffffffff821115610d1357610d12610f15565b5b602082029050602081019050919050565b6000819050602082019050919050565b600081519050919050565b6000602082019050919050565b600082825260208201905092915050565b600082825260208201905092915050565b6000610d7982610e62565b9150610d8483610e62565b9250827fffffffffffffffffffffffffffffffffffffffffffffffffffffffffffffffff03821115610db957610db8610ee6565b5b828201905092915050565b6000610dcf82610e62565b9150610dda83610e62565b925082821015610ded57610dec610ee6565b5b828203905092915050565b6000610e0382610e42565b9050919050565b60008115159050919050565b60007fffffffff0000000000000000000000000000000000000000000000000000000082169050919050565b600073ffffffffffffffffffffffffffffffffffffffff82169050919050565b6000819050919050565b610e7582610f44565b810181811067ffffffffffffffff82111715610e9457610e93610f15565b5b80604052505050565b6000610ea882610e62565b91507fffffffffffffffffffffffffffffffffffffffffffffffffffffffffffffffff821415610edb57610eda610ee6565b5b600182019050919050565b7f4e487b7100000000000000000000000000000000000000000000000000000000600052601160045260246000fd5b7f4e487b7100000000000000000000000000000000000000000000000000000000600052604160045260246000fd5b6000601f19601f8301169050919050565b7f4f776e61626c653a206e6577206f776e657220697320746865207a65726f206160008201527f6464726573730000000000000000000000000000000000000000000000000000602082015250565b7f4f776e61626c653a2063616c6c6572206973206e6f7420746865206f776e6572600082015250565b610fd681610df8565b8114610fe157600080fd5b50565b610fed81610e16565b8114610ff857600080fd5b50565b61100481610e62565b811461100f57600080fd5b5056fea2646970667358221220eb786e55d478322fcaf8a9f994c076a1810f47acf58daca9b3373cc05160f72764736f6c63430008040033",
  "immutableReferences": {},
  "source": "// SPDX-License-Identifier: UNLICENSED\r\npragma solidity ^0.8.0;\r\n\r\nimport \"@ensdomains/ens-contracts/contracts/ethregistrar/PriceOracle.sol\";\r\nimport \"@ensdomains/ens-contracts/contracts/ethregistrar/SafeMath.sol\";\r\nimport \"@ensdomains/ens-contracts/contracts/ethregistrar/StringUtils.sol\";\r\nimport \"@openzeppelin/contracts/access/Ownable.sol\";\r\n\r\ninterface AggregatorInterface {\r\n    function latestAnswer() external view returns (int256);\r\n}\r\n\r\n\r\n// StablePriceOracle sets a price in tfuelWei per seconds based on domain length\r\ncontract StablePriceOracle is Ownable, PriceOracle {\r\n    using SafeMath for *;\r\n    using StringUtils for *;\r\n\r\n    // Rent in base price per day by length. Element 0 is for 1-length names, and so on.\r\n    uint[] public rentPrices;\r\n\r\n    event RentPriceChanged(uint[] prices);\r\n\r\n    bytes4 constant private INTERFACE_META_ID = bytes4(keccak256(\"supportsInterface(bytes4)\"));\r\n    bytes4 constant private ORACLE_ID = bytes4(keccak256(\"price(string,uint256,uint256)\") ^ keccak256(\"premium(string,uint256,uint256)\"));\r\n\r\n    constructor(uint[] memory _rentPrices) public {\r\n        setPrices(_rentPrices);\r\n    }\r\n\r\n    function price(string calldata name, uint expires, uint duration) external view override returns (uint) {\r\n        uint len = name.strlen();\r\n        if (len > rentPrices.length) {\r\n            len = rentPrices.length;\r\n        }\r\n        require(len > 0);\r\n        return rentPrices[len - 1];\r\n    }\r\n\r\n    /**\r\n     * @dev Sets rent prices.\r\n     * @param _rentPrices The price array. Each element corresponds to a specific\r\n     *                    name length; names longer than the length of the array\r\n     *                    default to the price of the last element. Values are\r\n     *                    in tfuelWei per seconds.\r\n     */\r\n    function setPrices(uint[] memory _rentPrices) public onlyOwner {\r\n        rentPrices = _rentPrices;\r\n        emit RentPriceChanged(_rentPrices);\r\n    }\r\n\r\n\r\n    function supportsInterface(bytes4 interfaceID) public pure returns (bool) {\r\n        return interfaceID == INTERFACE_META_ID || interfaceID == ORACLE_ID;\r\n    }\r\n}",
  "sourcePath": "D:\\Posao-Stefan\\Stefan-razno\\Blockchain\\Thetaboard\\core-contracts\\contracts\\StablePriceOracle.sol",
  "compiler": {
    "name": "solc",
    "version": "0.8.4+commit.c7e474f2.Emscripten.clang"
  },
  "schemaVersion": "3.4.3",
  "updatedAt": "2021-09-08T10:18:29.618Z",
  "devdoc": {
    "kind": "dev",
    "methods": {
      "owner()": {
        "details": "Returns the address of the current owner."
      },
      "price(string,uint256,uint256)": {
        "details": "Returns the price to register or renew a name.",
        "params": {
          "duration": "How long the name is being registered or extended for, in seconds.",
          "expires": "When the name presently expires (0 if this is a new registration).",
          "name": "The name being registered or renewed."
        },
        "returns": {
          "_0": "The price of this renewal or registration, in wei."
        }
      },
      "renounceOwnership()": {
        "details": "Leaves the contract without owner. It will not be possible to call `onlyOwner` functions anymore. Can only be called by the current owner. NOTE: Renouncing ownership will leave the contract without an owner, thereby removing any functionality that is only available to the owner."
      },
      "setPrices(uint256[])": {
        "details": "Sets rent prices.",
        "params": {
          "_rentPrices": "The price array. Each element corresponds to a specific                    name length; names longer than the length of the array                    default to the price of the last element. Values are                    in tfuelWei per seconds."
        }
      },
      "transferOwnership(address)": {
        "details": "Transfers ownership of the contract to a new account (`newOwner`). Can only be called by the current owner."
      }
    },
    "version": 1
  },
  "userdoc": {
    "kind": "user",
    "methods": {},
    "version": 1
  }
}