{
  "contractName": "TfuelPriceOracle",
  "abi": [
    {
      "inputs": [
        {
          "internalType": "uint256[]",
          "name": "_rentPrices",
          "type": "uint256[]"
        }
      ],
      "stateMutability": "nonpayable",
      "type": "constructor"
    },
    {
      "anonymous": false,
      "inputs": [
        {
          "indexed": true,
          "internalType": "address",
          "name": "previousOwner",
          "type": "address"
        },
        {
          "indexed": true,
          "internalType": "address",
          "name": "newOwner",
          "type": "address"
        }
      ],
      "name": "OwnershipTransferred",
      "type": "event"
    },
    {
      "anonymous": false,
      "inputs": [
        {
          "indexed": false,
          "internalType": "uint256[]",
          "name": "prices",
          "type": "uint256[]"
        }
      ],
      "name": "RentPriceChanged",
      "type": "event"
    },
    {
      "inputs": [],
      "name": "owner",
      "outputs": [
        {
          "internalType": "address",
          "name": "",
          "type": "address"
        }
      ],
      "stateMutability": "view",
      "type": "function"
    },
    {
      "inputs": [],
      "name": "renounceOwnership",
      "outputs": [],
      "stateMutability": "nonpayable",
      "type": "function"
    },
    {
      "inputs": [
        {
          "internalType": "uint256",
          "name": "",
          "type": "uint256"
        }
      ],
      "name": "rentPrices",
      "outputs": [
        {
          "internalType": "uint256",
          "name": "",
          "type": "uint256"
        }
      ],
      "stateMutability": "view",
      "type": "function"
    },
    {
      "inputs": [
        {
          "internalType": "address",
          "name": "newOwner",
          "type": "address"
        }
      ],
      "name": "transferOwnership",
      "outputs": [],
      "stateMutability": "nonpayable",
      "type": "function"
    },
    {
      "inputs": [
        {
          "internalType": "string",
          "name": "name",
          "type": "string"
        },
        {
          "internalType": "uint256",
          "name": "expires",
          "type": "uint256"
        },
        {
          "internalType": "uint256",
          "name": "duration",
          "type": "uint256"
        }
      ],
      "name": "price",
      "outputs": [
        {
          "internalType": "uint256",
          "name": "",
          "type": "uint256"
        }
      ],
      "stateMutability": "view",
      "type": "function"
    },
    {
      "inputs": [
        {
          "internalType": "uint256[]",
          "name": "_rentPrices",
          "type": "uint256[]"
        }
      ],
      "name": "setPrices",
      "outputs": [],
      "stateMutability": "nonpayable",
      "type": "function"
    },
    {
      "inputs": [
        {
          "internalType": "bytes4",
          "name": "interfaceID",
          "type": "bytes4"
        }
      ],
      "name": "supportsInterface",
      "outputs": [
        {
          "internalType": "bool",
          "name": "",
          "type": "bool"
        }
      ],
      "stateMutability": "pure",
      "type": "function"
    }
  ],
  "bytecode": "0x60806040523480156200001157600080fd5b5060405162000b2538038062000b258339810160408190526200003491620001d3565b6200003f3362000051565b6200004a81620000a1565b5062000313565b600080546001600160a01b038381166001600160a01b0319831681178455604051919092169283917f8be0079c531659141344cd1fd0a4f28419497f9722a3daafe3b4186f6b6457e09190a35050565b6000546001600160a01b031633146200011a576040517f08c379a000000000000000000000000000000000000000000000000000000000815260206004820181905260248201527f4f776e61626c653a2063616c6c6572206973206e6f7420746865206f776e6572604482015260640160405180910390fd5b80516200012f9060019060208401906200016c565b507f73422d94aedd596c2d4d39f27a01033adc390a9054efaf259afefd95ef7331df816040516200016191906200029e565b60405180910390a150565b828054828255906000526020600020908101928215620001aa579160200282015b82811115620001aa5782518255916020019190600101906200018d565b50620001b8929150620001bc565b5090565b5b80821115620001b85760008155600101620001bd565b60006020808385031215620001e6578182fd5b82516001600160401b0380821115620001fd578384fd5b818501915085601f83011262000211578384fd5b815181811115620002265762000226620002e4565b8060051b604051601f19603f830116810181811085821117156200024e576200024e620002e4565b604052828152858101935084860182860187018a10156200026d578788fd5b8795505b838610156200029157805185526001959095019493860193860162000271565b5098975050505050505050565b6020808252825182820181905260009190848201906040850190845b81811015620002d857835183529284019291840191600101620002ba565b50909695505050505050565b7f4e487b7100000000000000000000000000000000000000000000000000000000600052604160045260246000fd5b61080280620003236000396000f3fe608060405234801561001057600080fd5b506004361061007d5760003560e01c8063715018a61161005b578063715018a6146100de57806379cf92d3146100e85780638da5cb5b146100fb578063f2fde38b1461011657600080fd5b806301ffc9a71461008257806306d5d0b6146100aa57806350e9a715146100cb575b600080fd5b610095610090366004610623565b610129565b60405190151581526020015b60405180910390f35b6100bd6100b83660046106c5565b610160565b6040519081526020016100a1565b6100bd6100d936600461064b565b610181565b6100e6610222565b005b6100e66100f6366004610563565b610261565b6000546040516001600160a01b0390911681526020016100a1565b6100e6610124366004610535565b6102d9565b60006001600160e01b031982166301ffc9a760e01b148061015a57506001600160e01b0319821663f3a7928360e01b145b92915050565b6001818154811061017057600080fd5b600091825260209091200154905081565b6000806101c386868080601f01602080910402602001604051908101604052809392919081815260200183838082843760009201919091525061037492505050565b6001549091508111156101d557506001545b600081116101e257600080fd5b60016101ee818361076e565b8154811061020c57634e487b7160e01b600052603260045260246000fd5b9060005260206000200154915050949350505050565b6000546001600160a01b031633146102555760405162461bcd60e51b815260040161024c90610721565b60405180910390fd5b61025f6000610485565b565b6000546001600160a01b0316331461028b5760405162461bcd60e51b815260040161024c90610721565b805161029e9060019060208401906104d5565b507f73422d94aedd596c2d4d39f27a01033adc390a9054efaf259afefd95ef7331df816040516102ce91906106dd565b60405180910390a150565b6000546001600160a01b031633146103035760405162461bcd60e51b815260040161024c90610721565b6001600160a01b0381166103685760405162461bcd60e51b815260206004820152602660248201527f4f776e61626c653a206e6577206f776e657220697320746865207a65726f206160448201526564647265737360d01b606482015260840161024c565b61037181610485565b50565b8051600090819081905b8082101561047c5760008583815181106103a857634e487b7160e01b600052603260045260246000fd5b01602001516001600160f81b0319169050600160ff1b8110156103d7576103d0600184610756565b9250610469565b600760fd1b6001600160f81b0319821610156103f8576103d0600284610756565b600f60fc1b6001600160f81b031982161015610419576103d0600384610756565b601f60fb1b6001600160f81b03198216101561043a576103d0600484610756565b603f60fa1b6001600160f81b03198216101561045b576103d0600584610756565b610466600684610756565b92505b508261047481610785565b93505061037e565b50909392505050565b600080546001600160a01b038381166001600160a01b0319831681178455604051919092169283917f8be0079c531659141344cd1fd0a4f28419497f9722a3daafe3b4186f6b6457e09190a35050565b828054828255906000526020600020908101928215610510579160200282015b828111156105105782518255916020019190600101906104f5565b5061051c929150610520565b5090565b5b8082111561051c5760008155600101610521565b600060208284031215610546578081fd5b81356001600160a01b038116811461055c578182fd5b9392505050565b60006020808385031215610575578182fd5b823567ffffffffffffffff8082111561058c578384fd5b818501915085601f83011261059f578384fd5b8135818111156105b1576105b16107b6565b8060051b604051601f19603f830116810181811085821117156105d6576105d66107b6565b604052828152858101935084860182860187018a10156105f4578788fd5b8795505b838610156106165780358552600195909501949386019386016105f8565b5098975050505050505050565b600060208284031215610634578081fd5b81356001600160e01b03198116811461055c578182fd5b60008060008060608587031215610660578283fd5b843567ffffffffffffffff80821115610677578485fd5b818701915087601f83011261068a578485fd5b813581811115610698578586fd5b8860208285010111156106a9578586fd5b6020928301999098509187013596604001359550909350505050565b6000602082840312156106d6578081fd5b5035919050565b6020808252825182820181905260009190848201906040850190845b81811015610715578351835292840192918401916001016106f9565b50909695505050505050565b6020808252818101527f4f776e61626c653a2063616c6c6572206973206e6f7420746865206f776e6572604082015260600190565b60008219821115610769576107696107a0565b500190565b600082821015610780576107806107a0565b500390565b6000600019821415610799576107996107a0565b5060010190565b634e487b7160e01b600052601160045260246000fd5b634e487b7160e01b600052604160045260246000fdfea2646970667358221220ba50939ed9ab4726dd893534382500c350183bacd525bbe19efb7ea31ea2c06764736f6c63430008040033",
  "immutableReferences": {},
  "source": "// SPDX-License-Identifier: UNLICENSED\r\npragma solidity ^0.8.0;\r\n\r\nimport \"@ensdomains/ens-contracts/contracts/ethregistrar/PriceOracle.sol\";\r\nimport \"@ensdomains/ens-contracts/contracts/ethregistrar/SafeMath.sol\";\r\nimport \"@ensdomains/ens-contracts/contracts/ethregistrar/StringUtils.sol\";\r\nimport \"@openzeppelin/contracts/access/Ownable.sol\";\r\n\r\ninterface AggregatorInterface {\r\n    function latestAnswer() external view returns (int256);\r\n}\r\n\r\n// TfuelPriceOracle sets a price in tfuelWei per seconds based on domain length\r\ncontract TfuelPriceOracle is Ownable, PriceOracle {\r\n    using SafeMath for *;\r\n    using StringUtils for *;\r\n\r\n    // Rent in base price per day by length. Element 0 is for 1-length names, and so on.\r\n    uint[] public rentPrices;\r\n\r\n    event RentPriceChanged(uint[] prices);\r\n\r\n    bytes4 constant private INTERFACE_META_ID = bytes4(keccak256(\"supportsInterface(bytes4)\"));\r\n    bytes4 constant private ORACLE_ID = bytes4(keccak256(\"price(string,uint256,uint256)\") ^ keccak256(\"premium(string,uint256,uint256)\"));\r\n\r\n    constructor(uint[] memory _rentPrices) {\r\n        setPrices(_rentPrices);\r\n    }\r\n\r\n    function price(string calldata name, uint expires, uint duration) external view override returns (uint) {\r\n        uint len = name.strlen();\r\n        if (len > rentPrices.length) {\r\n            len = rentPrices.length;\r\n        }\r\n        require(len > 0);\r\n        return rentPrices[len - 1];\r\n    }\r\n    \r\n    /**\r\n     * @dev Sets rent prices.\r\n     * @param _rentPrices The price array. Each element corresponds to a specific\r\n     *                    name length; names longer than the length of the array\r\n     *                    default to the price of the last element. Values are\r\n     *                    in tfuelWei per seconds.\r\n     */\r\n    function setPrices(uint[] memory _rentPrices) public onlyOwner {\r\n        rentPrices = _rentPrices;\r\n        emit RentPriceChanged(_rentPrices);\r\n    }\r\n\r\n\r\n    function supportsInterface(bytes4 interfaceID) public pure returns (bool) {\r\n        return interfaceID == INTERFACE_META_ID || interfaceID == ORACLE_ID;\r\n    }\r\n}",
  "sourcePath": "D:\\Posao-Stefan\\Stefan-razno\\Blockchain\\Thetaboard\\core-contracts\\contracts\\TfuelPriceOracle.sol",
  "compiler": {
    "name": "solc",
    "version": "0.8.4+commit.c7e474f2.Emscripten.clang"
  },
  "schemaVersion": "3.4.3",
  "updatedAt": "2021-09-16T14:25:27.055Z",
  "devdoc": {
    "kind": "dev",
    "methods": {
      "owner()": {
        "details": "Returns the address of the current owner."
      },
      "price(string,uint256,uint256)": {
        "details": "Returns the price to register or renew a name.",
        "params": {
          "duration": "How long the name is being registered or extended for, in seconds.",
          "expires": "When the name presently expires (0 if this is a new registration).",
          "name": "The name being registered or renewed."
        },
        "returns": {
          "_0": "The price of this renewal or registration, in wei."
        }
      },
      "renounceOwnership()": {
        "details": "Leaves the contract without owner. It will not be possible to call `onlyOwner` functions anymore. Can only be called by the current owner. NOTE: Renouncing ownership will leave the contract without an owner, thereby removing any functionality that is only available to the owner."
      },
      "setPrices(uint256[])": {
        "details": "Sets rent prices.",
        "params": {
          "_rentPrices": "The price array. Each element corresponds to a specific                    name length; names longer than the length of the array                    default to the price of the last element. Values are                    in tfuelWei per seconds."
        }
      },
      "transferOwnership(address)": {
        "details": "Transfers ownership of the contract to a new account (`newOwner`). Can only be called by the current owner."
      }
    },
    "version": 1
  },
  "userdoc": {
    "kind": "user",
    "methods": {},
    "version": 1
  }
}