{
  "contractName": "TfuelPriceOracle",
  "abi": [
    {
      "inputs": [
        {
          "internalType": "uint256[]",
          "name": "_rentPrices",
          "type": "uint256[]"
        }
      ],
      "stateMutability": "nonpayable",
      "type": "constructor"
    },
    {
      "anonymous": false,
      "inputs": [
        {
          "indexed": true,
          "internalType": "address",
          "name": "previousOwner",
          "type": "address"
        },
        {
          "indexed": true,
          "internalType": "address",
          "name": "newOwner",
          "type": "address"
        }
      ],
      "name": "OwnershipTransferred",
      "type": "event"
    },
    {
      "anonymous": false,
      "inputs": [
        {
          "indexed": false,
          "internalType": "uint256[]",
          "name": "prices",
          "type": "uint256[]"
        }
      ],
      "name": "RentPriceChanged",
      "type": "event"
    },
    {
      "inputs": [],
      "name": "owner",
      "outputs": [
        {
          "internalType": "address",
          "name": "",
          "type": "address"
        }
      ],
      "stateMutability": "view",
      "type": "function",
      "constant": true
    },
    {
      "inputs": [],
      "name": "renounceOwnership",
      "outputs": [],
      "stateMutability": "nonpayable",
      "type": "function"
    },
    {
      "inputs": [
        {
          "internalType": "uint256",
          "name": "",
          "type": "uint256"
        }
      ],
      "name": "rentPrices",
      "outputs": [
        {
          "internalType": "uint256",
          "name": "",
          "type": "uint256"
        }
      ],
      "stateMutability": "view",
      "type": "function",
      "constant": true
    },
    {
      "inputs": [
        {
          "internalType": "address",
          "name": "newOwner",
          "type": "address"
        }
      ],
      "name": "transferOwnership",
      "outputs": [],
      "stateMutability": "nonpayable",
      "type": "function"
    },
    {
      "inputs": [
        {
          "internalType": "string",
          "name": "name",
          "type": "string"
        }
      ],
      "name": "price",
      "outputs": [
        {
          "internalType": "uint256",
          "name": "",
          "type": "uint256"
        }
      ],
      "stateMutability": "view",
      "type": "function",
      "constant": true
    },
    {
      "inputs": [
        {
          "internalType": "uint256[]",
          "name": "_rentPrices",
          "type": "uint256[]"
        }
      ],
      "name": "setPrices",
      "outputs": [],
      "stateMutability": "nonpayable",
      "type": "function"
    },
    {
      "inputs": [
        {
          "internalType": "bytes4",
          "name": "interfaceID",
          "type": "bytes4"
        }
      ],
      "name": "supportsInterface",
      "outputs": [
        {
          "internalType": "bool",
          "name": "",
          "type": "bool"
        }
      ],
      "stateMutability": "pure",
      "type": "function",
      "constant": true
    }
  ],
  "bytecode": "0x60806040523480156200001157600080fd5b5060405162000b1638038062000b168339810160408190526200003491620001d3565b6200003f3362000051565b6200004a81620000a1565b5062000313565b600080546001600160a01b038381166001600160a01b0319831681178455604051919092169283917f8be0079c531659141344cd1fd0a4f28419497f9722a3daafe3b4186f6b6457e09190a35050565b6000546001600160a01b031633146200011a576040517f08c379a000000000000000000000000000000000000000000000000000000000815260206004820181905260248201527f4f776e61626c653a2063616c6c6572206973206e6f7420746865206f776e6572604482015260640160405180910390fd5b80516200012f9060019060208401906200016c565b507f73422d94aedd596c2d4d39f27a01033adc390a9054efaf259afefd95ef7331df816040516200016191906200029e565b60405180910390a150565b828054828255906000526020600020908101928215620001aa579160200282015b82811115620001aa5782518255916020019190600101906200018d565b50620001b8929150620001bc565b5090565b5b80821115620001b85760008155600101620001bd565b60006020808385031215620001e6578182fd5b82516001600160401b0380821115620001fd578384fd5b818501915085601f83011262000211578384fd5b815181811115620002265762000226620002e4565b8060051b604051601f19603f830116810181811085821117156200024e576200024e620002e4565b604052828152858101935084860182860187018a10156200026d578788fd5b8795505b838610156200029157805185526001959095019493860193860162000271565b5098975050505050505050565b6020808252825182820181905260009190848201906040850190845b81811015620002d857835183529284019291840191600101620002ba565b50909695505050505050565b7f4e487b7100000000000000000000000000000000000000000000000000000000600052604160045260246000fd5b6107f380620003236000396000f3fe608060405234801561001057600080fd5b506004361061007d5760003560e01c806379cf92d31161005b57806379cf92d3146100d55780638da5cb5b146100e8578063f2fde38b14610103578063fe2c61981461011657600080fd5b806301ffc9a71461008257806306d5d0b6146100aa578063715018a6146100cb575b600080fd5b610095610090366004610621565b610129565b60405190151581526020015b60405180910390f35b6100bd6100b83660046106b6565b610160565b6040519081526020016100a1565b6100d3610181565b005b6100d36100e3366004610561565b6101c0565b6000546040516001600160a01b0390911681526020016100a1565b6100d3610111366004610533565b610238565b6100bd610124366004610649565b6102d3565b60006001600160e01b031982166301ffc9a760e01b148061015a57506001600160e01b0319821663f3a7928360e01b145b92915050565b6001818154811061017057600080fd5b600091825260209091200154905081565b6000546001600160a01b031633146101b45760405162461bcd60e51b81526004016101ab90610712565b60405180910390fd5b6101be6000610372565b565b6000546001600160a01b031633146101ea5760405162461bcd60e51b81526004016101ab90610712565b80516101fd9060019060208401906104d3565b507f73422d94aedd596c2d4d39f27a01033adc390a9054efaf259afefd95ef7331df8160405161022d91906106ce565b60405180910390a150565b6000546001600160a01b031633146102625760405162461bcd60e51b81526004016101ab90610712565b6001600160a01b0381166102c75760405162461bcd60e51b815260206004820152602660248201527f4f776e61626c653a206e6577206f776e657220697320746865207a65726f206160448201526564647265737360d01b60648201526084016101ab565b6102d081610372565b50565b60008061031584848080601f0160208091040260200160405190810160405280939291908181526020018383808284376000920191909152506103c292505050565b60015490915081111561032757506001545b6000811161033457600080fd5b6001610340818361075f565b8154811061035e57634e487b7160e01b600052603260045260246000fd5b906000526020600020015491505092915050565b600080546001600160a01b038381166001600160a01b0319831681178455604051919092169283917f8be0079c531659141344cd1fd0a4f28419497f9722a3daafe3b4186f6b6457e09190a35050565b8051600090819081905b808210156104ca5760008583815181106103f657634e487b7160e01b600052603260045260246000fd5b01602001516001600160f81b0319169050600160ff1b8110156104255761041e600184610747565b92506104b7565b600760fd1b6001600160f81b0319821610156104465761041e600284610747565b600f60fc1b6001600160f81b0319821610156104675761041e600384610747565b601f60fb1b6001600160f81b0319821610156104885761041e600484610747565b603f60fa1b6001600160f81b0319821610156104a95761041e600584610747565b6104b4600684610747565b92505b50826104c281610776565b9350506103cc565b50909392505050565b82805482825590600052602060002090810192821561050e579160200282015b8281111561050e5782518255916020019190600101906104f3565b5061051a92915061051e565b5090565b5b8082111561051a576000815560010161051f565b600060208284031215610544578081fd5b81356001600160a01b038116811461055a578182fd5b9392505050565b60006020808385031215610573578182fd5b823567ffffffffffffffff8082111561058a578384fd5b818501915085601f83011261059d578384fd5b8135818111156105af576105af6107a7565b8060051b604051601f19603f830116810181811085821117156105d4576105d46107a7565b604052828152858101935084860182860187018a10156105f2578788fd5b8795505b838610156106145780358552600195909501949386019386016105f6565b5098975050505050505050565b600060208284031215610632578081fd5b81356001600160e01b03198116811461055a578182fd5b6000806020838503121561065b578081fd5b823567ffffffffffffffff80821115610672578283fd5b818501915085601f830112610685578283fd5b813581811115610693578384fd5b8660208285010111156106a4578384fd5b60209290920196919550909350505050565b6000602082840312156106c7578081fd5b5035919050565b6020808252825182820181905260009190848201906040850190845b81811015610706578351835292840192918401916001016106ea565b50909695505050505050565b6020808252818101527f4f776e61626c653a2063616c6c6572206973206e6f7420746865206f776e6572604082015260600190565b6000821982111561075a5761075a610791565b500190565b60008282101561077157610771610791565b500390565b600060001982141561078a5761078a610791565b5060010190565b634e487b7160e01b600052601160045260246000fd5b634e487b7160e01b600052604160045260246000fdfea26469706673582212204254105d6b8853846ba31a004eea63216d41be8e16d214229fc3f6442391540764736f6c63430008040033",
  "immutableReferences": {},
  "source": "// SPDX-License-Identifier: MIT\r\npragma solidity ^0.8.0;\r\n\r\nimport \"@ensdomains/ens-contracts/contracts/ethregistrar/StringUtils.sol\";\r\nimport \"@openzeppelin/contracts/access/Ownable.sol\";\r\nimport \"./interfaces/PriceOracle.sol\";\r\n\r\ninterface AggregatorInterface {\r\n    function latestAnswer() external view returns (int256);\r\n}\r\n\r\n// TfuelPriceOracle sets a price in tfuelWei per seconds based on domain length\r\ncontract TfuelPriceOracle is Ownable, PriceOracle {\r\n    using StringUtils for *;\r\n\r\n    // Rent in base price per day by length. Element 0 is for 1-length names, and so on.\r\n    uint[] public rentPrices;\r\n\r\n    event RentPriceChanged(uint[] prices);\r\n\r\n    bytes4 constant private INTERFACE_META_ID = bytes4(keccak256(\"supportsInterface(bytes4)\"));\r\n    bytes4 constant private ORACLE_ID = bytes4(keccak256(\"price(string,uint256,uint256)\") ^ keccak256(\"premium(string,uint256,uint256)\"));\r\n\r\n    constructor(uint[] memory _rentPrices) {\r\n        setPrices(_rentPrices);\r\n    }\r\n\r\n    function price(string calldata name) external view override returns (uint) {\r\n        uint len = name.strlen();\r\n        if (len > rentPrices.length) {\r\n            len = rentPrices.length;\r\n        }\r\n        require(len > 0);\r\n        return rentPrices[len - 1];\r\n    }\r\n    \r\n    /**\r\n     * @dev Sets rent prices.\r\n     * @param _rentPrices The price array. Each element corresponds to a specific\r\n     *                    name length; names longer than the length of the array\r\n     *                    default to the price of the last element. Values are\r\n     *                    in tfuelWei per seconds.\r\n     */\r\n    function setPrices(uint[] memory _rentPrices) public onlyOwner {\r\n        rentPrices = _rentPrices;\r\n        emit RentPriceChanged(_rentPrices);\r\n    }\r\n\r\n\r\n    function supportsInterface(bytes4 interfaceID) public pure returns (bool) {\r\n        return interfaceID == INTERFACE_META_ID || interfaceID == ORACLE_ID;\r\n    }\r\n}",
  "sourcePath": "/Users/adrienvinches/Documents/domains/smart_contracts_core/contracts/TfuelPriceOracle.sol",
  "compiler": {
    "name": "solc",
    "version": "0.8.4+commit.c7e474f2.Emscripten.clang"
  },
  "schemaVersion": "3.4.3",
  "updatedAt": "2023-09-24T05:50:31.653Z",
  "networkType": "ethereum",
  "devdoc": {
    "kind": "dev",
    "methods": {
      "owner()": {
        "details": "Returns the address of the current owner."
      },
      "price(string)": {
        "details": "Returns the price to register or renew a name.",
        "params": {
          "name": "The name being registered or renewed."
        },
        "returns": {
          "_0": "The price of this renewal or registration, in wei."
        }
      },
      "renounceOwnership()": {
        "details": "Leaves the contract without owner. It will not be possible to call `onlyOwner` functions anymore. Can only be called by the current owner. NOTE: Renouncing ownership will leave the contract without an owner, thereby removing any functionality that is only available to the owner."
      },
      "setPrices(uint256[])": {
        "details": "Sets rent prices.",
        "params": {
          "_rentPrices": "The price array. Each element corresponds to a specific                    name length; names longer than the length of the array                    default to the price of the last element. Values are                    in tfuelWei per seconds."
        }
      },
      "transferOwnership(address)": {
        "details": "Transfers ownership of the contract to a new account (`newOwner`). Can only be called by the current owner."
      }
    },
    "version": 1
  },
  "userdoc": {
    "kind": "user",
    "methods": {},
    "version": 1
  }
}