{
  "contractName": "VendingMachine",
  "abi": [
    {
      "inputs": [],
      "stateMutability": "nonpayable",
      "type": "constructor"
    },
    {
      "inputs": [
        {
          "internalType": "address",
          "name": "",
          "type": "address"
        }
      ],
      "name": "cupcakeBalances",
      "outputs": [
        {
          "internalType": "uint256",
          "name": "",
          "type": "uint256"
        }
      ],
      "stateMutability": "view",
      "type": "function",
      "constant": true
    },
    {
      "inputs": [],
      "name": "owner",
      "outputs": [
        {
          "internalType": "address",
          "name": "",
          "type": "address"
        }
      ],
      "stateMutability": "view",
      "type": "function",
      "constant": true
    },
    {
      "inputs": [
        {
          "internalType": "uint256",
          "name": "amount",
          "type": "uint256"
        }
      ],
      "name": "refill",
      "outputs": [],
      "stateMutability": "nonpayable",
      "type": "function"
    },
    {
      "inputs": [
        {
          "internalType": "uint256",
          "name": "amount",
          "type": "uint256"
        }
      ],
      "name": "purchase",
      "outputs": [],
      "stateMutability": "payable",
      "type": "function",
      "payable": true
    }
  ],
  "bytecode": "0x608060405234801561001057600080fd5b50336000806101000a81548173ffffffffffffffffffffffffffffffffffffffff021916908373ffffffffffffffffffffffffffffffffffffffff1602179055506064600160003073ffffffffffffffffffffffffffffffffffffffff1673ffffffffffffffffffffffffffffffffffffffff168152602001908152602001600020819055506104cb806100a56000396000f3fe60806040526004361061003f5760003560e01c80638da5cb5b14610044578063ca9d07ba14610085578063e18a7b92146100c0578063efef39a114610125575b600080fd5b34801561005057600080fd5b50610059610153565b604051808273ffffffffffffffffffffffffffffffffffffffff16815260200191505060405180910390f35b34801561009157600080fd5b506100be600480360360208110156100a857600080fd5b8101908080359060200190929190505050610177565b005b3480156100cc57600080fd5b5061010f600480360360208110156100e357600080fd5b81019080803573ffffffffffffffffffffffffffffffffffffffff169060200190929190505050610288565b6040518082815260200191505060405180910390f35b6101516004803603602081101561013b57600080fd5b81019080803590602001909291905050506102a0565b005b60008054906101000a900473ffffffffffffffffffffffffffffffffffffffff1681565b60008054906101000a900473ffffffffffffffffffffffffffffffffffffffff1673ffffffffffffffffffffffffffffffffffffffff163373ffffffffffffffffffffffffffffffffffffffff1614610238576040517f08c379a000000000000000000000000000000000000000000000000000000000815260040180806020018281038252601a8152602001807f4f6e6c7920746865206f776e65722063616e20726566696c6c2e00000000000081525060200191505060405180910390fd5b80600160003073ffffffffffffffffffffffffffffffffffffffff1673ffffffffffffffffffffffffffffffffffffffff1681526020019081526020016000206000828254019250508190555050565b60016020528060005260406000206000915090505481565b670de0b6b3a76400008102341015610303576040517f08c379a00000000000000000000000000000000000000000000000000000000081526004018080602001828103825260278152602001806104396027913960400191505060405180910390fd5b80600160003073ffffffffffffffffffffffffffffffffffffffff1673ffffffffffffffffffffffffffffffffffffffff16815260200190815260200160002054101561039b576040517f08c379a00000000000000000000000000000000000000000000000000000000081526004018080602001828103825260368152602001806104606036913960400191505060405180910390fd5b80600160003073ffffffffffffffffffffffffffffffffffffffff1673ffffffffffffffffffffffffffffffffffffffff1681526020019081526020016000206000828254039250508190555080600160003373ffffffffffffffffffffffffffffffffffffffff1673ffffffffffffffffffffffffffffffffffffffff168152602001908152602001600020600082825401925050819055505056fe596f75206d75737420706179206174206c65617374203120455448207065722063757063616b654e6f7420656e6f7567682063757063616b657320696e2073746f636b20746f20636f6d706c6574652074686973207075726368617365a26469706673582212206c74e21f77da796a7f7452e5091c3f6aeebc7c1fb8caecaa2812a55b1571c78764736f6c634300060c0033",
  "immutableReferences": {},
  "source": "// SPDX-License-Identifier: UNLICENSED\r\npragma solidity 0.6.12;\r\n\r\ncontract VendingMachine {\r\n\r\n    // Declare state variables of the contract\r\n    address public owner;\r\n    mapping (address => uint) public cupcakeBalances;\r\n\r\n    // When 'VendingMachine' contract is deployed:\r\n    // 1. set the deploying address as the owner of the contract\r\n    // 2. set the deployed smart contract's cupcake balance to 100\r\n    constructor() public {\r\n        owner = msg.sender;\r\n        cupcakeBalances[address(this)] = 100;\r\n    }\r\n\r\n    // Allow the owner to increase the smart contract's cupcake balance\r\n    function refill(uint amount) public {\r\n        require(msg.sender == owner, \"Only the owner can refill.\");\r\n        cupcakeBalances[address(this)] += amount;\r\n    }\r\n\r\n    // Allow anyone to purchase cupcakes\r\n    function purchase(uint amount) public payable {\r\n        require(msg.value >= amount * 1 ether, \"You must pay at least 1 ETH per cupcake\");\r\n        require(cupcakeBalances[address(this)] >= amount, \"Not enough cupcakes in stock to complete this purchase\");\r\n        cupcakeBalances[address(this)] -= amount;\r\n        cupcakeBalances[msg.sender] += amount;\r\n    }\r\n}",
  "sourcePath": "D:\\Posao-Stefan\\Stefan-razno\\Blockchain\\Thetaboard\\core-contracts\\contracts\\VendingMachine.sol",
  "compiler": {
    "name": "solc",
    "version": "0.6.12+commit.27d51765.Emscripten.clang"
  },
  "schemaVersion": "3.4.3",
  "updatedAt": "2021-09-05T23:27:12.127Z",
  "networkType": "ethereum",
  "devdoc": {
    "kind": "dev",
    "methods": {},
    "version": 1
  },
  "userdoc": {
    "kind": "user",
    "methods": {},
    "version": 1
  }
}