{
  "contractName": "VendingMachine",
  "abi": [
    {
      "inputs": [],
      "stateMutability": "nonpayable",
      "type": "constructor"
    },
    {
      "inputs": [
        {
          "internalType": "address",
          "name": "",
          "type": "address"
        }
      ],
      "name": "cupcakeBalances",
      "outputs": [
        {
          "internalType": "uint256",
          "name": "",
          "type": "uint256"
        }
      ],
      "stateMutability": "view",
      "type": "function"
    },
    {
      "inputs": [],
      "name": "owner",
      "outputs": [
        {
          "internalType": "address",
          "name": "",
          "type": "address"
        }
      ],
      "stateMutability": "view",
      "type": "function"
    },
    {
      "inputs": [
        {
          "internalType": "uint256",
          "name": "amount",
          "type": "uint256"
        }
      ],
      "name": "refill",
      "outputs": [],
      "stateMutability": "nonpayable",
      "type": "function"
    },
    {
      "inputs": [
        {
          "internalType": "uint256",
          "name": "amount",
          "type": "uint256"
        }
      ],
      "name": "purchase",
      "outputs": [],
      "stateMutability": "payable",
      "type": "function"
    }
  ],
  "bytecode": "0x608060405234801561001057600080fd5b50336000806101000a81548173ffffffffffffffffffffffffffffffffffffffff021916908373ffffffffffffffffffffffffffffffffffffffff1602179055506064600160003073ffffffffffffffffffffffffffffffffffffffff1673ffffffffffffffffffffffffffffffffffffffff168152602001908152602001600020819055506107bf806100a56000396000f3fe60806040526004361061003f5760003560e01c80638da5cb5b14610044578063ca9d07ba1461006f578063e18a7b9214610098578063efef39a1146100d5575b600080fd5b34801561005057600080fd5b506100596100f1565b604051610066919061049e565b60405180910390f35b34801561007b57600080fd5b50610096600480360381019061009191906103ee565b610115565b005b3480156100a457600080fd5b506100bf60048036038101906100ba91906103c5565b6101fc565b6040516100cc9190610519565b60405180910390f35b6100ef60048036038101906100ea91906103ee565b610214565b005b60008054906101000a900473ffffffffffffffffffffffffffffffffffffffff1681565b60008054906101000a900473ffffffffffffffffffffffffffffffffffffffff1673ffffffffffffffffffffffffffffffffffffffff163373ffffffffffffffffffffffffffffffffffffffff16146101a3576040517f08c379a000000000000000000000000000000000000000000000000000000000815260040161019a906104f9565b60405180910390fd5b80600160003073ffffffffffffffffffffffffffffffffffffffff1673ffffffffffffffffffffffffffffffffffffffff16815260200190815260200160002060008282546101f29190610545565b9250508190555050565b60016020528060005260406000206000915090505481565b670de0b6b3a764000081610228919061059b565b34101561026a576040517f08c379a0000000000000000000000000000000000000000000000000000000008152600401610261906104b9565b60405180910390fd5b80600160003073ffffffffffffffffffffffffffffffffffffffff1673ffffffffffffffffffffffffffffffffffffffff1681526020019081526020016000205410156102ec576040517f08c379a00000000000000000000000000000000000000000000000000000000081526004016102e3906104d9565b60405180910390fd5b80600160003073ffffffffffffffffffffffffffffffffffffffff1673ffffffffffffffffffffffffffffffffffffffff168152602001908152602001600020600082825461033b91906105f5565b9250508190555080600160003373ffffffffffffffffffffffffffffffffffffffff1673ffffffffffffffffffffffffffffffffffffffff16815260200190815260200160002060008282546103919190610545565b9250508190555050565b6000813590506103aa8161075b565b92915050565b6000813590506103bf81610772565b92915050565b6000602082840312156103d757600080fd5b60006103e58482850161039b565b91505092915050565b60006020828403121561040057600080fd5b600061040e848285016103b0565b91505092915050565b61042081610629565b82525050565b6000610433602783610534565b915061043e82610694565b604082019050919050565b6000610456603683610534565b9150610461826106e3565b604082019050919050565b6000610479601a83610534565b915061048482610732565b602082019050919050565b6104988161065b565b82525050565b60006020820190506104b36000830184610417565b92915050565b600060208201905081810360008301526104d281610426565b9050919050565b600060208201905081810360008301526104f281610449565b9050919050565b600060208201905081810360008301526105128161046c565b9050919050565b600060208201905061052e600083018461048f565b92915050565b600082825260208201905092915050565b60006105508261065b565b915061055b8361065b565b9250827fffffffffffffffffffffffffffffffffffffffffffffffffffffffffffffffff038211156105905761058f610665565b5b828201905092915050565b60006105a68261065b565b91506105b18361065b565b9250817fffffffffffffffffffffffffffffffffffffffffffffffffffffffffffffffff04831182151516156105ea576105e9610665565b5b828202905092915050565b60006106008261065b565b915061060b8361065b565b92508282101561061e5761061d610665565b5b828203905092915050565b60006106348261063b565b9050919050565b600073ffffffffffffffffffffffffffffffffffffffff82169050919050565b6000819050919050565b7f4e487b7100000000000000000000000000000000000000000000000000000000600052601160045260246000fd5b7f596f75206d75737420706179206174206c65617374203120455448207065722060008201527f63757063616b6500000000000000000000000000000000000000000000000000602082015250565b7f4e6f7420656e6f7567682063757063616b657320696e2073746f636b20746f2060008201527f636f6d706c657465207468697320707572636861736500000000000000000000602082015250565b7f4f6e6c7920746865206f776e65722063616e20726566696c6c2e000000000000600082015250565b61076481610629565b811461076f57600080fd5b50565b61077b8161065b565b811461078657600080fd5b5056fea26469706673582212205199cc14e0468d71a32f52949f112313955dc0f30580c77836fe074f98b0667064736f6c63430008040033",
  "immutableReferences": {},
  "source": "// SPDX-License-Identifier: UNLICENSED\r\npragma solidity ^0.8.4;\r\n\r\ncontract VendingMachine {\r\n\r\n    // Declare state variables of the contract\r\n    address public owner;\r\n    mapping (address => uint) public cupcakeBalances;\r\n\r\n    // When 'VendingMachine' contract is deployed:\r\n    // 1. set the deploying address as the owner of the contract\r\n    // 2. set the deployed smart contract's cupcake balance to 100\r\n    constructor() public {\r\n        owner = msg.sender;\r\n        cupcakeBalances[address(this)] = 100;\r\n    }\r\n\r\n    // Allow the owner to increase the smart contract's cupcake balance\r\n    function refill(uint amount) public {\r\n        require(msg.sender == owner, \"Only the owner can refill.\");\r\n        cupcakeBalances[address(this)] += amount;\r\n    }\r\n\r\n    // Allow anyone to purchase cupcakes\r\n    function purchase(uint amount) public payable {\r\n        require(msg.value >= amount * 1 ether, \"You must pay at least 1 ETH per cupcake\");\r\n        require(cupcakeBalances[address(this)] >= amount, \"Not enough cupcakes in stock to complete this purchase\");\r\n        cupcakeBalances[address(this)] -= amount;\r\n        cupcakeBalances[msg.sender] += amount;\r\n    }\r\n}",
  "sourcePath": "D:\\Posao-Stefan\\Stefan-razno\\Blockchain\\Thetaboard\\core-contracts\\contracts\\VendingMachine.sol",
  "compiler": {
    "name": "solc",
    "version": "0.8.4+commit.c7e474f2.Emscripten.clang"
  },
  "schemaVersion": "3.4.3",
  "updatedAt": "2021-09-08T10:18:29.632Z",
  "devdoc": {
    "kind": "dev",
    "methods": {},
    "version": 1
  },
  "userdoc": {
    "kind": "user",
    "methods": {},
    "version": 1
  }
}